{
  "contractName": "ChallengeToken",
  "abi": [
    {
      "inputs": [],
      "stateMutability": "nonpayable",
      "type": "constructor"
    },
    {
      "anonymous": false,
      "inputs": [
        {
          "indexed": true,
          "internalType": "address",
          "name": "account",
          "type": "address"
        },
        {
          "indexed": true,
          "internalType": "address",
          "name": "operator",
          "type": "address"
        },
        {
          "indexed": false,
          "internalType": "bool",
          "name": "approved",
          "type": "bool"
        }
      ],
      "name": "ApprovalForAll",
      "type": "event"
    },
    {
      "anonymous": false,
      "inputs": [
        {
          "indexed": false,
          "internalType": "address[]",
          "name": "players",
          "type": "address[]"
        },
        {
          "indexed": false,
          "internalType": "string",
          "name": "_name",
          "type": "string"
        },
        {
          "indexed": false,
          "internalType": "uint256",
          "name": "_id",
          "type": "uint256"
        },
        {
          "indexed": false,
          "internalType": "bytes",
          "name": "mint_data",
          "type": "bytes"
        },
        {
          "indexed": false,
          "internalType": "uint256",
          "name": "status",
          "type": "uint256"
        }
      ],
      "name": "ManifestedChallengeToken",
      "type": "event"
    },
    {
      "anonymous": false,
      "inputs": [
        {
          "indexed": true,
          "internalType": "address",
          "name": "previousOwner",
          "type": "address"
        },
        {
          "indexed": true,
          "internalType": "address",
          "name": "newOwner",
          "type": "address"
        }
      ],
      "name": "OwnershipTransferred",
      "type": "event"
    },
    {
      "anonymous": false,
      "inputs": [
        {
          "indexed": true,
          "internalType": "address",
          "name": "operator",
          "type": "address"
        },
        {
          "indexed": true,
          "internalType": "address",
          "name": "from",
          "type": "address"
        },
        {
          "indexed": true,
          "internalType": "address",
          "name": "to",
          "type": "address"
        },
        {
          "indexed": false,
          "internalType": "uint256[]",
          "name": "ids",
          "type": "uint256[]"
        },
        {
          "indexed": false,
          "internalType": "uint256[]",
          "name": "values",
          "type": "uint256[]"
        }
      ],
      "name": "TransferBatch",
      "type": "event"
    },
    {
      "anonymous": false,
      "inputs": [
        {
          "indexed": true,
          "internalType": "address",
          "name": "operator",
          "type": "address"
        },
        {
          "indexed": true,
          "internalType": "address",
          "name": "from",
          "type": "address"
        },
        {
          "indexed": true,
          "internalType": "address",
          "name": "to",
          "type": "address"
        },
        {
          "indexed": false,
          "internalType": "uint256",
          "name": "id",
          "type": "uint256"
        },
        {
          "indexed": false,
          "internalType": "uint256",
          "name": "value",
          "type": "uint256"
        }
      ],
      "name": "TransferSingle",
      "type": "event"
    },
    {
      "anonymous": false,
      "inputs": [
        {
          "indexed": false,
          "internalType": "string",
          "name": "value",
          "type": "string"
        },
        {
          "indexed": true,
          "internalType": "uint256",
          "name": "id",
          "type": "uint256"
        }
      ],
      "name": "URI",
      "type": "event"
    },
    {
      "inputs": [],
      "name": "CT_X_Address",
      "outputs": [
        {
          "internalType": "address payable",
          "name": "",
          "type": "address"
        }
      ],
      "stateMutability": "view",
      "type": "function",
      "constant": true
    },
    {
      "inputs": [],
      "name": "OA",
      "outputs": [
        {
          "internalType": "address payable",
          "name": "",
          "type": "address"
        }
      ],
      "stateMutability": "view",
      "type": "function",
      "constant": true
    },
    {
      "inputs": [
        {
          "internalType": "uint256",
          "name": "",
          "type": "uint256"
        },
        {
          "internalType": "address",
          "name": "",
          "type": "address"
        }
      ],
      "name": "Token_Player_Duo_Map",
      "outputs": [
        {
          "internalType": "string",
          "name": "",
          "type": "string"
        }
      ],
      "stateMutability": "view",
      "type": "function",
      "constant": true
    },
    {
      "inputs": [
        {
          "internalType": "uint256",
          "name": "",
          "type": "uint256"
        },
        {
          "internalType": "address",
          "name": "",
          "type": "address"
        }
      ],
      "name": "Token_Player_Email_Map",
      "outputs": [
        {
          "internalType": "string",
          "name": "",
          "type": "string"
        }
      ],
      "stateMutability": "view",
      "type": "function",
      "constant": true
    },
    {
      "inputs": [
        {
          "internalType": "address",
          "name": "account",
          "type": "address"
        },
        {
          "internalType": "uint256",
          "name": "id",
          "type": "uint256"
        }
      ],
      "name": "balanceOf",
      "outputs": [
        {
          "internalType": "uint256",
          "name": "",
          "type": "uint256"
        }
      ],
      "stateMutability": "view",
      "type": "function",
      "constant": true
    },
    {
      "inputs": [
        {
          "internalType": "address[]",
          "name": "accounts",
          "type": "address[]"
        },
        {
          "internalType": "uint256[]",
          "name": "ids",
          "type": "uint256[]"
        }
      ],
      "name": "balanceOfBatch",
      "outputs": [
        {
          "internalType": "uint256[]",
          "name": "",
          "type": "uint256[]"
        }
      ],
      "stateMutability": "view",
      "type": "function",
      "constant": true
    },
    {
      "inputs": [
        {
          "internalType": "uint256",
          "name": "",
          "type": "uint256"
        }
      ],
      "name": "challenges",
      "outputs": [
        {
          "internalType": "string",
          "name": "name",
          "type": "string"
        },
        {
          "internalType": "uint256",
          "name": "id",
          "type": "uint256"
        },
        {
          "internalType": "bytes",
          "name": "mint_data",
          "type": "bytes"
        },
        {
          "internalType": "uint256",
          "name": "status",
          "type": "uint256"
        }
      ],
      "stateMutability": "view",
      "type": "function",
      "constant": true
    },
    {
      "inputs": [
        {
          "internalType": "address",
          "name": "account",
          "type": "address"
        },
        {
          "internalType": "address",
          "name": "operator",
          "type": "address"
        }
      ],
      "name": "isApprovedForAll",
      "outputs": [
        {
          "internalType": "bool",
          "name": "",
          "type": "bool"
        }
      ],
      "stateMutability": "view",
      "type": "function",
      "constant": true
    },
    {
      "inputs": [
        {
          "internalType": "uint256",
          "name": "",
          "type": "uint256"
        }
      ],
      "name": "is_on_manifest",
      "outputs": [
        {
          "internalType": "bool",
          "name": "",
          "type": "bool"
        }
      ],
      "stateMutability": "view",
      "type": "function",
      "constant": true
    },
    {
      "inputs": [
        {
          "internalType": "uint256",
          "name": "",
          "type": "uint256"
        }
      ],
      "name": "map_id_to_Challenge",
      "outputs": [
        {
          "internalType": "string",
          "name": "name",
          "type": "string"
        },
        {
          "internalType": "uint256",
          "name": "id",
          "type": "uint256"
        },
        {
          "internalType": "bytes",
          "name": "mint_data",
          "type": "bytes"
        },
        {
          "internalType": "uint256",
          "name": "status",
          "type": "uint256"
        }
      ],
      "stateMutability": "view",
      "type": "function",
      "constant": true
    },
    {
      "inputs": [
        {
          "internalType": "address",
          "name": "",
          "type": "address"
        }
      ],
      "name": "map_initiator_to_id",
      "outputs": [
        {
          "internalType": "uint256",
          "name": "",
          "type": "uint256"
        }
      ],
      "stateMutability": "view",
      "type": "function",
      "constant": true
    },
    {
      "inputs": [],
      "name": "owner",
      "outputs": [
        {
          "internalType": "address",
          "name": "",
          "type": "address"
        }
      ],
      "stateMutability": "view",
      "type": "function",
      "constant": true
    },
    {
      "inputs": [],
      "name": "renounceOwnership",
      "outputs": [],
      "stateMutability": "nonpayable",
      "type": "function"
    },
    {
      "inputs": [
        {
          "internalType": "address",
          "name": "from",
          "type": "address"
        },
        {
          "internalType": "address",
          "name": "to",
          "type": "address"
        },
        {
          "internalType": "uint256[]",
          "name": "ids",
          "type": "uint256[]"
        },
        {
          "internalType": "uint256[]",
          "name": "amounts",
          "type": "uint256[]"
        },
        {
          "internalType": "bytes",
          "name": "data",
          "type": "bytes"
        }
      ],
      "name": "safeBatchTransferFrom",
      "outputs": [],
      "stateMutability": "nonpayable",
      "type": "function"
    },
    {
      "inputs": [
        {
          "internalType": "address",
          "name": "from",
          "type": "address"
        },
        {
          "internalType": "address",
          "name": "to",
          "type": "address"
        },
        {
          "internalType": "uint256",
          "name": "id",
          "type": "uint256"
        },
        {
          "internalType": "uint256",
          "name": "amount",
          "type": "uint256"
        },
        {
          "internalType": "bytes",
          "name": "data",
          "type": "bytes"
        }
      ],
      "name": "safeTransferFrom",
      "outputs": [],
      "stateMutability": "nonpayable",
      "type": "function"
    },
    {
      "inputs": [
        {
          "internalType": "address",
          "name": "operator",
          "type": "address"
        },
        {
          "internalType": "bool",
          "name": "approved",
          "type": "bool"
        }
      ],
      "name": "setApprovalForAll",
      "outputs": [],
      "stateMutability": "nonpayable",
      "type": "function"
    },
    {
      "inputs": [
        {
          "internalType": "bytes4",
          "name": "interfaceId",
          "type": "bytes4"
        }
      ],
      "name": "supportsInterface",
      "outputs": [
        {
          "internalType": "bool",
          "name": "",
          "type": "bool"
        }
      ],
      "stateMutability": "view",
      "type": "function",
      "constant": true
    },
    {
      "inputs": [
        {
          "internalType": "address",
          "name": "newOwner",
          "type": "address"
        }
      ],
      "name": "transferOwnership",
      "outputs": [],
      "stateMutability": "nonpayable",
      "type": "function"
    },
    {
      "inputs": [
        {
          "internalType": "uint256",
          "name": "",
          "type": "uint256"
        }
      ],
      "name": "uri",
      "outputs": [
        {
          "internalType": "string",
          "name": "",
          "type": "string"
        }
      ],
      "stateMutability": "view",
      "type": "function",
      "constant": true
    },
    {
      "inputs": [
        {
          "internalType": "address[]",
          "name": "_player_list",
          "type": "address[]"
        },
        {
          "internalType": "string",
          "name": "_name",
          "type": "string"
        },
        {
          "internalType": "uint256",
          "name": "_num_to_issue",
          "type": "uint256"
        },
        {
          "internalType": "string",
          "name": "_mint_date",
          "type": "string"
        },
        {
          "internalType": "string",
          "name": "_type",
          "type": "string"
        },
        {
          "internalType": "uint256",
          "name": "_streak_days",
          "type": "uint256"
        },
        {
          "internalType": "uint256",
          "name": "_stake_amount",
          "type": "uint256"
        }
      ],
      "name": "tokenGenesis",
      "outputs": [
        {
          "internalType": "uint256",
          "name": "",
          "type": "uint256"
        }
      ],
      "stateMutability": "nonpayable",
      "type": "function"
    },
    {
      "inputs": [],
      "name": "getChallenges",
      "outputs": [
        {
          "components": [
            {
              "internalType": "address[]",
              "name": "players",
              "type": "address[]"
            },
            {
              "internalType": "string",
              "name": "name",
              "type": "string"
            },
            {
              "internalType": "uint256",
              "name": "id",
              "type": "uint256"
            },
            {
              "internalType": "bytes",
              "name": "mint_data",
              "type": "bytes"
            },
            {
              "internalType": "uint256",
              "name": "status",
              "type": "uint256"
            }
          ],
          "internalType": "struct Challenges.Challenge[]",
          "name": "",
          "type": "tuple[]"
        }
      ],
      "stateMutability": "view",
      "type": "function",
      "constant": true
    },
    {
      "inputs": [],
      "name": "getChallengeTokensLength",
      "outputs": [
        {
          "internalType": "uint256",
          "name": "",
          "type": "uint256"
        }
      ],
      "stateMutability": "view",
      "type": "function",
      "constant": true
    },
    {
      "inputs": [
        {
          "internalType": "uint256",
          "name": "_id",
          "type": "uint256"
        },
        {
          "internalType": "address[]",
          "name": "_player_ethAddr_list",
          "type": "address[]"
        },
        {
          "internalType": "string[]",
          "name": "_player_email_list",
          "type": "string[]"
        }
      ],
      "name": "update_Token_Player_Email_Map",
      "outputs": [],
      "stateMutability": "nonpayable",
      "type": "function"
    },
    {
      "inputs": [
        {
          "internalType": "uint256",
          "name": "_id",
          "type": "uint256"
        },
        {
          "internalType": "address[]",
          "name": "_player_ethAddr_list",
          "type": "address[]"
        },
        {
          "internalType": "string[]",
          "name": "_player_duo_list",
          "type": "string[]"
        }
      ],
      "name": "update_Token_Player_Duo_Map",
      "outputs": [],
      "stateMutability": "nonpayable",
      "type": "function"
    },
    {
      "inputs": [
        {
          "internalType": "uint256",
          "name": "_id",
          "type": "uint256"
        },
        {
          "internalType": "address",
          "name": "_ethAddr",
          "type": "address"
        }
      ],
      "name": "fetch_Email_By_Id_And_EthAddr",
      "outputs": [
        {
          "internalType": "string",
          "name": "",
          "type": "string"
        }
      ],
      "stateMutability": "view",
      "type": "function",
      "constant": true
    },
    {
      "inputs": [
        {
          "internalType": "uint256",
          "name": "_id",
          "type": "uint256"
        },
        {
          "internalType": "address",
          "name": "_ethAddr",
          "type": "address"
        }
      ],
      "name": "fetch_Duo_Info_By_Id_And_EthAddr",
      "outputs": [
        {
          "internalType": "string",
          "name": "",
          "type": "string"
        }
      ],
      "stateMutability": "view",
      "type": "function",
      "constant": true
    }
  ],
  "bytecode": "0x608060405233600760006101000a81548173ffffffffffffffffffffffffffffffffffffffff021916908373ffffffffffffffffffffffffffffffffffffffff1602179055503480156200005257600080fd5b506040518060600160405280603d815260200162004c0c603d91396200007e81620000a560201b60201c565b506200009f62000093620000c160201b60201c565b620000c960201b60201c565b620002a4565b8060029080519060200190620000bd9291906200018f565b5050565b600033905090565b6000600360009054906101000a900473ffffffffffffffffffffffffffffffffffffffff16905081600360006101000a81548173ffffffffffffffffffffffffffffffffffffffff021916908373ffffffffffffffffffffffffffffffffffffffff1602179055508173ffffffffffffffffffffffffffffffffffffffff168173ffffffffffffffffffffffffffffffffffffffff167f8be0079c531659141344cd1fd0a4f28419497f9722a3daafe3b4186f6b6457e060405160405180910390a35050565b8280546200019d906200023f565b90600052602060002090601f016020900481019282620001c157600085556200020d565b82601f10620001dc57805160ff19168380011785556200020d565b828001600101855582156200020d579182015b828111156200020c578251825591602001919060010190620001ef565b5b5090506200021c919062000220565b5090565b5b808211156200023b57600081600090555060010162000221565b5090565b600060028204905060018216806200025857607f821691505b602082108114156200026f576200026e62000275565b5b50919050565b7f4e487b7100000000000000000000000000000000000000000000000000000000600052602260045260246000fd5b61495880620002b46000396000f3fe608060405234801561001057600080fd5b506004361061018d5760003560e01c8063667e5971116100de578063a22cb46511610097578063e737fc3111610071578063e737fc31146104fa578063e985e9c514610518578063f242432a14610548578063f2fde38b146105645761018d565b8063a22cb46514610490578063c87bc926146104ac578063caae5f94146104dc5761018d565b8063667e5971146103b9578063715018a6146103e9578063742e42d8146103f35780638da5cb5b146104235780638f1d3776146104415780639e809542146104745761018d565b80632eb2c2d61161014b5780634b8ae8cd116101255780634b8ae8cd1461030d5780634e1273f41461033d5780636019e2c81461036d57806361ad3b8c1461039d5761018d565b80632eb2c2d6146102b557806337015ff8146102d157806346c7c126146102ef5761018d565b8062fdd58e1461019257806301ffc9a7146101c25780630a97b44a146101f25780630e89341c1461022257806314c37109146102525780631efa420a14610285575b600080fd5b6101ac60048036038101906101a79190613219565b610580565b6040516101b991906142be565b60405180910390f35b6101dc60048036038101906101d791906133bf565b610649565b6040516101e9919061401b565b60405180910390f35b61020c600480360381019061020791906132c1565b61072b565b60405161021991906142be565b60405180910390f35b61023c60048036038101906102379190613411565b610b66565b6040516102499190614036565b60405180910390f35b61026c60048036038101906102679190613411565b610bfa565b60405161027c94939291906140ab565b60405180910390f35b61029f600480360381019061029a919061343a565b610d3a565b6040516102ac9190614036565b60405180910390f35b6102cf60048036038101906102ca919061308f565b610e1d565b005b6102d9610ebe565b6040516102e69190613e5b565b60405180910390f35b6102f7610ee4565b6040516103049190613fa0565b60405180910390f35b61032760048036038101906103229190613411565b611202565b604051610334919061401b565b60405180910390f35b61035760048036038101906103529190613255565b611222565b6040516103649190613fc2565b60405180910390f35b6103876004803603810190610382919061343a565b6113d3565b6040516103949190614036565b60405180910390f35b6103b760048036038101906103b29190613476565b6114b6565b005b6103d360048036038101906103ce919061302a565b6115c6565b6040516103e091906142be565b60405180910390f35b6103f16115de565b005b61040d6004803603810190610408919061343a565b611666565b60405161041a9190614036565b60405180910390f35b61042b611713565b6040516104389190613e40565b60405180910390f35b61045b60048036038101906104569190613411565b61173d565b60405161046b94939291906140ab565b60405180910390f35b61048e60048036038101906104899190613476565b61188d565b005b6104aa60048036038101906104a591906131dd565b61199d565b005b6104c660048036038101906104c1919061343a565b611b1e565b6040516104d39190614036565b60405180910390f35b6104e4611bcb565b6040516104f19190613e5b565b60405180910390f35b610502611bf1565b60405161050f91906142be565b60405180910390f35b610532600480360381019061052d9190613053565b611bfe565b60405161053f919061401b565b60405180910390f35b610562600480360381019061055d919061314e565b611c92565b005b61057e6004803603810190610579919061302a565b611d33565b005b60008073ffffffffffffffffffffffffffffffffffffffff168373ffffffffffffffffffffffffffffffffffffffff1614156105f1576040517f08c379a00000000000000000000000000000000000000000000000000000000081526004016105e89061415e565b60405180910390fd5b60008083815260200190815260200160002060008473ffffffffffffffffffffffffffffffffffffffff1673ffffffffffffffffffffffffffffffffffffffff16815260200190815260200160002054905092915050565b60007fd9b67a26000000000000000000000000000000000000000000000000000000007bffffffffffffffffffffffffffffffffffffffffffffffffffffffff1916827bffffffffffffffffffffffffffffffffffffffffffffffffffffffff1916148061071457507f0e89341c000000000000000000000000000000000000000000000000000000007bffffffffffffffffffffffffffffffffffffffffffffffffffffffff1916827bffffffffffffffffffffffffffffffffffffffffffffffffffffffff1916145b80610724575061072382611e2b565b5b9050919050565b600080662386f26fc10000905060008860405160200161074b9190613e29565b6040516020818303038152906040528051906020012060001c9050600082826107749190614705565b90506004600082815260200190815260200160002060009054906101000a900460ff16156107d7576040517f08c379a00000000000000000000000000000000000000000000000000000000081526004016107ce9061413e565b60405180910390fd5b6107df612b5c565b8b81600001819052508a8160200181905250818160400181815250506000898989896040516020016108149493929190614058565b60405160208183030381529060405290508082606001819052506000826080018181525050600b8290806001815401808255809150506001900390600052602060002090600502016000909190919091506000820151816000019080519060200190610881929190612b8b565b50602082015181600101908051906020019061089e929190612c15565b506040820151816002015560608201518160030190805190602001906108c5929190612c9b565b5060808201518160040155505082600560003373ffffffffffffffffffffffffffffffffffffffff1673ffffffffffffffffffffffffffffffffffffffff1681526020019081526020016000208190555081600660008581526020019081526020016000206000820151816000019080519060200190610946929190612b8b565b506020820151816001019080519060200190610963929190612c15565b5060408201518160020155606082015181600301908051906020019061098a929190612c9b565b506080820151816004015590505060016004600085815260200190815260200160002060006101000a81548160ff0219169083151502179055506109d033848d84611e95565b60005b8d518111610aff578d8181518110610a14577f4e487b7100000000000000000000000000000000000000000000000000000000600052603260045260246000fd5b602002602001015173ffffffffffffffffffffffffffffffffffffffff163373ffffffffffffffffffffffffffffffffffffffff1614610aec57610a998e8281518110610a8a577f4e487b7100000000000000000000000000000000000000000000000000000000600052603260045260246000fd5b6020026020010151600161199d565b610ae7338f8381518110610ad6577f4e487b7100000000000000000000000000000000000000000000000000000000600052603260045260246000fd5b602002602001015186600186611c92565b610aff565b8080610af7906146bc565b9150506109d3565b507fe29c18031b6de6db6306e62e047b5b30b97493327d40a257cec66832d9edc2a082600001518360200151846040015185606001518660800151604051610b4b959493929190613f38565b60405180910390a18295505050505050979650505050505050565b606060028054610b759061468a565b80601f0160208091040260200160405190810160405280929190818152602001828054610ba19061468a565b8015610bee5780601f10610bc357610100808354040283529160200191610bee565b820191906000526020600020905b815481529060010190602001808311610bd157829003601f168201915b50505050509050919050565b6006602052806000526040600020600091509050806001018054610c1d9061468a565b80601f0160208091040260200160405190810160405280929190818152602001828054610c499061468a565b8015610c965780601f10610c6b57610100808354040283529160200191610c96565b820191906000526020600020905b815481529060010190602001808311610c7957829003601f168201915b505050505090806002015490806003018054610cb19061468a565b80601f0160208091040260200160405190810160405280929190818152602001828054610cdd9061468a565b8015610d2a5780601f10610cff57610100808354040283529160200191610d2a565b820191906000526020600020905b815481529060010190602001808311610d0d57829003601f168201915b5050505050908060040154905084565b6060600a600084815260200190815260200160002060008373ffffffffffffffffffffffffffffffffffffffff1673ffffffffffffffffffffffffffffffffffffffff1681526020019081526020016000208054610d979061468a565b80601f0160208091040260200160405190810160405280929190818152602001828054610dc39061468a565b8015610e105780601f10610de557610100808354040283529160200191610e10565b820191906000526020600020905b815481529060010190602001808311610df357829003601f168201915b5050505050905092915050565b610e2561202b565b73ffffffffffffffffffffffffffffffffffffffff168573ffffffffffffffffffffffffffffffffffffffff161480610e6b5750610e6a85610e6561202b565b611bfe565b5b610eaa576040517f08c379a0000000000000000000000000000000000000000000000000000000008152600401610ea1906141de565b60405180910390fd5b610eb78585858585612033565b5050505050565b600860009054906101000a900473ffffffffffffffffffffffffffffffffffffffff1681565b60606000600b8054905067ffffffffffffffff811115610f2d577f4e487b7100000000000000000000000000000000000000000000000000000000600052604160045260246000fd5b604051908082528060200260200182016040528015610f6657816020015b610f53612b5c565b815260200190600190039081610f4b5790505b50905060005b6001600b80549050610f7e919061458e565b81116111fa576000600b8281548110610fc0577f4e487b7100000000000000000000000000000000000000000000000000000000600052603260045260246000fd5b90600052602060002090600502019050806040518060a00160405290816000820180548060200260200160405190810160405280929190818152602001828054801561106157602002820191906000526020600020905b8160009054906101000a900473ffffffffffffffffffffffffffffffffffffffff1673ffffffffffffffffffffffffffffffffffffffff1681526020019060010190808311611017575b5050505050815260200160018201805461107a9061468a565b80601f01602080910402602001604051908101604052809291908181526020018280546110a69061468a565b80156110f35780601f106110c8576101008083540402835291602001916110f3565b820191906000526020600020905b8154815290600101906020018083116110d657829003601f168201915b50505050508152602001600282015481526020016003820180546111169061468a565b80601f01602080910402602001604051908101604052809291908181526020018280546111429061468a565b801561118f5780601f106111645761010080835404028352916020019161118f565b820191906000526020600020905b81548152906001019060200180831161117257829003601f168201915b505050505081526020016004820154815250508383815181106111db577f4e487b7100000000000000000000000000000000000000000000000000000000600052603260045260246000fd5b60200260200101819052505080806111f2906146bc565b915050610f6c565b508091505090565b60046020528060005260406000206000915054906101000a900460ff1681565b60608151835114611268576040517f08c379a000000000000000000000000000000000000000000000000000000000815260040161125f9061425e565b60405180910390fd5b6000835167ffffffffffffffff8111156112ab577f4e487b7100000000000000000000000000000000000000000000000000000000600052604160045260246000fd5b6040519080825280602002602001820160405280156112d95781602001602082028036833780820191505090505b50905060005b84518110156113c857611372858281518110611324577f4e487b7100000000000000000000000000000000000000000000000000000000600052603260045260246000fd5b6020026020010151858381518110611365577f4e487b7100000000000000000000000000000000000000000000000000000000600052603260045260246000fd5b6020026020010151610580565b8282815181106113ab577f4e487b7100000000000000000000000000000000000000000000000000000000600052603260045260246000fd5b602002602001018181525050806113c1906146bc565b90506112df565b508091505092915050565b60606009600084815260200190815260200160002060008373ffffffffffffffffffffffffffffffffffffffff1673ffffffffffffffffffffffffffffffffffffffff16815260200190815260200160002080546114309061468a565b80601f016020809104026020016040519081016040528092919081815260200182805461145c9061468a565b80156114a95780601f1061147e576101008083540402835291602001916114a9565b820191906000526020600020905b81548152906001019060200180831161148c57829003601f168201915b5050505050905092915050565b60005b82518110156115c05760008382815181106114fd577f4e487b7100000000000000000000000000000000000000000000000000000000600052603260045260246000fd5b60200260200101519050828281518110611540577f4e487b7100000000000000000000000000000000000000000000000000000000600052603260045260246000fd5b6020026020010151600a600087815260200190815260200160002060008373ffffffffffffffffffffffffffffffffffffffff1673ffffffffffffffffffffffffffffffffffffffff16815260200190815260200160002090805190602001906115ab929190612c15565b505080806115b8906146bc565b9150506114b9565b50505050565b60056020528060005260406000206000915090505481565b6115e661202b565b73ffffffffffffffffffffffffffffffffffffffff16611604611713565b73ffffffffffffffffffffffffffffffffffffffff161461165a576040517f08c379a00000000000000000000000000000000000000000000000000000000081526004016116519061421e565b60405180910390fd5b6116646000612393565b565b60096020528160005260406000206020528060005260406000206000915091505080546116929061468a565b80601f01602080910402602001604051908101604052809291908181526020018280546116be9061468a565b801561170b5780601f106116e05761010080835404028352916020019161170b565b820191906000526020600020905b8154815290600101906020018083116116ee57829003601f168201915b505050505081565b6000600360009054906101000a900473ffffffffffffffffffffffffffffffffffffffff16905090565b600b818154811061174d57600080fd5b90600052602060002090600502016000915090508060010180546117709061468a565b80601f016020809104026020016040519081016040528092919081815260200182805461179c9061468a565b80156117e95780601f106117be576101008083540402835291602001916117e9565b820191906000526020600020905b8154815290600101906020018083116117cc57829003601f168201915b5050505050908060020154908060030180546118049061468a565b80601f01602080910402602001604051908101604052809291908181526020018280546118309061468a565b801561187d5780601f106118525761010080835404028352916020019161187d565b820191906000526020600020905b81548152906001019060200180831161186057829003601f168201915b5050505050908060040154905084565b60005b82518110156119975760008382815181106118d4577f4e487b7100000000000000000000000000000000000000000000000000000000600052603260045260246000fd5b60200260200101519050828281518110611917577f4e487b7100000000000000000000000000000000000000000000000000000000600052603260045260246000fd5b60200260200101516009600087815260200190815260200160002060008373ffffffffffffffffffffffffffffffffffffffff1673ffffffffffffffffffffffffffffffffffffffff1681526020019081526020016000209080519060200190611982929190612c15565b5050808061198f906146bc565b915050611890565b50505050565b8173ffffffffffffffffffffffffffffffffffffffff166119bc61202b565b73ffffffffffffffffffffffffffffffffffffffff161415611a13576040517f08c379a0000000000000000000000000000000000000000000000000000000008152600401611a0a9061423e565b60405180910390fd5b8060016000611a2061202b565b73ffffffffffffffffffffffffffffffffffffffff1673ffffffffffffffffffffffffffffffffffffffff16815260200190815260200160002060008473ffffffffffffffffffffffffffffffffffffffff1673ffffffffffffffffffffffffffffffffffffffff16815260200190815260200160002060006101000a81548160ff0219169083151502179055508173ffffffffffffffffffffffffffffffffffffffff16611acd61202b565b73ffffffffffffffffffffffffffffffffffffffff167f17307eab39ab6107e8899845ad3d59bd9653f200f220920489ca2b5937696c3183604051611b12919061401b565b60405180910390a35050565b600a602052816000526040600020602052806000526040600020600091509150508054611b4a9061468a565b80601f0160208091040260200160405190810160405280929190818152602001828054611b769061468a565b8015611bc35780601f10611b9857610100808354040283529160200191611bc3565b820191906000526020600020905b815481529060010190602001808311611ba657829003601f168201915b505050505081565b600760009054906101000a900473ffffffffffffffffffffffffffffffffffffffff1681565b6000600b80549050905090565b6000600160008473ffffffffffffffffffffffffffffffffffffffff1673ffffffffffffffffffffffffffffffffffffffff16815260200190815260200160002060008373ffffffffffffffffffffffffffffffffffffffff1673ffffffffffffffffffffffffffffffffffffffff16815260200190815260200160002060009054906101000a900460ff16905092915050565b611c9a61202b565b73ffffffffffffffffffffffffffffffffffffffff168573ffffffffffffffffffffffffffffffffffffffff161480611ce05750611cdf85611cda61202b565b611bfe565b5b611d1f576040517f08c379a0000000000000000000000000000000000000000000000000000000008152600401611d169061419e565b60405180910390fd5b611d2c8585858585612459565b5050505050565b611d3b61202b565b73ffffffffffffffffffffffffffffffffffffffff16611d59611713565b73ffffffffffffffffffffffffffffffffffffffff1614611daf576040517f08c379a0000000000000000000000000000000000000000000000000000000008152600401611da69061421e565b60405180910390fd5b600073ffffffffffffffffffffffffffffffffffffffff168173ffffffffffffffffffffffffffffffffffffffff161415611e1f576040517f08c379a0000000000000000000000000000000000000000000000000000000008152600401611e169061417e565b60405180910390fd5b611e2881612393565b50565b60007f01ffc9a7000000000000000000000000000000000000000000000000000000007bffffffffffffffffffffffffffffffffffffffffffffffffffffffff1916827bffffffffffffffffffffffffffffffffffffffffffffffffffffffff1916149050919050565b600073ffffffffffffffffffffffffffffffffffffffff168473ffffffffffffffffffffffffffffffffffffffff161415611f05576040517f08c379a0000000000000000000000000000000000000000000000000000000008152600401611efc9061429e565b60405180910390fd5b6000611f0f61202b565b9050611f3081600087611f21886126db565b611f2a886126db565b876127a1565b8260008086815260200190815260200160002060008773ffffffffffffffffffffffffffffffffffffffff1673ffffffffffffffffffffffffffffffffffffffff1681526020019081526020016000206000828254611f8f9190614538565b925050819055508473ffffffffffffffffffffffffffffffffffffffff16600073ffffffffffffffffffffffffffffffffffffffff168273ffffffffffffffffffffffffffffffffffffffff167fc3d58168c5ae7397731d063d5bbf3d657854427343f4c083240f7aacaa2d0f62878760405161200d9291906142d9565b60405180910390a4612024816000878787876127a9565b5050505050565b600033905090565b8151835114612077576040517f08c379a000000000000000000000000000000000000000000000000000000000815260040161206e9061427e565b60405180910390fd5b600073ffffffffffffffffffffffffffffffffffffffff168473ffffffffffffffffffffffffffffffffffffffff1614156120e7576040517f08c379a00000000000000000000000000000000000000000000000000000000081526004016120de906141be565b60405180910390fd5b60006120f161202b565b90506121018187878787876127a1565b60005b84518110156122fe576000858281518110612148577f4e487b7100000000000000000000000000000000000000000000000000000000600052603260045260246000fd5b60200260200101519050600085838151811061218d577f4e487b7100000000000000000000000000000000000000000000000000000000600052603260045260246000fd5b60200260200101519050600080600084815260200190815260200160002060008b73ffffffffffffffffffffffffffffffffffffffff1673ffffffffffffffffffffffffffffffffffffffff1681526020019081526020016000205490508181101561222e576040517f08c379a0000000000000000000000000000000000000000000000000000000008152600401612225906141fe565b60405180910390fd5b81810360008085815260200190815260200160002060008c73ffffffffffffffffffffffffffffffffffffffff1673ffffffffffffffffffffffffffffffffffffffff168152602001908152602001600020819055508160008085815260200190815260200160002060008b73ffffffffffffffffffffffffffffffffffffffff1673ffffffffffffffffffffffffffffffffffffffff16815260200190815260200160002060008282546122e39190614538565b92505081905550505050806122f7906146bc565b9050612104565b508473ffffffffffffffffffffffffffffffffffffffff168673ffffffffffffffffffffffffffffffffffffffff168273ffffffffffffffffffffffffffffffffffffffff167f4a39dc06d4c0dbc64b70af90fd698a233a518aa5d07e595d983b8c0526c8f7fb8787604051612375929190613fe4565b60405180910390a461238b818787878787612979565b505050505050565b6000600360009054906101000a900473ffffffffffffffffffffffffffffffffffffffff16905081600360006101000a81548173ffffffffffffffffffffffffffffffffffffffff021916908373ffffffffffffffffffffffffffffffffffffffff1602179055508173ffffffffffffffffffffffffffffffffffffffff168173ffffffffffffffffffffffffffffffffffffffff167f8be0079c531659141344cd1fd0a4f28419497f9722a3daafe3b4186f6b6457e060405160405180910390a35050565b600073ffffffffffffffffffffffffffffffffffffffff168473ffffffffffffffffffffffffffffffffffffffff1614156124c9576040517f08c379a00000000000000000000000000000000000000000000000000000000081526004016124c0906141be565b60405180910390fd5b60006124d361202b565b90506124f38187876124e4886126db565b6124ed886126db565b876127a1565b600080600086815260200190815260200160002060008873ffffffffffffffffffffffffffffffffffffffff1673ffffffffffffffffffffffffffffffffffffffff1681526020019081526020016000205490508381101561258a576040517f08c379a0000000000000000000000000000000000000000000000000000000008152600401612581906141fe565b60405180910390fd5b83810360008087815260200190815260200160002060008973ffffffffffffffffffffffffffffffffffffffff1673ffffffffffffffffffffffffffffffffffffffff168152602001908152602001600020819055508360008087815260200190815260200160002060008873ffffffffffffffffffffffffffffffffffffffff1673ffffffffffffffffffffffffffffffffffffffff168152602001908152602001600020600082825461263f9190614538565b925050819055508573ffffffffffffffffffffffffffffffffffffffff168773ffffffffffffffffffffffffffffffffffffffff168373ffffffffffffffffffffffffffffffffffffffff167fc3d58168c5ae7397731d063d5bbf3d657854427343f4c083240f7aacaa2d0f6288886040516126bc9291906142d9565b60405180910390a46126d28288888888886127a9565b50505050505050565b60606000600167ffffffffffffffff811115612720577f4e487b7100000000000000000000000000000000000000000000000000000000600052604160045260246000fd5b60405190808252806020026020018201604052801561274e5781602001602082028036833780820191505090505b509050828160008151811061278c577f4e487b7100000000000000000000000000000000000000000000000000000000600052603260045260246000fd5b60200260200101818152505080915050919050565b505050505050565b6127c88473ffffffffffffffffffffffffffffffffffffffff16612b49565b15612971578373ffffffffffffffffffffffffffffffffffffffff1663f23a6e6187878686866040518663ffffffff1660e01b815260040161280e959493929190613ede565b602060405180830381600087803b15801561282857600080fd5b505af192505050801561285957506040513d601f19601f8201168201806040525081019061285691906133e8565b60015b6128e857612865614810565b8061287057506128ad565b806040517f08c379a00000000000000000000000000000000000000000000000000000000081526004016128a49190614036565b60405180910390fd5b6040517f08c379a00000000000000000000000000000000000000000000000000000000081526004016128df906140fe565b60405180910390fd5b63f23a6e6160e01b7bffffffffffffffffffffffffffffffffffffffffffffffffffffffff1916817bffffffffffffffffffffffffffffffffffffffffffffffffffffffff19161461296f576040517f08c379a00000000000000000000000000000000000000000000000000000000081526004016129669061411e565b60405180910390fd5b505b505050505050565b6129988473ffffffffffffffffffffffffffffffffffffffff16612b49565b15612b41578373ffffffffffffffffffffffffffffffffffffffff1663bc197c8187878686866040518663ffffffff1660e01b81526004016129de959493929190613e76565b602060405180830381600087803b1580156129f857600080fd5b505af1925050508015612a2957506040513d601f19601f82011682018060405250810190612a2691906133e8565b60015b612ab857612a35614810565b80612a405750612a7d565b806040517f08c379a0000000000000000000000000000000000000000000000000000000008152600401612a749190614036565b60405180910390fd5b6040517f08c379a0000000000000000000000000000000000000000000000000000000008152600401612aaf906140fe565b60405180910390fd5b63bc197c8160e01b7bffffffffffffffffffffffffffffffffffffffffffffffffffffffff1916817bffffffffffffffffffffffffffffffffffffffffffffffffffffffff191614612b3f576040517f08c379a0000000000000000000000000000000000000000000000000000000008152600401612b369061411e565b60405180910390fd5b505b505050505050565b600080823b905060008111915050919050565b6040518060a0016040528060608152602001606081526020016000815260200160608152602001600081525090565b828054828255906000526020600020908101928215612c04579160200282015b82811115612c035782518260006101000a81548173ffffffffffffffffffffffffffffffffffffffff021916908373ffffffffffffffffffffffffffffffffffffffff16021790555091602001919060010190612bab565b5b509050612c119190612d21565b5090565b828054612c219061468a565b90600052602060002090601f016020900481019282612c435760008555612c8a565b82601f10612c5c57805160ff1916838001178555612c8a565b82800160010185558215612c8a579182015b82811115612c89578251825591602001919060010190612c6e565b5b509050612c979190612d21565b5090565b828054612ca79061468a565b90600052602060002090601f016020900481019282612cc95760008555612d10565b82601f10612ce257805160ff1916838001178555612d10565b82800160010185558215612d10579182015b82811115612d0f578251825591602001919060010190612cf4565b5b509050612d1d9190612d21565b5090565b5b80821115612d3a576000816000905550600101612d22565b5090565b6000612d51612d4c84614333565b614302565b90508083825260208201905082856020860282011115612d7057600080fd5b60005b85811015612da05781612d868882612eef565b845260208401935060208301925050600181019050612d73565b5050509392505050565b6000612dbd612db88461435f565b614302565b9050808382526020820190508260005b85811015612dfd5781358501612de38882612feb565b845260208401935060208301925050600181019050612dcd565b5050509392505050565b6000612e1a612e158461438b565b614302565b90508083825260208201905082856020860282011115612e3957600080fd5b60005b85811015612e695781612e4f8882613015565b845260208401935060208301925050600181019050612e3c565b5050509392505050565b6000612e86612e81846143b7565b614302565b905082815260208101848484011115612e9e57600080fd5b612ea9848285614648565b509392505050565b6000612ec4612ebf846143e7565b614302565b905082815260208101848484011115612edc57600080fd5b612ee7848285614648565b509392505050565b600081359050612efe816148c6565b92915050565b600082601f830112612f1557600080fd5b8135612f25848260208601612d3e565b91505092915050565b600082601f830112612f3f57600080fd5b8135612f4f848260208601612daa565b91505092915050565b600082601f830112612f6957600080fd5b8135612f79848260208601612e07565b91505092915050565b600081359050612f91816148dd565b92915050565b600081359050612fa6816148f4565b92915050565b600081519050612fbb816148f4565b92915050565b600082601f830112612fd257600080fd5b8135612fe2848260208601612e73565b91505092915050565b600082601f830112612ffc57600080fd5b813561300c848260208601612eb1565b91505092915050565b6000813590506130248161490b565b92915050565b60006020828403121561303c57600080fd5b600061304a84828501612eef565b91505092915050565b6000806040838503121561306657600080fd5b600061307485828601612eef565b925050602061308585828601612eef565b9150509250929050565b600080600080600060a086880312156130a757600080fd5b60006130b588828901612eef565b95505060206130c688828901612eef565b945050604086013567ffffffffffffffff8111156130e357600080fd5b6130ef88828901612f58565b935050606086013567ffffffffffffffff81111561310c57600080fd5b61311888828901612f58565b925050608086013567ffffffffffffffff81111561313557600080fd5b61314188828901612fc1565b9150509295509295909350565b600080600080600060a0868803121561316657600080fd5b600061317488828901612eef565b955050602061318588828901612eef565b945050604061319688828901613015565b93505060606131a788828901613015565b925050608086013567ffffffffffffffff8111156131c457600080fd5b6131d088828901612fc1565b9150509295509295909350565b600080604083850312156131f057600080fd5b60006131fe85828601612eef565b925050602061320f85828601612f82565b9150509250929050565b6000806040838503121561322c57600080fd5b600061323a85828601612eef565b925050602061324b85828601613015565b9150509250929050565b6000806040838503121561326857600080fd5b600083013567ffffffffffffffff81111561328257600080fd5b61328e85828601612f04565b925050602083013567ffffffffffffffff8111156132ab57600080fd5b6132b785828601612f58565b9150509250929050565b600080600080600080600060e0888a0312156132dc57600080fd5b600088013567ffffffffffffffff8111156132f657600080fd5b6133028a828b01612f04565b975050602088013567ffffffffffffffff81111561331f57600080fd5b61332b8a828b01612feb565b965050604061333c8a828b01613015565b955050606088013567ffffffffffffffff81111561335957600080fd5b6133658a828b01612feb565b945050608088013567ffffffffffffffff81111561338257600080fd5b61338e8a828b01612feb565b93505060a061339f8a828b01613015565b92505060c06133b08a828b01613015565b91505092959891949750929550565b6000602082840312156133d157600080fd5b60006133df84828501612f97565b91505092915050565b6000602082840312156133fa57600080fd5b600061340884828501612fac565b91505092915050565b60006020828403121561342357600080fd5b600061343184828501613015565b91505092915050565b6000806040838503121561344d57600080fd5b600061345b85828601613015565b925050602061346c85828601612eef565b9150509250929050565b60008060006060848603121561348b57600080fd5b600061349986828701613015565b935050602084013567ffffffffffffffff8111156134b657600080fd5b6134c286828701612f04565b925050604084013567ffffffffffffffff8111156134df57600080fd5b6134eb86828701612f2e565b9150509250925092565b60006135018383613548565b60208301905092915050565b60006135198383613d87565b905092915050565b600061352d8383613e0b565b60208301905092915050565b613542816145d4565b82525050565b613551816145c2565b82525050565b613560816145c2565b82525050565b600061357182614447565b61357b81856144a5565b935061358683614417565b8060005b838110156135b757815161359e88826134f5565b97506135a98361447e565b92505060018101905061358a565b5085935050505092915050565b60006135cf82614447565b6135d981856144b6565b93506135e483614417565b8060005b838110156136155781516135fc88826134f5565b97506136078361447e565b9250506001810190506135e8565b5085935050505092915050565b600061362d82614452565b61363781856144c7565b93508360208202850161364985614427565b8060005b858110156136855784840389528151613666858261350d565b94506136718361448b565b925060208a0199505060018101905061364d565b50829750879550505050505092915050565b60006136a28261445d565b6136ac81856144d8565b93506136b783614437565b8060005b838110156136e85781516136cf8882613521565b97506136da83614498565b9250506001810190506136bb565b5085935050505092915050565b6136fe816145e6565b82525050565b600061370f82614468565b61371981856144e9565b9350613729818560208601614657565b613732816147f2565b840191505092915050565b600061374882614468565b61375281856144fa565b9350613762818560208601614657565b61376b816147f2565b840191505092915050565b600061378182614473565b61378b818561450b565b935061379b818560208601614657565b6137a4816147f2565b840191505092915050565b60006137ba82614473565b6137c4818561451c565b93506137d4818560208601614657565b6137dd816147f2565b840191505092915050565b60006137f382614473565b6137fd818561452d565b935061380d818560208601614657565b80840191505092915050565b600061382660348361451c565b91507f455243313135353a207472616e7366657220746f206e6f6e204552433131353560008301527f526563656976657220696d706c656d656e7465720000000000000000000000006020830152604082019050919050565b600061388c60288361451c565b91507f455243313135353a204552433131353552656365697665722072656a6563746560008301527f6420746f6b656e730000000000000000000000000000000000000000000000006020830152604082019050919050565b60006138f260218361451c565b91507f4572723a205069636b206120556e69717565204368616c6c656e6765204e616d60008301527f65000000000000000000000000000000000000000000000000000000000000006020830152604082019050919050565b6000613958602b8361451c565b91507f455243313135353a2062616c616e636520717565727920666f7220746865207a60008301527f65726f20616464726573730000000000000000000000000000000000000000006020830152604082019050919050565b60006139be60268361451c565b91507f4f776e61626c653a206e6577206f776e657220697320746865207a65726f206160008301527f64647265737300000000000000000000000000000000000000000000000000006020830152604082019050919050565b6000613a2460298361451c565b91507f455243313135353a2063616c6c6572206973206e6f74206f776e6572206e6f7260008301527f20617070726f76656400000000000000000000000000000000000000000000006020830152604082019050919050565b6000613a8a60258361451c565b91507f455243313135353a207472616e7366657220746f20746865207a65726f20616460008301527f64726573730000000000000000000000000000000000000000000000000000006020830152604082019050919050565b6000613af060328361451c565b91507f455243313135353a207472616e736665722063616c6c6572206973206e6f742060008301527f6f776e6572206e6f7220617070726f76656400000000000000000000000000006020830152604082019050919050565b6000613b56602a8361451c565b91507f455243313135353a20696e73756666696369656e742062616c616e636520666f60008301527f72207472616e73666572000000000000000000000000000000000000000000006020830152604082019050919050565b6000613bbc60208361451c565b91507f4f776e61626c653a2063616c6c6572206973206e6f7420746865206f776e65726000830152602082019050919050565b6000613bfc60298361451c565b91507f455243313135353a2073657474696e6720617070726f76616c2073746174757360008301527f20666f722073656c6600000000000000000000000000000000000000000000006020830152604082019050919050565b6000613c6260298361451c565b91507f455243313135353a206163636f756e747320616e6420696473206c656e67746860008301527f206d69736d6174636800000000000000000000000000000000000000000000006020830152604082019050919050565b6000613cc860288361451c565b91507f455243313135353a2069647320616e6420616d6f756e7473206c656e6774682060008301527f6d69736d617463680000000000000000000000000000000000000000000000006020830152604082019050919050565b6000613d2e60218361451c565b91507f455243313135353a206d696e7420746f20746865207a65726f2061646472657360008301527f73000000000000000000000000000000000000000000000000000000000000006020830152604082019050919050565b600060a0830160008301518482036000860152613da48282613566565b91505060208301518482036020860152613dbe8282613776565b9150506040830151613dd36040860182613e0b565b5060608301518482036060860152613deb8282613704565b9150506080830151613e006080860182613e0b565b508091505092915050565b613e148161463e565b82525050565b613e238161463e565b82525050565b6000613e3582846137e8565b915081905092915050565b6000602082019050613e556000830184613557565b92915050565b6000602082019050613e706000830184613539565b92915050565b600060a082019050613e8b6000830188613557565b613e986020830187613557565b8181036040830152613eaa8186613697565b90508181036060830152613ebe8185613697565b90508181036080830152613ed2818461373d565b90509695505050505050565b600060a082019050613ef36000830188613557565b613f006020830187613557565b613f0d6040830186613e1a565b613f1a6060830185613e1a565b8181036080830152613f2c818461373d565b90509695505050505050565b600060a0820190508181036000830152613f5281886135c4565b90508181036020830152613f6681876137af565b9050613f756040830186613e1a565b8181036060830152613f87818561373d565b9050613f966080830184613e1a565b9695505050505050565b60006020820190508181036000830152613fba8184613622565b905092915050565b60006020820190508181036000830152613fdc8184613697565b905092915050565b60006040820190508181036000830152613ffe8185613697565b905081810360208301526140128184613697565b90509392505050565b600060208201905061403060008301846136f5565b92915050565b6000602082019050818103600083015261405081846137af565b905092915050565b6000608082019050818103600083015261407281876137af565b9050818103602083015261408681866137af565b90506140956040830185613e1a565b6140a26060830184613e1a565b95945050505050565b600060808201905081810360008301526140c581876137af565b90506140d46020830186613e1a565b81810360408301526140e6818561373d565b90506140f56060830184613e1a565b95945050505050565b6000602082019050818103600083015261411781613819565b9050919050565b600060208201905081810360008301526141378161387f565b9050919050565b60006020820190508181036000830152614157816138e5565b9050919050565b600060208201905081810360008301526141778161394b565b9050919050565b60006020820190508181036000830152614197816139b1565b9050919050565b600060208201905081810360008301526141b781613a17565b9050919050565b600060208201905081810360008301526141d781613a7d565b9050919050565b600060208201905081810360008301526141f781613ae3565b9050919050565b6000602082019050818103600083015261421781613b49565b9050919050565b6000602082019050818103600083015261423781613baf565b9050919050565b6000602082019050818103600083015261425781613bef565b9050919050565b6000602082019050818103600083015261427781613c55565b9050919050565b6000602082019050818103600083015261429781613cbb565b9050919050565b600060208201905081810360008301526142b781613d21565b9050919050565b60006020820190506142d36000830184613e1a565b92915050565b60006040820190506142ee6000830185613e1a565b6142fb6020830184613e1a565b9392505050565b6000604051905081810181811067ffffffffffffffff82111715614329576143286147c3565b5b8060405250919050565b600067ffffffffffffffff82111561434e5761434d6147c3565b5b602082029050602081019050919050565b600067ffffffffffffffff82111561437a576143796147c3565b5b602082029050602081019050919050565b600067ffffffffffffffff8211156143a6576143a56147c3565b5b602082029050602081019050919050565b600067ffffffffffffffff8211156143d2576143d16147c3565b5b601f19601f8301169050602081019050919050565b600067ffffffffffffffff821115614402576144016147c3565b5b601f19601f8301169050602081019050919050565b6000819050602082019050919050565b6000819050602082019050919050565b6000819050602082019050919050565b600081519050919050565b600081519050919050565b600081519050919050565b600081519050919050565b600081519050919050565b6000602082019050919050565b6000602082019050919050565b6000602082019050919050565b600082825260208201905092915050565b600082825260208201905092915050565b600082825260208201905092915050565b600082825260208201905092915050565b600082825260208201905092915050565b600082825260208201905092915050565b600082825260208201905092915050565b600082825260208201905092915050565b600081905092915050565b60006145438261463e565b915061454e8361463e565b9250827fffffffffffffffffffffffffffffffffffffffffffffffffffffffffffffffff0382111561458357614582614736565b5b828201905092915050565b60006145998261463e565b91506145a48361463e565b9250828210156145b7576145b6614736565b5b828203905092915050565b60006145cd8261461e565b9050919050565b60006145df8261461e565b9050919050565b60008115159050919050565b60007fffffffff0000000000000000000000000000000000000000000000000000000082169050919050565b600073ffffffffffffffffffffffffffffffffffffffff82169050919050565b6000819050919050565b82818337600083830152505050565b60005b8381101561467557808201518184015260208101905061465a565b83811115614684576000848401525b50505050565b600060028204905060018216806146a257607f821691505b602082108114156146b6576146b5614794565b5b50919050565b60006146c78261463e565b91507fffffffffffffffffffffffffffffffffffffffffffffffffffffffffffffffff8214156146fa576146f9614736565b5b600182019050919050565b60006147108261463e565b915061471b8361463e565b92508261472b5761472a614765565b5b828206905092915050565b7f4e487b7100000000000000000000000000000000000000000000000000000000600052601160045260246000fd5b7f4e487b7100000000000000000000000000000000000000000000000000000000600052601260045260246000fd5b7f4e487b7100000000000000000000000000000000000000000000000000000000600052602260045260246000fd5b7f4e487b7100000000000000000000000000000000000000000000000000000000600052604160045260246000fd5b6000601f19601f8301169050919050565b60008160e01c9050919050565b600060443d1015614820576148c3565b60046000803e614831600051614803565b6308c379a0811461484257506148c3565b60405160043d036004823e80513d602482011167ffffffffffffffff8211171561486e575050506148c3565b808201805167ffffffffffffffff81111561488d5750505050506148c3565b8060208301013d85018111156148a8575050505050506148c3565b6148b1826147f2565b60208401016040528296505050505050505b90565b6148cf816145c2565b81146148da57600080fd5b50565b6148e6816145e6565b81146148f157600080fd5b50565b6148fd816145f2565b811461490857600080fd5b50565b6149148161463e565b811461491f57600080fd5b5056fea26469706673582212204a2b4ff8738692fd28f0518ff71c62569b872564525c906c4cc0c2d9e5782e6864736f6c63430008000033687474703a2f2f6c6f63616c686f73743a383838382f7075626c69632f23212f4368616c6c656e6765546f6b656e43686573742f7b69647d2e6a736f6e",
  "immutableReferences": {},
  "source": "// SPDX-License-Identifier: MIT\npragma solidity >= 0.8.0;\npragma abicoder v2;\nimport \"@openzeppelin/contracts/token/ERC1155/ERC1155.sol\";\nimport \"@openzeppelin/contracts/access/Ownable.sol\";\nimport \"./Challenge.sol\";\n\ncontract ChallengeToken is ERC1155, Ownable{\n   /* Stored on chain */\n  mapping (uint256 => bool) public is_on_manifest;\n  mapping (address => uint256) public map_initiator_to_id;\n  mapping (uint256 => Challenges.Challenge) public map_id_to_Challenge;\n\n  address payable public OA = payable(msg.sender);\n  address payable public CT_X_Address;\n  mapping (uint256 => mapping(address => string)) public Token_Player_Email_Map;\n  mapping (uint256 => mapping(address => string)) public Token_Player_Duo_Map;\n\n  Challenges.Challenge[] public challenges;\n  event ManifestedChallengeToken(address [] players,string _name,uint256 _id,bytes mint_data,uint status);\n\n    constructor()\n    ERC1155(\"http://localhost:8888/public/#!/ChallengeTokenChest/{id}.json\")\n    Ownable()\n    {}\n  function tokenGenesis (\n    address [] memory _player_list,\n     string memory _name,\n      uint256 _num_to_issue,\n       string memory _mint_date,\n        string memory _type,\n         uint256 _streak_days,\n          uint256 _stake_amount\n  )public\n   returns (uint256) {\n      // OA.transfer(msg.value);\n      uint256 idmod = 10 ** 16;\n      uint256 token_id = uint256(keccak256(abi.encodePacked(_name)));\n      uint256 _id = token_id % idmod;\n      require(!is_on_manifest[_id], \"Err: Pick a Unique Challenge Name\");\n      Challenges.Challenge memory new_challenge;\n      new_challenge.players = _player_list;\n      new_challenge.name = _name;\n      new_challenge.id = _id;\n      bytes memory mintData = abi.encode(_mint_date, _type, _streak_days, _stake_amount);\n      new_challenge.mint_data = mintData;\n      new_challenge.status = 0;\n      challenges.push(new_challenge);\n      map_initiator_to_id[msg.sender] = _id;\n      map_id_to_Challenge[_id] = new_challenge;\n      is_on_manifest[_id] = true;\n      _mint(msg.sender, _id, _num_to_issue, mintData);\n      for(uint i=0; i <= _player_list.length ; i++){\n        if(msg.sender != _player_list[i]){\n          setApprovalForAll(_player_list[i], true);\n          safeTransferFrom(msg.sender, _player_list[i], _id, 1, mintData);\n          break;\n        }\n      }\n      emit ManifestedChallengeToken(new_challenge.players,new_challenge.name,new_challenge.id,new_challenge.mint_data,new_challenge.status);\n      return _id;\n  }\n  function getChallenges() public view returns (Challenges.Challenge[] memory) {\n        Challenges.Challenge[] memory c = new Challenges.Challenge[](challenges.length);\n        for (uint i = 0; i <= challenges.length-1; i++) {\n          Challenges.Challenge storage this_challenge = challenges[i];\n          c[i] = this_challenge;\n        }\n        return c;\n    }\n\n  function getChallengeTokensLength() public view returns(uint256){\n    return challenges.length;\n  }\n  function update_Token_Player_Email_Map(uint256 _id, address [] memory _player_ethAddr_list, string [] memory _player_email_list) public {\n      for(uint i = 0; i < _player_ethAddr_list.length; i++){\n        address _player = _player_ethAddr_list[i];\n        Token_Player_Email_Map[_id][_player] = _player_email_list[i];\n      }\n  }\n  function update_Token_Player_Duo_Map(uint256 _id, address [] memory _player_ethAddr_list, string [] memory _player_duo_list) public {\n      for(uint i = 0; i < _player_ethAddr_list.length; i++){\n        address _player = _player_ethAddr_list[i];\n        Token_Player_Duo_Map[_id][_player] = _player_duo_list[i];\n      }\n  }\n  function fetch_Email_By_Id_And_EthAddr(uint256 _id, address _ethAddr) public view returns(string memory){\n    return Token_Player_Email_Map[_id][_ethAddr];\n  }\n  function fetch_Duo_Info_By_Id_And_EthAddr(uint256 _id, address _ethAddr) public view returns(string memory){\n    return Token_Player_Duo_Map[_id][_ethAddr];\n  }\n}\n",
  "sourcePath": "/Volumes/TerryBytes2/2021_Kode_Tut/BabelBet/contracts/ChallengeToken.sol",
  "compiler": {
    "name": "solc",
    "version": "0.8.0+commit.c7dfd78e.Emscripten.clang"
  },
  "schemaVersion": "3.4.3",
  "updatedAt": "2021-12-03T15:17:43.931Z",
  "networkType": "ethereum",
  "devdoc": {
    "kind": "dev",
    "methods": {
      "balanceOf(address,uint256)": {
        "details": "See {IERC1155-balanceOf}. Requirements: - `account` cannot be the zero address."
      },
      "balanceOfBatch(address[],uint256[])": {
        "details": "See {IERC1155-balanceOfBatch}. Requirements: - `accounts` and `ids` must have the same length."
      },
      "isApprovedForAll(address,address)": {
        "details": "See {IERC1155-isApprovedForAll}."
      },
      "owner()": {
        "details": "Returns the address of the current owner."
      },
      "renounceOwnership()": {
        "details": "Leaves the contract without owner. It will not be possible to call `onlyOwner` functions anymore. Can only be called by the current owner. NOTE: Renouncing ownership will leave the contract without an owner, thereby removing any functionality that is only available to the owner."
      },
      "safeBatchTransferFrom(address,address,uint256[],uint256[],bytes)": {
        "details": "See {IERC1155-safeBatchTransferFrom}."
      },
      "safeTransferFrom(address,address,uint256,uint256,bytes)": {
        "details": "See {IERC1155-safeTransferFrom}."
      },
      "setApprovalForAll(address,bool)": {
        "details": "See {IERC1155-setApprovalForAll}."
      },
      "supportsInterface(bytes4)": {
        "details": "See {IERC165-supportsInterface}."
      },
      "transferOwnership(address)": {
        "details": "Transfers ownership of the contract to a new account (`newOwner`). Can only be called by the current owner."
      },
      "uri(uint256)": {
        "details": "See {IERC1155MetadataURI-uri}. This implementation returns the same URI for *all* token types. It relies on the token type ID substitution mechanism https://eips.ethereum.org/EIPS/eip-1155#metadata[defined in the EIP]. Clients calling this function must replace the `\\{id\\}` substring with the actual token type ID."
      }
    },
    "version": 1
  },
  "userdoc": {
    "kind": "user",
    "methods": {},
    "version": 1
  }
}