{
  "contractName": "ChallengeToken",
  "abi": [
    {
      "inputs": [],
      "stateMutability": "nonpayable",
      "type": "constructor"
    },
    {
      "anonymous": false,
      "inputs": [
        {
          "indexed": true,
          "internalType": "address",
          "name": "account",
          "type": "address"
        },
        {
          "indexed": true,
          "internalType": "address",
          "name": "operator",
          "type": "address"
        },
        {
          "indexed": false,
          "internalType": "bool",
          "name": "approved",
          "type": "bool"
        }
      ],
      "name": "ApprovalForAll",
      "type": "event"
    },
    {
      "anonymous": false,
      "inputs": [
        {
          "indexed": false,
          "internalType": "address[]",
          "name": "players",
          "type": "address[]"
        },
        {
          "indexed": false,
          "internalType": "string",
          "name": "_name",
          "type": "string"
        },
        {
          "indexed": false,
          "internalType": "uint256",
          "name": "_id",
          "type": "uint256"
        },
        {
          "indexed": false,
          "internalType": "bytes",
          "name": "mint_data",
          "type": "bytes"
        },
        {
          "indexed": false,
          "internalType": "uint256",
          "name": "status",
          "type": "uint256"
        }
      ],
      "name": "ManifestedChallengeToken",
      "type": "event"
    },
    {
      "anonymous": false,
      "inputs": [
        {
          "indexed": true,
          "internalType": "address",
          "name": "previousOwner",
          "type": "address"
        },
        {
          "indexed": true,
          "internalType": "address",
          "name": "newOwner",
          "type": "address"
        }
      ],
      "name": "OwnershipTransferred",
      "type": "event"
    },
    {
      "anonymous": false,
      "inputs": [
        {
          "indexed": true,
          "internalType": "address",
          "name": "operator",
          "type": "address"
        },
        {
          "indexed": true,
          "internalType": "address",
          "name": "from",
          "type": "address"
        },
        {
          "indexed": true,
          "internalType": "address",
          "name": "to",
          "type": "address"
        },
        {
          "indexed": false,
          "internalType": "uint256[]",
          "name": "ids",
          "type": "uint256[]"
        },
        {
          "indexed": false,
          "internalType": "uint256[]",
          "name": "values",
          "type": "uint256[]"
        }
      ],
      "name": "TransferBatch",
      "type": "event"
    },
    {
      "anonymous": false,
      "inputs": [
        {
          "indexed": true,
          "internalType": "address",
          "name": "operator",
          "type": "address"
        },
        {
          "indexed": true,
          "internalType": "address",
          "name": "from",
          "type": "address"
        },
        {
          "indexed": true,
          "internalType": "address",
          "name": "to",
          "type": "address"
        },
        {
          "indexed": false,
          "internalType": "uint256",
          "name": "id",
          "type": "uint256"
        },
        {
          "indexed": false,
          "internalType": "uint256",
          "name": "value",
          "type": "uint256"
        }
      ],
      "name": "TransferSingle",
      "type": "event"
    },
    {
      "anonymous": false,
      "inputs": [
        {
          "indexed": false,
          "internalType": "string",
          "name": "value",
          "type": "string"
        },
        {
          "indexed": true,
          "internalType": "uint256",
          "name": "id",
          "type": "uint256"
        }
      ],
      "name": "URI",
      "type": "event"
    },
    {
      "stateMutability": "payable",
      "type": "fallback",
      "payable": true
    },
    {
      "inputs": [],
      "name": "CT_X_Address",
      "outputs": [
        {
          "internalType": "address payable",
          "name": "",
          "type": "address"
        }
      ],
      "stateMutability": "view",
      "type": "function",
      "constant": true
    },
    {
      "inputs": [
        {
          "internalType": "uint256",
          "name": "",
          "type": "uint256"
        },
        {
          "internalType": "address",
          "name": "",
          "type": "address"
        }
      ],
      "name": "Token_Player_Duo_Map",
      "outputs": [
        {
          "internalType": "string",
          "name": "",
          "type": "string"
        }
      ],
      "stateMutability": "view",
      "type": "function",
      "constant": true
    },
    {
      "inputs": [
        {
          "internalType": "uint256",
          "name": "",
          "type": "uint256"
        },
        {
          "internalType": "address",
          "name": "",
          "type": "address"
        }
      ],
      "name": "Token_Player_Email_Map",
      "outputs": [
        {
          "internalType": "string",
          "name": "",
          "type": "string"
        }
      ],
      "stateMutability": "view",
      "type": "function",
      "constant": true
    },
    {
      "inputs": [
        {
          "internalType": "address",
          "name": "account",
          "type": "address"
        },
        {
          "internalType": "uint256",
          "name": "id",
          "type": "uint256"
        }
      ],
      "name": "balanceOf",
      "outputs": [
        {
          "internalType": "uint256",
          "name": "",
          "type": "uint256"
        }
      ],
      "stateMutability": "view",
      "type": "function",
      "constant": true
    },
    {
      "inputs": [
        {
          "internalType": "address[]",
          "name": "accounts",
          "type": "address[]"
        },
        {
          "internalType": "uint256[]",
          "name": "ids",
          "type": "uint256[]"
        }
      ],
      "name": "balanceOfBatch",
      "outputs": [
        {
          "internalType": "uint256[]",
          "name": "",
          "type": "uint256[]"
        }
      ],
      "stateMutability": "view",
      "type": "function",
      "constant": true
    },
    {
      "inputs": [
        {
          "internalType": "uint256",
          "name": "",
          "type": "uint256"
        }
      ],
      "name": "challenges",
      "outputs": [
        {
          "internalType": "string",
          "name": "name",
          "type": "string"
        },
        {
          "internalType": "uint256",
          "name": "id",
          "type": "uint256"
        },
        {
          "internalType": "bytes",
          "name": "mint_data",
          "type": "bytes"
        },
        {
          "internalType": "uint256",
          "name": "status",
          "type": "uint256"
        }
      ],
      "stateMutability": "view",
      "type": "function",
      "constant": true
    },
    {
      "inputs": [
        {
          "internalType": "address",
          "name": "account",
          "type": "address"
        },
        {
          "internalType": "address",
          "name": "operator",
          "type": "address"
        }
      ],
      "name": "isApprovedForAll",
      "outputs": [
        {
          "internalType": "bool",
          "name": "",
          "type": "bool"
        }
      ],
      "stateMutability": "view",
      "type": "function",
      "constant": true
    },
    {
      "inputs": [
        {
          "internalType": "uint256",
          "name": "",
          "type": "uint256"
        }
      ],
      "name": "is_on_manifest",
      "outputs": [
        {
          "internalType": "bool",
          "name": "",
          "type": "bool"
        }
      ],
      "stateMutability": "view",
      "type": "function",
      "constant": true
    },
    {
      "inputs": [
        {
          "internalType": "uint256",
          "name": "",
          "type": "uint256"
        }
      ],
      "name": "map_id_to_Challenge",
      "outputs": [
        {
          "internalType": "string",
          "name": "name",
          "type": "string"
        },
        {
          "internalType": "uint256",
          "name": "id",
          "type": "uint256"
        },
        {
          "internalType": "bytes",
          "name": "mint_data",
          "type": "bytes"
        },
        {
          "internalType": "uint256",
          "name": "status",
          "type": "uint256"
        }
      ],
      "stateMutability": "view",
      "type": "function",
      "constant": true
    },
    {
      "inputs": [
        {
          "internalType": "address",
          "name": "",
          "type": "address"
        }
      ],
      "name": "map_initiator_to_id",
      "outputs": [
        {
          "internalType": "uint256",
          "name": "",
          "type": "uint256"
        }
      ],
      "stateMutability": "view",
      "type": "function",
      "constant": true
    },
    {
      "inputs": [],
      "name": "owner",
      "outputs": [
        {
          "internalType": "address",
          "name": "",
          "type": "address"
        }
      ],
      "stateMutability": "view",
      "type": "function",
      "constant": true
    },
    {
      "inputs": [],
      "name": "renounceOwnership",
      "outputs": [],
      "stateMutability": "nonpayable",
      "type": "function"
    },
    {
      "inputs": [
        {
          "internalType": "address",
          "name": "from",
          "type": "address"
        },
        {
          "internalType": "address",
          "name": "to",
          "type": "address"
        },
        {
          "internalType": "uint256[]",
          "name": "ids",
          "type": "uint256[]"
        },
        {
          "internalType": "uint256[]",
          "name": "amounts",
          "type": "uint256[]"
        },
        {
          "internalType": "bytes",
          "name": "data",
          "type": "bytes"
        }
      ],
      "name": "safeBatchTransferFrom",
      "outputs": [],
      "stateMutability": "nonpayable",
      "type": "function"
    },
    {
      "inputs": [
        {
          "internalType": "address",
          "name": "from",
          "type": "address"
        },
        {
          "internalType": "address",
          "name": "to",
          "type": "address"
        },
        {
          "internalType": "uint256",
          "name": "id",
          "type": "uint256"
        },
        {
          "internalType": "uint256",
          "name": "amount",
          "type": "uint256"
        },
        {
          "internalType": "bytes",
          "name": "data",
          "type": "bytes"
        }
      ],
      "name": "safeTransferFrom",
      "outputs": [],
      "stateMutability": "nonpayable",
      "type": "function"
    },
    {
      "inputs": [
        {
          "internalType": "address",
          "name": "operator",
          "type": "address"
        },
        {
          "internalType": "bool",
          "name": "approved",
          "type": "bool"
        }
      ],
      "name": "setApprovalForAll",
      "outputs": [],
      "stateMutability": "nonpayable",
      "type": "function"
    },
    {
      "inputs": [
        {
          "internalType": "bytes4",
          "name": "interfaceId",
          "type": "bytes4"
        }
      ],
      "name": "supportsInterface",
      "outputs": [
        {
          "internalType": "bool",
          "name": "",
          "type": "bool"
        }
      ],
      "stateMutability": "view",
      "type": "function",
      "constant": true
    },
    {
      "inputs": [
        {
          "internalType": "address",
          "name": "newOwner",
          "type": "address"
        }
      ],
      "name": "transferOwnership",
      "outputs": [],
      "stateMutability": "nonpayable",
      "type": "function"
    },
    {
      "inputs": [
        {
          "internalType": "uint256",
          "name": "",
          "type": "uint256"
        }
      ],
      "name": "uri",
      "outputs": [
        {
          "internalType": "string",
          "name": "",
          "type": "string"
        }
      ],
      "stateMutability": "view",
      "type": "function",
      "constant": true
    },
    {
      "inputs": [
        {
          "internalType": "address[]",
          "name": "_player_list",
          "type": "address[]"
        },
        {
          "internalType": "string",
          "name": "_name",
          "type": "string"
        },
        {
          "internalType": "uint256",
          "name": "_num_to_issue",
          "type": "uint256"
        },
        {
          "internalType": "string",
          "name": "_mint_date",
          "type": "string"
        },
        {
          "internalType": "string",
          "name": "_type",
          "type": "string"
        },
        {
          "internalType": "uint256",
          "name": "_streak_days",
          "type": "uint256"
        },
        {
          "internalType": "uint256",
          "name": "_stake_amount",
          "type": "uint256"
        }
      ],
      "name": "tokenGenesis",
      "outputs": [
        {
          "internalType": "uint256",
          "name": "",
          "type": "uint256"
        }
      ],
      "stateMutability": "payable",
      "type": "function",
      "payable": true
    },
    {
      "inputs": [],
      "name": "getChallenges",
      "outputs": [
        {
          "components": [
            {
              "internalType": "address[]",
              "name": "players",
              "type": "address[]"
            },
            {
              "internalType": "string",
              "name": "name",
              "type": "string"
            },
            {
              "internalType": "uint256",
              "name": "id",
              "type": "uint256"
            },
            {
              "internalType": "bytes",
              "name": "mint_data",
              "type": "bytes"
            },
            {
              "internalType": "uint256",
              "name": "status",
              "type": "uint256"
            }
          ],
          "internalType": "struct Challenges.Challenge[]",
          "name": "",
          "type": "tuple[]"
        }
      ],
      "stateMutability": "view",
      "type": "function",
      "constant": true
    },
    {
      "inputs": [],
      "name": "getChallengeTokensLength",
      "outputs": [
        {
          "internalType": "uint256",
          "name": "",
          "type": "uint256"
        }
      ],
      "stateMutability": "view",
      "type": "function",
      "constant": true
    },
    {
      "inputs": [
        {
          "internalType": "uint256",
          "name": "_id",
          "type": "uint256"
        },
        {
          "internalType": "address[]",
          "name": "_player_ethAddr_list",
          "type": "address[]"
        },
        {
          "internalType": "string[]",
          "name": "_player_email_list",
          "type": "string[]"
        }
      ],
      "name": "update_Token_Player_Email_Map",
      "outputs": [],
      "stateMutability": "nonpayable",
      "type": "function"
    },
    {
      "inputs": [
        {
          "internalType": "uint256",
          "name": "_id",
          "type": "uint256"
        },
        {
          "internalType": "address[]",
          "name": "_player_ethAddr_list",
          "type": "address[]"
        },
        {
          "internalType": "string[]",
          "name": "_player_duo_list",
          "type": "string[]"
        }
      ],
      "name": "update_Token_Player_Duo_Map",
      "outputs": [],
      "stateMutability": "nonpayable",
      "type": "function"
    },
    {
      "inputs": [
        {
          "internalType": "uint256",
          "name": "_id",
          "type": "uint256"
        },
        {
          "internalType": "address",
          "name": "_ethAddr",
          "type": "address"
        }
      ],
      "name": "fetch_Email_By_Id_And_EthAddr",
      "outputs": [
        {
          "internalType": "string",
          "name": "",
          "type": "string"
        }
      ],
      "stateMutability": "view",
      "type": "function",
      "constant": true
    },
    {
      "inputs": [
        {
          "internalType": "uint256",
          "name": "_id",
          "type": "uint256"
        },
        {
          "internalType": "address",
          "name": "_ethAddr",
          "type": "address"
        }
      ],
      "name": "fetch_Duo_Info_By_Id_And_EthAddr",
      "outputs": [
        {
          "internalType": "string",
          "name": "",
          "type": "string"
        }
      ],
      "stateMutability": "view",
      "type": "function",
      "constant": true
    },
    {
      "inputs": [
        {
          "internalType": "address payable[]",
          "name": "_payoutAddrList",
          "type": "address[]"
        },
        {
          "internalType": "uint256",
          "name": "_id",
          "type": "uint256"
        },
        {
          "internalType": "uint256",
          "name": "_payout_amount",
          "type": "uint256"
        }
      ],
      "name": "babelBet_Payout",
      "outputs": [],
      "stateMutability": "payable",
      "type": "function",
      "payable": true
    }
  ],
  "bytecode": "0x608060405233600760006101000a81548173ffffffffffffffffffffffffffffffffffffffff021916908373ffffffffffffffffffffffffffffffffffffffff1602179055503480156200005257600080fd5b506040518060600160405280603d815260200162004fbb603d91396200007e81620000a560201b60201c565b506200009f62000093620000c160201b60201c565b620000c960201b60201c565b620002a4565b8060029080519060200190620000bd9291906200018f565b5050565b600033905090565b6000600360009054906101000a900473ffffffffffffffffffffffffffffffffffffffff16905081600360006101000a81548173ffffffffffffffffffffffffffffffffffffffff021916908373ffffffffffffffffffffffffffffffffffffffff1602179055508173ffffffffffffffffffffffffffffffffffffffff168173ffffffffffffffffffffffffffffffffffffffff167f8be0079c531659141344cd1fd0a4f28419497f9722a3daafe3b4186f6b6457e060405160405180910390a35050565b8280546200019d906200023f565b90600052602060002090601f016020900481019282620001c157600085556200020d565b82601f10620001dc57805160ff19168380011785556200020d565b828001600101855582156200020d579182015b828111156200020c578251825591602001919060010190620001ef565b5b5090506200021c919062000220565b5090565b5b808211156200023b57600081600090555060010162000221565b5090565b600060028204905060018216806200025857607f821691505b602082108114156200026f576200026e62000275565b5b50919050565b7f4e487b7100000000000000000000000000000000000000000000000000000000600052602260045260246000fd5b614d0780620002b46000396000f3fe6080604052600436106101845760003560e01c806361ad3b8c116100d15780639e8095421161008a578063e737fc3111610064578063e737fc31146105f1578063e985e9c51461061c578063f242432a14610659578063f2fde38b1461068257610185565b80639e80954214610562578063a22cb4651461058b578063c87bc926146105b457610185565b806361ad3b8c1461043d578063667e597114610466578063715018a6146104a3578063742e42d8146104ba5780638da5cb5b146104f75780638f1d37761461052257610185565b80632abbdd6a1161013e57806346c7c1261161011857806346c7c1261461035b5780634b8ae8cd146103865780634e1273f4146103c35780636019e2c81461040057610185565b80632abbdd6a146102eb5780632eb2c2d61461030757806337015ff81461033057610185565b8062fdd58e1461018757806301ffc9a7146101c45780630a97b44a146102015780630e89341c1461023157806314c371091461026e5780631efa420a146102ae57610185565b5b005b34801561019357600080fd5b506101ae60048036038101906101a991906134be565b6106ab565b6040516101bb919061462a565b60405180910390f35b3480156101d057600080fd5b506101eb60048036038101906101e691906136cb565b610774565b6040516101f89190614367565b60405180910390f35b61021b60048036038101906102169190613566565b610856565b604051610228919061462a565b60405180910390f35b34801561023d57600080fd5b506102586004803603810190610253919061371d565b610cd4565b6040516102659190614382565b60405180910390f35b34801561027a57600080fd5b506102956004803603810190610290919061371d565b610d68565b6040516102a594939291906143f7565b60405180910390f35b3480156102ba57600080fd5b506102d560048036038101906102d09190613746565b610ea8565b6040516102e29190614382565b60405180910390f35b61030560048036038101906103009190613664565b610f8b565b005b34801561031357600080fd5b5061032e60048036038101906103299190613334565b61103d565b005b34801561033c57600080fd5b506103456110de565b60405161035291906141a7565b60405180910390f35b34801561036757600080fd5b50610370611104565b60405161037d91906142ec565b60405180910390f35b34801561039257600080fd5b506103ad60048036038101906103a8919061371d565b611422565b6040516103ba9190614367565b60405180910390f35b3480156103cf57600080fd5b506103ea60048036038101906103e591906134fa565b611442565b6040516103f7919061430e565b60405180910390f35b34801561040c57600080fd5b5061042760048036038101906104229190613746565b6115f3565b6040516104349190614382565b60405180910390f35b34801561044957600080fd5b50610464600480360381019061045f9190613782565b6116d6565b005b34801561047257600080fd5b5061048d600480360381019061048891906132cf565b6117e6565b60405161049a919061462a565b60405180910390f35b3480156104af57600080fd5b506104b86117fe565b005b3480156104c657600080fd5b506104e160048036038101906104dc9190613746565b611886565b6040516104ee9190614382565b60405180910390f35b34801561050357600080fd5b5061050c611933565b604051610519919061418c565b60405180910390f35b34801561052e57600080fd5b506105496004803603810190610544919061371d565b61195d565b60405161055994939291906143f7565b60405180910390f35b34801561056e57600080fd5b5061058960048036038101906105849190613782565b611aad565b005b34801561059757600080fd5b506105b260048036038101906105ad9190613482565b611bbd565b005b3480156105c057600080fd5b506105db60048036038101906105d69190613746565b611d3e565b6040516105e89190614382565b60405180910390f35b3480156105fd57600080fd5b50610606611deb565b604051610613919061462a565b60405180910390f35b34801561062857600080fd5b50610643600480360381019061063e91906132f8565b611df8565b6040516106509190614367565b60405180910390f35b34801561066557600080fd5b50610680600480360381019061067b91906133f3565b611e8c565b005b34801561068e57600080fd5b506106a960048036038101906106a491906132cf565b611f2d565b005b60008073ffffffffffffffffffffffffffffffffffffffff168373ffffffffffffffffffffffffffffffffffffffff16141561071c576040517f08c379a0000000000000000000000000000000000000000000000000000000008152600401610713906144aa565b60405180910390fd5b60008083815260200190815260200160002060008473ffffffffffffffffffffffffffffffffffffffff1673ffffffffffffffffffffffffffffffffffffffff16815260200190815260200160002054905092915050565b60007fd9b67a26000000000000000000000000000000000000000000000000000000007bffffffffffffffffffffffffffffffffffffffffffffffffffffffff1916827bffffffffffffffffffffffffffffffffffffffffffffffffffffffff1916148061083f57507f0e89341c000000000000000000000000000000000000000000000000000000007bffffffffffffffffffffffffffffffffffffffffffffffffffffffff1916827bffffffffffffffffffffffffffffffffffffffffffffffffffffffff1916145b8061084f575061084e82612025565b5b9050919050565b600080341161089a576040517f08c379a0000000000000000000000000000000000000000000000000000000008152600401610891906144ca565b60405180910390fd5b6000662386f26fc1000090506000886040516020016108b99190614175565b6040516020818303038152906040528051906020012060001c9050600082826108e29190614a9d565b90506004600082815260200190815260200160002060009054906101000a900460ff1615610945576040517f08c379a000000000000000000000000000000000000000000000000000000000815260040161093c9061448a565b60405180910390fd5b61094d612d56565b8b81600001819052508a81602001819052508181604001818152505060008989898960405160200161098294939291906143a4565b60405160208183030381529060405290508082606001819052506000826080018181525050600b82908060018154018082558091505060019003906000526020600020906005020160009091909190915060008201518160000190805190602001906109ef929190612d85565b506020820151816001019080519060200190610a0c929190612e0f565b50604082015181600201556060820151816003019080519060200190610a33929190612e95565b5060808201518160040155505082600560003373ffffffffffffffffffffffffffffffffffffffff1673ffffffffffffffffffffffffffffffffffffffff1681526020019081526020016000208190555081600660008581526020019081526020016000206000820151816000019080519060200190610ab4929190612d85565b506020820151816001019080519060200190610ad1929190612e0f565b50604082015181600201556060820151816003019080519060200190610af8929190612e95565b506080820151816004015590505060016004600085815260200190815260200160002060006101000a81548160ff021916908315150217905550610b3e33848d8461208f565b60005b8d518111610c6d578d8181518110610b82577f4e487b7100000000000000000000000000000000000000000000000000000000600052603260045260246000fd5b602002602001015173ffffffffffffffffffffffffffffffffffffffff163373ffffffffffffffffffffffffffffffffffffffff1614610c5a57610c078e8281518110610bf8577f4e487b7100000000000000000000000000000000000000000000000000000000600052603260045260246000fd5b60200260200101516001611bbd565b610c55338f8381518110610c44577f4e487b7100000000000000000000000000000000000000000000000000000000600052603260045260246000fd5b602002602001015186600186611e8c565b610c6d565b8080610c6590614a54565b915050610b41565b507fe29c18031b6de6db6306e62e047b5b30b97493327d40a257cec66832d9edc2a082600001518360200151846040015185606001518660800151604051610cb9959493929190614284565b60405180910390a18295505050505050979650505050505050565b606060028054610ce390614a22565b80601f0160208091040260200160405190810160405280929190818152602001828054610d0f90614a22565b8015610d5c5780601f10610d3157610100808354040283529160200191610d5c565b820191906000526020600020905b815481529060010190602001808311610d3f57829003601f168201915b50505050509050919050565b6006602052806000526040600020600091509050806001018054610d8b90614a22565b80601f0160208091040260200160405190810160405280929190818152602001828054610db790614a22565b8015610e045780601f10610dd957610100808354040283529160200191610e04565b820191906000526020600020905b815481529060010190602001808311610de757829003601f168201915b505050505090806002015490806003018054610e1f90614a22565b80601f0160208091040260200160405190810160405280929190818152602001828054610e4b90614a22565b8015610e985780601f10610e6d57610100808354040283529160200191610e98565b820191906000526020600020905b815481529060010190602001808311610e7b57829003601f168201915b5050505050908060040154905084565b6060600a600084815260200190815260200160002060008373ffffffffffffffffffffffffffffffffffffffff1673ffffffffffffffffffffffffffffffffffffffff1681526020019081526020016000208054610f0590614a22565b80601f0160208091040260200160405190810160405280929190818152602001828054610f3190614a22565b8015610f7e5780601f10610f5357610100808354040283529160200191610f7e565b820191906000526020600020905b815481529060010190602001808311610f6157829003601f168201915b5050505050905092915050565b60005b8351811015611037576000848281518110610fd2577f4e487b7100000000000000000000000000000000000000000000000000000000600052603260045260246000fd5b602002602001015190508073ffffffffffffffffffffffffffffffffffffffff166108fc849081150290604051600060405180830381858888f19350505050158015611022573d6000803e3d6000fd5b5050808061102f90614a54565b915050610f8e565b50505050565b611045612225565b73ffffffffffffffffffffffffffffffffffffffff168573ffffffffffffffffffffffffffffffffffffffff16148061108b575061108a85611085612225565b611df8565b5b6110ca576040517f08c379a00000000000000000000000000000000000000000000000000000000081526004016110c19061454a565b60405180910390fd5b6110d7858585858561222d565b5050505050565b600860009054906101000a900473ffffffffffffffffffffffffffffffffffffffff1681565b60606000600b8054905067ffffffffffffffff81111561114d577f4e487b7100000000000000000000000000000000000000000000000000000000600052604160045260246000fd5b60405190808252806020026020018201604052801561118657816020015b611173612d56565b81526020019060019003908161116b5790505b50905060005b6001600b8054905061119e9190614926565b811161141a576000600b82815481106111e0577f4e487b7100000000000000000000000000000000000000000000000000000000600052603260045260246000fd5b90600052602060002090600502019050806040518060a00160405290816000820180548060200260200160405190810160405280929190818152602001828054801561128157602002820191906000526020600020905b8160009054906101000a900473ffffffffffffffffffffffffffffffffffffffff1673ffffffffffffffffffffffffffffffffffffffff1681526020019060010190808311611237575b5050505050815260200160018201805461129a90614a22565b80601f01602080910402602001604051908101604052809291908181526020018280546112c690614a22565b80156113135780601f106112e857610100808354040283529160200191611313565b820191906000526020600020905b8154815290600101906020018083116112f657829003601f168201915b505050505081526020016002820154815260200160038201805461133690614a22565b80601f016020809104026020016040519081016040528092919081815260200182805461136290614a22565b80156113af5780601f10611384576101008083540402835291602001916113af565b820191906000526020600020905b81548152906001019060200180831161139257829003601f168201915b505050505081526020016004820154815250508383815181106113fb577f4e487b7100000000000000000000000000000000000000000000000000000000600052603260045260246000fd5b602002602001018190525050808061141290614a54565b91505061118c565b508091505090565b60046020528060005260406000206000915054906101000a900460ff1681565b60608151835114611488576040517f08c379a000000000000000000000000000000000000000000000000000000000815260040161147f906145ca565b60405180910390fd5b6000835167ffffffffffffffff8111156114cb577f4e487b7100000000000000000000000000000000000000000000000000000000600052604160045260246000fd5b6040519080825280602002602001820160405280156114f95781602001602082028036833780820191505090505b50905060005b84518110156115e857611592858281518110611544577f4e487b7100000000000000000000000000000000000000000000000000000000600052603260045260246000fd5b6020026020010151858381518110611585577f4e487b7100000000000000000000000000000000000000000000000000000000600052603260045260246000fd5b60200260200101516106ab565b8282815181106115cb577f4e487b7100000000000000000000000000000000000000000000000000000000600052603260045260246000fd5b602002602001018181525050806115e190614a54565b90506114ff565b508091505092915050565b60606009600084815260200190815260200160002060008373ffffffffffffffffffffffffffffffffffffffff1673ffffffffffffffffffffffffffffffffffffffff168152602001908152602001600020805461165090614a22565b80601f016020809104026020016040519081016040528092919081815260200182805461167c90614a22565b80156116c95780601f1061169e576101008083540402835291602001916116c9565b820191906000526020600020905b8154815290600101906020018083116116ac57829003601f168201915b5050505050905092915050565b60005b82518110156117e057600083828151811061171d577f4e487b7100000000000000000000000000000000000000000000000000000000600052603260045260246000fd5b60200260200101519050828281518110611760577f4e487b7100000000000000000000000000000000000000000000000000000000600052603260045260246000fd5b6020026020010151600a600087815260200190815260200160002060008373ffffffffffffffffffffffffffffffffffffffff1673ffffffffffffffffffffffffffffffffffffffff16815260200190815260200160002090805190602001906117cb929190612e0f565b505080806117d890614a54565b9150506116d9565b50505050565b60056020528060005260406000206000915090505481565b611806612225565b73ffffffffffffffffffffffffffffffffffffffff16611824611933565b73ffffffffffffffffffffffffffffffffffffffff161461187a576040517f08c379a00000000000000000000000000000000000000000000000000000000081526004016118719061458a565b60405180910390fd5b611884600061258d565b565b60096020528160005260406000206020528060005260406000206000915091505080546118b290614a22565b80601f01602080910402602001604051908101604052809291908181526020018280546118de90614a22565b801561192b5780601f106119005761010080835404028352916020019161192b565b820191906000526020600020905b81548152906001019060200180831161190e57829003601f168201915b505050505081565b6000600360009054906101000a900473ffffffffffffffffffffffffffffffffffffffff16905090565b600b818154811061196d57600080fd5b906000526020600020906005020160009150905080600101805461199090614a22565b80601f01602080910402602001604051908101604052809291908181526020018280546119bc90614a22565b8015611a095780601f106119de57610100808354040283529160200191611a09565b820191906000526020600020905b8154815290600101906020018083116119ec57829003601f168201915b505050505090806002015490806003018054611a2490614a22565b80601f0160208091040260200160405190810160405280929190818152602001828054611a5090614a22565b8015611a9d5780601f10611a7257610100808354040283529160200191611a9d565b820191906000526020600020905b815481529060010190602001808311611a8057829003601f168201915b5050505050908060040154905084565b60005b8251811015611bb7576000838281518110611af4577f4e487b7100000000000000000000000000000000000000000000000000000000600052603260045260246000fd5b60200260200101519050828281518110611b37577f4e487b7100000000000000000000000000000000000000000000000000000000600052603260045260246000fd5b60200260200101516009600087815260200190815260200160002060008373ffffffffffffffffffffffffffffffffffffffff1673ffffffffffffffffffffffffffffffffffffffff1681526020019081526020016000209080519060200190611ba2929190612e0f565b50508080611baf90614a54565b915050611ab0565b50505050565b8173ffffffffffffffffffffffffffffffffffffffff16611bdc612225565b73ffffffffffffffffffffffffffffffffffffffff161415611c33576040517f08c379a0000000000000000000000000000000000000000000000000000000008152600401611c2a906145aa565b60405180910390fd5b8060016000611c40612225565b73ffffffffffffffffffffffffffffffffffffffff1673ffffffffffffffffffffffffffffffffffffffff16815260200190815260200160002060008473ffffffffffffffffffffffffffffffffffffffff1673ffffffffffffffffffffffffffffffffffffffff16815260200190815260200160002060006101000a81548160ff0219169083151502179055508173ffffffffffffffffffffffffffffffffffffffff16611ced612225565b73ffffffffffffffffffffffffffffffffffffffff167f17307eab39ab6107e8899845ad3d59bd9653f200f220920489ca2b5937696c3183604051611d329190614367565b60405180910390a35050565b600a602052816000526040600020602052806000526040600020600091509150508054611d6a90614a22565b80601f0160208091040260200160405190810160405280929190818152602001828054611d9690614a22565b8015611de35780601f10611db857610100808354040283529160200191611de3565b820191906000526020600020905b815481529060010190602001808311611dc657829003601f168201915b505050505081565b6000600b80549050905090565b6000600160008473ffffffffffffffffffffffffffffffffffffffff1673ffffffffffffffffffffffffffffffffffffffff16815260200190815260200160002060008373ffffffffffffffffffffffffffffffffffffffff1673ffffffffffffffffffffffffffffffffffffffff16815260200190815260200160002060009054906101000a900460ff16905092915050565b611e94612225565b73ffffffffffffffffffffffffffffffffffffffff168573ffffffffffffffffffffffffffffffffffffffff161480611eda5750611ed985611ed4612225565b611df8565b5b611f19576040517f08c379a0000000000000000000000000000000000000000000000000000000008152600401611f109061450a565b60405180910390fd5b611f268585858585612653565b5050505050565b611f35612225565b73ffffffffffffffffffffffffffffffffffffffff16611f53611933565b73ffffffffffffffffffffffffffffffffffffffff1614611fa9576040517f08c379a0000000000000000000000000000000000000000000000000000000008152600401611fa09061458a565b60405180910390fd5b600073ffffffffffffffffffffffffffffffffffffffff168173ffffffffffffffffffffffffffffffffffffffff161415612019576040517f08c379a0000000000000000000000000000000000000000000000000000000008152600401612010906144ea565b60405180910390fd5b6120228161258d565b50565b60007f01ffc9a7000000000000000000000000000000000000000000000000000000007bffffffffffffffffffffffffffffffffffffffffffffffffffffffff1916827bffffffffffffffffffffffffffffffffffffffffffffffffffffffff1916149050919050565b600073ffffffffffffffffffffffffffffffffffffffff168473ffffffffffffffffffffffffffffffffffffffff1614156120ff576040517f08c379a00000000000000000000000000000000000000000000000000000000081526004016120f69061460a565b60405180910390fd5b6000612109612225565b905061212a8160008761211b886128d5565b612124886128d5565b8761299b565b8260008086815260200190815260200160002060008773ffffffffffffffffffffffffffffffffffffffff1673ffffffffffffffffffffffffffffffffffffffff168152602001908152602001600020600082825461218991906148d0565b925050819055508473ffffffffffffffffffffffffffffffffffffffff16600073ffffffffffffffffffffffffffffffffffffffff168273ffffffffffffffffffffffffffffffffffffffff167fc3d58168c5ae7397731d063d5bbf3d657854427343f4c083240f7aacaa2d0f628787604051612207929190614645565b60405180910390a461221e816000878787876129a3565b5050505050565b600033905090565b8151835114612271576040517f08c379a0000000000000000000000000000000000000000000000000000000008152600401612268906145ea565b60405180910390fd5b600073ffffffffffffffffffffffffffffffffffffffff168473ffffffffffffffffffffffffffffffffffffffff1614156122e1576040517f08c379a00000000000000000000000000000000000000000000000000000000081526004016122d89061452a565b60405180910390fd5b60006122eb612225565b90506122fb81878787878761299b565b60005b84518110156124f8576000858281518110612342577f4e487b7100000000000000000000000000000000000000000000000000000000600052603260045260246000fd5b602002602001015190506000858381518110612387577f4e487b7100000000000000000000000000000000000000000000000000000000600052603260045260246000fd5b60200260200101519050600080600084815260200190815260200160002060008b73ffffffffffffffffffffffffffffffffffffffff1673ffffffffffffffffffffffffffffffffffffffff16815260200190815260200160002054905081811015612428576040517f08c379a000000000000000000000000000000000000000000000000000000000815260040161241f9061456a565b60405180910390fd5b81810360008085815260200190815260200160002060008c73ffffffffffffffffffffffffffffffffffffffff1673ffffffffffffffffffffffffffffffffffffffff168152602001908152602001600020819055508160008085815260200190815260200160002060008b73ffffffffffffffffffffffffffffffffffffffff1673ffffffffffffffffffffffffffffffffffffffff16815260200190815260200160002060008282546124dd91906148d0565b92505081905550505050806124f190614a54565b90506122fe565b508473ffffffffffffffffffffffffffffffffffffffff168673ffffffffffffffffffffffffffffffffffffffff168273ffffffffffffffffffffffffffffffffffffffff167f4a39dc06d4c0dbc64b70af90fd698a233a518aa5d07e595d983b8c0526c8f7fb878760405161256f929190614330565b60405180910390a4612585818787878787612b73565b505050505050565b6000600360009054906101000a900473ffffffffffffffffffffffffffffffffffffffff16905081600360006101000a81548173ffffffffffffffffffffffffffffffffffffffff021916908373ffffffffffffffffffffffffffffffffffffffff1602179055508173ffffffffffffffffffffffffffffffffffffffff168173ffffffffffffffffffffffffffffffffffffffff167f8be0079c531659141344cd1fd0a4f28419497f9722a3daafe3b4186f6b6457e060405160405180910390a35050565b600073ffffffffffffffffffffffffffffffffffffffff168473ffffffffffffffffffffffffffffffffffffffff1614156126c3576040517f08c379a00000000000000000000000000000000000000000000000000000000081526004016126ba9061452a565b60405180910390fd5b60006126cd612225565b90506126ed8187876126de886128d5565b6126e7886128d5565b8761299b565b600080600086815260200190815260200160002060008873ffffffffffffffffffffffffffffffffffffffff1673ffffffffffffffffffffffffffffffffffffffff16815260200190815260200160002054905083811015612784576040517f08c379a000000000000000000000000000000000000000000000000000000000815260040161277b9061456a565b60405180910390fd5b83810360008087815260200190815260200160002060008973ffffffffffffffffffffffffffffffffffffffff1673ffffffffffffffffffffffffffffffffffffffff168152602001908152602001600020819055508360008087815260200190815260200160002060008873ffffffffffffffffffffffffffffffffffffffff1673ffffffffffffffffffffffffffffffffffffffff168152602001908152602001600020600082825461283991906148d0565b925050819055508573ffffffffffffffffffffffffffffffffffffffff168773ffffffffffffffffffffffffffffffffffffffff168373ffffffffffffffffffffffffffffffffffffffff167fc3d58168c5ae7397731d063d5bbf3d657854427343f4c083240f7aacaa2d0f6288886040516128b6929190614645565b60405180910390a46128cc8288888888886129a3565b50505050505050565b60606000600167ffffffffffffffff81111561291a577f4e487b7100000000000000000000000000000000000000000000000000000000600052604160045260246000fd5b6040519080825280602002602001820160405280156129485781602001602082028036833780820191505090505b5090508281600081518110612986577f4e487b7100000000000000000000000000000000000000000000000000000000600052603260045260246000fd5b60200260200101818152505080915050919050565b505050505050565b6129c28473ffffffffffffffffffffffffffffffffffffffff16612d43565b15612b6b578373ffffffffffffffffffffffffffffffffffffffff1663f23a6e6187878686866040518663ffffffff1660e01b8152600401612a0895949392919061422a565b602060405180830381600087803b158015612a2257600080fd5b505af1925050508015612a5357506040513d601f19601f82011682018060405250810190612a5091906136f4565b60015b612ae257612a5f614ba8565b80612a6a5750612aa7565b806040517f08c379a0000000000000000000000000000000000000000000000000000000008152600401612a9e9190614382565b60405180910390fd5b6040517f08c379a0000000000000000000000000000000000000000000000000000000008152600401612ad99061444a565b60405180910390fd5b63f23a6e6160e01b7bffffffffffffffffffffffffffffffffffffffffffffffffffffffff1916817bffffffffffffffffffffffffffffffffffffffffffffffffffffffff191614612b69576040517f08c379a0000000000000000000000000000000000000000000000000000000008152600401612b609061446a565b60405180910390fd5b505b505050505050565b612b928473ffffffffffffffffffffffffffffffffffffffff16612d43565b15612d3b578373ffffffffffffffffffffffffffffffffffffffff1663bc197c8187878686866040518663ffffffff1660e01b8152600401612bd89594939291906141c2565b602060405180830381600087803b158015612bf257600080fd5b505af1925050508015612c2357506040513d601f19601f82011682018060405250810190612c2091906136f4565b60015b612cb257612c2f614ba8565b80612c3a5750612c77565b806040517f08c379a0000000000000000000000000000000000000000000000000000000008152600401612c6e9190614382565b60405180910390fd5b6040517f08c379a0000000000000000000000000000000000000000000000000000000008152600401612ca99061444a565b60405180910390fd5b63bc197c8160e01b7bffffffffffffffffffffffffffffffffffffffffffffffffffffffff1916817bffffffffffffffffffffffffffffffffffffffffffffffffffffffff191614612d39576040517f08c379a0000000000000000000000000000000000000000000000000000000008152600401612d309061446a565b60405180910390fd5b505b505050505050565b600080823b905060008111915050919050565b6040518060a0016040528060608152602001606081526020016000815260200160608152602001600081525090565b828054828255906000526020600020908101928215612dfe579160200282015b82811115612dfd5782518260006101000a81548173ffffffffffffffffffffffffffffffffffffffff021916908373ffffffffffffffffffffffffffffffffffffffff16021790555091602001919060010190612da5565b5b509050612e0b9190612f1b565b5090565b828054612e1b90614a22565b90600052602060002090601f016020900481019282612e3d5760008555612e84565b82601f10612e5657805160ff1916838001178555612e84565b82800160010185558215612e84579182015b82811115612e83578251825591602001919060010190612e68565b5b509050612e919190612f1b565b5090565b828054612ea190614a22565b90600052602060002090601f016020900481019282612ec35760008555612f0a565b82601f10612edc57805160ff1916838001178555612f0a565b82800160010185558215612f0a579182015b82811115612f09578251825591602001919060010190612eee565b5b509050612f179190612f1b565b5090565b5b80821115612f34576000816000905550600101612f1c565b5090565b6000612f4b612f468461469f565b61466e565b90508083825260208201905082856020860282011115612f6a57600080fd5b60005b85811015612f9a5781612f808882613155565b845260208401935060208301925050600181019050612f6d565b5050509392505050565b6000612fb7612fb2846146cb565b61466e565b90508083825260208201905082856020860282011115612fd657600080fd5b60005b858110156130065781612fec888261316a565b845260208401935060208301925050600181019050612fd9565b5050509392505050565b600061302361301e846146f7565b61466e565b9050808382526020820190508260005b8581101561306357813585016130498882613290565b845260208401935060208301925050600181019050613033565b5050509392505050565b600061308061307b84614723565b61466e565b9050808382526020820190508285602086028201111561309f57600080fd5b60005b858110156130cf57816130b588826132ba565b8452602084019350602083019250506001810190506130a2565b5050509392505050565b60006130ec6130e78461474f565b61466e565b90508281526020810184848401111561310457600080fd5b61310f8482856149e0565b509392505050565b600061312a6131258461477f565b61466e565b90508281526020810184848401111561314257600080fd5b61314d8482856149e0565b509392505050565b60008135905061316481614c5e565b92915050565b60008135905061317981614c75565b92915050565b600082601f83011261319057600080fd5b81356131a0848260208601612f38565b91505092915050565b600082601f8301126131ba57600080fd5b81356131ca848260208601612fa4565b91505092915050565b600082601f8301126131e457600080fd5b81356131f4848260208601613010565b91505092915050565b600082601f83011261320e57600080fd5b813561321e84826020860161306d565b91505092915050565b60008135905061323681614c8c565b92915050565b60008135905061324b81614ca3565b92915050565b60008151905061326081614ca3565b92915050565b600082601f83011261327757600080fd5b81356132878482602086016130d9565b91505092915050565b600082601f8301126132a157600080fd5b81356132b1848260208601613117565b91505092915050565b6000813590506132c981614cba565b92915050565b6000602082840312156132e157600080fd5b60006132ef84828501613155565b91505092915050565b6000806040838503121561330b57600080fd5b600061331985828601613155565b925050602061332a85828601613155565b9150509250929050565b600080600080600060a0868803121561334c57600080fd5b600061335a88828901613155565b955050602061336b88828901613155565b945050604086013567ffffffffffffffff81111561338857600080fd5b613394888289016131fd565b935050606086013567ffffffffffffffff8111156133b157600080fd5b6133bd888289016131fd565b925050608086013567ffffffffffffffff8111156133da57600080fd5b6133e688828901613266565b9150509295509295909350565b600080600080600060a0868803121561340b57600080fd5b600061341988828901613155565b955050602061342a88828901613155565b945050604061343b888289016132ba565b935050606061344c888289016132ba565b925050608086013567ffffffffffffffff81111561346957600080fd5b61347588828901613266565b9150509295509295909350565b6000806040838503121561349557600080fd5b60006134a385828601613155565b92505060206134b485828601613227565b9150509250929050565b600080604083850312156134d157600080fd5b60006134df85828601613155565b92505060206134f0858286016132ba565b9150509250929050565b6000806040838503121561350d57600080fd5b600083013567ffffffffffffffff81111561352757600080fd5b6135338582860161317f565b925050602083013567ffffffffffffffff81111561355057600080fd5b61355c858286016131fd565b9150509250929050565b600080600080600080600060e0888a03121561358157600080fd5b600088013567ffffffffffffffff81111561359b57600080fd5b6135a78a828b0161317f565b975050602088013567ffffffffffffffff8111156135c457600080fd5b6135d08a828b01613290565b96505060406135e18a828b016132ba565b955050606088013567ffffffffffffffff8111156135fe57600080fd5b61360a8a828b01613290565b945050608088013567ffffffffffffffff81111561362757600080fd5b6136338a828b01613290565b93505060a06136448a828b016132ba565b92505060c06136558a828b016132ba565b91505092959891949750929550565b60008060006060848603121561367957600080fd5b600084013567ffffffffffffffff81111561369357600080fd5b61369f868287016131a9565b93505060206136b0868287016132ba565b92505060406136c1868287016132ba565b9150509250925092565b6000602082840312156136dd57600080fd5b60006136eb8482850161323c565b91505092915050565b60006020828403121561370657600080fd5b600061371484828501613251565b91505092915050565b60006020828403121561372f57600080fd5b600061373d848285016132ba565b91505092915050565b6000806040838503121561375957600080fd5b6000613767858286016132ba565b925050602061377885828601613155565b9150509250929050565b60008060006060848603121561379757600080fd5b60006137a5868287016132ba565b935050602084013567ffffffffffffffff8111156137c257600080fd5b6137ce8682870161317f565b925050604084013567ffffffffffffffff8111156137eb57600080fd5b6137f7868287016131d3565b9150509250925092565b600061380d8383613854565b60208301905092915050565b600061382583836140d3565b905092915050565b60006138398383614157565b60208301905092915050565b61384e8161496c565b82525050565b61385d8161495a565b82525050565b61386c8161495a565b82525050565b600061387d826147df565b613887818561483d565b9350613892836147af565b8060005b838110156138c35781516138aa8882613801565b97506138b583614816565b925050600181019050613896565b5085935050505092915050565b60006138db826147df565b6138e5818561484e565b93506138f0836147af565b8060005b838110156139215781516139088882613801565b975061391383614816565b9250506001810190506138f4565b5085935050505092915050565b6000613939826147ea565b613943818561485f565b935083602082028501613955856147bf565b8060005b8581101561399157848403895281516139728582613819565b945061397d83614823565b925060208a01995050600181019050613959565b50829750879550505050505092915050565b60006139ae826147f5565b6139b88185614870565b93506139c3836147cf565b8060005b838110156139f45781516139db888261382d565b97506139e683614830565b9250506001810190506139c7565b5085935050505092915050565b613a0a8161497e565b82525050565b6000613a1b82614800565b613a258185614881565b9350613a358185602086016149ef565b613a3e81614b8a565b840191505092915050565b6000613a5482614800565b613a5e8185614892565b9350613a6e8185602086016149ef565b613a7781614b8a565b840191505092915050565b6000613a8d8261480b565b613a9781856148a3565b9350613aa78185602086016149ef565b613ab081614b8a565b840191505092915050565b6000613ac68261480b565b613ad081856148b4565b9350613ae08185602086016149ef565b613ae981614b8a565b840191505092915050565b6000613aff8261480b565b613b0981856148c5565b9350613b198185602086016149ef565b80840191505092915050565b6000613b326034836148b4565b91507f455243313135353a207472616e7366657220746f206e6f6e204552433131353560008301527f526563656976657220696d706c656d656e7465720000000000000000000000006020830152604082019050919050565b6000613b986028836148b4565b91507f455243313135353a204552433131353552656365697665722072656a6563746560008301527f6420746f6b656e730000000000000000000000000000000000000000000000006020830152604082019050919050565b6000613bfe6021836148b4565b91507f4572723a205069636b206120556e69717565204368616c6c656e6765204e616d60008301527f65000000000000000000000000000000000000000000000000000000000000006020830152604082019050919050565b6000613c64602b836148b4565b91507f455243313135353a2062616c616e636520717565727920666f7220746865207a60008301527f65726f20616464726573730000000000000000000000000000000000000000006020830152604082019050919050565b6000613cca6020836148b4565b91507f4368616c6c656e6765732072657175697265207374616b65642066756e6473216000830152602082019050919050565b6000613d0a6026836148b4565b91507f4f776e61626c653a206e6577206f776e657220697320746865207a65726f206160008301527f64647265737300000000000000000000000000000000000000000000000000006020830152604082019050919050565b6000613d706029836148b4565b91507f455243313135353a2063616c6c6572206973206e6f74206f776e6572206e6f7260008301527f20617070726f76656400000000000000000000000000000000000000000000006020830152604082019050919050565b6000613dd66025836148b4565b91507f455243313135353a207472616e7366657220746f20746865207a65726f20616460008301527f64726573730000000000000000000000000000000000000000000000000000006020830152604082019050919050565b6000613e3c6032836148b4565b91507f455243313135353a207472616e736665722063616c6c6572206973206e6f742060008301527f6f776e6572206e6f7220617070726f76656400000000000000000000000000006020830152604082019050919050565b6000613ea2602a836148b4565b91507f455243313135353a20696e73756666696369656e742062616c616e636520666f60008301527f72207472616e73666572000000000000000000000000000000000000000000006020830152604082019050919050565b6000613f086020836148b4565b91507f4f776e61626c653a2063616c6c6572206973206e6f7420746865206f776e65726000830152602082019050919050565b6000613f486029836148b4565b91507f455243313135353a2073657474696e6720617070726f76616c2073746174757360008301527f20666f722073656c6600000000000000000000000000000000000000000000006020830152604082019050919050565b6000613fae6029836148b4565b91507f455243313135353a206163636f756e747320616e6420696473206c656e67746860008301527f206d69736d6174636800000000000000000000000000000000000000000000006020830152604082019050919050565b60006140146028836148b4565b91507f455243313135353a2069647320616e6420616d6f756e7473206c656e6774682060008301527f6d69736d617463680000000000000000000000000000000000000000000000006020830152604082019050919050565b600061407a6021836148b4565b91507f455243313135353a206d696e7420746f20746865207a65726f2061646472657360008301527f73000000000000000000000000000000000000000000000000000000000000006020830152604082019050919050565b600060a08301600083015184820360008601526140f08282613872565b9150506020830151848203602086015261410a8282613a82565b915050604083015161411f6040860182614157565b50606083015184820360608601526141378282613a10565b915050608083015161414c6080860182614157565b508091505092915050565b614160816149d6565b82525050565b61416f816149d6565b82525050565b60006141818284613af4565b915081905092915050565b60006020820190506141a16000830184613863565b92915050565b60006020820190506141bc6000830184613845565b92915050565b600060a0820190506141d76000830188613863565b6141e46020830187613863565b81810360408301526141f681866139a3565b9050818103606083015261420a81856139a3565b9050818103608083015261421e8184613a49565b90509695505050505050565b600060a08201905061423f6000830188613863565b61424c6020830187613863565b6142596040830186614166565b6142666060830185614166565b81810360808301526142788184613a49565b90509695505050505050565b600060a082019050818103600083015261429e81886138d0565b905081810360208301526142b28187613abb565b90506142c16040830186614166565b81810360608301526142d38185613a49565b90506142e26080830184614166565b9695505050505050565b60006020820190508181036000830152614306818461392e565b905092915050565b6000602082019050818103600083015261432881846139a3565b905092915050565b6000604082019050818103600083015261434a81856139a3565b9050818103602083015261435e81846139a3565b90509392505050565b600060208201905061437c6000830184613a01565b92915050565b6000602082019050818103600083015261439c8184613abb565b905092915050565b600060808201905081810360008301526143be8187613abb565b905081810360208301526143d28186613abb565b90506143e16040830185614166565b6143ee6060830184614166565b95945050505050565b600060808201905081810360008301526144118187613abb565b90506144206020830186614166565b81810360408301526144328185613a49565b90506144416060830184614166565b95945050505050565b6000602082019050818103600083015261446381613b25565b9050919050565b6000602082019050818103600083015261448381613b8b565b9050919050565b600060208201905081810360008301526144a381613bf1565b9050919050565b600060208201905081810360008301526144c381613c57565b9050919050565b600060208201905081810360008301526144e381613cbd565b9050919050565b6000602082019050818103600083015261450381613cfd565b9050919050565b6000602082019050818103600083015261452381613d63565b9050919050565b6000602082019050818103600083015261454381613dc9565b9050919050565b6000602082019050818103600083015261456381613e2f565b9050919050565b6000602082019050818103600083015261458381613e95565b9050919050565b600060208201905081810360008301526145a381613efb565b9050919050565b600060208201905081810360008301526145c381613f3b565b9050919050565b600060208201905081810360008301526145e381613fa1565b9050919050565b6000602082019050818103600083015261460381614007565b9050919050565b600060208201905081810360008301526146238161406d565b9050919050565b600060208201905061463f6000830184614166565b92915050565b600060408201905061465a6000830185614166565b6146676020830184614166565b9392505050565b6000604051905081810181811067ffffffffffffffff8211171561469557614694614b5b565b5b8060405250919050565b600067ffffffffffffffff8211156146ba576146b9614b5b565b5b602082029050602081019050919050565b600067ffffffffffffffff8211156146e6576146e5614b5b565b5b602082029050602081019050919050565b600067ffffffffffffffff82111561471257614711614b5b565b5b602082029050602081019050919050565b600067ffffffffffffffff82111561473e5761473d614b5b565b5b602082029050602081019050919050565b600067ffffffffffffffff82111561476a57614769614b5b565b5b601f19601f8301169050602081019050919050565b600067ffffffffffffffff82111561479a57614799614b5b565b5b601f19601f8301169050602081019050919050565b6000819050602082019050919050565b6000819050602082019050919050565b6000819050602082019050919050565b600081519050919050565b600081519050919050565b600081519050919050565b600081519050919050565b600081519050919050565b6000602082019050919050565b6000602082019050919050565b6000602082019050919050565b600082825260208201905092915050565b600082825260208201905092915050565b600082825260208201905092915050565b600082825260208201905092915050565b600082825260208201905092915050565b600082825260208201905092915050565b600082825260208201905092915050565b600082825260208201905092915050565b600081905092915050565b60006148db826149d6565b91506148e6836149d6565b9250827fffffffffffffffffffffffffffffffffffffffffffffffffffffffffffffffff0382111561491b5761491a614ace565b5b828201905092915050565b6000614931826149d6565b915061493c836149d6565b92508282101561494f5761494e614ace565b5b828203905092915050565b6000614965826149b6565b9050919050565b6000614977826149b6565b9050919050565b60008115159050919050565b60007fffffffff0000000000000000000000000000000000000000000000000000000082169050919050565b600073ffffffffffffffffffffffffffffffffffffffff82169050919050565b6000819050919050565b82818337600083830152505050565b60005b83811015614a0d5780820151818401526020810190506149f2565b83811115614a1c576000848401525b50505050565b60006002820490506001821680614a3a57607f821691505b60208210811415614a4e57614a4d614b2c565b5b50919050565b6000614a5f826149d6565b91507fffffffffffffffffffffffffffffffffffffffffffffffffffffffffffffffff821415614a9257614a91614ace565b5b600182019050919050565b6000614aa8826149d6565b9150614ab3836149d6565b925082614ac357614ac2614afd565b5b828206905092915050565b7f4e487b7100000000000000000000000000000000000000000000000000000000600052601160045260246000fd5b7f4e487b7100000000000000000000000000000000000000000000000000000000600052601260045260246000fd5b7f4e487b7100000000000000000000000000000000000000000000000000000000600052602260045260246000fd5b7f4e487b7100000000000000000000000000000000000000000000000000000000600052604160045260246000fd5b6000601f19601f8301169050919050565b60008160e01c9050919050565b600060443d1015614bb857614c5b565b60046000803e614bc9600051614b9b565b6308c379a08114614bda5750614c5b565b60405160043d036004823e80513d602482011167ffffffffffffffff82111715614c0657505050614c5b565b808201805167ffffffffffffffff811115614c25575050505050614c5b565b8060208301013d8501811115614c4057505050505050614c5b565b614c4982614b8a565b60208401016040528296505050505050505b90565b614c678161495a565b8114614c7257600080fd5b50565b614c7e8161496c565b8114614c8957600080fd5b50565b614c958161497e565b8114614ca057600080fd5b50565b614cac8161498a565b8114614cb757600080fd5b50565b614cc3816149d6565b8114614cce57600080fd5b5056fea26469706673582212205d3b57796b6fe21ce6ae3ddca0fc3bade4a3770e9837fcc025215aca9251333c64736f6c63430008000033687474703a2f2f6c6f63616c686f73743a383838382f7075626c69632f23212f4368616c6c656e6765546f6b656e43686573742f7b69647d2e6a736f6e",
  "immutableReferences": {},
  "source": "// SPDX-License-Identifier: MIT\npragma solidity >= 0.8.0;\npragma abicoder v2;\nimport \"@openzeppelin/contracts/token/ERC1155/ERC1155.sol\";\nimport \"@openzeppelin/contracts/access/Ownable.sol\";\nimport \"./Challenge.sol\";\n\ncontract ChallengeToken is ERC1155, Ownable{\n  mapping (uint256 => bool) public is_on_manifest;\n  mapping (address => uint256) public map_initiator_to_id;\n  mapping (uint256 => Challenges.Challenge) public map_id_to_Challenge;\n\n  address payable private OA = payable(msg.sender);\n  address payable public CT_X_Address;\n  mapping (uint256 => mapping(address => string)) public Token_Player_Email_Map;\n  mapping (uint256 => mapping(address => string)) public Token_Player_Duo_Map;\n\n  Challenges.Challenge[] public challenges;\n  event ManifestedChallengeToken(address [] players,string _name,uint256 _id,bytes mint_data,uint status);\n\n    constructor()\n    ERC1155(\"http://localhost:8888/public/#!/ChallengeTokenChest/{id}.json\")\n    Ownable()\n    {}\n  function tokenGenesis (\n    address [] memory _player_list,\n     string memory _name,\n      uint256 _num_to_issue,\n       string memory _mint_date,\n        string memory _type,\n         uint256 _streak_days,\n          uint256 _stake_amount\n  )public payable\n   returns (uint256) {\n      require(msg.value > 0, \"Challenges require staked funds!\");\n      // OA.transfer(msg.value);\n      uint256 idmod = 10 ** 16;\n      uint256 token_id = uint256(keccak256(abi.encodePacked(_name)));\n      uint256 _id = token_id % idmod;\n      require(!is_on_manifest[_id], \"Err: Pick a Unique Challenge Name\");\n      Challenges.Challenge memory new_challenge;\n      new_challenge.players = _player_list;\n      new_challenge.name = _name;\n      new_challenge.id = _id;\n      bytes memory mintData = abi.encode(_mint_date, _type, _streak_days, _stake_amount);\n      new_challenge.mint_data = mintData;\n      new_challenge.status = 0;\n      challenges.push(new_challenge);\n      map_initiator_to_id[msg.sender] = _id;\n      map_id_to_Challenge[_id] = new_challenge;\n      is_on_manifest[_id] = true;\n      _mint(msg.sender, _id, _num_to_issue, mintData);\n      for(uint i=0; i <= _player_list.length ; i++){\n        if(msg.sender != _player_list[i]){\n          setApprovalForAll(_player_list[i], true);\n          safeTransferFrom(msg.sender, _player_list[i], _id, 1, mintData);\n          break;\n        }\n      }\n      emit ManifestedChallengeToken(new_challenge.players,new_challenge.name,new_challenge.id,new_challenge.mint_data,new_challenge.status);\n      return _id;\n  }\n  function getChallenges() public view returns (Challenges.Challenge[] memory) {\n        Challenges.Challenge[] memory c = new Challenges.Challenge[](challenges.length);\n        for (uint i = 0; i <= challenges.length-1; i++) {\n          Challenges.Challenge storage this_challenge = challenges[i];\n          c[i] = this_challenge;\n        }\n        return c;\n    }\n\n  function getChallengeTokensLength() public view returns(uint256){\n    return challenges.length;\n  }\n  function update_Token_Player_Email_Map(uint256 _id, address [] memory _player_ethAddr_list, string [] memory _player_email_list) public {\n      for(uint i = 0; i < _player_ethAddr_list.length; i++){\n        address _player = _player_ethAddr_list[i];\n        Token_Player_Email_Map[_id][_player] = _player_email_list[i];\n      }\n  }\n  function update_Token_Player_Duo_Map(uint256 _id, address [] memory _player_ethAddr_list, string [] memory _player_duo_list) public {\n      for(uint i = 0; i < _player_ethAddr_list.length; i++){\n        address _player = _player_ethAddr_list[i];\n        Token_Player_Duo_Map[_id][_player] = _player_duo_list[i];\n      }\n  }\n  function fetch_Email_By_Id_And_EthAddr(uint256 _id, address _ethAddr) public view returns(string memory){\n    return Token_Player_Email_Map[_id][_ethAddr];\n  }\n  function fetch_Duo_Info_By_Id_And_EthAddr(uint256 _id, address _ethAddr) public view returns(string memory){\n    return Token_Player_Duo_Map[_id][_ethAddr];\n  }\n  function babelBet_Payout(address payable [] memory _payoutAddrList, uint256 _id, uint256 _payout_amount) public payable {\n    // require(balance >= _payout_amount * _payoutAddrList.length, \"Not enough funds in contract to afford payout ... \");\n    //function to iterate through the players on the final payout list who met the terms of the challenge\n    for(uint i = 0; i < _payoutAddrList.length; i++){\n      address payable player = _payoutAddrList[i];\n      // require(isOnOriginalChallengeList(_id,player),\"Nice Try Slick! Fuck OFF!(address not on original challenge list)\");// guard against someone trying to add their info to the list without being on the list on chain\n      player.transfer(_payout_amount);\n    }\n    // changeStatusToPaid(_id);\n\n  }\n  function changeStatusToPaid(uint256 _id) private returns(uint256){\n    //function to iterate through the players on the final payout list who met the terms of the challenge\n    Challenges.Challenge memory challenge = map_id_to_Challenge[_id];\n    challenge.status = 2;\n    map_id_to_Challenge[_id] = challenge;\n    return map_id_to_Challenge[_id].status;\n  }\n  function isOnOriginalChallengeList(uint256 _id, address _player) private returns(bool is_in){\n    is_in = false;\n    Challenges.Challenge memory challenge = map_id_to_Challenge[_id];\n    for(uint i = 0; i < challenge.players.length; i++){\n      if (challenge.players[i] == _player){\n        is_in = true;\n        return is_in;\n      }\n    }\n    return is_in;\n  }\n  // @notice Will receive any eth sent to the contract\n  fallback () external payable {\n  }\n  // After the 1 day cooldown period, those players are awarded their payout\n  // and the 1155's status in the 'mint_data' variable is changed to '2' - or 'paid'\n}\n",
  "sourcePath": "/Volumes/TerryBytes2/2021_Kode_Tut/BabelBet/contracts/ChallengeToken.sol",
  "compiler": {
    "name": "solc",
    "version": "0.8.0+commit.c7dfd78e.Emscripten.clang"
  },
  "schemaVersion": "3.4.3",
  "updatedAt": "2021-12-05T19:02:07.398Z",
  "networkType": "ethereum",
  "devdoc": {
    "kind": "dev",
    "methods": {
      "balanceOf(address,uint256)": {
        "details": "See {IERC1155-balanceOf}. Requirements: - `account` cannot be the zero address."
      },
      "balanceOfBatch(address[],uint256[])": {
        "details": "See {IERC1155-balanceOfBatch}. Requirements: - `accounts` and `ids` must have the same length."
      },
      "isApprovedForAll(address,address)": {
        "details": "See {IERC1155-isApprovedForAll}."
      },
      "owner()": {
        "details": "Returns the address of the current owner."
      },
      "renounceOwnership()": {
        "details": "Leaves the contract without owner. It will not be possible to call `onlyOwner` functions anymore. Can only be called by the current owner. NOTE: Renouncing ownership will leave the contract without an owner, thereby removing any functionality that is only available to the owner."
      },
      "safeBatchTransferFrom(address,address,uint256[],uint256[],bytes)": {
        "details": "See {IERC1155-safeBatchTransferFrom}."
      },
      "safeTransferFrom(address,address,uint256,uint256,bytes)": {
        "details": "See {IERC1155-safeTransferFrom}."
      },
      "setApprovalForAll(address,bool)": {
        "details": "See {IERC1155-setApprovalForAll}."
      },
      "supportsInterface(bytes4)": {
        "details": "See {IERC165-supportsInterface}."
      },
      "transferOwnership(address)": {
        "details": "Transfers ownership of the contract to a new account (`newOwner`). Can only be called by the current owner."
      },
      "uri(uint256)": {
        "details": "See {IERC1155MetadataURI-uri}. This implementation returns the same URI for *all* token types. It relies on the token type ID substitution mechanism https://eips.ethereum.org/EIPS/eip-1155#metadata[defined in the EIP]. Clients calling this function must replace the `\\{id\\}` substring with the actual token type ID."
      }
    },
    "version": 1
  },
  "userdoc": {
    "kind": "user",
    "methods": {},
    "version": 1
  }
}