{
  "contractName": "ChallengeToken",
  "abi": [
    {
      "inputs": [],
      "stateMutability": "nonpayable",
      "type": "constructor"
    },
    {
      "anonymous": false,
      "inputs": [
        {
          "indexed": true,
          "internalType": "address",
          "name": "account",
          "type": "address"
        },
        {
          "indexed": true,
          "internalType": "address",
          "name": "operator",
          "type": "address"
        },
        {
          "indexed": false,
          "internalType": "bool",
          "name": "approved",
          "type": "bool"
        }
      ],
      "name": "ApprovalForAll",
      "type": "event"
    },
    {
      "anonymous": false,
      "inputs": [
        {
          "indexed": false,
          "internalType": "address",
          "name": "initiator",
          "type": "address"
        },
        {
          "indexed": false,
          "internalType": "bytes",
          "name": "_uri",
          "type": "bytes"
        },
        {
          "indexed": false,
          "internalType": "string",
          "name": "_ename",
          "type": "string"
        },
        {
          "indexed": false,
          "internalType": "string",
          "name": "_esym",
          "type": "string"
        },
        {
          "indexed": false,
          "internalType": "uint256",
          "name": "_id",
          "type": "uint256"
        },
        {
          "indexed": false,
          "internalType": "bytes",
          "name": "mint_data",
          "type": "bytes"
        }
      ],
      "name": "ManifestedChallengeToken",
      "type": "event"
    },
    {
      "anonymous": false,
      "inputs": [
        {
          "indexed": true,
          "internalType": "address",
          "name": "previousOwner",
          "type": "address"
        },
        {
          "indexed": true,
          "internalType": "address",
          "name": "newOwner",
          "type": "address"
        }
      ],
      "name": "OwnershipTransferred",
      "type": "event"
    },
    {
      "anonymous": false,
      "inputs": [
        {
          "indexed": true,
          "internalType": "address",
          "name": "operator",
          "type": "address"
        },
        {
          "indexed": true,
          "internalType": "address",
          "name": "from",
          "type": "address"
        },
        {
          "indexed": true,
          "internalType": "address",
          "name": "to",
          "type": "address"
        },
        {
          "indexed": false,
          "internalType": "uint256[]",
          "name": "ids",
          "type": "uint256[]"
        },
        {
          "indexed": false,
          "internalType": "uint256[]",
          "name": "values",
          "type": "uint256[]"
        }
      ],
      "name": "TransferBatch",
      "type": "event"
    },
    {
      "anonymous": false,
      "inputs": [
        {
          "indexed": true,
          "internalType": "address",
          "name": "operator",
          "type": "address"
        },
        {
          "indexed": true,
          "internalType": "address",
          "name": "from",
          "type": "address"
        },
        {
          "indexed": true,
          "internalType": "address",
          "name": "to",
          "type": "address"
        },
        {
          "indexed": false,
          "internalType": "uint256",
          "name": "id",
          "type": "uint256"
        },
        {
          "indexed": false,
          "internalType": "uint256",
          "name": "value",
          "type": "uint256"
        }
      ],
      "name": "TransferSingle",
      "type": "event"
    },
    {
      "anonymous": false,
      "inputs": [
        {
          "indexed": false,
          "internalType": "string",
          "name": "value",
          "type": "string"
        },
        {
          "indexed": true,
          "internalType": "uint256",
          "name": "id",
          "type": "uint256"
        }
      ],
      "name": "URI",
      "type": "event"
    },
    {
      "inputs": [],
      "name": "CT_X_Address",
      "outputs": [
        {
          "internalType": "address payable",
          "name": "",
          "type": "address"
        }
      ],
      "stateMutability": "view",
      "type": "function",
      "constant": true
    },
    {
      "inputs": [],
      "name": "OA",
      "outputs": [
        {
          "internalType": "address payable",
          "name": "",
          "type": "address"
        }
      ],
      "stateMutability": "view",
      "type": "function",
      "constant": true
    },
    {
      "inputs": [
        {
          "internalType": "uint256",
          "name": "",
          "type": "uint256"
        }
      ],
      "name": "Player_List",
      "outputs": [
        {
          "internalType": "address payable",
          "name": "",
          "type": "address"
        }
      ],
      "stateMutability": "view",
      "type": "function",
      "constant": true
    },
    {
      "inputs": [
        {
          "internalType": "uint256",
          "name": "",
          "type": "uint256"
        },
        {
          "internalType": "address",
          "name": "",
          "type": "address"
        }
      ],
      "name": "Player_Map",
      "outputs": [
        {
          "internalType": "uint256",
          "name": "",
          "type": "uint256"
        }
      ],
      "stateMutability": "view",
      "type": "function",
      "constant": true
    },
    {
      "inputs": [
        {
          "internalType": "address",
          "name": "account",
          "type": "address"
        },
        {
          "internalType": "uint256",
          "name": "id",
          "type": "uint256"
        }
      ],
      "name": "balanceOf",
      "outputs": [
        {
          "internalType": "uint256",
          "name": "",
          "type": "uint256"
        }
      ],
      "stateMutability": "view",
      "type": "function",
      "constant": true
    },
    {
      "inputs": [
        {
          "internalType": "address[]",
          "name": "accounts",
          "type": "address[]"
        },
        {
          "internalType": "uint256[]",
          "name": "ids",
          "type": "uint256[]"
        }
      ],
      "name": "balanceOfBatch",
      "outputs": [
        {
          "internalType": "uint256[]",
          "name": "",
          "type": "uint256[]"
        }
      ],
      "stateMutability": "view",
      "type": "function",
      "constant": true
    },
    {
      "inputs": [
        {
          "internalType": "uint256",
          "name": "",
          "type": "uint256"
        }
      ],
      "name": "challenges",
      "outputs": [
        {
          "internalType": "address payable",
          "name": "initiator",
          "type": "address"
        },
        {
          "internalType": "bytes",
          "name": "uri",
          "type": "bytes"
        },
        {
          "internalType": "string",
          "name": "name",
          "type": "string"
        },
        {
          "internalType": "string",
          "name": "sym",
          "type": "string"
        },
        {
          "internalType": "uint256",
          "name": "id",
          "type": "uint256"
        },
        {
          "internalType": "bytes",
          "name": "mint_data",
          "type": "bytes"
        }
      ],
      "stateMutability": "view",
      "type": "function",
      "constant": true
    },
    {
      "inputs": [
        {
          "internalType": "address",
          "name": "account",
          "type": "address"
        },
        {
          "internalType": "address",
          "name": "operator",
          "type": "address"
        }
      ],
      "name": "isApprovedForAll",
      "outputs": [
        {
          "internalType": "bool",
          "name": "",
          "type": "bool"
        }
      ],
      "stateMutability": "view",
      "type": "function",
      "constant": true
    },
    {
      "inputs": [
        {
          "internalType": "uint256",
          "name": "",
          "type": "uint256"
        }
      ],
      "name": "is_on_manifest",
      "outputs": [
        {
          "internalType": "bool",
          "name": "",
          "type": "bool"
        }
      ],
      "stateMutability": "view",
      "type": "function",
      "constant": true
    },
    {
      "inputs": [
        {
          "internalType": "uint256",
          "name": "",
          "type": "uint256"
        }
      ],
      "name": "map_id_to_Challenge",
      "outputs": [
        {
          "internalType": "address payable",
          "name": "initiator",
          "type": "address"
        },
        {
          "internalType": "bytes",
          "name": "uri",
          "type": "bytes"
        },
        {
          "internalType": "string",
          "name": "name",
          "type": "string"
        },
        {
          "internalType": "string",
          "name": "sym",
          "type": "string"
        },
        {
          "internalType": "uint256",
          "name": "id",
          "type": "uint256"
        },
        {
          "internalType": "bytes",
          "name": "mint_data",
          "type": "bytes"
        }
      ],
      "stateMutability": "view",
      "type": "function",
      "constant": true
    },
    {
      "inputs": [
        {
          "internalType": "address",
          "name": "",
          "type": "address"
        }
      ],
      "name": "map_initiator_to_id",
      "outputs": [
        {
          "internalType": "uint256",
          "name": "",
          "type": "uint256"
        }
      ],
      "stateMutability": "view",
      "type": "function",
      "constant": true
    },
    {
      "inputs": [],
      "name": "owner",
      "outputs": [
        {
          "internalType": "address",
          "name": "",
          "type": "address"
        }
      ],
      "stateMutability": "view",
      "type": "function",
      "constant": true
    },
    {
      "inputs": [],
      "name": "renounceOwnership",
      "outputs": [],
      "stateMutability": "nonpayable",
      "type": "function"
    },
    {
      "inputs": [
        {
          "internalType": "address",
          "name": "from",
          "type": "address"
        },
        {
          "internalType": "address",
          "name": "to",
          "type": "address"
        },
        {
          "internalType": "uint256[]",
          "name": "ids",
          "type": "uint256[]"
        },
        {
          "internalType": "uint256[]",
          "name": "amounts",
          "type": "uint256[]"
        },
        {
          "internalType": "bytes",
          "name": "data",
          "type": "bytes"
        }
      ],
      "name": "safeBatchTransferFrom",
      "outputs": [],
      "stateMutability": "nonpayable",
      "type": "function"
    },
    {
      "inputs": [
        {
          "internalType": "address",
          "name": "from",
          "type": "address"
        },
        {
          "internalType": "address",
          "name": "to",
          "type": "address"
        },
        {
          "internalType": "uint256",
          "name": "id",
          "type": "uint256"
        },
        {
          "internalType": "uint256",
          "name": "amount",
          "type": "uint256"
        },
        {
          "internalType": "bytes",
          "name": "data",
          "type": "bytes"
        }
      ],
      "name": "safeTransferFrom",
      "outputs": [],
      "stateMutability": "nonpayable",
      "type": "function"
    },
    {
      "inputs": [
        {
          "internalType": "address",
          "name": "operator",
          "type": "address"
        },
        {
          "internalType": "bool",
          "name": "approved",
          "type": "bool"
        }
      ],
      "name": "setApprovalForAll",
      "outputs": [],
      "stateMutability": "nonpayable",
      "type": "function"
    },
    {
      "inputs": [
        {
          "internalType": "bytes4",
          "name": "interfaceId",
          "type": "bytes4"
        }
      ],
      "name": "supportsInterface",
      "outputs": [
        {
          "internalType": "bool",
          "name": "",
          "type": "bool"
        }
      ],
      "stateMutability": "view",
      "type": "function",
      "constant": true
    },
    {
      "inputs": [
        {
          "internalType": "address",
          "name": "newOwner",
          "type": "address"
        }
      ],
      "name": "transferOwnership",
      "outputs": [],
      "stateMutability": "nonpayable",
      "type": "function"
    },
    {
      "inputs": [
        {
          "internalType": "uint256",
          "name": "",
          "type": "uint256"
        }
      ],
      "name": "uri",
      "outputs": [
        {
          "internalType": "string",
          "name": "",
          "type": "string"
        }
      ],
      "stateMutability": "view",
      "type": "function",
      "constant": true
    },
    {
      "inputs": [
        {
          "internalType": "string",
          "name": "_ename",
          "type": "string"
        },
        {
          "internalType": "string",
          "name": "_esym",
          "type": "string"
        },
        {
          "internalType": "uint256",
          "name": "_num_to_issue",
          "type": "uint256"
        },
        {
          "internalType": "string",
          "name": "_mint_date",
          "type": "string"
        },
        {
          "internalType": "uint256",
          "name": "_stake_amount",
          "type": "uint256"
        },
        {
          "internalType": "uint256",
          "name": "_payout_coefficient",
          "type": "uint256"
        },
        {
          "internalType": "string",
          "name": "_streak_days",
          "type": "string"
        }
      ],
      "name": "tokenGenesis",
      "outputs": [],
      "stateMutability": "payable",
      "type": "function",
      "payable": true
    },
    {
      "inputs": [],
      "name": "getChallengeTokensLength",
      "outputs": [
        {
          "internalType": "uint256",
          "name": "",
          "type": "uint256"
        }
      ],
      "stateMutability": "view",
      "type": "function",
      "constant": true
    }
  ],
  "bytecode": "0x608060405233600760006101000a81548173ffffffffffffffffffffffffffffffffffffffff021916908373ffffffffffffffffffffffffffffffffffffffff1602179055503480156200005257600080fd5b506040518060600160405280603d81526020016200435b603d91396200007e81620000a560201b60201c565b506200009f62000093620000c160201b60201c565b620000c960201b60201c565b620002a4565b8060029080519060200190620000bd9291906200018f565b5050565b600033905090565b6000600360009054906101000a900473ffffffffffffffffffffffffffffffffffffffff16905081600360006101000a81548173ffffffffffffffffffffffffffffffffffffffff021916908373ffffffffffffffffffffffffffffffffffffffff1602179055508173ffffffffffffffffffffffffffffffffffffffff168173ffffffffffffffffffffffffffffffffffffffff167f8be0079c531659141344cd1fd0a4f28419497f9722a3daafe3b4186f6b6457e060405160405180910390a35050565b8280546200019d906200023f565b90600052602060002090601f016020900481019282620001c157600085556200020d565b82601f10620001dc57805160ff19168380011785556200020d565b828001600101855582156200020d579182015b828111156200020c578251825591602001919060010190620001ef565b5b5090506200021c919062000220565b5090565b5b808211156200023b57600081600090555060010162000221565b5090565b600060028204905060018216806200025857607f821691505b602082108114156200026f576200026e62000275565b5b50919050565b7f4e487b7100000000000000000000000000000000000000000000000000000000600052602260045260246000fd5b6140a780620002b46000396000f3fe6080604052600436106101295760003560e01c8063715018a6116100ab578063caae5f941161006f578063caae5f9414610438578063e737fc3114610463578063e985e9c51461048e578063f242432a146104cb578063f2fde38b146104f4578063f98503251461051d57610129565b8063715018a61461036f57806376cdf224146103865780638da5cb5b146103a25780638f1d3776146103cd578063a22cb4651461040f57610129565b80632eb2c2d6116100f25780632eb2c2d61461026457806337015ff81461028d5780634b8ae8cd146102b85780634e1273f4146102f5578063667e59711461033257610129565b8062fdd58e1461012e57806301ffc9a71461016b5780630e89341c146101a857806314c37109146101e55780631f7f232014610227575b600080fd5b34801561013a57600080fd5b5061015560048036038101906101509190612bcc565b61055a565b6040516101629190613a4e565b60405180910390f35b34801561017757600080fd5b50610192600480360381019061018d9190612c74565b610623565b60405161019f91906137fb565b60405180910390f35b3480156101b457600080fd5b506101cf60048036038101906101ca9190612dc4565b610705565b6040516101dc9190613816565b60405180910390f35b3480156101f157600080fd5b5061020c60048036038101906102079190612dc4565b610799565b60405161021e969594939291906135e6565b60405180910390f35b34801561023357600080fd5b5061024e60048036038101906102499190612dc4565b610a15565b60405161025b91906135cb565b60405180910390f35b34801561027057600080fd5b5061028b60048036038101906102869190612a42565b610a54565b005b34801561029957600080fd5b506102a2610af5565b6040516102af91906135cb565b60405180910390f35b3480156102c457600080fd5b506102df60048036038101906102da9190612dc4565b610b1b565b6040516102ec91906137fb565b60405180910390f35b34801561030157600080fd5b5061031c60048036038101906103179190612c08565b610b3b565b60405161032991906137a2565b60405180910390f35b34801561033e57600080fd5b50610359600480360381019061035491906129dd565b610cec565b6040516103669190613a4e565b60405180910390f35b34801561037b57600080fd5b50610384610d04565b005b6103a0600480360381019061039b9190612cc6565b610d8c565b005b3480156103ae57600080fd5b506103b7611216565b6040516103c491906135b0565b60405180910390f35b3480156103d957600080fd5b506103f460048036038101906103ef9190612dc4565b611240565b604051610406969594939291906135e6565b60405180910390f35b34801561041b57600080fd5b5061043660048036038101906104319190612b90565b6114cc565b005b34801561044457600080fd5b5061044d61164d565b60405161045a91906135cb565b60405180910390f35b34801561046f57600080fd5b50610478611673565b6040516104859190613a4e565b60405180910390f35b34801561049a57600080fd5b506104b560048036038101906104b09190612a06565b611680565b6040516104c291906137fb565b60405180910390f35b3480156104d757600080fd5b506104f260048036038101906104ed9190612b01565b611714565b005b34801561050057600080fd5b5061051b600480360381019061051691906129dd565b6117b5565b005b34801561052957600080fd5b50610544600480360381019061053f9190612ded565b6118ad565b6040516105519190613a4e565b60405180910390f35b60008073ffffffffffffffffffffffffffffffffffffffff168373ffffffffffffffffffffffffffffffffffffffff1614156105cb576040517f08c379a00000000000000000000000000000000000000000000000000000000081526004016105c2906138ee565b60405180910390fd5b60008083815260200190815260200160002060008473ffffffffffffffffffffffffffffffffffffffff1673ffffffffffffffffffffffffffffffffffffffff16815260200190815260200160002054905092915050565b60007fd9b67a26000000000000000000000000000000000000000000000000000000007bffffffffffffffffffffffffffffffffffffffffffffffffffffffff1916827bffffffffffffffffffffffffffffffffffffffffffffffffffffffff191614806106ee57507f0e89341c000000000000000000000000000000000000000000000000000000007bffffffffffffffffffffffffffffffffffffffffffffffffffffffff1916827bffffffffffffffffffffffffffffffffffffffffffffffffffffffff1916145b806106fe57506106fd826118d2565b5b9050919050565b60606002805461071490613dd9565b80601f016020809104026020016040519081016040528092919081815260200182805461074090613dd9565b801561078d5780601f106107625761010080835404028352916020019161078d565b820191906000526020600020905b81548152906001019060200180831161077057829003601f168201915b50505050509050919050565b60066020528060005260406000206000915090508060000160009054906101000a900473ffffffffffffffffffffffffffffffffffffffff16908060010180546107e290613dd9565b80601f016020809104026020016040519081016040528092919081815260200182805461080e90613dd9565b801561085b5780601f106108305761010080835404028352916020019161085b565b820191906000526020600020905b81548152906001019060200180831161083e57829003601f168201915b50505050509080600201805461087090613dd9565b80601f016020809104026020016040519081016040528092919081815260200182805461089c90613dd9565b80156108e95780601f106108be576101008083540402835291602001916108e9565b820191906000526020600020905b8154815290600101906020018083116108cc57829003601f168201915b5050505050908060030180546108fe90613dd9565b80601f016020809104026020016040519081016040528092919081815260200182805461092a90613dd9565b80156109775780601f1061094c57610100808354040283529160200191610977565b820191906000526020600020905b81548152906001019060200180831161095a57829003601f168201915b50505050509080600401549080600501805461099290613dd9565b80601f01602080910402602001604051908101604052809291908181526020018280546109be90613dd9565b8015610a0b5780601f106109e057610100808354040283529160200191610a0b565b820191906000526020600020905b8154815290600101906020018083116109ee57829003601f168201915b5050505050905086565b600a8181548110610a2557600080fd5b906000526020600020016000915054906101000a900473ffffffffffffffffffffffffffffffffffffffff1681565b610a5c61193c565b73ffffffffffffffffffffffffffffffffffffffff168573ffffffffffffffffffffffffffffffffffffffff161480610aa25750610aa185610a9c61193c565b611680565b5b610ae1576040517f08c379a0000000000000000000000000000000000000000000000000000000008152600401610ad89061396e565b60405180910390fd5b610aee8585858585611944565b5050505050565b600860009054906101000a900473ffffffffffffffffffffffffffffffffffffffff1681565b60046020528060005260406000206000915054906101000a900460ff1681565b60608151835114610b81576040517f08c379a0000000000000000000000000000000000000000000000000000000008152600401610b78906139ee565b60405180910390fd5b6000835167ffffffffffffffff811115610bc4577f4e487b7100000000000000000000000000000000000000000000000000000000600052604160045260246000fd5b604051908082528060200260200182016040528015610bf25781602001602082028036833780820191505090505b50905060005b8451811015610ce157610c8b858281518110610c3d577f4e487b7100000000000000000000000000000000000000000000000000000000600052603260045260246000fd5b6020026020010151858381518110610c7e577f4e487b7100000000000000000000000000000000000000000000000000000000600052603260045260246000fd5b602002602001015161055a565b828281518110610cc4577f4e487b7100000000000000000000000000000000000000000000000000000000600052603260045260246000fd5b60200260200101818152505080610cda90613e0b565b9050610bf8565b508091505092915050565b60056020528060005260406000206000915090505481565b610d0c61193c565b73ffffffffffffffffffffffffffffffffffffffff16610d2a611216565b73ffffffffffffffffffffffffffffffffffffffff1614610d80576040517f08c379a0000000000000000000000000000000000000000000000000000000008152600401610d77906139ae565b60405180910390fd5b610d8a6000611ca4565b565b600760009054906101000a900473ffffffffffffffffffffffffffffffffffffffff1673ffffffffffffffffffffffffffffffffffffffff166108fc349081150290604051600060405180830381858888f19350505050158015610df4573d6000803e3d6000fd5b506000662386f26fc100009050600088604051602001610e149190613599565b6040516020818303038152906040528051906020012060001c905060008282610e3d9190613e54565b90506004600082815260200190815260200160002060009054906101000a900460ff1615610ea0576040517f08c379a0000000000000000000000000000000000000000000000000000000008152600401610e97906138ce565b60405180910390fd5b60016004600083815260200190815260200160002060006101000a81548160ff021916908315150217905550610ed4612603565b33816000019073ffffffffffffffffffffffffffffffffffffffff16908173ffffffffffffffffffffffffffffffffffffffff16815250508a81604001819052508981606001819052508181608001818152505060008a83604051602001610f3d929190613838565b604051602081830303815290604052905080826020018190525060008a8a8a8a60018b604051602001610f7596959493929190613a69565b6040516020818303038152906040529050808360a00181905250600b83908060018154018082558091505060019003906000526020600020906006020160009091909190915060008201518160000160006101000a81548173ffffffffffffffffffffffffffffffffffffffff021916908373ffffffffffffffffffffffffffffffffffffffff160217905550602082015181600101908051906020019061101e92919061264f565b50604082015181600201908051906020019061103b9291906126d5565b5060608201518160030190805190602001906110589291906126d5565b506080820151816004015560a082015181600501908051906020019061107f92919061264f565b50505083600560003373ffffffffffffffffffffffffffffffffffffffff1673ffffffffffffffffffffffffffffffffffffffff16815260200190815260200160002081905550826006600086815260200190815260200160002060008201518160000160006101000a81548173ffffffffffffffffffffffffffffffffffffffff021916908373ffffffffffffffffffffffffffffffffffffffff160217905550602082015181600101908051906020019061113d92919061264f565b50604082015181600201908051906020019061115a9291906126d5565b5060608201518160030190805190602001906111779291906126d5565b506080820151816004015560a082015181600501908051906020019061119e92919061264f565b509050506111ae33858d84611d6a565b7f58b5539c944f05832e98e49183c3c72d858389f7cdc4d612d4bbab60f972e3f2836000015184602001518560400151866060015187608001518860a001516040516111ff96959493929190613663565b60405180910390a150505050505050505050505050565b6000600360009054906101000a900473ffffffffffffffffffffffffffffffffffffffff16905090565b600b818154811061125057600080fd5b90600052602060002090600602016000915090508060000160009054906101000a900473ffffffffffffffffffffffffffffffffffffffff169080600101805461129990613dd9565b80601f01602080910402602001604051908101604052809291908181526020018280546112c590613dd9565b80156113125780601f106112e757610100808354040283529160200191611312565b820191906000526020600020905b8154815290600101906020018083116112f557829003601f168201915b50505050509080600201805461132790613dd9565b80601f016020809104026020016040519081016040528092919081815260200182805461135390613dd9565b80156113a05780601f10611375576101008083540402835291602001916113a0565b820191906000526020600020905b81548152906001019060200180831161138357829003601f168201915b5050505050908060030180546113b590613dd9565b80601f01602080910402602001604051908101604052809291908181526020018280546113e190613dd9565b801561142e5780601f106114035761010080835404028352916020019161142e565b820191906000526020600020905b81548152906001019060200180831161141157829003601f168201915b50505050509080600401549080600501805461144990613dd9565b80601f016020809104026020016040519081016040528092919081815260200182805461147590613dd9565b80156114c25780601f10611497576101008083540402835291602001916114c2565b820191906000526020600020905b8154815290600101906020018083116114a557829003601f168201915b5050505050905086565b8173ffffffffffffffffffffffffffffffffffffffff166114eb61193c565b73ffffffffffffffffffffffffffffffffffffffff161415611542576040517f08c379a0000000000000000000000000000000000000000000000000000000008152600401611539906139ce565b60405180910390fd5b806001600061154f61193c565b73ffffffffffffffffffffffffffffffffffffffff1673ffffffffffffffffffffffffffffffffffffffff16815260200190815260200160002060008473ffffffffffffffffffffffffffffffffffffffff1673ffffffffffffffffffffffffffffffffffffffff16815260200190815260200160002060006101000a81548160ff0219169083151502179055508173ffffffffffffffffffffffffffffffffffffffff166115fc61193c565b73ffffffffffffffffffffffffffffffffffffffff167f17307eab39ab6107e8899845ad3d59bd9653f200f220920489ca2b5937696c318360405161164191906137fb565b60405180910390a35050565b600760009054906101000a900473ffffffffffffffffffffffffffffffffffffffff1681565b6000600b80549050905090565b6000600160008473ffffffffffffffffffffffffffffffffffffffff1673ffffffffffffffffffffffffffffffffffffffff16815260200190815260200160002060008373ffffffffffffffffffffffffffffffffffffffff1673ffffffffffffffffffffffffffffffffffffffff16815260200190815260200160002060009054906101000a900460ff16905092915050565b61171c61193c565b73ffffffffffffffffffffffffffffffffffffffff168573ffffffffffffffffffffffffffffffffffffffff16148061176257506117618561175c61193c565b611680565b5b6117a1576040517f08c379a00000000000000000000000000000000000000000000000000000000081526004016117989061392e565b60405180910390fd5b6117ae8585858585611f00565b5050505050565b6117bd61193c565b73ffffffffffffffffffffffffffffffffffffffff166117db611216565b73ffffffffffffffffffffffffffffffffffffffff1614611831576040517f08c379a0000000000000000000000000000000000000000000000000000000008152600401611828906139ae565b60405180910390fd5b600073ffffffffffffffffffffffffffffffffffffffff168173ffffffffffffffffffffffffffffffffffffffff1614156118a1576040517f08c379a00000000000000000000000000000000000000000000000000000000081526004016118989061390e565b60405180910390fd5b6118aa81611ca4565b50565b6009602052816000526040600020602052806000526040600020600091509150505481565b60007f01ffc9a7000000000000000000000000000000000000000000000000000000007bffffffffffffffffffffffffffffffffffffffffffffffffffffffff1916827bffffffffffffffffffffffffffffffffffffffffffffffffffffffff1916149050919050565b600033905090565b8151835114611988576040517f08c379a000000000000000000000000000000000000000000000000000000000815260040161197f90613a0e565b60405180910390fd5b600073ffffffffffffffffffffffffffffffffffffffff168473ffffffffffffffffffffffffffffffffffffffff1614156119f8576040517f08c379a00000000000000000000000000000000000000000000000000000000081526004016119ef9061394e565b60405180910390fd5b6000611a0261193c565b9050611a12818787878787612182565b60005b8451811015611c0f576000858281518110611a59577f4e487b7100000000000000000000000000000000000000000000000000000000600052603260045260246000fd5b602002602001015190506000858381518110611a9e577f4e487b7100000000000000000000000000000000000000000000000000000000600052603260045260246000fd5b60200260200101519050600080600084815260200190815260200160002060008b73ffffffffffffffffffffffffffffffffffffffff1673ffffffffffffffffffffffffffffffffffffffff16815260200190815260200160002054905081811015611b3f576040517f08c379a0000000000000000000000000000000000000000000000000000000008152600401611b369061398e565b60405180910390fd5b81810360008085815260200190815260200160002060008c73ffffffffffffffffffffffffffffffffffffffff1673ffffffffffffffffffffffffffffffffffffffff168152602001908152602001600020819055508160008085815260200190815260200160002060008b73ffffffffffffffffffffffffffffffffffffffff1673ffffffffffffffffffffffffffffffffffffffff1681526020019081526020016000206000828254611bf49190613c66565b9250508190555050505080611c0890613e0b565b9050611a15565b508473ffffffffffffffffffffffffffffffffffffffff168673ffffffffffffffffffffffffffffffffffffffff168273ffffffffffffffffffffffffffffffffffffffff167f4a39dc06d4c0dbc64b70af90fd698a233a518aa5d07e595d983b8c0526c8f7fb8787604051611c869291906137c4565b60405180910390a4611c9c81878787878761218a565b505050505050565b6000600360009054906101000a900473ffffffffffffffffffffffffffffffffffffffff16905081600360006101000a81548173ffffffffffffffffffffffffffffffffffffffff021916908373ffffffffffffffffffffffffffffffffffffffff1602179055508173ffffffffffffffffffffffffffffffffffffffff168173ffffffffffffffffffffffffffffffffffffffff167f8be0079c531659141344cd1fd0a4f28419497f9722a3daafe3b4186f6b6457e060405160405180910390a35050565b600073ffffffffffffffffffffffffffffffffffffffff168473ffffffffffffffffffffffffffffffffffffffff161415611dda576040517f08c379a0000000000000000000000000000000000000000000000000000000008152600401611dd190613a2e565b60405180910390fd5b6000611de461193c565b9050611e0581600087611df68861235a565b611dff8861235a565b87612182565b8260008086815260200190815260200160002060008773ffffffffffffffffffffffffffffffffffffffff1673ffffffffffffffffffffffffffffffffffffffff1681526020019081526020016000206000828254611e649190613c66565b925050819055508473ffffffffffffffffffffffffffffffffffffffff16600073ffffffffffffffffffffffffffffffffffffffff168273ffffffffffffffffffffffffffffffffffffffff167fc3d58168c5ae7397731d063d5bbf3d657854427343f4c083240f7aacaa2d0f628787604051611ee2929190613ad8565b60405180910390a4611ef981600087878787612420565b5050505050565b600073ffffffffffffffffffffffffffffffffffffffff168473ffffffffffffffffffffffffffffffffffffffff161415611f70576040517f08c379a0000000000000000000000000000000000000000000000000000000008152600401611f679061394e565b60405180910390fd5b6000611f7a61193c565b9050611f9a818787611f8b8861235a565b611f948861235a565b87612182565b600080600086815260200190815260200160002060008873ffffffffffffffffffffffffffffffffffffffff1673ffffffffffffffffffffffffffffffffffffffff16815260200190815260200160002054905083811015612031576040517f08c379a00000000000000000000000000000000000000000000000000000000081526004016120289061398e565b60405180910390fd5b83810360008087815260200190815260200160002060008973ffffffffffffffffffffffffffffffffffffffff1673ffffffffffffffffffffffffffffffffffffffff168152602001908152602001600020819055508360008087815260200190815260200160002060008873ffffffffffffffffffffffffffffffffffffffff1673ffffffffffffffffffffffffffffffffffffffff16815260200190815260200160002060008282546120e69190613c66565b925050819055508573ffffffffffffffffffffffffffffffffffffffff168773ffffffffffffffffffffffffffffffffffffffff168373ffffffffffffffffffffffffffffffffffffffff167fc3d58168c5ae7397731d063d5bbf3d657854427343f4c083240f7aacaa2d0f628888604051612163929190613ad8565b60405180910390a4612179828888888888612420565b50505050505050565b505050505050565b6121a98473ffffffffffffffffffffffffffffffffffffffff166125f0565b15612352578373ffffffffffffffffffffffffffffffffffffffff1663bc197c8187878686866040518663ffffffff1660e01b81526004016121ef9594939291906136e0565b602060405180830381600087803b15801561220957600080fd5b505af192505050801561223a57506040513d601f19601f820116820180604052508101906122379190612c9d565b60015b6122c957612246613f5f565b80612251575061228e565b806040517f08c379a00000000000000000000000000000000000000000000000000000000081526004016122859190613816565b60405180910390fd5b6040517f08c379a00000000000000000000000000000000000000000000000000000000081526004016122c09061388e565b60405180910390fd5b63bc197c8160e01b7bffffffffffffffffffffffffffffffffffffffffffffffffffffffff1916817bffffffffffffffffffffffffffffffffffffffffffffffffffffffff191614612350576040517f08c379a0000000000000000000000000000000000000000000000000000000008152600401612347906138ae565b60405180910390fd5b505b505050505050565b60606000600167ffffffffffffffff81111561239f577f4e487b7100000000000000000000000000000000000000000000000000000000600052604160045260246000fd5b6040519080825280602002602001820160405280156123cd5781602001602082028036833780820191505090505b509050828160008151811061240b577f4e487b7100000000000000000000000000000000000000000000000000000000600052603260045260246000fd5b60200260200101818152505080915050919050565b61243f8473ffffffffffffffffffffffffffffffffffffffff166125f0565b156125e8578373ffffffffffffffffffffffffffffffffffffffff1663f23a6e6187878686866040518663ffffffff1660e01b8152600401612485959493929190613748565b602060405180830381600087803b15801561249f57600080fd5b505af19250505080156124d057506040513d601f19601f820116820180604052508101906124cd9190612c9d565b60015b61255f576124dc613f5f565b806124e75750612524565b806040517f08c379a000000000000000000000000000000000000000000000000000000000815260040161251b9190613816565b60405180910390fd5b6040517f08c379a00000000000000000000000000000000000000000000000000000000081526004016125569061388e565b60405180910390fd5b63f23a6e6160e01b7bffffffffffffffffffffffffffffffffffffffffffffffffffffffff1916817bffffffffffffffffffffffffffffffffffffffffffffffffffffffff1916146125e6576040517f08c379a00000000000000000000000000000000000000000000000000000000081526004016125dd906138ae565b60405180910390fd5b505b505050505050565b600080823b905060008111915050919050565b6040518060c00160405280600073ffffffffffffffffffffffffffffffffffffffff16815260200160608152602001606081526020016060815260200160008152602001606081525090565b82805461265b90613dd9565b90600052602060002090601f01602090048101928261267d57600085556126c4565b82601f1061269657805160ff19168380011785556126c4565b828001600101855582156126c4579182015b828111156126c35782518255916020019190600101906126a8565b5b5090506126d1919061275b565b5090565b8280546126e190613dd9565b90600052602060002090601f016020900481019282612703576000855561274a565b82601f1061271c57805160ff191683800117855561274a565b8280016001018555821561274a579182015b8281111561274957825182559160200191906001019061272e565b5b509050612757919061275b565b5090565b5b8082111561277457600081600090555060010161275c565b5090565b600061278b61278684613b32565b613b01565b905080838252602082019050828560208602820111156127aa57600080fd5b60005b858110156127da57816127c088826128cc565b8452602084019350602083019250506001810190506127ad565b5050509392505050565b60006127f76127f284613b5e565b613b01565b9050808382526020820190508285602086028201111561281657600080fd5b60005b85811015612846578161282c88826129c8565b845260208401935060208301925050600181019050612819565b5050509392505050565b600061286361285e84613b8a565b613b01565b90508281526020810184848401111561287b57600080fd5b612886848285613d97565b509392505050565b60006128a161289c84613bba565b613b01565b9050828152602081018484840111156128b957600080fd5b6128c4848285613d97565b509392505050565b6000813590506128db81614015565b92915050565b600082601f8301126128f257600080fd5b8135612902848260208601612778565b91505092915050565b600082601f83011261291c57600080fd5b813561292c8482602086016127e4565b91505092915050565b6000813590506129448161402c565b92915050565b60008135905061295981614043565b92915050565b60008151905061296e81614043565b92915050565b600082601f83011261298557600080fd5b8135612995848260208601612850565b91505092915050565b600082601f8301126129af57600080fd5b81356129bf84826020860161288e565b91505092915050565b6000813590506129d78161405a565b92915050565b6000602082840312156129ef57600080fd5b60006129fd848285016128cc565b91505092915050565b60008060408385031215612a1957600080fd5b6000612a27858286016128cc565b9250506020612a38858286016128cc565b9150509250929050565b600080600080600060a08688031215612a5a57600080fd5b6000612a68888289016128cc565b9550506020612a79888289016128cc565b945050604086013567ffffffffffffffff811115612a9657600080fd5b612aa28882890161290b565b935050606086013567ffffffffffffffff811115612abf57600080fd5b612acb8882890161290b565b925050608086013567ffffffffffffffff811115612ae857600080fd5b612af488828901612974565b9150509295509295909350565b600080600080600060a08688031215612b1957600080fd5b6000612b27888289016128cc565b9550506020612b38888289016128cc565b9450506040612b49888289016129c8565b9350506060612b5a888289016129c8565b925050608086013567ffffffffffffffff811115612b7757600080fd5b612b8388828901612974565b9150509295509295909350565b60008060408385031215612ba357600080fd5b6000612bb1858286016128cc565b9250506020612bc285828601612935565b9150509250929050565b60008060408385031215612bdf57600080fd5b6000612bed858286016128cc565b9250506020612bfe858286016129c8565b9150509250929050565b60008060408385031215612c1b57600080fd5b600083013567ffffffffffffffff811115612c3557600080fd5b612c41858286016128e1565b925050602083013567ffffffffffffffff811115612c5e57600080fd5b612c6a8582860161290b565b9150509250929050565b600060208284031215612c8657600080fd5b6000612c948482850161294a565b91505092915050565b600060208284031215612caf57600080fd5b6000612cbd8482850161295f565b91505092915050565b600080600080600080600060e0888a031215612ce157600080fd5b600088013567ffffffffffffffff811115612cfb57600080fd5b612d078a828b0161299e565b975050602088013567ffffffffffffffff811115612d2457600080fd5b612d308a828b0161299e565b9650506040612d418a828b016129c8565b955050606088013567ffffffffffffffff811115612d5e57600080fd5b612d6a8a828b0161299e565b9450506080612d7b8a828b016129c8565b93505060a0612d8c8a828b016129c8565b92505060c088013567ffffffffffffffff811115612da957600080fd5b612db58a828b0161299e565b91505092959891949750929550565b600060208284031215612dd657600080fd5b6000612de4848285016129c8565b91505092915050565b60008060408385031215612e0057600080fd5b6000612e0e858286016129c8565b9250506020612e1f858286016128cc565b9150509250929050565b6000612e35838361357b565b60208301905092915050565b612e4a81613d4f565b82525050565b612e5981613cce565b82525050565b612e6881613cbc565b82525050565b6000612e7982613bfa565b612e838185613c28565b9350612e8e83613bea565b8060005b83811015612ebf578151612ea68882612e29565b9750612eb183613c1b565b925050600181019050612e92565b5085935050505092915050565b612ed581613ce0565b82525050565b6000612ee682613c05565b612ef08185613c39565b9350612f00818560208601613da6565b612f0981613f41565b840191505092915050565b612f1d81613d61565b82525050565b6000612f2e82613c10565b612f388185613c4a565b9350612f48818560208601613da6565b612f5181613f41565b840191505092915050565b6000612f6782613c10565b612f718185613c5b565b9350612f81818560208601613da6565b80840191505092915050565b6000612f9a603483613c4a565b91507f455243313135353a207472616e7366657220746f206e6f6e204552433131353560008301527f526563656976657220696d706c656d656e7465720000000000000000000000006020830152604082019050919050565b6000613000602883613c4a565b91507f455243313135353a204552433131353552656365697665722072656a6563746560008301527f6420746f6b656e730000000000000000000000000000000000000000000000006020830152604082019050919050565b6000613066602183613c4a565b91507f4572723a205069636b206120556e69717565204368616c6c656e6765204e616d60008301527f65000000000000000000000000000000000000000000000000000000000000006020830152604082019050919050565b60006130cc602b83613c4a565b91507f455243313135353a2062616c616e636520717565727920666f7220746865207a60008301527f65726f20616464726573730000000000000000000000000000000000000000006020830152604082019050919050565b6000613132602683613c4a565b91507f4f776e61626c653a206e6577206f776e657220697320746865207a65726f206160008301527f64647265737300000000000000000000000000000000000000000000000000006020830152604082019050919050565b6000613198602983613c4a565b91507f455243313135353a2063616c6c6572206973206e6f74206f776e6572206e6f7260008301527f20617070726f76656400000000000000000000000000000000000000000000006020830152604082019050919050565b60006131fe602583613c4a565b91507f455243313135353a207472616e7366657220746f20746865207a65726f20616460008301527f64726573730000000000000000000000000000000000000000000000000000006020830152604082019050919050565b6000613264603283613c4a565b91507f455243313135353a207472616e736665722063616c6c6572206973206e6f742060008301527f6f776e6572206e6f7220617070726f76656400000000000000000000000000006020830152604082019050919050565b60006132ca602a83613c4a565b91507f455243313135353a20696e73756666696369656e742062616c616e636520666f60008301527f72207472616e73666572000000000000000000000000000000000000000000006020830152604082019050919050565b6000613330600583613c4a565b91507f2e6a736f6e0000000000000000000000000000000000000000000000000000006000830152602082019050919050565b6000613370602083613c4a565b91507f4f776e61626c653a2063616c6c6572206973206e6f7420746865206f776e65726000830152602082019050919050565b60006133b0602983613c4a565b91507f455243313135353a2073657474696e6720617070726f76616c2073746174757360008301527f20666f722073656c6600000000000000000000000000000000000000000000006020830152604082019050919050565b6000613416602983613c4a565b91507f455243313135353a206163636f756e747320616e6420696473206c656e67746860008301527f206d69736d6174636800000000000000000000000000000000000000000000006020830152604082019050919050565b600061347c602883613c4a565b91507f455243313135353a2069647320616e6420616d6f756e7473206c656e6774682060008301527f6d69736d617463680000000000000000000000000000000000000000000000006020830152604082019050919050565b60006134e2602183613c4a565b91507f455243313135353a206d696e7420746f20746865207a65726f2061646472657360008301527f73000000000000000000000000000000000000000000000000000000000000006020830152604082019050919050565b6000613548600183613c4a565b91507f2f000000000000000000000000000000000000000000000000000000000000006000830152602082019050919050565b61358481613d38565b82525050565b61359381613d38565b82525050565b60006135a58284612f5c565b915081905092915050565b60006020820190506135c56000830184612e5f565b92915050565b60006020820190506135e06000830184612e50565b92915050565b600060c0820190506135fb6000830189612e50565b818103602083015261360d8188612edb565b905081810360408301526136218187612f23565b905081810360608301526136358186612f23565b9050613644608083018561358a565b81810360a08301526136568184612edb565b9050979650505050505050565b600060c0820190506136786000830189612e41565b818103602083015261368a8188612edb565b9050818103604083015261369e8187612f23565b905081810360608301526136b28186612f23565b90506136c1608083018561358a565b81810360a08301526136d38184612edb565b9050979650505050505050565b600060a0820190506136f56000830188612e5f565b6137026020830187612e5f565b81810360408301526137148186612e6e565b905081810360608301526137288185612e6e565b9050818103608083015261373c8184612edb565b90509695505050505050565b600060a08201905061375d6000830188612e5f565b61376a6020830187612e5f565b613777604083018661358a565b613784606083018561358a565b81810360808301526137968184612edb565b90509695505050505050565b600060208201905081810360008301526137bc8184612e6e565b905092915050565b600060408201905081810360008301526137de8185612e6e565b905081810360208301526137f28184612e6e565b90509392505050565b60006020820190506138106000830184612ecc565b92915050565b600060208201905081810360008301526138308184612f23565b905092915050565b600060808201905081810360008301526138528185612f23565b905081810360208301526138658161353b565b9050613874604083018461358a565b818103606083015261388581613323565b90509392505050565b600060208201905081810360008301526138a781612f8d565b9050919050565b600060208201905081810360008301526138c781612ff3565b9050919050565b600060208201905081810360008301526138e781613059565b9050919050565b60006020820190508181036000830152613907816130bf565b9050919050565b6000602082019050818103600083015261392781613125565b9050919050565b600060208201905081810360008301526139478161318b565b9050919050565b60006020820190508181036000830152613967816131f1565b9050919050565b6000602082019050818103600083015261398781613257565b9050919050565b600060208201905081810360008301526139a7816132bd565b9050919050565b600060208201905081810360008301526139c781613363565b9050919050565b600060208201905081810360008301526139e7816133a3565b9050919050565b60006020820190508181036000830152613a0781613409565b9050919050565b60006020820190508181036000830152613a278161346f565b9050919050565b60006020820190508181036000830152613a47816134d5565b9050919050565b6000602082019050613a63600083018461358a565b92915050565b600060c082019050613a7e600083018961358a565b8181036020830152613a908188612f23565b9050613a9f604083018761358a565b613aac606083018661358a565b613ab96080830185612f14565b81810360a0830152613acb8184612f23565b9050979650505050505050565b6000604082019050613aed600083018561358a565b613afa602083018461358a565b9392505050565b6000604051905081810181811067ffffffffffffffff82111715613b2857613b27613f12565b5b8060405250919050565b600067ffffffffffffffff821115613b4d57613b4c613f12565b5b602082029050602081019050919050565b600067ffffffffffffffff821115613b7957613b78613f12565b5b602082029050602081019050919050565b600067ffffffffffffffff821115613ba557613ba4613f12565b5b601f19601f8301169050602081019050919050565b600067ffffffffffffffff821115613bd557613bd4613f12565b5b601f19601f8301169050602081019050919050565b6000819050602082019050919050565b600081519050919050565b600081519050919050565b600081519050919050565b6000602082019050919050565b600082825260208201905092915050565b600082825260208201905092915050565b600082825260208201905092915050565b600081905092915050565b6000613c7182613d38565b9150613c7c83613d38565b9250827fffffffffffffffffffffffffffffffffffffffffffffffffffffffffffffffff03821115613cb157613cb0613e85565b5b828201905092915050565b6000613cc782613d18565b9050919050565b6000613cd982613d18565b9050919050565b60008115159050919050565b60007fffffffff0000000000000000000000000000000000000000000000000000000082169050919050565b600073ffffffffffffffffffffffffffffffffffffffff82169050919050565b6000819050919050565b600060ff82169050919050565b6000613d5a82613d73565b9050919050565b6000613d6c82613d42565b9050919050565b6000613d7e82613d85565b9050919050565b6000613d9082613d18565b9050919050565b82818337600083830152505050565b60005b83811015613dc4578082015181840152602081019050613da9565b83811115613dd3576000848401525b50505050565b60006002820490506001821680613df157607f821691505b60208210811415613e0557613e04613ee3565b5b50919050565b6000613e1682613d38565b91507fffffffffffffffffffffffffffffffffffffffffffffffffffffffffffffffff821415613e4957613e48613e85565b5b600182019050919050565b6000613e5f82613d38565b9150613e6a83613d38565b925082613e7a57613e79613eb4565b5b828206905092915050565b7f4e487b7100000000000000000000000000000000000000000000000000000000600052601160045260246000fd5b7f4e487b7100000000000000000000000000000000000000000000000000000000600052601260045260246000fd5b7f4e487b7100000000000000000000000000000000000000000000000000000000600052602260045260246000fd5b7f4e487b7100000000000000000000000000000000000000000000000000000000600052604160045260246000fd5b6000601f19601f8301169050919050565b60008160e01c9050919050565b600060443d1015613f6f57614012565b60046000803e613f80600051613f52565b6308c379a08114613f915750614012565b60405160043d036004823e80513d602482011167ffffffffffffffff82111715613fbd57505050614012565b808201805167ffffffffffffffff811115613fdc575050505050614012565b8060208301013d8501811115613ff757505050505050614012565b61400082613f41565b60208401016040528296505050505050505b90565b61401e81613cbc565b811461402957600080fd5b50565b61403581613ce0565b811461404057600080fd5b50565b61404c81613cec565b811461405757600080fd5b50565b61406381613d38565b811461406e57600080fd5b5056fea264697066735822122035eb06978884d49f164a8407d7011b4b98c21a0ae915012f5f616c88673158c064736f6c63430008000033687474703a2f2f6c6f63616c686f73743a383838382f7075626c69632f23212f4368616c6c656e6765546f6b656e43686573742f7b69647d2e6a736f6e",
  "immutableReferences": {},
  "source": "// SPDX-License-Identifier: MIT\npragma solidity >= 0.8.0;\nimport \"@openzeppelin/contracts/token/ERC1155/ERC1155.sol\";\nimport \"@openzeppelin/contracts/access/Ownable.sol\";\nimport \"./Challenge.sol\";\n\ncontract ChallengeToken is ERC1155, Ownable{\n   /* Stored on chain */\n  mapping (uint256 => bool) public is_on_manifest;\n  mapping (address => uint256) public map_initiator_to_id;\n  mapping (uint256 => Challenges.Challenge) public map_id_to_Challenge;\n\n  address payable public OA = payable(msg.sender);\n  address payable public CT_X_Address;\n  mapping (uint256 => mapping(address => uint256)) public Player_Map;\n  address payable [] public Player_List;\n\n  Challenges.Challenge[] public challenges;\n  event ManifestedChallengeToken(address initiator,bytes _uri,string _ename,string _esym,uint256 _id,bytes mint_data);\n\n    constructor()\n    ERC1155(\"http://localhost:8888/public/#!/ChallengeTokenChest/{id}.json\")\n    Ownable()\n    {}\n\n  function tokenGenesis (string memory _ename,string memory _esym,uint256 _num_to_issue,\n         string memory _mint_date,uint256 _stake_amount,uint256 _payout_coefficient,string memory _streak_days)\n      public payable {\n          OA.transfer(msg.value);\n          uint256 idmod = 10 ** 16;\n          uint256 token_id = uint256(keccak256(abi.encodePacked(_ename)));\n          uint256 _id = token_id % idmod;\n          require(!is_on_manifest[_id], \"Err: Pick a Unique Challenge Name\");\n          is_on_manifest[_id] = true;\n          Challenges.Challenge memory new_challenge;\n          new_challenge.initiator = payable(msg.sender);\n          new_challenge.name = _ename;\n          new_challenge.sym = _esym;\n          new_challenge.id = _id;\n          bytes memory new_uri = abi.encode(_esym, \"/\", _id, \".json\");\n          new_challenge.uri = new_uri;\n          bytes memory mintData = abi.encode(_num_to_issue, _mint_date, _stake_amount, _payout_coefficient, 1, _streak_days);\n          new_challenge.mint_data = mintData;\n          challenges.push(new_challenge);\n          map_initiator_to_id[msg.sender] = _id;\n          map_id_to_Challenge[_id] = new_challenge;\n          _mint(msg.sender, _id, _num_to_issue, mintData);\n          emit ManifestedChallengeToken(new_challenge.initiator,new_challenge.uri,new_challenge.name,new_challenge.sym,new_challenge.id,new_challenge.mint_data);\n  }\n  function getChallengeTokensLength() public view returns(uint256){\n    return challenges.length;\n  }\n}\n",
  "sourcePath": "/Volumes/TerryBytes2/2021_Kode_Tut/BabelBet/contracts/ChallengeToken.sol",
  "compiler": {
    "name": "solc",
    "version": "0.8.0+commit.c7dfd78e.Emscripten.clang"
  },
  "schemaVersion": "3.4.3",
  "updatedAt": "2021-11-13T00:16:17.495Z",
  "networkType": "ethereum",
  "devdoc": {
    "kind": "dev",
    "methods": {
      "balanceOf(address,uint256)": {
        "details": "See {IERC1155-balanceOf}. Requirements: - `account` cannot be the zero address."
      },
      "balanceOfBatch(address[],uint256[])": {
        "details": "See {IERC1155-balanceOfBatch}. Requirements: - `accounts` and `ids` must have the same length."
      },
      "isApprovedForAll(address,address)": {
        "details": "See {IERC1155-isApprovedForAll}."
      },
      "owner()": {
        "details": "Returns the address of the current owner."
      },
      "renounceOwnership()": {
        "details": "Leaves the contract without owner. It will not be possible to call `onlyOwner` functions anymore. Can only be called by the current owner. NOTE: Renouncing ownership will leave the contract without an owner, thereby removing any functionality that is only available to the owner."
      },
      "safeBatchTransferFrom(address,address,uint256[],uint256[],bytes)": {
        "details": "See {IERC1155-safeBatchTransferFrom}."
      },
      "safeTransferFrom(address,address,uint256,uint256,bytes)": {
        "details": "See {IERC1155-safeTransferFrom}."
      },
      "setApprovalForAll(address,bool)": {
        "details": "See {IERC1155-setApprovalForAll}."
      },
      "supportsInterface(bytes4)": {
        "details": "See {IERC165-supportsInterface}."
      },
      "transferOwnership(address)": {
        "details": "Transfers ownership of the contract to a new account (`newOwner`). Can only be called by the current owner."
      },
      "uri(uint256)": {
        "details": "See {IERC1155MetadataURI-uri}. This implementation returns the same URI for *all* token types. It relies on the token type ID substitution mechanism https://eips.ethereum.org/EIPS/eip-1155#metadata[defined in the EIP]. Clients calling this function must replace the `\\{id\\}` substring with the actual token type ID."
      }
    },
    "version": 1
  },
  "userdoc": {
    "kind": "user",
    "methods": {},
    "version": 1
  }
}