{
  "contractName": "ChallengeToken",
  "abi": [
    {
      "inputs": [],
      "stateMutability": "nonpayable",
      "type": "constructor"
    },
    {
      "anonymous": false,
      "inputs": [
        {
          "indexed": true,
          "internalType": "address",
          "name": "account",
          "type": "address"
        },
        {
          "indexed": true,
          "internalType": "address",
          "name": "operator",
          "type": "address"
        },
        {
          "indexed": false,
          "internalType": "bool",
          "name": "approved",
          "type": "bool"
        }
      ],
      "name": "ApprovalForAll",
      "type": "event"
    },
    {
      "anonymous": false,
      "inputs": [
        {
          "indexed": false,
          "internalType": "address[]",
          "name": "players",
          "type": "address[]"
        },
        {
          "indexed": false,
          "internalType": "string",
          "name": "_name",
          "type": "string"
        },
        {
          "indexed": false,
          "internalType": "uint256",
          "name": "_id",
          "type": "uint256"
        },
        {
          "indexed": false,
          "internalType": "bytes",
          "name": "mint_data",
          "type": "bytes"
        },
        {
          "indexed": false,
          "internalType": "uint256",
          "name": "status",
          "type": "uint256"
        }
      ],
      "name": "ManifestedChallengeToken",
      "type": "event"
    },
    {
      "anonymous": false,
      "inputs": [
        {
          "indexed": true,
          "internalType": "address",
          "name": "previousOwner",
          "type": "address"
        },
        {
          "indexed": true,
          "internalType": "address",
          "name": "newOwner",
          "type": "address"
        }
      ],
      "name": "OwnershipTransferred",
      "type": "event"
    },
    {
      "anonymous": false,
      "inputs": [
        {
          "indexed": true,
          "internalType": "address",
          "name": "operator",
          "type": "address"
        },
        {
          "indexed": true,
          "internalType": "address",
          "name": "from",
          "type": "address"
        },
        {
          "indexed": true,
          "internalType": "address",
          "name": "to",
          "type": "address"
        },
        {
          "indexed": false,
          "internalType": "uint256[]",
          "name": "ids",
          "type": "uint256[]"
        },
        {
          "indexed": false,
          "internalType": "uint256[]",
          "name": "values",
          "type": "uint256[]"
        }
      ],
      "name": "TransferBatch",
      "type": "event"
    },
    {
      "anonymous": false,
      "inputs": [
        {
          "indexed": true,
          "internalType": "address",
          "name": "operator",
          "type": "address"
        },
        {
          "indexed": true,
          "internalType": "address",
          "name": "from",
          "type": "address"
        },
        {
          "indexed": true,
          "internalType": "address",
          "name": "to",
          "type": "address"
        },
        {
          "indexed": false,
          "internalType": "uint256",
          "name": "id",
          "type": "uint256"
        },
        {
          "indexed": false,
          "internalType": "uint256",
          "name": "value",
          "type": "uint256"
        }
      ],
      "name": "TransferSingle",
      "type": "event"
    },
    {
      "anonymous": false,
      "inputs": [
        {
          "indexed": false,
          "internalType": "string",
          "name": "value",
          "type": "string"
        },
        {
          "indexed": true,
          "internalType": "uint256",
          "name": "id",
          "type": "uint256"
        }
      ],
      "name": "URI",
      "type": "event"
    },
    {
      "inputs": [],
      "name": "CT_X_Address",
      "outputs": [
        {
          "internalType": "address payable",
          "name": "",
          "type": "address"
        }
      ],
      "stateMutability": "view",
      "type": "function",
      "constant": true
    },
    {
      "inputs": [],
      "name": "OA",
      "outputs": [
        {
          "internalType": "address payable",
          "name": "",
          "type": "address"
        }
      ],
      "stateMutability": "view",
      "type": "function",
      "constant": true
    },
    {
      "inputs": [
        {
          "internalType": "uint256",
          "name": "",
          "type": "uint256"
        },
        {
          "internalType": "address",
          "name": "",
          "type": "address"
        }
      ],
      "name": "Player_Map",
      "outputs": [
        {
          "internalType": "uint256",
          "name": "",
          "type": "uint256"
        }
      ],
      "stateMutability": "view",
      "type": "function",
      "constant": true
    },
    {
      "inputs": [
        {
          "internalType": "address",
          "name": "account",
          "type": "address"
        },
        {
          "internalType": "uint256",
          "name": "id",
          "type": "uint256"
        }
      ],
      "name": "balanceOf",
      "outputs": [
        {
          "internalType": "uint256",
          "name": "",
          "type": "uint256"
        }
      ],
      "stateMutability": "view",
      "type": "function",
      "constant": true
    },
    {
      "inputs": [
        {
          "internalType": "address[]",
          "name": "accounts",
          "type": "address[]"
        },
        {
          "internalType": "uint256[]",
          "name": "ids",
          "type": "uint256[]"
        }
      ],
      "name": "balanceOfBatch",
      "outputs": [
        {
          "internalType": "uint256[]",
          "name": "",
          "type": "uint256[]"
        }
      ],
      "stateMutability": "view",
      "type": "function",
      "constant": true
    },
    {
      "inputs": [
        {
          "internalType": "uint256",
          "name": "",
          "type": "uint256"
        }
      ],
      "name": "challenges",
      "outputs": [
        {
          "internalType": "string",
          "name": "name",
          "type": "string"
        },
        {
          "internalType": "uint256",
          "name": "id",
          "type": "uint256"
        },
        {
          "internalType": "bytes",
          "name": "mint_data",
          "type": "bytes"
        },
        {
          "internalType": "uint256",
          "name": "status",
          "type": "uint256"
        }
      ],
      "stateMutability": "view",
      "type": "function",
      "constant": true
    },
    {
      "inputs": [
        {
          "internalType": "address",
          "name": "account",
          "type": "address"
        },
        {
          "internalType": "address",
          "name": "operator",
          "type": "address"
        }
      ],
      "name": "isApprovedForAll",
      "outputs": [
        {
          "internalType": "bool",
          "name": "",
          "type": "bool"
        }
      ],
      "stateMutability": "view",
      "type": "function",
      "constant": true
    },
    {
      "inputs": [
        {
          "internalType": "uint256",
          "name": "",
          "type": "uint256"
        }
      ],
      "name": "is_on_manifest",
      "outputs": [
        {
          "internalType": "bool",
          "name": "",
          "type": "bool"
        }
      ],
      "stateMutability": "view",
      "type": "function",
      "constant": true
    },
    {
      "inputs": [
        {
          "internalType": "uint256",
          "name": "",
          "type": "uint256"
        }
      ],
      "name": "map_id_to_Challenge",
      "outputs": [
        {
          "internalType": "string",
          "name": "name",
          "type": "string"
        },
        {
          "internalType": "uint256",
          "name": "id",
          "type": "uint256"
        },
        {
          "internalType": "bytes",
          "name": "mint_data",
          "type": "bytes"
        },
        {
          "internalType": "uint256",
          "name": "status",
          "type": "uint256"
        }
      ],
      "stateMutability": "view",
      "type": "function",
      "constant": true
    },
    {
      "inputs": [
        {
          "internalType": "address",
          "name": "",
          "type": "address"
        }
      ],
      "name": "map_initiator_to_id",
      "outputs": [
        {
          "internalType": "uint256",
          "name": "",
          "type": "uint256"
        }
      ],
      "stateMutability": "view",
      "type": "function",
      "constant": true
    },
    {
      "inputs": [],
      "name": "owner",
      "outputs": [
        {
          "internalType": "address",
          "name": "",
          "type": "address"
        }
      ],
      "stateMutability": "view",
      "type": "function",
      "constant": true
    },
    {
      "inputs": [],
      "name": "renounceOwnership",
      "outputs": [],
      "stateMutability": "nonpayable",
      "type": "function"
    },
    {
      "inputs": [
        {
          "internalType": "address",
          "name": "from",
          "type": "address"
        },
        {
          "internalType": "address",
          "name": "to",
          "type": "address"
        },
        {
          "internalType": "uint256[]",
          "name": "ids",
          "type": "uint256[]"
        },
        {
          "internalType": "uint256[]",
          "name": "amounts",
          "type": "uint256[]"
        },
        {
          "internalType": "bytes",
          "name": "data",
          "type": "bytes"
        }
      ],
      "name": "safeBatchTransferFrom",
      "outputs": [],
      "stateMutability": "nonpayable",
      "type": "function"
    },
    {
      "inputs": [
        {
          "internalType": "address",
          "name": "from",
          "type": "address"
        },
        {
          "internalType": "address",
          "name": "to",
          "type": "address"
        },
        {
          "internalType": "uint256",
          "name": "id",
          "type": "uint256"
        },
        {
          "internalType": "uint256",
          "name": "amount",
          "type": "uint256"
        },
        {
          "internalType": "bytes",
          "name": "data",
          "type": "bytes"
        }
      ],
      "name": "safeTransferFrom",
      "outputs": [],
      "stateMutability": "nonpayable",
      "type": "function"
    },
    {
      "inputs": [
        {
          "internalType": "address",
          "name": "operator",
          "type": "address"
        },
        {
          "internalType": "bool",
          "name": "approved",
          "type": "bool"
        }
      ],
      "name": "setApprovalForAll",
      "outputs": [],
      "stateMutability": "nonpayable",
      "type": "function"
    },
    {
      "inputs": [
        {
          "internalType": "bytes4",
          "name": "interfaceId",
          "type": "bytes4"
        }
      ],
      "name": "supportsInterface",
      "outputs": [
        {
          "internalType": "bool",
          "name": "",
          "type": "bool"
        }
      ],
      "stateMutability": "view",
      "type": "function",
      "constant": true
    },
    {
      "inputs": [
        {
          "internalType": "address",
          "name": "newOwner",
          "type": "address"
        }
      ],
      "name": "transferOwnership",
      "outputs": [],
      "stateMutability": "nonpayable",
      "type": "function"
    },
    {
      "inputs": [
        {
          "internalType": "uint256",
          "name": "",
          "type": "uint256"
        }
      ],
      "name": "uri",
      "outputs": [
        {
          "internalType": "string",
          "name": "",
          "type": "string"
        }
      ],
      "stateMutability": "view",
      "type": "function",
      "constant": true
    },
    {
      "inputs": [
        {
          "internalType": "address[]",
          "name": "_player_list",
          "type": "address[]"
        },
        {
          "internalType": "string",
          "name": "_name",
          "type": "string"
        },
        {
          "internalType": "uint256",
          "name": "_num_to_issue",
          "type": "uint256"
        },
        {
          "internalType": "string",
          "name": "_mint_date",
          "type": "string"
        },
        {
          "internalType": "string",
          "name": "_type",
          "type": "string"
        },
        {
          "internalType": "uint256",
          "name": "_streak_days",
          "type": "uint256"
        },
        {
          "internalType": "uint256",
          "name": "_stake_amount",
          "type": "uint256"
        }
      ],
      "name": "tokenGenesis",
      "outputs": [
        {
          "internalType": "uint256",
          "name": "",
          "type": "uint256"
        }
      ],
      "stateMutability": "nonpayable",
      "type": "function"
    },
    {
      "inputs": [],
      "name": "getChallenges",
      "outputs": [
        {
          "components": [
            {
              "internalType": "address[]",
              "name": "players",
              "type": "address[]"
            },
            {
              "internalType": "string",
              "name": "name",
              "type": "string"
            },
            {
              "internalType": "uint256",
              "name": "id",
              "type": "uint256"
            },
            {
              "internalType": "bytes",
              "name": "mint_data",
              "type": "bytes"
            },
            {
              "internalType": "uint256",
              "name": "status",
              "type": "uint256"
            }
          ],
          "internalType": "struct Challenges.Challenge[]",
          "name": "",
          "type": "tuple[]"
        }
      ],
      "stateMutability": "view",
      "type": "function",
      "constant": true
    },
    {
      "inputs": [],
      "name": "getChallengeTokensLength",
      "outputs": [
        {
          "internalType": "uint256",
          "name": "",
          "type": "uint256"
        }
      ],
      "stateMutability": "view",
      "type": "function",
      "constant": true
    }
  ],
  "bytecode": "0x608060405233600760006101000a81548173ffffffffffffffffffffffffffffffffffffffff021916908373ffffffffffffffffffffffffffffffffffffffff1602179055503480156200005257600080fd5b506040518060600160405280603d815260200162004461603d91396200007e81620000a560201b60201c565b506200009f62000093620000c160201b60201c565b620000c960201b60201c565b620002a4565b8060029080519060200190620000bd9291906200018f565b5050565b600033905090565b6000600360009054906101000a900473ffffffffffffffffffffffffffffffffffffffff16905081600360006101000a81548173ffffffffffffffffffffffffffffffffffffffff021916908373ffffffffffffffffffffffffffffffffffffffff1602179055508173ffffffffffffffffffffffffffffffffffffffff168173ffffffffffffffffffffffffffffffffffffffff167f8be0079c531659141344cd1fd0a4f28419497f9722a3daafe3b4186f6b6457e060405160405180910390a35050565b8280546200019d906200023f565b90600052602060002090601f016020900481019282620001c157600085556200020d565b82601f10620001dc57805160ff19168380011785556200020d565b828001600101855582156200020d579182015b828111156200020c578251825591602001919060010190620001ef565b5b5090506200021c919062000220565b5090565b5b808211156200023b57600081600090555060010162000221565b5090565b600060028204905060018216806200025857607f821691505b602082108114156200026f576200026e62000275565b5b50919050565b7f4e487b7100000000000000000000000000000000000000000000000000000000600052602260045260246000fd5b6141ad80620002b46000396000f3fe608060405234801561001057600080fd5b50600436106101365760003560e01c8063667e5971116100b8578063caae5f941161007c578063caae5f941461038d578063e737fc31146103ab578063e985e9c5146103c9578063f242432a146103f9578063f2fde38b14610415578063f98503251461043157610136565b8063667e5971146102e6578063715018a6146103165780638da5cb5b146103205780638f1d37761461033e578063a22cb4651461037157610136565b80632eb2c2d6116100ff5780632eb2c2d61461022e57806337015ff81461024a57806346c7c126146102685780634b8ae8cd146102865780634e1273f4146102b657610136565b8062fdd58e1461013b57806301ffc9a71461016b5780630a97b44a1461019b5780630e89341c146101cb57806314c37109146101fb575b600080fd5b61015560048036038101906101509190612b4d565b610461565b6040516101629190613b73565b60405180910390f35b61018560048036038101906101809190612cf3565b61052a565b60405161019291906138d0565b60405180910390f35b6101b560048036038101906101b09190612bf5565b61060c565b6040516101c29190613b73565b60405180910390f35b6101e560048036038101906101e09190612d45565b610a47565b6040516101f291906138eb565b60405180910390f35b61021560048036038101906102109190612d45565b610adb565b6040516102259493929190613960565b60405180910390f35b610248600480360381019061024391906129c3565b610c1b565b005b610252610cbc565b60405161025f9190613710565b60405180910390f35b610270610ce2565b60405161027d9190613855565b60405180910390f35b6102a0600480360381019061029b9190612d45565b610ff5565b6040516102ad91906138d0565b60405180910390f35b6102d060048036038101906102cb9190612b89565b611015565b6040516102dd9190613877565b60405180910390f35b61030060048036038101906102fb919061295e565b6111c6565b60405161030d9190613b73565b60405180910390f35b61031e6111de565b005b610328611266565b60405161033591906136f5565b60405180910390f35b61035860048036038101906103539190612d45565b611290565b6040516103689493929190613960565b60405180910390f35b61038b60048036038101906103869190612b11565b6113e0565b005b610395611561565b6040516103a29190613710565b60405180910390f35b6103b3611587565b6040516103c09190613b73565b60405180910390f35b6103e360048036038101906103de9190612987565b611594565b6040516103f091906138d0565b60405180910390f35b610413600480360381019061040e9190612a82565b611628565b005b61042f600480360381019061042a919061295e565b6116c9565b005b61044b60048036038101906104469190612d6e565b6117c1565b6040516104589190613b73565b60405180910390f35b60008073ffffffffffffffffffffffffffffffffffffffff168373ffffffffffffffffffffffffffffffffffffffff1614156104d2576040517f08c379a00000000000000000000000000000000000000000000000000000000081526004016104c990613a13565b60405180910390fd5b60008083815260200190815260200160002060008473ffffffffffffffffffffffffffffffffffffffff1673ffffffffffffffffffffffffffffffffffffffff16815260200190815260200160002054905092915050565b60007fd9b67a26000000000000000000000000000000000000000000000000000000007bffffffffffffffffffffffffffffffffffffffffffffffffffffffff1916827bffffffffffffffffffffffffffffffffffffffffffffffffffffffff191614806105f557507f0e89341c000000000000000000000000000000000000000000000000000000007bffffffffffffffffffffffffffffffffffffffffffffffffffffffff1916827bffffffffffffffffffffffffffffffffffffffffffffffffffffffff1916145b806106055750610604826117e6565b5b9050919050565b600080662386f26fc10000905060008860405160200161062c91906136de565b6040516020818303038152906040528051906020012060001c9050600082826106559190613f5a565b90506004600082815260200190815260200160002060009054906101000a900460ff16156106b8576040517f08c379a00000000000000000000000000000000000000000000000000000000081526004016106af906139f3565b60405180910390fd5b6106c0612517565b8b81600001819052508a8160200181905250818160400181815250506000898989896040516020016106f5949392919061390d565b60405160208183030381529060405290508082606001819052506000826080018181525050600a8290806001815401808255809150506001900390600052602060002090600502016000909190919091506000820151816000019080519060200190610762929190612546565b50602082015181600101908051906020019061077f9291906125d0565b506040820151816002015560608201518160030190805190602001906107a6929190612656565b5060808201518160040155505082600560003373ffffffffffffffffffffffffffffffffffffffff1673ffffffffffffffffffffffffffffffffffffffff1681526020019081526020016000208190555081600660008581526020019081526020016000206000820151816000019080519060200190610827929190612546565b5060208201518160010190805190602001906108449291906125d0565b5060408201518160020155606082015181600301908051906020019061086b929190612656565b506080820151816004015590505060016004600085815260200190815260200160002060006101000a81548160ff0219169083151502179055506108b133848d84611850565b60005b8d5181116109e0578d81815181106108f5577f4e487b7100000000000000000000000000000000000000000000000000000000600052603260045260246000fd5b602002602001015173ffffffffffffffffffffffffffffffffffffffff163373ffffffffffffffffffffffffffffffffffffffff16146109cd5761097a8e828151811061096b577f4e487b7100000000000000000000000000000000000000000000000000000000600052603260045260246000fd5b602002602001015160016113e0565b6109c8338f83815181106109b7577f4e487b7100000000000000000000000000000000000000000000000000000000600052603260045260246000fd5b602002602001015186600186611628565b6109e0565b80806109d890613f11565b9150506108b4565b507fe29c18031b6de6db6306e62e047b5b30b97493327d40a257cec66832d9edc2a082600001518360200151846040015185606001518660800151604051610a2c9594939291906137ed565b60405180910390a18295505050505050979650505050505050565b606060028054610a5690613edf565b80601f0160208091040260200160405190810160405280929190818152602001828054610a8290613edf565b8015610acf5780601f10610aa457610100808354040283529160200191610acf565b820191906000526020600020905b815481529060010190602001808311610ab257829003601f168201915b50505050509050919050565b6006602052806000526040600020600091509050806001018054610afe90613edf565b80601f0160208091040260200160405190810160405280929190818152602001828054610b2a90613edf565b8015610b775780601f10610b4c57610100808354040283529160200191610b77565b820191906000526020600020905b815481529060010190602001808311610b5a57829003601f168201915b505050505090806002015490806003018054610b9290613edf565b80601f0160208091040260200160405190810160405280929190818152602001828054610bbe90613edf565b8015610c0b5780601f10610be057610100808354040283529160200191610c0b565b820191906000526020600020905b815481529060010190602001808311610bee57829003601f168201915b5050505050908060040154905084565b610c236119e6565b73ffffffffffffffffffffffffffffffffffffffff168573ffffffffffffffffffffffffffffffffffffffff161480610c695750610c6885610c636119e6565b611594565b5b610ca8576040517f08c379a0000000000000000000000000000000000000000000000000000000008152600401610c9f90613a93565b60405180910390fd5b610cb585858585856119ee565b5050505050565b600860009054906101000a900473ffffffffffffffffffffffffffffffffffffffff1681565b60606000600a8054905067ffffffffffffffff811115610d2b577f4e487b7100000000000000000000000000000000000000000000000000000000600052604160045260246000fd5b604051908082528060200260200182016040528015610d6457816020015b610d51612517565b815260200190600190039081610d495790505b50905060005b600a80549050811015610fed576000600a8281548110610db3577f4e487b7100000000000000000000000000000000000000000000000000000000600052603260045260246000fd5b90600052602060002090600502019050806040518060a001604052908160008201805480602002602001604051908101604052809291908181526020018280548015610e5457602002820191906000526020600020905b8160009054906101000a900473ffffffffffffffffffffffffffffffffffffffff1673ffffffffffffffffffffffffffffffffffffffff1681526020019060010190808311610e0a575b50505050508152602001600182018054610e6d90613edf565b80601f0160208091040260200160405190810160405280929190818152602001828054610e9990613edf565b8015610ee65780601f10610ebb57610100808354040283529160200191610ee6565b820191906000526020600020905b815481529060010190602001808311610ec957829003601f168201915b5050505050815260200160028201548152602001600382018054610f0990613edf565b80601f0160208091040260200160405190810160405280929190818152602001828054610f3590613edf565b8015610f825780601f10610f5757610100808354040283529160200191610f82565b820191906000526020600020905b815481529060010190602001808311610f6557829003601f168201915b50505050508152602001600482015481525050838381518110610fce577f4e487b7100000000000000000000000000000000000000000000000000000000600052603260045260246000fd5b6020026020010181905250508080610fe590613f11565b915050610d6a565b508091505090565b60046020528060005260406000206000915054906101000a900460ff1681565b6060815183511461105b576040517f08c379a000000000000000000000000000000000000000000000000000000000815260040161105290613b13565b60405180910390fd5b6000835167ffffffffffffffff81111561109e577f4e487b7100000000000000000000000000000000000000000000000000000000600052604160045260246000fd5b6040519080825280602002602001820160405280156110cc5781602001602082028036833780820191505090505b50905060005b84518110156111bb57611165858281518110611117577f4e487b7100000000000000000000000000000000000000000000000000000000600052603260045260246000fd5b6020026020010151858381518110611158577f4e487b7100000000000000000000000000000000000000000000000000000000600052603260045260246000fd5b6020026020010151610461565b82828151811061119e577f4e487b7100000000000000000000000000000000000000000000000000000000600052603260045260246000fd5b602002602001018181525050806111b490613f11565b90506110d2565b508091505092915050565b60056020528060005260406000206000915090505481565b6111e66119e6565b73ffffffffffffffffffffffffffffffffffffffff16611204611266565b73ffffffffffffffffffffffffffffffffffffffff161461125a576040517f08c379a000000000000000000000000000000000000000000000000000000000815260040161125190613ad3565b60405180910390fd5b6112646000611d4e565b565b6000600360009054906101000a900473ffffffffffffffffffffffffffffffffffffffff16905090565b600a81815481106112a057600080fd5b90600052602060002090600502016000915090508060010180546112c390613edf565b80601f01602080910402602001604051908101604052809291908181526020018280546112ef90613edf565b801561133c5780601f106113115761010080835404028352916020019161133c565b820191906000526020600020905b81548152906001019060200180831161131f57829003601f168201915b50505050509080600201549080600301805461135790613edf565b80601f016020809104026020016040519081016040528092919081815260200182805461138390613edf565b80156113d05780601f106113a5576101008083540402835291602001916113d0565b820191906000526020600020905b8154815290600101906020018083116113b357829003601f168201915b5050505050908060040154905084565b8173ffffffffffffffffffffffffffffffffffffffff166113ff6119e6565b73ffffffffffffffffffffffffffffffffffffffff161415611456576040517f08c379a000000000000000000000000000000000000000000000000000000000815260040161144d90613af3565b60405180910390fd5b80600160006114636119e6565b73ffffffffffffffffffffffffffffffffffffffff1673ffffffffffffffffffffffffffffffffffffffff16815260200190815260200160002060008473ffffffffffffffffffffffffffffffffffffffff1673ffffffffffffffffffffffffffffffffffffffff16815260200190815260200160002060006101000a81548160ff0219169083151502179055508173ffffffffffffffffffffffffffffffffffffffff166115106119e6565b73ffffffffffffffffffffffffffffffffffffffff167f17307eab39ab6107e8899845ad3d59bd9653f200f220920489ca2b5937696c318360405161155591906138d0565b60405180910390a35050565b600760009054906101000a900473ffffffffffffffffffffffffffffffffffffffff1681565b6000600a80549050905090565b6000600160008473ffffffffffffffffffffffffffffffffffffffff1673ffffffffffffffffffffffffffffffffffffffff16815260200190815260200160002060008373ffffffffffffffffffffffffffffffffffffffff1673ffffffffffffffffffffffffffffffffffffffff16815260200190815260200160002060009054906101000a900460ff16905092915050565b6116306119e6565b73ffffffffffffffffffffffffffffffffffffffff168573ffffffffffffffffffffffffffffffffffffffff1614806116765750611675856116706119e6565b611594565b5b6116b5576040517f08c379a00000000000000000000000000000000000000000000000000000000081526004016116ac90613a53565b60405180910390fd5b6116c28585858585611e14565b5050505050565b6116d16119e6565b73ffffffffffffffffffffffffffffffffffffffff166116ef611266565b73ffffffffffffffffffffffffffffffffffffffff1614611745576040517f08c379a000000000000000000000000000000000000000000000000000000000815260040161173c90613ad3565b60405180910390fd5b600073ffffffffffffffffffffffffffffffffffffffff168173ffffffffffffffffffffffffffffffffffffffff1614156117b5576040517f08c379a00000000000000000000000000000000000000000000000000000000081526004016117ac90613a33565b60405180910390fd5b6117be81611d4e565b50565b6009602052816000526040600020602052806000526040600020600091509150505481565b60007f01ffc9a7000000000000000000000000000000000000000000000000000000007bffffffffffffffffffffffffffffffffffffffffffffffffffffffff1916827bffffffffffffffffffffffffffffffffffffffffffffffffffffffff1916149050919050565b600073ffffffffffffffffffffffffffffffffffffffff168473ffffffffffffffffffffffffffffffffffffffff1614156118c0576040517f08c379a00000000000000000000000000000000000000000000000000000000081526004016118b790613b53565b60405180910390fd5b60006118ca6119e6565b90506118eb816000876118dc88612096565b6118e588612096565b8761215c565b8260008086815260200190815260200160002060008773ffffffffffffffffffffffffffffffffffffffff1673ffffffffffffffffffffffffffffffffffffffff168152602001908152602001600020600082825461194a9190613dc1565b925050819055508473ffffffffffffffffffffffffffffffffffffffff16600073ffffffffffffffffffffffffffffffffffffffff168273ffffffffffffffffffffffffffffffffffffffff167fc3d58168c5ae7397731d063d5bbf3d657854427343f4c083240f7aacaa2d0f6287876040516119c8929190613b8e565b60405180910390a46119df81600087878787612164565b5050505050565b600033905090565b8151835114611a32576040517f08c379a0000000000000000000000000000000000000000000000000000000008152600401611a2990613b33565b60405180910390fd5b600073ffffffffffffffffffffffffffffffffffffffff168473ffffffffffffffffffffffffffffffffffffffff161415611aa2576040517f08c379a0000000000000000000000000000000000000000000000000000000008152600401611a9990613a73565b60405180910390fd5b6000611aac6119e6565b9050611abc81878787878761215c565b60005b8451811015611cb9576000858281518110611b03577f4e487b7100000000000000000000000000000000000000000000000000000000600052603260045260246000fd5b602002602001015190506000858381518110611b48577f4e487b7100000000000000000000000000000000000000000000000000000000600052603260045260246000fd5b60200260200101519050600080600084815260200190815260200160002060008b73ffffffffffffffffffffffffffffffffffffffff1673ffffffffffffffffffffffffffffffffffffffff16815260200190815260200160002054905081811015611be9576040517f08c379a0000000000000000000000000000000000000000000000000000000008152600401611be090613ab3565b60405180910390fd5b81810360008085815260200190815260200160002060008c73ffffffffffffffffffffffffffffffffffffffff1673ffffffffffffffffffffffffffffffffffffffff168152602001908152602001600020819055508160008085815260200190815260200160002060008b73ffffffffffffffffffffffffffffffffffffffff1673ffffffffffffffffffffffffffffffffffffffff1681526020019081526020016000206000828254611c9e9190613dc1565b9250508190555050505080611cb290613f11565b9050611abf565b508473ffffffffffffffffffffffffffffffffffffffff168673ffffffffffffffffffffffffffffffffffffffff168273ffffffffffffffffffffffffffffffffffffffff167f4a39dc06d4c0dbc64b70af90fd698a233a518aa5d07e595d983b8c0526c8f7fb8787604051611d30929190613899565b60405180910390a4611d46818787878787612334565b505050505050565b6000600360009054906101000a900473ffffffffffffffffffffffffffffffffffffffff16905081600360006101000a81548173ffffffffffffffffffffffffffffffffffffffff021916908373ffffffffffffffffffffffffffffffffffffffff1602179055508173ffffffffffffffffffffffffffffffffffffffff168173ffffffffffffffffffffffffffffffffffffffff167f8be0079c531659141344cd1fd0a4f28419497f9722a3daafe3b4186f6b6457e060405160405180910390a35050565b600073ffffffffffffffffffffffffffffffffffffffff168473ffffffffffffffffffffffffffffffffffffffff161415611e84576040517f08c379a0000000000000000000000000000000000000000000000000000000008152600401611e7b90613a73565b60405180910390fd5b6000611e8e6119e6565b9050611eae818787611e9f88612096565b611ea888612096565b8761215c565b600080600086815260200190815260200160002060008873ffffffffffffffffffffffffffffffffffffffff1673ffffffffffffffffffffffffffffffffffffffff16815260200190815260200160002054905083811015611f45576040517f08c379a0000000000000000000000000000000000000000000000000000000008152600401611f3c90613ab3565b60405180910390fd5b83810360008087815260200190815260200160002060008973ffffffffffffffffffffffffffffffffffffffff1673ffffffffffffffffffffffffffffffffffffffff168152602001908152602001600020819055508360008087815260200190815260200160002060008873ffffffffffffffffffffffffffffffffffffffff1673ffffffffffffffffffffffffffffffffffffffff1681526020019081526020016000206000828254611ffa9190613dc1565b925050819055508573ffffffffffffffffffffffffffffffffffffffff168773ffffffffffffffffffffffffffffffffffffffff168373ffffffffffffffffffffffffffffffffffffffff167fc3d58168c5ae7397731d063d5bbf3d657854427343f4c083240f7aacaa2d0f628888604051612077929190613b8e565b60405180910390a461208d828888888888612164565b50505050505050565b60606000600167ffffffffffffffff8111156120db577f4e487b7100000000000000000000000000000000000000000000000000000000600052604160045260246000fd5b6040519080825280602002602001820160405280156121095781602001602082028036833780820191505090505b5090508281600081518110612147577f4e487b7100000000000000000000000000000000000000000000000000000000600052603260045260246000fd5b60200260200101818152505080915050919050565b505050505050565b6121838473ffffffffffffffffffffffffffffffffffffffff16612504565b1561232c578373ffffffffffffffffffffffffffffffffffffffff1663f23a6e6187878686866040518663ffffffff1660e01b81526004016121c9959493929190613793565b602060405180830381600087803b1580156121e357600080fd5b505af192505050801561221457506040513d601f19601f820116820180604052508101906122119190612d1c565b60015b6122a357612220614065565b8061222b5750612268565b806040517f08c379a000000000000000000000000000000000000000000000000000000000815260040161225f91906138eb565b60405180910390fd5b6040517f08c379a000000000000000000000000000000000000000000000000000000000815260040161229a906139b3565b60405180910390fd5b63f23a6e6160e01b7bffffffffffffffffffffffffffffffffffffffffffffffffffffffff1916817bffffffffffffffffffffffffffffffffffffffffffffffffffffffff19161461232a576040517f08c379a0000000000000000000000000000000000000000000000000000000008152600401612321906139d3565b60405180910390fd5b505b505050505050565b6123538473ffffffffffffffffffffffffffffffffffffffff16612504565b156124fc578373ffffffffffffffffffffffffffffffffffffffff1663bc197c8187878686866040518663ffffffff1660e01b815260040161239995949392919061372b565b602060405180830381600087803b1580156123b357600080fd5b505af19250505080156123e457506040513d601f19601f820116820180604052508101906123e19190612d1c565b60015b612473576123f0614065565b806123fb5750612438565b806040517f08c379a000000000000000000000000000000000000000000000000000000000815260040161242f91906138eb565b60405180910390fd5b6040517f08c379a000000000000000000000000000000000000000000000000000000000815260040161246a906139b3565b60405180910390fd5b63bc197c8160e01b7bffffffffffffffffffffffffffffffffffffffffffffffffffffffff1916817bffffffffffffffffffffffffffffffffffffffffffffffffffffffff1916146124fa576040517f08c379a00000000000000000000000000000000000000000000000000000000081526004016124f1906139d3565b60405180910390fd5b505b505050505050565b600080823b905060008111915050919050565b6040518060a0016040528060608152602001606081526020016000815260200160608152602001600081525090565b8280548282559060005260206000209081019282156125bf579160200282015b828111156125be5782518260006101000a81548173ffffffffffffffffffffffffffffffffffffffff021916908373ffffffffffffffffffffffffffffffffffffffff16021790555091602001919060010190612566565b5b5090506125cc91906126dc565b5090565b8280546125dc90613edf565b90600052602060002090601f0160209004810192826125fe5760008555612645565b82601f1061261757805160ff1916838001178555612645565b82800160010185558215612645579182015b82811115612644578251825591602001919060010190612629565b5b50905061265291906126dc565b5090565b82805461266290613edf565b90600052602060002090601f01602090048101928261268457600085556126cb565b82601f1061269d57805160ff19168380011785556126cb565b828001600101855582156126cb579182015b828111156126ca5782518255916020019190600101906126af565b5b5090506126d891906126dc565b5090565b5b808211156126f55760008160009055506001016126dd565b5090565b600061270c61270784613be8565b613bb7565b9050808382526020820190508285602086028201111561272b57600080fd5b60005b8581101561275b5781612741888261284d565b84526020840193506020830192505060018101905061272e565b5050509392505050565b600061277861277384613c14565b613bb7565b9050808382526020820190508285602086028201111561279757600080fd5b60005b858110156127c757816127ad8882612949565b84526020840193506020830192505060018101905061279a565b5050509392505050565b60006127e46127df84613c40565b613bb7565b9050828152602081018484840111156127fc57600080fd5b612807848285613e9d565b509392505050565b600061282261281d84613c70565b613bb7565b90508281526020810184848401111561283a57600080fd5b612845848285613e9d565b509392505050565b60008135905061285c8161411b565b92915050565b600082601f83011261287357600080fd5b81356128838482602086016126f9565b91505092915050565b600082601f83011261289d57600080fd5b81356128ad848260208601612765565b91505092915050565b6000813590506128c581614132565b92915050565b6000813590506128da81614149565b92915050565b6000815190506128ef81614149565b92915050565b600082601f83011261290657600080fd5b81356129168482602086016127d1565b91505092915050565b600082601f83011261293057600080fd5b813561294084826020860161280f565b91505092915050565b60008135905061295881614160565b92915050565b60006020828403121561297057600080fd5b600061297e8482850161284d565b91505092915050565b6000806040838503121561299a57600080fd5b60006129a88582860161284d565b92505060206129b98582860161284d565b9150509250929050565b600080600080600060a086880312156129db57600080fd5b60006129e98882890161284d565b95505060206129fa8882890161284d565b945050604086013567ffffffffffffffff811115612a1757600080fd5b612a238882890161288c565b935050606086013567ffffffffffffffff811115612a4057600080fd5b612a4c8882890161288c565b925050608086013567ffffffffffffffff811115612a6957600080fd5b612a75888289016128f5565b9150509295509295909350565b600080600080600060a08688031215612a9a57600080fd5b6000612aa88882890161284d565b9550506020612ab98882890161284d565b9450506040612aca88828901612949565b9350506060612adb88828901612949565b925050608086013567ffffffffffffffff811115612af857600080fd5b612b04888289016128f5565b9150509295509295909350565b60008060408385031215612b2457600080fd5b6000612b328582860161284d565b9250506020612b43858286016128b6565b9150509250929050565b60008060408385031215612b6057600080fd5b6000612b6e8582860161284d565b9250506020612b7f85828601612949565b9150509250929050565b60008060408385031215612b9c57600080fd5b600083013567ffffffffffffffff811115612bb657600080fd5b612bc285828601612862565b925050602083013567ffffffffffffffff811115612bdf57600080fd5b612beb8582860161288c565b9150509250929050565b600080600080600080600060e0888a031215612c1057600080fd5b600088013567ffffffffffffffff811115612c2a57600080fd5b612c368a828b01612862565b975050602088013567ffffffffffffffff811115612c5357600080fd5b612c5f8a828b0161291f565b9650506040612c708a828b01612949565b955050606088013567ffffffffffffffff811115612c8d57600080fd5b612c998a828b0161291f565b945050608088013567ffffffffffffffff811115612cb657600080fd5b612cc28a828b0161291f565b93505060a0612cd38a828b01612949565b92505060c0612ce48a828b01612949565b91505092959891949750929550565b600060208284031215612d0557600080fd5b6000612d13848285016128cb565b91505092915050565b600060208284031215612d2e57600080fd5b6000612d3c848285016128e0565b91505092915050565b600060208284031215612d5757600080fd5b6000612d6584828501612949565b91505092915050565b60008060408385031215612d8157600080fd5b6000612d8f85828601612949565b9250506020612da08582860161284d565b9150509250929050565b6000612db68383612dfd565b60208301905092915050565b6000612dce838361363c565b905092915050565b6000612de283836136c0565b60208301905092915050565b612df781613e29565b82525050565b612e0681613e17565b82525050565b612e1581613e17565b82525050565b6000612e2682613cd0565b612e308185613d2e565b9350612e3b83613ca0565b8060005b83811015612e6c578151612e538882612daa565b9750612e5e83613d07565b925050600181019050612e3f565b5085935050505092915050565b6000612e8482613cd0565b612e8e8185613d3f565b9350612e9983613ca0565b8060005b83811015612eca578151612eb18882612daa565b9750612ebc83613d07565b925050600181019050612e9d565b5085935050505092915050565b6000612ee282613cdb565b612eec8185613d50565b935083602082028501612efe85613cb0565b8060005b85811015612f3a5784840389528151612f1b8582612dc2565b9450612f2683613d14565b925060208a01995050600181019050612f02565b50829750879550505050505092915050565b6000612f5782613ce6565b612f618185613d61565b9350612f6c83613cc0565b8060005b83811015612f9d578151612f848882612dd6565b9750612f8f83613d21565b925050600181019050612f70565b5085935050505092915050565b612fb381613e3b565b82525050565b6000612fc482613cf1565b612fce8185613d72565b9350612fde818560208601613eac565b612fe781614047565b840191505092915050565b6000612ffd82613cf1565b6130078185613d83565b9350613017818560208601613eac565b61302081614047565b840191505092915050565b600061303682613cfc565b6130408185613d94565b9350613050818560208601613eac565b61305981614047565b840191505092915050565b600061306f82613cfc565b6130798185613da5565b9350613089818560208601613eac565b61309281614047565b840191505092915050565b60006130a882613cfc565b6130b28185613db6565b93506130c2818560208601613eac565b80840191505092915050565b60006130db603483613da5565b91507f455243313135353a207472616e7366657220746f206e6f6e204552433131353560008301527f526563656976657220696d706c656d656e7465720000000000000000000000006020830152604082019050919050565b6000613141602883613da5565b91507f455243313135353a204552433131353552656365697665722072656a6563746560008301527f6420746f6b656e730000000000000000000000000000000000000000000000006020830152604082019050919050565b60006131a7602183613da5565b91507f4572723a205069636b206120556e69717565204368616c6c656e6765204e616d60008301527f65000000000000000000000000000000000000000000000000000000000000006020830152604082019050919050565b600061320d602b83613da5565b91507f455243313135353a2062616c616e636520717565727920666f7220746865207a60008301527f65726f20616464726573730000000000000000000000000000000000000000006020830152604082019050919050565b6000613273602683613da5565b91507f4f776e61626c653a206e6577206f776e657220697320746865207a65726f206160008301527f64647265737300000000000000000000000000000000000000000000000000006020830152604082019050919050565b60006132d9602983613da5565b91507f455243313135353a2063616c6c6572206973206e6f74206f776e6572206e6f7260008301527f20617070726f76656400000000000000000000000000000000000000000000006020830152604082019050919050565b600061333f602583613da5565b91507f455243313135353a207472616e7366657220746f20746865207a65726f20616460008301527f64726573730000000000000000000000000000000000000000000000000000006020830152604082019050919050565b60006133a5603283613da5565b91507f455243313135353a207472616e736665722063616c6c6572206973206e6f742060008301527f6f776e6572206e6f7220617070726f76656400000000000000000000000000006020830152604082019050919050565b600061340b602a83613da5565b91507f455243313135353a20696e73756666696369656e742062616c616e636520666f60008301527f72207472616e73666572000000000000000000000000000000000000000000006020830152604082019050919050565b6000613471602083613da5565b91507f4f776e61626c653a2063616c6c6572206973206e6f7420746865206f776e65726000830152602082019050919050565b60006134b1602983613da5565b91507f455243313135353a2073657474696e6720617070726f76616c2073746174757360008301527f20666f722073656c6600000000000000000000000000000000000000000000006020830152604082019050919050565b6000613517602983613da5565b91507f455243313135353a206163636f756e747320616e6420696473206c656e67746860008301527f206d69736d6174636800000000000000000000000000000000000000000000006020830152604082019050919050565b600061357d602883613da5565b91507f455243313135353a2069647320616e6420616d6f756e7473206c656e6774682060008301527f6d69736d617463680000000000000000000000000000000000000000000000006020830152604082019050919050565b60006135e3602183613da5565b91507f455243313135353a206d696e7420746f20746865207a65726f2061646472657360008301527f73000000000000000000000000000000000000000000000000000000000000006020830152604082019050919050565b600060a08301600083015184820360008601526136598282612e1b565b91505060208301518482036020860152613673828261302b565b915050604083015161368860408601826136c0565b50606083015184820360608601526136a08282612fb9565b91505060808301516136b560808601826136c0565b508091505092915050565b6136c981613e93565b82525050565b6136d881613e93565b82525050565b60006136ea828461309d565b915081905092915050565b600060208201905061370a6000830184612e0c565b92915050565b60006020820190506137256000830184612dee565b92915050565b600060a0820190506137406000830188612e0c565b61374d6020830187612e0c565b818103604083015261375f8186612f4c565b905081810360608301526137738185612f4c565b905081810360808301526137878184612ff2565b90509695505050505050565b600060a0820190506137a86000830188612e0c565b6137b56020830187612e0c565b6137c260408301866136cf565b6137cf60608301856136cf565b81810360808301526137e18184612ff2565b90509695505050505050565b600060a08201905081810360008301526138078188612e79565b9050818103602083015261381b8187613064565b905061382a60408301866136cf565b818103606083015261383c8185612ff2565b905061384b60808301846136cf565b9695505050505050565b6000602082019050818103600083015261386f8184612ed7565b905092915050565b600060208201905081810360008301526138918184612f4c565b905092915050565b600060408201905081810360008301526138b38185612f4c565b905081810360208301526138c78184612f4c565b90509392505050565b60006020820190506138e56000830184612faa565b92915050565b600060208201905081810360008301526139058184613064565b905092915050565b600060808201905081810360008301526139278187613064565b9050818103602083015261393b8186613064565b905061394a60408301856136cf565b61395760608301846136cf565b95945050505050565b6000608082019050818103600083015261397a8187613064565b905061398960208301866136cf565b818103604083015261399b8185612ff2565b90506139aa60608301846136cf565b95945050505050565b600060208201905081810360008301526139cc816130ce565b9050919050565b600060208201905081810360008301526139ec81613134565b9050919050565b60006020820190508181036000830152613a0c8161319a565b9050919050565b60006020820190508181036000830152613a2c81613200565b9050919050565b60006020820190508181036000830152613a4c81613266565b9050919050565b60006020820190508181036000830152613a6c816132cc565b9050919050565b60006020820190508181036000830152613a8c81613332565b9050919050565b60006020820190508181036000830152613aac81613398565b9050919050565b60006020820190508181036000830152613acc816133fe565b9050919050565b60006020820190508181036000830152613aec81613464565b9050919050565b60006020820190508181036000830152613b0c816134a4565b9050919050565b60006020820190508181036000830152613b2c8161350a565b9050919050565b60006020820190508181036000830152613b4c81613570565b9050919050565b60006020820190508181036000830152613b6c816135d6565b9050919050565b6000602082019050613b8860008301846136cf565b92915050565b6000604082019050613ba360008301856136cf565b613bb060208301846136cf565b9392505050565b6000604051905081810181811067ffffffffffffffff82111715613bde57613bdd614018565b5b8060405250919050565b600067ffffffffffffffff821115613c0357613c02614018565b5b602082029050602081019050919050565b600067ffffffffffffffff821115613c2f57613c2e614018565b5b602082029050602081019050919050565b600067ffffffffffffffff821115613c5b57613c5a614018565b5b601f19601f8301169050602081019050919050565b600067ffffffffffffffff821115613c8b57613c8a614018565b5b601f19601f8301169050602081019050919050565b6000819050602082019050919050565b6000819050602082019050919050565b6000819050602082019050919050565b600081519050919050565b600081519050919050565b600081519050919050565b600081519050919050565b600081519050919050565b6000602082019050919050565b6000602082019050919050565b6000602082019050919050565b600082825260208201905092915050565b600082825260208201905092915050565b600082825260208201905092915050565b600082825260208201905092915050565b600082825260208201905092915050565b600082825260208201905092915050565b600082825260208201905092915050565b600082825260208201905092915050565b600081905092915050565b6000613dcc82613e93565b9150613dd783613e93565b9250827fffffffffffffffffffffffffffffffffffffffffffffffffffffffffffffffff03821115613e0c57613e0b613f8b565b5b828201905092915050565b6000613e2282613e73565b9050919050565b6000613e3482613e73565b9050919050565b60008115159050919050565b60007fffffffff0000000000000000000000000000000000000000000000000000000082169050919050565b600073ffffffffffffffffffffffffffffffffffffffff82169050919050565b6000819050919050565b82818337600083830152505050565b60005b83811015613eca578082015181840152602081019050613eaf565b83811115613ed9576000848401525b50505050565b60006002820490506001821680613ef757607f821691505b60208210811415613f0b57613f0a613fe9565b5b50919050565b6000613f1c82613e93565b91507fffffffffffffffffffffffffffffffffffffffffffffffffffffffffffffffff821415613f4f57613f4e613f8b565b5b600182019050919050565b6000613f6582613e93565b9150613f7083613e93565b925082613f8057613f7f613fba565b5b828206905092915050565b7f4e487b7100000000000000000000000000000000000000000000000000000000600052601160045260246000fd5b7f4e487b7100000000000000000000000000000000000000000000000000000000600052601260045260246000fd5b7f4e487b7100000000000000000000000000000000000000000000000000000000600052602260045260246000fd5b7f4e487b7100000000000000000000000000000000000000000000000000000000600052604160045260246000fd5b6000601f19601f8301169050919050565b60008160e01c9050919050565b600060443d101561407557614118565b60046000803e614086600051614058565b6308c379a081146140975750614118565b60405160043d036004823e80513d602482011167ffffffffffffffff821117156140c357505050614118565b808201805167ffffffffffffffff8111156140e2575050505050614118565b8060208301013d85018111156140fd57505050505050614118565b61410682614047565b60208401016040528296505050505050505b90565b61412481613e17565b811461412f57600080fd5b50565b61413b81613e3b565b811461414657600080fd5b50565b61415281613e47565b811461415d57600080fd5b50565b61416981613e93565b811461417457600080fd5b5056fea26469706673582212208767c14a205f6fad0b014b798dcddb82f278133371be0d3ad66360f1f292ffe764736f6c63430008000033687474703a2f2f6c6f63616c686f73743a383838382f7075626c69632f23212f4368616c6c656e6765546f6b656e43686573742f7b69647d2e6a736f6e",
  "immutableReferences": {},
  "source": "// SPDX-License-Identifier: MIT\npragma solidity >= 0.8.0;\npragma abicoder v2;\nimport \"@openzeppelin/contracts/token/ERC1155/ERC1155.sol\";\nimport \"@openzeppelin/contracts/access/Ownable.sol\";\nimport \"./Challenge.sol\";\n\ncontract ChallengeToken is ERC1155, Ownable{\n   /* Stored on chain */\n  mapping (uint256 => bool) public is_on_manifest;\n  mapping (address => uint256) public map_initiator_to_id;\n  mapping (uint256 => Challenges.Challenge) public map_id_to_Challenge;\n\n  address payable public OA = payable(msg.sender);\n  address payable public CT_X_Address;\n  mapping (uint256 => mapping(address => uint256)) public Player_Map;\n\n  Challenges.Challenge[] public challenges;\n  event ManifestedChallengeToken(address [] players,string _name,uint256 _id,bytes mint_data,uint status);\n\n    constructor()\n    ERC1155(\"http://localhost:8888/public/#!/ChallengeTokenChest/{id}.json\")\n    Ownable()\n    {}\n  function tokenGenesis (\n    address [] memory _player_list,\n     string memory _name,\n      uint256 _num_to_issue,\n       string memory _mint_date,\n        string memory _type,\n         uint256 _streak_days,\n          uint256 _stake_amount\n  )public\n   returns (uint256) {\n      // OA.transfer(msg.value);\n      uint256 idmod = 10 ** 16;\n      uint256 token_id = uint256(keccak256(abi.encodePacked(_name)));\n      uint256 _id = token_id % idmod;\n      require(!is_on_manifest[_id], \"Err: Pick a Unique Challenge Name\");\n      Challenges.Challenge memory new_challenge;\n      new_challenge.players = _player_list;\n      new_challenge.name = _name;\n      new_challenge.id = _id;\n      bytes memory mintData = abi.encode(_mint_date, _type, _streak_days, _stake_amount);\n      new_challenge.mint_data = mintData;\n      new_challenge.status = 0;\n      challenges.push(new_challenge);\n      map_initiator_to_id[msg.sender] = _id;\n      map_id_to_Challenge[_id] = new_challenge;\n      is_on_manifest[_id] = true;\n      _mint(msg.sender, _id, _num_to_issue, mintData);\n      for(uint i=0; i <= _player_list.length ; i++){\n        if(msg.sender != _player_list[i]){\n          setApprovalForAll(_player_list[i], true);\n          safeTransferFrom(msg.sender, _player_list[i], _id, 1, mintData);\n          break;\n        }\n      }\n      emit ManifestedChallengeToken(new_challenge.players,new_challenge.name,new_challenge.id,new_challenge.mint_data,new_challenge.status);\n      return _id;\n  }\n  function getChallenges() public view returns (Challenges.Challenge[] memory) {\n        Challenges.Challenge[] memory c = new Challenges.Challenge[](challenges.length);\n        for (uint i = 0; i < challenges.length; i++) {\n          Challenges.Challenge storage this_challenge = challenges[i];\n          c[i] = this_challenge;\n        }\n        return c;\n    }\n\n  function getChallengeTokensLength() public view returns(uint256){\n    return challenges.length;\n  }\n}\n",
  "sourcePath": "/Volumes/TerryBytes2/2021_Kode_Tut/BabelBet/contracts/ChallengeToken.sol",
  "compiler": {
    "name": "solc",
    "version": "0.8.0+commit.c7dfd78e.Emscripten.clang"
  },
  "schemaVersion": "3.4.3",
  "updatedAt": "2021-11-27T21:13:02.611Z",
  "networkType": "ethereum",
  "devdoc": {
    "kind": "dev",
    "methods": {
      "balanceOf(address,uint256)": {
        "details": "See {IERC1155-balanceOf}. Requirements: - `account` cannot be the zero address."
      },
      "balanceOfBatch(address[],uint256[])": {
        "details": "See {IERC1155-balanceOfBatch}. Requirements: - `accounts` and `ids` must have the same length."
      },
      "isApprovedForAll(address,address)": {
        "details": "See {IERC1155-isApprovedForAll}."
      },
      "owner()": {
        "details": "Returns the address of the current owner."
      },
      "renounceOwnership()": {
        "details": "Leaves the contract without owner. It will not be possible to call `onlyOwner` functions anymore. Can only be called by the current owner. NOTE: Renouncing ownership will leave the contract without an owner, thereby removing any functionality that is only available to the owner."
      },
      "safeBatchTransferFrom(address,address,uint256[],uint256[],bytes)": {
        "details": "See {IERC1155-safeBatchTransferFrom}."
      },
      "safeTransferFrom(address,address,uint256,uint256,bytes)": {
        "details": "See {IERC1155-safeTransferFrom}."
      },
      "setApprovalForAll(address,bool)": {
        "details": "See {IERC1155-setApprovalForAll}."
      },
      "supportsInterface(bytes4)": {
        "details": "See {IERC165-supportsInterface}."
      },
      "transferOwnership(address)": {
        "details": "Transfers ownership of the contract to a new account (`newOwner`). Can only be called by the current owner."
      },
      "uri(uint256)": {
        "details": "See {IERC1155MetadataURI-uri}. This implementation returns the same URI for *all* token types. It relies on the token type ID substitution mechanism https://eips.ethereum.org/EIPS/eip-1155#metadata[defined in the EIP]. Clients calling this function must replace the `\\{id\\}` substring with the actual token type ID."
      }
    },
    "version": 1
  },
  "userdoc": {
    "kind": "user",
    "methods": {},
    "version": 1
  }
}