{
  "contractName": "ChallengeToken",
  "abi": [
    {
      "inputs": [],
      "stateMutability": "nonpayable",
      "type": "constructor"
    },
    {
      "anonymous": false,
      "inputs": [
        {
          "indexed": true,
          "internalType": "address",
          "name": "account",
          "type": "address"
        },
        {
          "indexed": true,
          "internalType": "address",
          "name": "operator",
          "type": "address"
        },
        {
          "indexed": false,
          "internalType": "bool",
          "name": "approved",
          "type": "bool"
        }
      ],
      "name": "ApprovalForAll",
      "type": "event"
    },
    {
      "anonymous": false,
      "inputs": [
        {
          "indexed": false,
          "internalType": "address[]",
          "name": "players",
          "type": "address[]"
        },
        {
          "indexed": false,
          "internalType": "string",
          "name": "_name",
          "type": "string"
        },
        {
          "indexed": false,
          "internalType": "uint256",
          "name": "_id",
          "type": "uint256"
        },
        {
          "indexed": false,
          "internalType": "bytes",
          "name": "mint_data",
          "type": "bytes"
        }
      ],
      "name": "ManifestedChallengeToken",
      "type": "event"
    },
    {
      "anonymous": false,
      "inputs": [
        {
          "indexed": true,
          "internalType": "address",
          "name": "previousOwner",
          "type": "address"
        },
        {
          "indexed": true,
          "internalType": "address",
          "name": "newOwner",
          "type": "address"
        }
      ],
      "name": "OwnershipTransferred",
      "type": "event"
    },
    {
      "anonymous": false,
      "inputs": [
        {
          "indexed": true,
          "internalType": "address",
          "name": "operator",
          "type": "address"
        },
        {
          "indexed": true,
          "internalType": "address",
          "name": "from",
          "type": "address"
        },
        {
          "indexed": true,
          "internalType": "address",
          "name": "to",
          "type": "address"
        },
        {
          "indexed": false,
          "internalType": "uint256[]",
          "name": "ids",
          "type": "uint256[]"
        },
        {
          "indexed": false,
          "internalType": "uint256[]",
          "name": "values",
          "type": "uint256[]"
        }
      ],
      "name": "TransferBatch",
      "type": "event"
    },
    {
      "anonymous": false,
      "inputs": [
        {
          "indexed": true,
          "internalType": "address",
          "name": "operator",
          "type": "address"
        },
        {
          "indexed": true,
          "internalType": "address",
          "name": "from",
          "type": "address"
        },
        {
          "indexed": true,
          "internalType": "address",
          "name": "to",
          "type": "address"
        },
        {
          "indexed": false,
          "internalType": "uint256",
          "name": "id",
          "type": "uint256"
        },
        {
          "indexed": false,
          "internalType": "uint256",
          "name": "value",
          "type": "uint256"
        }
      ],
      "name": "TransferSingle",
      "type": "event"
    },
    {
      "anonymous": false,
      "inputs": [
        {
          "indexed": false,
          "internalType": "string",
          "name": "value",
          "type": "string"
        },
        {
          "indexed": true,
          "internalType": "uint256",
          "name": "id",
          "type": "uint256"
        }
      ],
      "name": "URI",
      "type": "event"
    },
    {
      "inputs": [],
      "name": "CT_X_Address",
      "outputs": [
        {
          "internalType": "address payable",
          "name": "",
          "type": "address"
        }
      ],
      "stateMutability": "view",
      "type": "function",
      "constant": true
    },
    {
      "inputs": [],
      "name": "OA",
      "outputs": [
        {
          "internalType": "address payable",
          "name": "",
          "type": "address"
        }
      ],
      "stateMutability": "view",
      "type": "function",
      "constant": true
    },
    {
      "inputs": [
        {
          "internalType": "uint256",
          "name": "",
          "type": "uint256"
        },
        {
          "internalType": "address",
          "name": "",
          "type": "address"
        }
      ],
      "name": "Player_Map",
      "outputs": [
        {
          "internalType": "uint256",
          "name": "",
          "type": "uint256"
        }
      ],
      "stateMutability": "view",
      "type": "function",
      "constant": true
    },
    {
      "inputs": [
        {
          "internalType": "address",
          "name": "account",
          "type": "address"
        },
        {
          "internalType": "uint256",
          "name": "id",
          "type": "uint256"
        }
      ],
      "name": "balanceOf",
      "outputs": [
        {
          "internalType": "uint256",
          "name": "",
          "type": "uint256"
        }
      ],
      "stateMutability": "view",
      "type": "function",
      "constant": true
    },
    {
      "inputs": [
        {
          "internalType": "address[]",
          "name": "accounts",
          "type": "address[]"
        },
        {
          "internalType": "uint256[]",
          "name": "ids",
          "type": "uint256[]"
        }
      ],
      "name": "balanceOfBatch",
      "outputs": [
        {
          "internalType": "uint256[]",
          "name": "",
          "type": "uint256[]"
        }
      ],
      "stateMutability": "view",
      "type": "function",
      "constant": true
    },
    {
      "inputs": [
        {
          "internalType": "uint256",
          "name": "",
          "type": "uint256"
        }
      ],
      "name": "challenges",
      "outputs": [
        {
          "internalType": "string",
          "name": "name",
          "type": "string"
        },
        {
          "internalType": "uint256",
          "name": "id",
          "type": "uint256"
        },
        {
          "internalType": "bytes",
          "name": "mint_data",
          "type": "bytes"
        }
      ],
      "stateMutability": "view",
      "type": "function",
      "constant": true
    },
    {
      "inputs": [
        {
          "internalType": "address",
          "name": "account",
          "type": "address"
        },
        {
          "internalType": "address",
          "name": "operator",
          "type": "address"
        }
      ],
      "name": "isApprovedForAll",
      "outputs": [
        {
          "internalType": "bool",
          "name": "",
          "type": "bool"
        }
      ],
      "stateMutability": "view",
      "type": "function",
      "constant": true
    },
    {
      "inputs": [
        {
          "internalType": "uint256",
          "name": "",
          "type": "uint256"
        }
      ],
      "name": "is_on_manifest",
      "outputs": [
        {
          "internalType": "bool",
          "name": "",
          "type": "bool"
        }
      ],
      "stateMutability": "view",
      "type": "function",
      "constant": true
    },
    {
      "inputs": [
        {
          "internalType": "uint256",
          "name": "",
          "type": "uint256"
        }
      ],
      "name": "map_id_to_Challenge",
      "outputs": [
        {
          "internalType": "string",
          "name": "name",
          "type": "string"
        },
        {
          "internalType": "uint256",
          "name": "id",
          "type": "uint256"
        },
        {
          "internalType": "bytes",
          "name": "mint_data",
          "type": "bytes"
        }
      ],
      "stateMutability": "view",
      "type": "function",
      "constant": true
    },
    {
      "inputs": [
        {
          "internalType": "address",
          "name": "",
          "type": "address"
        }
      ],
      "name": "map_initiator_to_id",
      "outputs": [
        {
          "internalType": "uint256",
          "name": "",
          "type": "uint256"
        }
      ],
      "stateMutability": "view",
      "type": "function",
      "constant": true
    },
    {
      "inputs": [],
      "name": "owner",
      "outputs": [
        {
          "internalType": "address",
          "name": "",
          "type": "address"
        }
      ],
      "stateMutability": "view",
      "type": "function",
      "constant": true
    },
    {
      "inputs": [],
      "name": "renounceOwnership",
      "outputs": [],
      "stateMutability": "nonpayable",
      "type": "function"
    },
    {
      "inputs": [
        {
          "internalType": "address",
          "name": "from",
          "type": "address"
        },
        {
          "internalType": "address",
          "name": "to",
          "type": "address"
        },
        {
          "internalType": "uint256[]",
          "name": "ids",
          "type": "uint256[]"
        },
        {
          "internalType": "uint256[]",
          "name": "amounts",
          "type": "uint256[]"
        },
        {
          "internalType": "bytes",
          "name": "data",
          "type": "bytes"
        }
      ],
      "name": "safeBatchTransferFrom",
      "outputs": [],
      "stateMutability": "nonpayable",
      "type": "function"
    },
    {
      "inputs": [
        {
          "internalType": "address",
          "name": "from",
          "type": "address"
        },
        {
          "internalType": "address",
          "name": "to",
          "type": "address"
        },
        {
          "internalType": "uint256",
          "name": "id",
          "type": "uint256"
        },
        {
          "internalType": "uint256",
          "name": "amount",
          "type": "uint256"
        },
        {
          "internalType": "bytes",
          "name": "data",
          "type": "bytes"
        }
      ],
      "name": "safeTransferFrom",
      "outputs": [],
      "stateMutability": "nonpayable",
      "type": "function"
    },
    {
      "inputs": [
        {
          "internalType": "address",
          "name": "operator",
          "type": "address"
        },
        {
          "internalType": "bool",
          "name": "approved",
          "type": "bool"
        }
      ],
      "name": "setApprovalForAll",
      "outputs": [],
      "stateMutability": "nonpayable",
      "type": "function"
    },
    {
      "inputs": [
        {
          "internalType": "bytes4",
          "name": "interfaceId",
          "type": "bytes4"
        }
      ],
      "name": "supportsInterface",
      "outputs": [
        {
          "internalType": "bool",
          "name": "",
          "type": "bool"
        }
      ],
      "stateMutability": "view",
      "type": "function",
      "constant": true
    },
    {
      "inputs": [
        {
          "internalType": "address",
          "name": "newOwner",
          "type": "address"
        }
      ],
      "name": "transferOwnership",
      "outputs": [],
      "stateMutability": "nonpayable",
      "type": "function"
    },
    {
      "inputs": [
        {
          "internalType": "uint256",
          "name": "",
          "type": "uint256"
        }
      ],
      "name": "uri",
      "outputs": [
        {
          "internalType": "string",
          "name": "",
          "type": "string"
        }
      ],
      "stateMutability": "view",
      "type": "function",
      "constant": true
    },
    {
      "inputs": [],
      "name": "tokenGenesis",
      "outputs": [],
      "stateMutability": "nonpayable",
      "type": "function"
    },
    {
      "inputs": [],
      "name": "getChallenges",
      "outputs": [
        {
          "components": [
            {
              "internalType": "address[]",
              "name": "players",
              "type": "address[]"
            },
            {
              "internalType": "string",
              "name": "name",
              "type": "string"
            },
            {
              "internalType": "uint256",
              "name": "id",
              "type": "uint256"
            },
            {
              "internalType": "bytes",
              "name": "mint_data",
              "type": "bytes"
            }
          ],
          "internalType": "struct Challenges.Challenge[]",
          "name": "",
          "type": "tuple[]"
        }
      ],
      "stateMutability": "view",
      "type": "function",
      "constant": true
    },
    {
      "inputs": [],
      "name": "getChallengeTokensLength",
      "outputs": [
        {
          "internalType": "uint256",
          "name": "",
          "type": "uint256"
        }
      ],
      "stateMutability": "view",
      "type": "function",
      "constant": true
    }
  ],
  "bytecode": "0x608060405233600760006101000a81548173ffffffffffffffffffffffffffffffffffffffff021916908373ffffffffffffffffffffffffffffffffffffffff1602179055503480156200005257600080fd5b506040518060600160405280603d815260200162003807603d91396200007e81620000a560201b60201c565b506200009f62000093620000c160201b60201c565b620000c960201b60201c565b620002a4565b8060029080519060200190620000bd9291906200018f565b5050565b600033905090565b6000600360009054906101000a900473ffffffffffffffffffffffffffffffffffffffff16905081600360006101000a81548173ffffffffffffffffffffffffffffffffffffffff021916908373ffffffffffffffffffffffffffffffffffffffff1602179055508173ffffffffffffffffffffffffffffffffffffffff168173ffffffffffffffffffffffffffffffffffffffff167f8be0079c531659141344cd1fd0a4f28419497f9722a3daafe3b4186f6b6457e060405160405180910390a35050565b8280546200019d906200023f565b90600052602060002090601f016020900481019282620001c157600085556200020d565b82601f10620001dc57805160ff19168380011785556200020d565b828001600101855582156200020d579182015b828111156200020c578251825591602001919060010190620001ef565b5b5090506200021c919062000220565b5090565b5b808211156200023b57600081600090555060010162000221565b5090565b600060028204905060018216806200025857607f821691505b602082108114156200026f576200026e62000275565b5b50919050565b7f4e487b7100000000000000000000000000000000000000000000000000000000600052602260045260246000fd5b61355380620002b46000396000f3fe608060405234801561001057600080fd5b50600436106101365760003560e01c8063715018a6116100b8578063cf8ebebf1161007c578063cf8ebebf14610379578063e737fc3114610383578063e985e9c5146103a1578063f242432a146103d1578063f2fde38b146103ed578063f98503251461040957610136565b8063715018a6146102e55780638da5cb5b146102ef5780638f1d37761461030d578063a22cb4651461033f578063caae5f941461035b57610136565b806337015ff8116100ff57806337015ff81461021957806346c7c126146102375780634b8ae8cd146102555780634e1273f414610285578063667e5971146102b557610136565b8062fdd58e1461013b57806301ffc9a71461016b5780630e89341c1461019b57806314c37109146101cb5780632eb2c2d6146101fd575b600080fd5b6101556004803603810190610150919061232b565b610439565b6040516101629190612fc5565b60405180910390f35b610185600480360381019061018091906123d3565b610502565b6040516101929190612dc3565b60405180910390f35b6101b560048036038101906101b09190612425565b6105e4565b6040516101c29190612dde565b60405180910390f35b6101e560048036038101906101e09190612425565b610678565b6040516101f493929190612e00565b60405180910390f35b610217600480360381019061021291906121a1565b6107b2565b005b610221610853565b60405161022e9190612c6b565b60405180910390f35b61023f610879565b60405161024c9190612d48565b60405180910390f35b61026f600480360381019061026a9190612425565b610b82565b60405161027c9190612dc3565b60405180910390f35b61029f600480360381019061029a9190612367565b610ba2565b6040516102ac9190612d6a565b60405180910390f35b6102cf60048036038101906102ca919061213c565b610d53565b6040516102dc9190612fc5565b60405180910390f35b6102ed610d6b565b005b6102f7610df3565b6040516103049190612c50565b60405180910390f35b61032760048036038101906103229190612425565b610e1d565b60405161033693929190612e00565b60405180910390f35b610359600480360381019061035491906122ef565b610f67565b005b6103636110e8565b6040516103709190612c6b565b60405180910390f35b61038161110e565b005b61038b61111d565b6040516103989190612fc5565b60405180910390f35b6103bb60048036038101906103b69190612165565b61112a565b6040516103c89190612dc3565b60405180910390f35b6103eb60048036038101906103e69190612260565b6111be565b005b6104076004803603810190610402919061213c565b61125f565b005b610423600480360381019061041e919061244e565b611357565b6040516104309190612fc5565b60405180910390f35b60008073ffffffffffffffffffffffffffffffffffffffff168373ffffffffffffffffffffffffffffffffffffffff1614156104aa576040517f08c379a00000000000000000000000000000000000000000000000000000000081526004016104a190612e85565b60405180910390fd5b60008083815260200190815260200160002060008473ffffffffffffffffffffffffffffffffffffffff1673ffffffffffffffffffffffffffffffffffffffff16815260200190815260200160002054905092915050565b60007fd9b67a26000000000000000000000000000000000000000000000000000000007bffffffffffffffffffffffffffffffffffffffffffffffffffffffff1916827bffffffffffffffffffffffffffffffffffffffffffffffffffffffff191614806105cd57507f0e89341c000000000000000000000000000000000000000000000000000000007bffffffffffffffffffffffffffffffffffffffffffffffffffffffff1916827bffffffffffffffffffffffffffffffffffffffffffffffffffffffff1916145b806105dd57506105dc8261137c565b5b9050919050565b6060600280546105f3906132e5565b80601f016020809104026020016040519081016040528092919081815260200182805461061f906132e5565b801561066c5780601f106106415761010080835404028352916020019161066c565b820191906000526020600020905b81548152906001019060200180831161064f57829003601f168201915b50505050509050919050565b600660205280600052604060002060009150905080600101805461069b906132e5565b80601f01602080910402602001604051908101604052809291908181526020018280546106c7906132e5565b80156107145780601f106106e957610100808354040283529160200191610714565b820191906000526020600020905b8154815290600101906020018083116106f757829003601f168201915b50505050509080600201549080600301805461072f906132e5565b80601f016020809104026020016040519081016040528092919081815260200182805461075b906132e5565b80156107a85780601f1061077d576101008083540402835291602001916107a8565b820191906000526020600020905b81548152906001019060200180831161078b57829003601f168201915b5050505050905083565b6107ba6113e6565b73ffffffffffffffffffffffffffffffffffffffff168573ffffffffffffffffffffffffffffffffffffffff16148061080057506107ff856107fa6113e6565b61112a565b5b61083f576040517f08c379a000000000000000000000000000000000000000000000000000000000815260040161083690612f05565b60405180910390fd5b61084c85858585856113ee565b5050505050565b600860009054906101000a900473ffffffffffffffffffffffffffffffffffffffff1681565b60606000600a8054905067ffffffffffffffff8111156108c2577f4e487b7100000000000000000000000000000000000000000000000000000000600052604160045260246000fd5b6040519080825280602002602001820160405280156108fb57816020015b6108e8611f17565b8152602001906001900390816108e05790505b50905060005b600a80549050811015610b7a576000600a828154811061094a577f4e487b7100000000000000000000000000000000000000000000000000000000600052603260045260246000fd5b9060005260206000209060040201905080604051806080016040529081600082018054806020026020016040519081016040528092919081815260200182805480156109eb57602002820191906000526020600020905b8160009054906101000a900473ffffffffffffffffffffffffffffffffffffffff1673ffffffffffffffffffffffffffffffffffffffff16815260200190600101908083116109a1575b50505050508152602001600182018054610a04906132e5565b80601f0160208091040260200160405190810160405280929190818152602001828054610a30906132e5565b8015610a7d5780601f10610a5257610100808354040283529160200191610a7d565b820191906000526020600020905b815481529060010190602001808311610a6057829003601f168201915b5050505050815260200160028201548152602001600382018054610aa0906132e5565b80601f0160208091040260200160405190810160405280929190818152602001828054610acc906132e5565b8015610b195780601f10610aee57610100808354040283529160200191610b19565b820191906000526020600020905b815481529060010190602001808311610afc57829003601f168201915b505050505081525050838381518110610b5b577f4e487b7100000000000000000000000000000000000000000000000000000000600052603260045260246000fd5b6020026020010181905250508080610b7290613317565b915050610901565b508091505090565b60046020528060005260406000206000915054906101000a900460ff1681565b60608151835114610be8576040517f08c379a0000000000000000000000000000000000000000000000000000000008152600401610bdf90612f85565b60405180910390fd5b6000835167ffffffffffffffff811115610c2b577f4e487b7100000000000000000000000000000000000000000000000000000000600052604160045260246000fd5b604051908082528060200260200182016040528015610c595781602001602082028036833780820191505090505b50905060005b8451811015610d4857610cf2858281518110610ca4577f4e487b7100000000000000000000000000000000000000000000000000000000600052603260045260246000fd5b6020026020010151858381518110610ce5577f4e487b7100000000000000000000000000000000000000000000000000000000600052603260045260246000fd5b6020026020010151610439565b828281518110610d2b577f4e487b7100000000000000000000000000000000000000000000000000000000600052603260045260246000fd5b60200260200101818152505080610d4190613317565b9050610c5f565b508091505092915050565b60056020528060005260406000206000915090505481565b610d736113e6565b73ffffffffffffffffffffffffffffffffffffffff16610d91610df3565b73ffffffffffffffffffffffffffffffffffffffff1614610de7576040517f08c379a0000000000000000000000000000000000000000000000000000000008152600401610dde90612f45565b60405180910390fd5b610df1600061174e565b565b6000600360009054906101000a900473ffffffffffffffffffffffffffffffffffffffff16905090565b600a8181548110610e2d57600080fd5b9060005260206000209060040201600091509050806001018054610e50906132e5565b80601f0160208091040260200160405190810160405280929190818152602001828054610e7c906132e5565b8015610ec95780601f10610e9e57610100808354040283529160200191610ec9565b820191906000526020600020905b815481529060010190602001808311610eac57829003601f168201915b505050505090806002015490806003018054610ee4906132e5565b80601f0160208091040260200160405190810160405280929190818152602001828054610f10906132e5565b8015610f5d5780601f10610f3257610100808354040283529160200191610f5d565b820191906000526020600020905b815481529060010190602001808311610f4057829003601f168201915b5050505050905083565b8173ffffffffffffffffffffffffffffffffffffffff16610f866113e6565b73ffffffffffffffffffffffffffffffffffffffff161415610fdd576040517f08c379a0000000000000000000000000000000000000000000000000000000008152600401610fd490612f65565b60405180910390fd5b8060016000610fea6113e6565b73ffffffffffffffffffffffffffffffffffffffff1673ffffffffffffffffffffffffffffffffffffffff16815260200190815260200160002060008473ffffffffffffffffffffffffffffffffffffffff1673ffffffffffffffffffffffffffffffffffffffff16815260200190815260200160002060006101000a81548160ff0219169083151502179055508173ffffffffffffffffffffffffffffffffffffffff166110976113e6565b73ffffffffffffffffffffffffffffffffffffffff167f17307eab39ab6107e8899845ad3d59bd9653f200f220920489ca2b5937696c31836040516110dc9190612dc3565b60405180910390a35050565b600760009054906101000a900473ffffffffffffffffffffffffffffffffffffffff1681565b6000662386f26fc10000905050565b6000600a80549050905090565b6000600160008473ffffffffffffffffffffffffffffffffffffffff1673ffffffffffffffffffffffffffffffffffffffff16815260200190815260200160002060008373ffffffffffffffffffffffffffffffffffffffff1673ffffffffffffffffffffffffffffffffffffffff16815260200190815260200160002060009054906101000a900460ff16905092915050565b6111c66113e6565b73ffffffffffffffffffffffffffffffffffffffff168573ffffffffffffffffffffffffffffffffffffffff16148061120c575061120b856112066113e6565b61112a565b5b61124b576040517f08c379a000000000000000000000000000000000000000000000000000000000815260040161124290612ec5565b60405180910390fd5b6112588585858585611814565b5050505050565b6112676113e6565b73ffffffffffffffffffffffffffffffffffffffff16611285610df3565b73ffffffffffffffffffffffffffffffffffffffff16146112db576040517f08c379a00000000000000000000000000000000000000000000000000000000081526004016112d290612f45565b60405180910390fd5b600073ffffffffffffffffffffffffffffffffffffffff168173ffffffffffffffffffffffffffffffffffffffff16141561134b576040517f08c379a000000000000000000000000000000000000000000000000000000000815260040161134290612ea5565b60405180910390fd5b6113548161174e565b50565b6009602052816000526040600020602052806000526040600020600091509150505481565b60007f01ffc9a7000000000000000000000000000000000000000000000000000000007bffffffffffffffffffffffffffffffffffffffffffffffffffffffff1916827bffffffffffffffffffffffffffffffffffffffffffffffffffffffff1916149050919050565b600033905090565b8151835114611432576040517f08c379a000000000000000000000000000000000000000000000000000000000815260040161142990612fa5565b60405180910390fd5b600073ffffffffffffffffffffffffffffffffffffffff168473ffffffffffffffffffffffffffffffffffffffff1614156114a2576040517f08c379a000000000000000000000000000000000000000000000000000000000815260040161149990612ee5565b60405180910390fd5b60006114ac6113e6565b90506114bc818787878787611a96565b60005b84518110156116b9576000858281518110611503577f4e487b7100000000000000000000000000000000000000000000000000000000600052603260045260246000fd5b602002602001015190506000858381518110611548577f4e487b7100000000000000000000000000000000000000000000000000000000600052603260045260246000fd5b60200260200101519050600080600084815260200190815260200160002060008b73ffffffffffffffffffffffffffffffffffffffff1673ffffffffffffffffffffffffffffffffffffffff168152602001908152602001600020549050818110156115e9576040517f08c379a00000000000000000000000000000000000000000000000000000000081526004016115e090612f25565b60405180910390fd5b81810360008085815260200190815260200160002060008c73ffffffffffffffffffffffffffffffffffffffff1673ffffffffffffffffffffffffffffffffffffffff168152602001908152602001600020819055508160008085815260200190815260200160002060008b73ffffffffffffffffffffffffffffffffffffffff1673ffffffffffffffffffffffffffffffffffffffff168152602001908152602001600020600082825461169e91906131c7565b92505081905550505050806116b290613317565b90506114bf565b508473ffffffffffffffffffffffffffffffffffffffff168673ffffffffffffffffffffffffffffffffffffffff168273ffffffffffffffffffffffffffffffffffffffff167f4a39dc06d4c0dbc64b70af90fd698a233a518aa5d07e595d983b8c0526c8f7fb8787604051611730929190612d8c565b60405180910390a4611746818787878787611a9e565b505050505050565b6000600360009054906101000a900473ffffffffffffffffffffffffffffffffffffffff16905081600360006101000a81548173ffffffffffffffffffffffffffffffffffffffff021916908373ffffffffffffffffffffffffffffffffffffffff1602179055508173ffffffffffffffffffffffffffffffffffffffff168173ffffffffffffffffffffffffffffffffffffffff167f8be0079c531659141344cd1fd0a4f28419497f9722a3daafe3b4186f6b6457e060405160405180910390a35050565b600073ffffffffffffffffffffffffffffffffffffffff168473ffffffffffffffffffffffffffffffffffffffff161415611884576040517f08c379a000000000000000000000000000000000000000000000000000000000815260040161187b90612ee5565b60405180910390fd5b600061188e6113e6565b90506118ae81878761189f88611c6e565b6118a888611c6e565b87611a96565b600080600086815260200190815260200160002060008873ffffffffffffffffffffffffffffffffffffffff1673ffffffffffffffffffffffffffffffffffffffff16815260200190815260200160002054905083811015611945576040517f08c379a000000000000000000000000000000000000000000000000000000000815260040161193c90612f25565b60405180910390fd5b83810360008087815260200190815260200160002060008973ffffffffffffffffffffffffffffffffffffffff1673ffffffffffffffffffffffffffffffffffffffff168152602001908152602001600020819055508360008087815260200190815260200160002060008873ffffffffffffffffffffffffffffffffffffffff1673ffffffffffffffffffffffffffffffffffffffff16815260200190815260200160002060008282546119fa91906131c7565b925050819055508573ffffffffffffffffffffffffffffffffffffffff168773ffffffffffffffffffffffffffffffffffffffff168373ffffffffffffffffffffffffffffffffffffffff167fc3d58168c5ae7397731d063d5bbf3d657854427343f4c083240f7aacaa2d0f628888604051611a77929190612fe0565b60405180910390a4611a8d828888888888611d34565b50505050505050565b505050505050565b611abd8473ffffffffffffffffffffffffffffffffffffffff16611f04565b15611c66578373ffffffffffffffffffffffffffffffffffffffff1663bc197c8187878686866040518663ffffffff1660e01b8152600401611b03959493929190612c86565b602060405180830381600087803b158015611b1d57600080fd5b505af1925050508015611b4e57506040513d601f19601f82011682018060405250810190611b4b91906123fc565b60015b611bdd57611b5a61340b565b80611b655750611ba2565b806040517f08c379a0000000000000000000000000000000000000000000000000000000008152600401611b999190612dde565b60405180910390fd5b6040517f08c379a0000000000000000000000000000000000000000000000000000000008152600401611bd490612e45565b60405180910390fd5b63bc197c8160e01b7bffffffffffffffffffffffffffffffffffffffffffffffffffffffff1916817bffffffffffffffffffffffffffffffffffffffffffffffffffffffff191614611c64576040517f08c379a0000000000000000000000000000000000000000000000000000000008152600401611c5b90612e65565b60405180910390fd5b505b505050505050565b60606000600167ffffffffffffffff811115611cb3577f4e487b7100000000000000000000000000000000000000000000000000000000600052604160045260246000fd5b604051908082528060200260200182016040528015611ce15781602001602082028036833780820191505090505b5090508281600081518110611d1f577f4e487b7100000000000000000000000000000000000000000000000000000000600052603260045260246000fd5b60200260200101818152505080915050919050565b611d538473ffffffffffffffffffffffffffffffffffffffff16611f04565b15611efc578373ffffffffffffffffffffffffffffffffffffffff1663f23a6e6187878686866040518663ffffffff1660e01b8152600401611d99959493929190612cee565b602060405180830381600087803b158015611db357600080fd5b505af1925050508015611de457506040513d601f19601f82011682018060405250810190611de191906123fc565b60015b611e7357611df061340b565b80611dfb5750611e38565b806040517f08c379a0000000000000000000000000000000000000000000000000000000008152600401611e2f9190612dde565b60405180910390fd5b6040517f08c379a0000000000000000000000000000000000000000000000000000000008152600401611e6a90612e45565b60405180910390fd5b63f23a6e6160e01b7bffffffffffffffffffffffffffffffffffffffffffffffffffffffff1916817bffffffffffffffffffffffffffffffffffffffffffffffffffffffff191614611efa576040517f08c379a0000000000000000000000000000000000000000000000000000000008152600401611ef190612e65565b60405180910390fd5b505b505050505050565b600080823b905060008111915050919050565b6040518060800160405280606081526020016060815260200160008152602001606081525090565b6000611f52611f4d8461303a565b613009565b90508083825260208201905082856020860282011115611f7157600080fd5b60005b85811015611fa15781611f878882612055565b845260208401935060208301925050600181019050611f74565b5050509392505050565b6000611fbe611fb984613066565b613009565b90508083825260208201905082856020860282011115611fdd57600080fd5b60005b8581101561200d5781611ff38882612127565b845260208401935060208301925050600181019050611fe0565b5050509392505050565b600061202a61202584613092565b613009565b90508281526020810184848401111561204257600080fd5b61204d8482856132a3565b509392505050565b600081359050612064816134c1565b92915050565b600082601f83011261207b57600080fd5b813561208b848260208601611f3f565b91505092915050565b600082601f8301126120a557600080fd5b81356120b5848260208601611fab565b91505092915050565b6000813590506120cd816134d8565b92915050565b6000813590506120e2816134ef565b92915050565b6000815190506120f7816134ef565b92915050565b600082601f83011261210e57600080fd5b813561211e848260208601612017565b91505092915050565b60008135905061213681613506565b92915050565b60006020828403121561214e57600080fd5b600061215c84828501612055565b91505092915050565b6000806040838503121561217857600080fd5b600061218685828601612055565b925050602061219785828601612055565b9150509250929050565b600080600080600060a086880312156121b957600080fd5b60006121c788828901612055565b95505060206121d888828901612055565b945050604086013567ffffffffffffffff8111156121f557600080fd5b61220188828901612094565b935050606086013567ffffffffffffffff81111561221e57600080fd5b61222a88828901612094565b925050608086013567ffffffffffffffff81111561224757600080fd5b612253888289016120fd565b9150509295509295909350565b600080600080600060a0868803121561227857600080fd5b600061228688828901612055565b955050602061229788828901612055565b94505060406122a888828901612127565b93505060606122b988828901612127565b925050608086013567ffffffffffffffff8111156122d657600080fd5b6122e2888289016120fd565b9150509295509295909350565b6000806040838503121561230257600080fd5b600061231085828601612055565b9250506020612321858286016120be565b9150509250929050565b6000806040838503121561233e57600080fd5b600061234c85828601612055565b925050602061235d85828601612127565b9150509250929050565b6000806040838503121561237a57600080fd5b600083013567ffffffffffffffff81111561239457600080fd5b6123a08582860161206a565b925050602083013567ffffffffffffffff8111156123bd57600080fd5b6123c985828601612094565b9150509250929050565b6000602082840312156123e557600080fd5b60006123f3848285016120d3565b91505092915050565b60006020828403121561240e57600080fd5b600061241c848285016120e8565b91505092915050565b60006020828403121561243757600080fd5b600061244584828501612127565b91505092915050565b6000806040838503121561246157600080fd5b600061246f85828601612127565b925050602061248085828601612055565b9150509250929050565b600061249683836124dd565b60208301905092915050565b60006124ae8383612bc1565b905092915050565b60006124c28383612c32565b60208301905092915050565b6124d78161322f565b82525050565b6124e68161321d565b82525050565b6124f58161321d565b82525050565b6000612506826130f2565b6125108185613150565b935061251b836130c2565b8060005b8381101561254c578151612533888261248a565b975061253e83613129565b92505060018101905061251f565b5085935050505092915050565b6000612564826130fd565b61256e8185613161565b935083602082028501612580856130d2565b8060005b858110156125bc578484038952815161259d85826124a2565b94506125a883613136565b925060208a01995050600181019050612584565b50829750879550505050505092915050565b60006125d982613108565b6125e38185613172565b93506125ee836130e2565b8060005b8381101561261f57815161260688826124b6565b975061261183613143565b9250506001810190506125f2565b5085935050505092915050565b61263581613241565b82525050565b600061264682613113565b6126508185613183565b93506126608185602086016132b2565b612669816133ed565b840191505092915050565b600061267f82613113565b6126898185613194565b93506126998185602086016132b2565b6126a2816133ed565b840191505092915050565b60006126b88261311e565b6126c281856131a5565b93506126d28185602086016132b2565b6126db816133ed565b840191505092915050565b60006126f18261311e565b6126fb81856131b6565b935061270b8185602086016132b2565b612714816133ed565b840191505092915050565b600061272c6034836131b6565b91507f455243313135353a207472616e7366657220746f206e6f6e204552433131353560008301527f526563656976657220696d706c656d656e7465720000000000000000000000006020830152604082019050919050565b60006127926028836131b6565b91507f455243313135353a204552433131353552656365697665722072656a6563746560008301527f6420746f6b656e730000000000000000000000000000000000000000000000006020830152604082019050919050565b60006127f8602b836131b6565b91507f455243313135353a2062616c616e636520717565727920666f7220746865207a60008301527f65726f20616464726573730000000000000000000000000000000000000000006020830152604082019050919050565b600061285e6026836131b6565b91507f4f776e61626c653a206e6577206f776e657220697320746865207a65726f206160008301527f64647265737300000000000000000000000000000000000000000000000000006020830152604082019050919050565b60006128c46029836131b6565b91507f455243313135353a2063616c6c6572206973206e6f74206f776e6572206e6f7260008301527f20617070726f76656400000000000000000000000000000000000000000000006020830152604082019050919050565b600061292a6025836131b6565b91507f455243313135353a207472616e7366657220746f20746865207a65726f20616460008301527f64726573730000000000000000000000000000000000000000000000000000006020830152604082019050919050565b60006129906032836131b6565b91507f455243313135353a207472616e736665722063616c6c6572206973206e6f742060008301527f6f776e6572206e6f7220617070726f76656400000000000000000000000000006020830152604082019050919050565b60006129f6602a836131b6565b91507f455243313135353a20696e73756666696369656e742062616c616e636520666f60008301527f72207472616e73666572000000000000000000000000000000000000000000006020830152604082019050919050565b6000612a5c6020836131b6565b91507f4f776e61626c653a2063616c6c6572206973206e6f7420746865206f776e65726000830152602082019050919050565b6000612a9c6029836131b6565b91507f455243313135353a2073657474696e6720617070726f76616c2073746174757360008301527f20666f722073656c6600000000000000000000000000000000000000000000006020830152604082019050919050565b6000612b026029836131b6565b91507f455243313135353a206163636f756e747320616e6420696473206c656e67746860008301527f206d69736d6174636800000000000000000000000000000000000000000000006020830152604082019050919050565b6000612b686028836131b6565b91507f455243313135353a2069647320616e6420616d6f756e7473206c656e6774682060008301527f6d69736d617463680000000000000000000000000000000000000000000000006020830152604082019050919050565b60006080830160008301518482036000860152612bde82826124fb565b91505060208301518482036020860152612bf882826126ad565b9150506040830151612c0d6040860182612c32565b5060608301518482036060860152612c25828261263b565b9150508091505092915050565b612c3b81613299565b82525050565b612c4a81613299565b82525050565b6000602082019050612c6560008301846124ec565b92915050565b6000602082019050612c8060008301846124ce565b92915050565b600060a082019050612c9b60008301886124ec565b612ca860208301876124ec565b8181036040830152612cba81866125ce565b90508181036060830152612cce81856125ce565b90508181036080830152612ce28184612674565b90509695505050505050565b600060a082019050612d0360008301886124ec565b612d1060208301876124ec565b612d1d6040830186612c41565b612d2a6060830185612c41565b8181036080830152612d3c8184612674565b90509695505050505050565b60006020820190508181036000830152612d628184612559565b905092915050565b60006020820190508181036000830152612d8481846125ce565b905092915050565b60006040820190508181036000830152612da681856125ce565b90508181036020830152612dba81846125ce565b90509392505050565b6000602082019050612dd8600083018461262c565b92915050565b60006020820190508181036000830152612df881846126e6565b905092915050565b60006060820190508181036000830152612e1a81866126e6565b9050612e296020830185612c41565b8181036040830152612e3b8184612674565b9050949350505050565b60006020820190508181036000830152612e5e8161271f565b9050919050565b60006020820190508181036000830152612e7e81612785565b9050919050565b60006020820190508181036000830152612e9e816127eb565b9050919050565b60006020820190508181036000830152612ebe81612851565b9050919050565b60006020820190508181036000830152612ede816128b7565b9050919050565b60006020820190508181036000830152612efe8161291d565b9050919050565b60006020820190508181036000830152612f1e81612983565b9050919050565b60006020820190508181036000830152612f3e816129e9565b9050919050565b60006020820190508181036000830152612f5e81612a4f565b9050919050565b60006020820190508181036000830152612f7e81612a8f565b9050919050565b60006020820190508181036000830152612f9e81612af5565b9050919050565b60006020820190508181036000830152612fbe81612b5b565b9050919050565b6000602082019050612fda6000830184612c41565b92915050565b6000604082019050612ff56000830185612c41565b6130026020830184612c41565b9392505050565b6000604051905081810181811067ffffffffffffffff821117156130305761302f6133be565b5b8060405250919050565b600067ffffffffffffffff821115613055576130546133be565b5b602082029050602081019050919050565b600067ffffffffffffffff821115613081576130806133be565b5b602082029050602081019050919050565b600067ffffffffffffffff8211156130ad576130ac6133be565b5b601f19601f8301169050602081019050919050565b6000819050602082019050919050565b6000819050602082019050919050565b6000819050602082019050919050565b600081519050919050565b600081519050919050565b600081519050919050565b600081519050919050565b600081519050919050565b6000602082019050919050565b6000602082019050919050565b6000602082019050919050565b600082825260208201905092915050565b600082825260208201905092915050565b600082825260208201905092915050565b600082825260208201905092915050565b600082825260208201905092915050565b600082825260208201905092915050565b600082825260208201905092915050565b60006131d282613299565b91506131dd83613299565b9250827fffffffffffffffffffffffffffffffffffffffffffffffffffffffffffffffff0382111561321257613211613360565b5b828201905092915050565b600061322882613279565b9050919050565b600061323a82613279565b9050919050565b60008115159050919050565b60007fffffffff0000000000000000000000000000000000000000000000000000000082169050919050565b600073ffffffffffffffffffffffffffffffffffffffff82169050919050565b6000819050919050565b82818337600083830152505050565b60005b838110156132d05780820151818401526020810190506132b5565b838111156132df576000848401525b50505050565b600060028204905060018216806132fd57607f821691505b602082108114156133115761331061338f565b5b50919050565b600061332282613299565b91507fffffffffffffffffffffffffffffffffffffffffffffffffffffffffffffffff82141561335557613354613360565b5b600182019050919050565b7f4e487b7100000000000000000000000000000000000000000000000000000000600052601160045260246000fd5b7f4e487b7100000000000000000000000000000000000000000000000000000000600052602260045260246000fd5b7f4e487b7100000000000000000000000000000000000000000000000000000000600052604160045260246000fd5b6000601f19601f8301169050919050565b60008160e01c9050919050565b600060443d101561341b576134be565b60046000803e61342c6000516133fe565b6308c379a0811461343d57506134be565b60405160043d036004823e80513d602482011167ffffffffffffffff82111715613469575050506134be565b808201805167ffffffffffffffff8111156134885750505050506134be565b8060208301013d85018111156134a3575050505050506134be565b6134ac826133ed565b60208401016040528296505050505050505b90565b6134ca8161321d565b81146134d557600080fd5b50565b6134e181613241565b81146134ec57600080fd5b50565b6134f88161324d565b811461350357600080fd5b50565b61350f81613299565b811461351a57600080fd5b5056fea2646970667358221220c6004cb79d54f53abaaa4f4ea25ff4312f0b5a100afd723fff9d098af6a3daf764736f6c63430008000033687474703a2f2f6c6f63616c686f73743a383838382f7075626c69632f23212f4368616c6c656e6765546f6b656e43686573742f7b69647d2e6a736f6e",
  "immutableReferences": {},
  "source": "// SPDX-License-Identifier: MIT\npragma solidity >= 0.8.0;\nimport \"@openzeppelin/contracts/token/ERC1155/ERC1155.sol\";\nimport \"@openzeppelin/contracts/access/Ownable.sol\";\nimport \"./Challenge.sol\";\n\ncontract ChallengeToken is ERC1155, Ownable{\n   /* Stored on chain */\n  mapping (uint256 => bool) public is_on_manifest;\n  mapping (address => uint256) public map_initiator_to_id;\n  mapping (uint256 => Challenges.Challenge) public map_id_to_Challenge;\n\n  address payable public OA = payable(msg.sender);\n  address payable public CT_X_Address;\n  mapping (uint256 => mapping(address => uint256)) public Player_Map;\n\n  Challenges.Challenge[] public challenges;\n  event ManifestedChallengeToken(address [] players,string _name,uint256 _id,bytes mint_data);\n\n    constructor()\n    ERC1155(\"http://localhost:8888/public/#!/ChallengeTokenChest/{id}.json\")\n    Ownable()\n    {}\n  function tokenGenesis (\n    // address [] memory _player_list,\n    //  string memory _name,\n    //   uint256 _num_to_issue,\n    //    string memory _mint_date,\n    //     string memory _type,\n    //      uint256 _streak_days,\n    //       uint256 _stake_amount\n      )public\n       // returns (uint256)\n        {\n          // // OA.transfer(msg.value);\n          uint256 idmod = 10 ** 16;\n          // uint256 token_id = uint256(keccak256(abi.encodePacked(_name)));\n          // uint256 _id = token_id % idmod;\n          // require(!is_on_manifest[_id], \"Err: Pick a Unique Challenge Name\");\n          // Challenges.Challenge memory new_challenge;\n          // new_challenge.players = _player_list;\n          // new_challenge.name = _name;\n          // new_challenge.id = _id;\n          // bytes memory mintData = abi.encode(_mint_date, _type, _streak_days, _stake_amount);\n          // new_challenge.mint_data = mintData;\n          // challenges.push(new_challenge);\n          // map_initiator_to_id[msg.sender] = _id;\n          // map_id_to_Challenge[_id] = new_challenge;\n          // is_on_manifest[_id] = true;\n          // _mint(msg.sender, _id, _num_to_issue, mintData);\n          // uint256 i=1;\n          // // for(i = 1; i <= _player_list.length ; i++){\n          // //   setApprovalForAll(_player_list[i], true);\n          // //   safeTransferFrom(msg.sender, _player_list[i], _id, 1, mintData);\n          // // }\n          // emit ManifestedChallengeToken(new_challenge.players,new_challenge.name,new_challenge.id,new_challenge.mint_data);\n          // return _id;\n  }\n  function getChallenges() public view returns (Challenges.Challenge[] memory) {\n        Challenges.Challenge[] memory c = new Challenges.Challenge[](challenges.length);\n        for (uint i = 0; i < challenges.length; i++) {\n          Challenges.Challenge storage this_challenge = challenges[i];\n          c[i] = this_challenge;\n        }\n        return c;\n    }\n\n  function getChallengeTokensLength() public view returns(uint256){\n    return challenges.length;\n  }\n}\n",
  "sourcePath": "/Volumes/TerryBytes2/2021_Kode_Tut/BabelBet/contracts/ChallengeToken.sol",
  "compiler": {
    "name": "solc",
    "version": "0.8.0+commit.c7dfd78e.Emscripten.clang"
  },
  "schemaVersion": "3.4.3",
  "updatedAt": "2021-11-22T02:51:32.857Z",
  "networkType": "ethereum",
  "devdoc": {
    "kind": "dev",
    "methods": {
      "balanceOf(address,uint256)": {
        "details": "See {IERC1155-balanceOf}. Requirements: - `account` cannot be the zero address."
      },
      "balanceOfBatch(address[],uint256[])": {
        "details": "See {IERC1155-balanceOfBatch}. Requirements: - `accounts` and `ids` must have the same length."
      },
      "isApprovedForAll(address,address)": {
        "details": "See {IERC1155-isApprovedForAll}."
      },
      "owner()": {
        "details": "Returns the address of the current owner."
      },
      "renounceOwnership()": {
        "details": "Leaves the contract without owner. It will not be possible to call `onlyOwner` functions anymore. Can only be called by the current owner. NOTE: Renouncing ownership will leave the contract without an owner, thereby removing any functionality that is only available to the owner."
      },
      "safeBatchTransferFrom(address,address,uint256[],uint256[],bytes)": {
        "details": "See {IERC1155-safeBatchTransferFrom}."
      },
      "safeTransferFrom(address,address,uint256,uint256,bytes)": {
        "details": "See {IERC1155-safeTransferFrom}."
      },
      "setApprovalForAll(address,bool)": {
        "details": "See {IERC1155-setApprovalForAll}."
      },
      "supportsInterface(bytes4)": {
        "details": "See {IERC165-supportsInterface}."
      },
      "transferOwnership(address)": {
        "details": "Transfers ownership of the contract to a new account (`newOwner`). Can only be called by the current owner."
      },
      "uri(uint256)": {
        "details": "See {IERC1155MetadataURI-uri}. This implementation returns the same URI for *all* token types. It relies on the token type ID substitution mechanism https://eips.ethereum.org/EIPS/eip-1155#metadata[defined in the EIP]. Clients calling this function must replace the `\\{id\\}` substring with the actual token type ID."
      }
    },
    "version": 1
  },
  "userdoc": {
    "kind": "user",
    "methods": {},
    "version": 1
  }
}