{
  "contractName": "CT_X",
  "abi": [
    {
      "inputs": [],
      "stateMutability": "nonpayable",
      "type": "constructor"
    },
    {
      "anonymous": false,
      "inputs": [
        {
          "indexed": true,
          "internalType": "address",
          "name": "account",
          "type": "address"
        },
        {
          "indexed": true,
          "internalType": "address",
          "name": "operator",
          "type": "address"
        },
        {
          "indexed": false,
          "internalType": "bool",
          "name": "approved",
          "type": "bool"
        }
      ],
      "name": "ApprovalForAll",
      "type": "event"
    },
    {
      "anonymous": false,
      "inputs": [
        {
          "indexed": false,
          "internalType": "address[]",
          "name": "players",
          "type": "address[]"
        },
        {
          "indexed": false,
          "internalType": "string",
          "name": "_name",
          "type": "string"
        },
        {
          "indexed": false,
          "internalType": "uint256",
          "name": "_id",
          "type": "uint256"
        },
        {
          "indexed": false,
          "internalType": "bytes",
          "name": "mint_data",
          "type": "bytes"
        }
      ],
      "name": "ManifestedChallengeToken",
      "type": "event"
    },
    {
      "anonymous": false,
      "inputs": [
        {
          "indexed": true,
          "internalType": "address",
          "name": "previousOwner",
          "type": "address"
        },
        {
          "indexed": true,
          "internalType": "address",
          "name": "newOwner",
          "type": "address"
        }
      ],
      "name": "OwnershipTransferred",
      "type": "event"
    },
    {
      "anonymous": false,
      "inputs": [
        {
          "indexed": true,
          "internalType": "address",
          "name": "operator",
          "type": "address"
        },
        {
          "indexed": true,
          "internalType": "address",
          "name": "from",
          "type": "address"
        },
        {
          "indexed": true,
          "internalType": "address",
          "name": "to",
          "type": "address"
        },
        {
          "indexed": false,
          "internalType": "uint256[]",
          "name": "ids",
          "type": "uint256[]"
        },
        {
          "indexed": false,
          "internalType": "uint256[]",
          "name": "values",
          "type": "uint256[]"
        }
      ],
      "name": "TransferBatch",
      "type": "event"
    },
    {
      "anonymous": false,
      "inputs": [
        {
          "indexed": true,
          "internalType": "address",
          "name": "operator",
          "type": "address"
        },
        {
          "indexed": true,
          "internalType": "address",
          "name": "from",
          "type": "address"
        },
        {
          "indexed": true,
          "internalType": "address",
          "name": "to",
          "type": "address"
        },
        {
          "indexed": false,
          "internalType": "uint256",
          "name": "id",
          "type": "uint256"
        },
        {
          "indexed": false,
          "internalType": "uint256",
          "name": "value",
          "type": "uint256"
        }
      ],
      "name": "TransferSingle",
      "type": "event"
    },
    {
      "anonymous": false,
      "inputs": [
        {
          "indexed": false,
          "internalType": "string",
          "name": "value",
          "type": "string"
        },
        {
          "indexed": true,
          "internalType": "uint256",
          "name": "id",
          "type": "uint256"
        }
      ],
      "name": "URI",
      "type": "event"
    },
    {
      "inputs": [],
      "name": "CT_X_Address",
      "outputs": [
        {
          "internalType": "address payable",
          "name": "",
          "type": "address"
        }
      ],
      "stateMutability": "view",
      "type": "function",
      "constant": true
    },
    {
      "inputs": [],
      "name": "OA",
      "outputs": [
        {
          "internalType": "address payable",
          "name": "",
          "type": "address"
        }
      ],
      "stateMutability": "view",
      "type": "function",
      "constant": true
    },
    {
      "inputs": [
        {
          "internalType": "uint256",
          "name": "",
          "type": "uint256"
        },
        {
          "internalType": "address",
          "name": "",
          "type": "address"
        }
      ],
      "name": "Player_Map",
      "outputs": [
        {
          "internalType": "uint256",
          "name": "",
          "type": "uint256"
        }
      ],
      "stateMutability": "view",
      "type": "function",
      "constant": true
    },
    {
      "inputs": [
        {
          "internalType": "address",
          "name": "account",
          "type": "address"
        },
        {
          "internalType": "uint256",
          "name": "id",
          "type": "uint256"
        }
      ],
      "name": "balanceOf",
      "outputs": [
        {
          "internalType": "uint256",
          "name": "",
          "type": "uint256"
        }
      ],
      "stateMutability": "view",
      "type": "function",
      "constant": true
    },
    {
      "inputs": [
        {
          "internalType": "address[]",
          "name": "accounts",
          "type": "address[]"
        },
        {
          "internalType": "uint256[]",
          "name": "ids",
          "type": "uint256[]"
        }
      ],
      "name": "balanceOfBatch",
      "outputs": [
        {
          "internalType": "uint256[]",
          "name": "",
          "type": "uint256[]"
        }
      ],
      "stateMutability": "view",
      "type": "function",
      "constant": true
    },
    {
      "inputs": [
        {
          "internalType": "uint256",
          "name": "",
          "type": "uint256"
        }
      ],
      "name": "challenges",
      "outputs": [
        {
          "internalType": "string",
          "name": "name",
          "type": "string"
        },
        {
          "internalType": "uint256",
          "name": "id",
          "type": "uint256"
        },
        {
          "internalType": "bytes",
          "name": "mint_data",
          "type": "bytes"
        }
      ],
      "stateMutability": "view",
      "type": "function",
      "constant": true
    },
    {
      "inputs": [],
      "name": "getChallengeTokensLength",
      "outputs": [
        {
          "internalType": "uint256",
          "name": "",
          "type": "uint256"
        }
      ],
      "stateMutability": "view",
      "type": "function",
      "constant": true
    },
    {
      "inputs": [],
      "name": "getChallenges",
      "outputs": [
        {
          "components": [
            {
              "internalType": "address[]",
              "name": "players",
              "type": "address[]"
            },
            {
              "internalType": "string",
              "name": "name",
              "type": "string"
            },
            {
              "internalType": "uint256",
              "name": "id",
              "type": "uint256"
            },
            {
              "internalType": "bytes",
              "name": "mint_data",
              "type": "bytes"
            }
          ],
          "internalType": "struct Challenges.Challenge[]",
          "name": "",
          "type": "tuple[]"
        }
      ],
      "stateMutability": "view",
      "type": "function",
      "constant": true
    },
    {
      "inputs": [
        {
          "internalType": "address",
          "name": "account",
          "type": "address"
        },
        {
          "internalType": "address",
          "name": "operator",
          "type": "address"
        }
      ],
      "name": "isApprovedForAll",
      "outputs": [
        {
          "internalType": "bool",
          "name": "",
          "type": "bool"
        }
      ],
      "stateMutability": "view",
      "type": "function",
      "constant": true
    },
    {
      "inputs": [
        {
          "internalType": "uint256",
          "name": "",
          "type": "uint256"
        }
      ],
      "name": "is_on_manifest",
      "outputs": [
        {
          "internalType": "bool",
          "name": "",
          "type": "bool"
        }
      ],
      "stateMutability": "view",
      "type": "function",
      "constant": true
    },
    {
      "inputs": [
        {
          "internalType": "uint256",
          "name": "",
          "type": "uint256"
        }
      ],
      "name": "map_id_to_Challenge",
      "outputs": [
        {
          "internalType": "string",
          "name": "name",
          "type": "string"
        },
        {
          "internalType": "uint256",
          "name": "id",
          "type": "uint256"
        },
        {
          "internalType": "bytes",
          "name": "mint_data",
          "type": "bytes"
        }
      ],
      "stateMutability": "view",
      "type": "function",
      "constant": true
    },
    {
      "inputs": [
        {
          "internalType": "address",
          "name": "",
          "type": "address"
        }
      ],
      "name": "map_initiator_to_id",
      "outputs": [
        {
          "internalType": "uint256",
          "name": "",
          "type": "uint256"
        }
      ],
      "stateMutability": "view",
      "type": "function",
      "constant": true
    },
    {
      "inputs": [
        {
          "internalType": "uint256",
          "name": "",
          "type": "uint256"
        },
        {
          "internalType": "address",
          "name": "",
          "type": "address"
        }
      ],
      "name": "map_player_to_payout",
      "outputs": [
        {
          "internalType": "uint256",
          "name": "",
          "type": "uint256"
        }
      ],
      "stateMutability": "view",
      "type": "function",
      "constant": true
    },
    {
      "inputs": [],
      "name": "owner",
      "outputs": [
        {
          "internalType": "address",
          "name": "",
          "type": "address"
        }
      ],
      "stateMutability": "view",
      "type": "function",
      "constant": true
    },
    {
      "inputs": [],
      "name": "renounceOwnership",
      "outputs": [],
      "stateMutability": "nonpayable",
      "type": "function"
    },
    {
      "inputs": [
        {
          "internalType": "address",
          "name": "from",
          "type": "address"
        },
        {
          "internalType": "address",
          "name": "to",
          "type": "address"
        },
        {
          "internalType": "uint256[]",
          "name": "ids",
          "type": "uint256[]"
        },
        {
          "internalType": "uint256[]",
          "name": "amounts",
          "type": "uint256[]"
        },
        {
          "internalType": "bytes",
          "name": "data",
          "type": "bytes"
        }
      ],
      "name": "safeBatchTransferFrom",
      "outputs": [],
      "stateMutability": "nonpayable",
      "type": "function"
    },
    {
      "inputs": [
        {
          "internalType": "address",
          "name": "from",
          "type": "address"
        },
        {
          "internalType": "address",
          "name": "to",
          "type": "address"
        },
        {
          "internalType": "uint256",
          "name": "id",
          "type": "uint256"
        },
        {
          "internalType": "uint256",
          "name": "amount",
          "type": "uint256"
        },
        {
          "internalType": "bytes",
          "name": "data",
          "type": "bytes"
        }
      ],
      "name": "safeTransferFrom",
      "outputs": [],
      "stateMutability": "nonpayable",
      "type": "function"
    },
    {
      "inputs": [
        {
          "internalType": "address",
          "name": "operator",
          "type": "address"
        },
        {
          "internalType": "bool",
          "name": "approved",
          "type": "bool"
        }
      ],
      "name": "setApprovalForAll",
      "outputs": [],
      "stateMutability": "nonpayable",
      "type": "function"
    },
    {
      "inputs": [
        {
          "internalType": "bytes4",
          "name": "interfaceId",
          "type": "bytes4"
        }
      ],
      "name": "supportsInterface",
      "outputs": [
        {
          "internalType": "bool",
          "name": "",
          "type": "bool"
        }
      ],
      "stateMutability": "view",
      "type": "function",
      "constant": true
    },
    {
      "inputs": [],
      "name": "tokenGenesis",
      "outputs": [],
      "stateMutability": "nonpayable",
      "type": "function"
    },
    {
      "inputs": [
        {
          "internalType": "address",
          "name": "newOwner",
          "type": "address"
        }
      ],
      "name": "transferOwnership",
      "outputs": [],
      "stateMutability": "nonpayable",
      "type": "function"
    },
    {
      "inputs": [
        {
          "internalType": "uint256",
          "name": "",
          "type": "uint256"
        }
      ],
      "name": "uri",
      "outputs": [
        {
          "internalType": "string",
          "name": "",
          "type": "string"
        }
      ],
      "stateMutability": "view",
      "type": "function",
      "constant": true
    }
  ],
  "bytecode": "0x608060405233600760006101000a81548173ffffffffffffffffffffffffffffffffffffffff021916908373ffffffffffffffffffffffffffffffffffffffff1602179055503480156200005257600080fd5b506040518060600160405280603d815260200162003867603d91396200007e81620000a560201b60201c565b506200009f62000093620000c160201b60201c565b620000c960201b60201c565b620002a4565b8060029080519060200190620000bd9291906200018f565b5050565b600033905090565b6000600360009054906101000a900473ffffffffffffffffffffffffffffffffffffffff16905081600360006101000a81548173ffffffffffffffffffffffffffffffffffffffff021916908373ffffffffffffffffffffffffffffffffffffffff1602179055508173ffffffffffffffffffffffffffffffffffffffff168173ffffffffffffffffffffffffffffffffffffffff167f8be0079c531659141344cd1fd0a4f28419497f9722a3daafe3b4186f6b6457e060405160405180910390a35050565b8280546200019d906200023f565b90600052602060002090601f016020900481019282620001c157600085556200020d565b82601f10620001dc57805160ff19168380011785556200020d565b828001600101855582156200020d579182015b828111156200020c578251825591602001919060010190620001ef565b5b5090506200021c919062000220565b5090565b5b808211156200023b57600081600090555060010162000221565b5090565b600060028204905060018216806200025857607f821691505b602082108114156200026f576200026e62000275565b5b50919050565b7f4e487b7100000000000000000000000000000000000000000000000000000000600052602260045260246000fd5b6135b380620002b46000396000f3fe608060405234801561001057600080fd5b50600436106101415760003560e01c80638da5cb5b116100b8578063cf8ebebf1161007c578063cf8ebebf146103b4578063e737fc31146103be578063e985e9c5146103dc578063f242432a1461040c578063f2fde38b14610428578063f98503251461044457610141565b80638da5cb5b146102fa5780638f1d377614610318578063a22cb4651461034a578063ab2f97bc14610366578063caae5f941461039657610141565b806337015ff81161010a57806337015ff81461022457806346c7c126146102425780634b8ae8cd146102605780634e1273f414610290578063667e5971146102c0578063715018a6146102f057610141565b8062fdd58e1461014657806301ffc9a7146101765780630e89341c146101a657806314c37109146101d65780632eb2c2d614610208575b600080fd5b610160600480360381019061015b919061238b565b610474565b60405161016d9190613025565b60405180910390f35b610190600480360381019061018b9190612433565b61053d565b60405161019d9190612e23565b60405180910390f35b6101c060048036038101906101bb9190612485565b61061f565b6040516101cd9190612e3e565b60405180910390f35b6101f060048036038101906101eb9190612485565b6106b3565b6040516101ff93929190612e60565b60405180910390f35b610222600480360381019061021d9190612201565b6107ed565b005b61022c61088e565b6040516102399190612ccb565b60405180910390f35b61024a6108b4565b6040516102579190612da8565b60405180910390f35b61027a60048036038101906102759190612485565b610bbd565b6040516102879190612e23565b60405180910390f35b6102aa60048036038101906102a591906123c7565b610bdd565b6040516102b79190612dca565b60405180910390f35b6102da60048036038101906102d5919061219c565b610d8e565b6040516102e79190613025565b60405180910390f35b6102f8610da6565b005b610302610e2e565b60405161030f9190612cb0565b60405180910390f35b610332600480360381019061032d9190612485565b610e58565b60405161034193929190612e60565b60405180910390f35b610364600480360381019061035f919061234f565b610fa2565b005b610380600480360381019061037b91906124ae565b611123565b60405161038d9190613025565b60405180910390f35b61039e611148565b6040516103ab9190612ccb565b60405180910390f35b6103bc61116e565b005b6103c661117d565b6040516103d39190613025565b60405180910390f35b6103f660048036038101906103f191906121c5565b61118a565b6040516104039190612e23565b60405180910390f35b610426600480360381019061042191906122c0565b61121e565b005b610442600480360381019061043d919061219c565b6112bf565b005b61045e600480360381019061045991906124ae565b6113b7565b60405161046b9190613025565b60405180910390f35b60008073ffffffffffffffffffffffffffffffffffffffff168373ffffffffffffffffffffffffffffffffffffffff1614156104e5576040517f08c379a00000000000000000000000000000000000000000000000000000000081526004016104dc90612ee5565b60405180910390fd5b60008083815260200190815260200160002060008473ffffffffffffffffffffffffffffffffffffffff1673ffffffffffffffffffffffffffffffffffffffff16815260200190815260200160002054905092915050565b60007fd9b67a26000000000000000000000000000000000000000000000000000000007bffffffffffffffffffffffffffffffffffffffffffffffffffffffff1916827bffffffffffffffffffffffffffffffffffffffffffffffffffffffff1916148061060857507f0e89341c000000000000000000000000000000000000000000000000000000007bffffffffffffffffffffffffffffffffffffffffffffffffffffffff1916827bffffffffffffffffffffffffffffffffffffffffffffffffffffffff1916145b806106185750610617826113dc565b5b9050919050565b60606002805461062e90613345565b80601f016020809104026020016040519081016040528092919081815260200182805461065a90613345565b80156106a75780601f1061067c576101008083540402835291602001916106a7565b820191906000526020600020905b81548152906001019060200180831161068a57829003601f168201915b50505050509050919050565b60066020528060005260406000206000915090508060010180546106d690613345565b80601f016020809104026020016040519081016040528092919081815260200182805461070290613345565b801561074f5780601f106107245761010080835404028352916020019161074f565b820191906000526020600020905b81548152906001019060200180831161073257829003601f168201915b50505050509080600201549080600301805461076a90613345565b80601f016020809104026020016040519081016040528092919081815260200182805461079690613345565b80156107e35780601f106107b8576101008083540402835291602001916107e3565b820191906000526020600020905b8154815290600101906020018083116107c657829003601f168201915b5050505050905083565b6107f5611446565b73ffffffffffffffffffffffffffffffffffffffff168573ffffffffffffffffffffffffffffffffffffffff16148061083b575061083a85610835611446565b61118a565b5b61087a576040517f08c379a000000000000000000000000000000000000000000000000000000000815260040161087190612f65565b60405180910390fd5b610887858585858561144e565b5050505050565b600860009054906101000a900473ffffffffffffffffffffffffffffffffffffffff1681565b60606000600a8054905067ffffffffffffffff8111156108fd577f4e487b7100000000000000000000000000000000000000000000000000000000600052604160045260246000fd5b60405190808252806020026020018201604052801561093657816020015b610923611f77565b81526020019060019003908161091b5790505b50905060005b600a80549050811015610bb5576000600a8281548110610985577f4e487b7100000000000000000000000000000000000000000000000000000000600052603260045260246000fd5b906000526020600020906004020190508060405180608001604052908160008201805480602002602001604051908101604052809291908181526020018280548015610a2657602002820191906000526020600020905b8160009054906101000a900473ffffffffffffffffffffffffffffffffffffffff1673ffffffffffffffffffffffffffffffffffffffff16815260200190600101908083116109dc575b50505050508152602001600182018054610a3f90613345565b80601f0160208091040260200160405190810160405280929190818152602001828054610a6b90613345565b8015610ab85780601f10610a8d57610100808354040283529160200191610ab8565b820191906000526020600020905b815481529060010190602001808311610a9b57829003601f168201915b5050505050815260200160028201548152602001600382018054610adb90613345565b80601f0160208091040260200160405190810160405280929190818152602001828054610b0790613345565b8015610b545780601f10610b2957610100808354040283529160200191610b54565b820191906000526020600020905b815481529060010190602001808311610b3757829003601f168201915b505050505081525050838381518110610b96577f4e487b7100000000000000000000000000000000000000000000000000000000600052603260045260246000fd5b6020026020010181905250508080610bad90613377565b91505061093c565b508091505090565b60046020528060005260406000206000915054906101000a900460ff1681565b60608151835114610c23576040517f08c379a0000000000000000000000000000000000000000000000000000000008152600401610c1a90612fe5565b60405180910390fd5b6000835167ffffffffffffffff811115610c66577f4e487b7100000000000000000000000000000000000000000000000000000000600052604160045260246000fd5b604051908082528060200260200182016040528015610c945781602001602082028036833780820191505090505b50905060005b8451811015610d8357610d2d858281518110610cdf577f4e487b7100000000000000000000000000000000000000000000000000000000600052603260045260246000fd5b6020026020010151858381518110610d20577f4e487b7100000000000000000000000000000000000000000000000000000000600052603260045260246000fd5b6020026020010151610474565b828281518110610d66577f4e487b7100000000000000000000000000000000000000000000000000000000600052603260045260246000fd5b60200260200101818152505080610d7c90613377565b9050610c9a565b508091505092915050565b60056020528060005260406000206000915090505481565b610dae611446565b73ffffffffffffffffffffffffffffffffffffffff16610dcc610e2e565b73ffffffffffffffffffffffffffffffffffffffff1614610e22576040517f08c379a0000000000000000000000000000000000000000000000000000000008152600401610e1990612fa5565b60405180910390fd5b610e2c60006117ae565b565b6000600360009054906101000a900473ffffffffffffffffffffffffffffffffffffffff16905090565b600a8181548110610e6857600080fd5b9060005260206000209060040201600091509050806001018054610e8b90613345565b80601f0160208091040260200160405190810160405280929190818152602001828054610eb790613345565b8015610f045780601f10610ed957610100808354040283529160200191610f04565b820191906000526020600020905b815481529060010190602001808311610ee757829003601f168201915b505050505090806002015490806003018054610f1f90613345565b80601f0160208091040260200160405190810160405280929190818152602001828054610f4b90613345565b8015610f985780601f10610f6d57610100808354040283529160200191610f98565b820191906000526020600020905b815481529060010190602001808311610f7b57829003601f168201915b5050505050905083565b8173ffffffffffffffffffffffffffffffffffffffff16610fc1611446565b73ffffffffffffffffffffffffffffffffffffffff161415611018576040517f08c379a000000000000000000000000000000000000000000000000000000000815260040161100f90612fc5565b60405180910390fd5b8060016000611025611446565b73ffffffffffffffffffffffffffffffffffffffff1673ffffffffffffffffffffffffffffffffffffffff16815260200190815260200160002060008473ffffffffffffffffffffffffffffffffffffffff1673ffffffffffffffffffffffffffffffffffffffff16815260200190815260200160002060006101000a81548160ff0219169083151502179055508173ffffffffffffffffffffffffffffffffffffffff166110d2611446565b73ffffffffffffffffffffffffffffffffffffffff167f17307eab39ab6107e8899845ad3d59bd9653f200f220920489ca2b5937696c31836040516111179190612e23565b60405180910390a35050565b600b602052816000526040600020602052806000526040600020600091509150505481565b600760009054906101000a900473ffffffffffffffffffffffffffffffffffffffff1681565b6000662386f26fc10000905050565b6000600a80549050905090565b6000600160008473ffffffffffffffffffffffffffffffffffffffff1673ffffffffffffffffffffffffffffffffffffffff16815260200190815260200160002060008373ffffffffffffffffffffffffffffffffffffffff1673ffffffffffffffffffffffffffffffffffffffff16815260200190815260200160002060009054906101000a900460ff16905092915050565b611226611446565b73ffffffffffffffffffffffffffffffffffffffff168573ffffffffffffffffffffffffffffffffffffffff16148061126c575061126b85611266611446565b61118a565b5b6112ab576040517f08c379a00000000000000000000000000000000000000000000000000000000081526004016112a290612f25565b60405180910390fd5b6112b88585858585611874565b5050505050565b6112c7611446565b73ffffffffffffffffffffffffffffffffffffffff166112e5610e2e565b73ffffffffffffffffffffffffffffffffffffffff161461133b576040517f08c379a000000000000000000000000000000000000000000000000000000000815260040161133290612fa5565b60405180910390fd5b600073ffffffffffffffffffffffffffffffffffffffff168173ffffffffffffffffffffffffffffffffffffffff1614156113ab576040517f08c379a00000000000000000000000000000000000000000000000000000000081526004016113a290612f05565b60405180910390fd5b6113b4816117ae565b50565b6009602052816000526040600020602052806000526040600020600091509150505481565b60007f01ffc9a7000000000000000000000000000000000000000000000000000000007bffffffffffffffffffffffffffffffffffffffffffffffffffffffff1916827bffffffffffffffffffffffffffffffffffffffffffffffffffffffff1916149050919050565b600033905090565b8151835114611492576040517f08c379a000000000000000000000000000000000000000000000000000000000815260040161148990613005565b60405180910390fd5b600073ffffffffffffffffffffffffffffffffffffffff168473ffffffffffffffffffffffffffffffffffffffff161415611502576040517f08c379a00000000000000000000000000000000000000000000000000000000081526004016114f990612f45565b60405180910390fd5b600061150c611446565b905061151c818787878787611af6565b60005b8451811015611719576000858281518110611563577f4e487b7100000000000000000000000000000000000000000000000000000000600052603260045260246000fd5b6020026020010151905060008583815181106115a8577f4e487b7100000000000000000000000000000000000000000000000000000000600052603260045260246000fd5b60200260200101519050600080600084815260200190815260200160002060008b73ffffffffffffffffffffffffffffffffffffffff1673ffffffffffffffffffffffffffffffffffffffff16815260200190815260200160002054905081811015611649576040517f08c379a000000000000000000000000000000000000000000000000000000000815260040161164090612f85565b60405180910390fd5b81810360008085815260200190815260200160002060008c73ffffffffffffffffffffffffffffffffffffffff1673ffffffffffffffffffffffffffffffffffffffff168152602001908152602001600020819055508160008085815260200190815260200160002060008b73ffffffffffffffffffffffffffffffffffffffff1673ffffffffffffffffffffffffffffffffffffffff16815260200190815260200160002060008282546116fe9190613227565b925050819055505050508061171290613377565b905061151f565b508473ffffffffffffffffffffffffffffffffffffffff168673ffffffffffffffffffffffffffffffffffffffff168273ffffffffffffffffffffffffffffffffffffffff167f4a39dc06d4c0dbc64b70af90fd698a233a518aa5d07e595d983b8c0526c8f7fb8787604051611790929190612dec565b60405180910390a46117a6818787878787611afe565b505050505050565b6000600360009054906101000a900473ffffffffffffffffffffffffffffffffffffffff16905081600360006101000a81548173ffffffffffffffffffffffffffffffffffffffff021916908373ffffffffffffffffffffffffffffffffffffffff1602179055508173ffffffffffffffffffffffffffffffffffffffff168173ffffffffffffffffffffffffffffffffffffffff167f8be0079c531659141344cd1fd0a4f28419497f9722a3daafe3b4186f6b6457e060405160405180910390a35050565b600073ffffffffffffffffffffffffffffffffffffffff168473ffffffffffffffffffffffffffffffffffffffff1614156118e4576040517f08c379a00000000000000000000000000000000000000000000000000000000081526004016118db90612f45565b60405180910390fd5b60006118ee611446565b905061190e8187876118ff88611cce565b61190888611cce565b87611af6565b600080600086815260200190815260200160002060008873ffffffffffffffffffffffffffffffffffffffff1673ffffffffffffffffffffffffffffffffffffffff168152602001908152602001600020549050838110156119a5576040517f08c379a000000000000000000000000000000000000000000000000000000000815260040161199c90612f85565b60405180910390fd5b83810360008087815260200190815260200160002060008973ffffffffffffffffffffffffffffffffffffffff1673ffffffffffffffffffffffffffffffffffffffff168152602001908152602001600020819055508360008087815260200190815260200160002060008873ffffffffffffffffffffffffffffffffffffffff1673ffffffffffffffffffffffffffffffffffffffff1681526020019081526020016000206000828254611a5a9190613227565b925050819055508573ffffffffffffffffffffffffffffffffffffffff168773ffffffffffffffffffffffffffffffffffffffff168373ffffffffffffffffffffffffffffffffffffffff167fc3d58168c5ae7397731d063d5bbf3d657854427343f4c083240f7aacaa2d0f628888604051611ad7929190613040565b60405180910390a4611aed828888888888611d94565b50505050505050565b505050505050565b611b1d8473ffffffffffffffffffffffffffffffffffffffff16611f64565b15611cc6578373ffffffffffffffffffffffffffffffffffffffff1663bc197c8187878686866040518663ffffffff1660e01b8152600401611b63959493929190612ce6565b602060405180830381600087803b158015611b7d57600080fd5b505af1925050508015611bae57506040513d601f19601f82011682018060405250810190611bab919061245c565b60015b611c3d57611bba61346b565b80611bc55750611c02565b806040517f08c379a0000000000000000000000000000000000000000000000000000000008152600401611bf99190612e3e565b60405180910390fd5b6040517f08c379a0000000000000000000000000000000000000000000000000000000008152600401611c3490612ea5565b60405180910390fd5b63bc197c8160e01b7bffffffffffffffffffffffffffffffffffffffffffffffffffffffff1916817bffffffffffffffffffffffffffffffffffffffffffffffffffffffff191614611cc4576040517f08c379a0000000000000000000000000000000000000000000000000000000008152600401611cbb90612ec5565b60405180910390fd5b505b505050505050565b60606000600167ffffffffffffffff811115611d13577f4e487b7100000000000000000000000000000000000000000000000000000000600052604160045260246000fd5b604051908082528060200260200182016040528015611d415781602001602082028036833780820191505090505b5090508281600081518110611d7f577f4e487b7100000000000000000000000000000000000000000000000000000000600052603260045260246000fd5b60200260200101818152505080915050919050565b611db38473ffffffffffffffffffffffffffffffffffffffff16611f64565b15611f5c578373ffffffffffffffffffffffffffffffffffffffff1663f23a6e6187878686866040518663ffffffff1660e01b8152600401611df9959493929190612d4e565b602060405180830381600087803b158015611e1357600080fd5b505af1925050508015611e4457506040513d601f19601f82011682018060405250810190611e41919061245c565b60015b611ed357611e5061346b565b80611e5b5750611e98565b806040517f08c379a0000000000000000000000000000000000000000000000000000000008152600401611e8f9190612e3e565b60405180910390fd5b6040517f08c379a0000000000000000000000000000000000000000000000000000000008152600401611eca90612ea5565b60405180910390fd5b63f23a6e6160e01b7bffffffffffffffffffffffffffffffffffffffffffffffffffffffff1916817bffffffffffffffffffffffffffffffffffffffffffffffffffffffff191614611f5a576040517f08c379a0000000000000000000000000000000000000000000000000000000008152600401611f5190612ec5565b60405180910390fd5b505b505050505050565b600080823b905060008111915050919050565b6040518060800160405280606081526020016060815260200160008152602001606081525090565b6000611fb2611fad8461309a565b613069565b90508083825260208201905082856020860282011115611fd157600080fd5b60005b858110156120015781611fe788826120b5565b845260208401935060208301925050600181019050611fd4565b5050509392505050565b600061201e612019846130c6565b613069565b9050808382526020820190508285602086028201111561203d57600080fd5b60005b8581101561206d57816120538882612187565b845260208401935060208301925050600181019050612040565b5050509392505050565b600061208a612085846130f2565b613069565b9050828152602081018484840111156120a257600080fd5b6120ad848285613303565b509392505050565b6000813590506120c481613521565b92915050565b600082601f8301126120db57600080fd5b81356120eb848260208601611f9f565b91505092915050565b600082601f83011261210557600080fd5b813561211584826020860161200b565b91505092915050565b60008135905061212d81613538565b92915050565b6000813590506121428161354f565b92915050565b6000815190506121578161354f565b92915050565b600082601f83011261216e57600080fd5b813561217e848260208601612077565b91505092915050565b60008135905061219681613566565b92915050565b6000602082840312156121ae57600080fd5b60006121bc848285016120b5565b91505092915050565b600080604083850312156121d857600080fd5b60006121e6858286016120b5565b92505060206121f7858286016120b5565b9150509250929050565b600080600080600060a0868803121561221957600080fd5b6000612227888289016120b5565b9550506020612238888289016120b5565b945050604086013567ffffffffffffffff81111561225557600080fd5b612261888289016120f4565b935050606086013567ffffffffffffffff81111561227e57600080fd5b61228a888289016120f4565b925050608086013567ffffffffffffffff8111156122a757600080fd5b6122b38882890161215d565b9150509295509295909350565b600080600080600060a086880312156122d857600080fd5b60006122e6888289016120b5565b95505060206122f7888289016120b5565b945050604061230888828901612187565b935050606061231988828901612187565b925050608086013567ffffffffffffffff81111561233657600080fd5b6123428882890161215d565b9150509295509295909350565b6000806040838503121561236257600080fd5b6000612370858286016120b5565b92505060206123818582860161211e565b9150509250929050565b6000806040838503121561239e57600080fd5b60006123ac858286016120b5565b92505060206123bd85828601612187565b9150509250929050565b600080604083850312156123da57600080fd5b600083013567ffffffffffffffff8111156123f457600080fd5b612400858286016120ca565b925050602083013567ffffffffffffffff81111561241d57600080fd5b612429858286016120f4565b9150509250929050565b60006020828403121561244557600080fd5b600061245384828501612133565b91505092915050565b60006020828403121561246e57600080fd5b600061247c84828501612148565b91505092915050565b60006020828403121561249757600080fd5b60006124a584828501612187565b91505092915050565b600080604083850312156124c157600080fd5b60006124cf85828601612187565b92505060206124e0858286016120b5565b9150509250929050565b60006124f6838361253d565b60208301905092915050565b600061250e8383612c21565b905092915050565b60006125228383612c92565b60208301905092915050565b6125378161328f565b82525050565b6125468161327d565b82525050565b6125558161327d565b82525050565b600061256682613152565b61257081856131b0565b935061257b83613122565b8060005b838110156125ac57815161259388826124ea565b975061259e83613189565b92505060018101905061257f565b5085935050505092915050565b60006125c48261315d565b6125ce81856131c1565b9350836020820285016125e085613132565b8060005b8581101561261c57848403895281516125fd8582612502565b945061260883613196565b925060208a019950506001810190506125e4565b50829750879550505050505092915050565b600061263982613168565b61264381856131d2565b935061264e83613142565b8060005b8381101561267f5781516126668882612516565b9750612671836131a3565b925050600181019050612652565b5085935050505092915050565b612695816132a1565b82525050565b60006126a682613173565b6126b081856131e3565b93506126c0818560208601613312565b6126c98161344d565b840191505092915050565b60006126df82613173565b6126e981856131f4565b93506126f9818560208601613312565b6127028161344d565b840191505092915050565b60006127188261317e565b6127228185613205565b9350612732818560208601613312565b61273b8161344d565b840191505092915050565b60006127518261317e565b61275b8185613216565b935061276b818560208601613312565b6127748161344d565b840191505092915050565b600061278c603483613216565b91507f455243313135353a207472616e7366657220746f206e6f6e204552433131353560008301527f526563656976657220696d706c656d656e7465720000000000000000000000006020830152604082019050919050565b60006127f2602883613216565b91507f455243313135353a204552433131353552656365697665722072656a6563746560008301527f6420746f6b656e730000000000000000000000000000000000000000000000006020830152604082019050919050565b6000612858602b83613216565b91507f455243313135353a2062616c616e636520717565727920666f7220746865207a60008301527f65726f20616464726573730000000000000000000000000000000000000000006020830152604082019050919050565b60006128be602683613216565b91507f4f776e61626c653a206e6577206f776e657220697320746865207a65726f206160008301527f64647265737300000000000000000000000000000000000000000000000000006020830152604082019050919050565b6000612924602983613216565b91507f455243313135353a2063616c6c6572206973206e6f74206f776e6572206e6f7260008301527f20617070726f76656400000000000000000000000000000000000000000000006020830152604082019050919050565b600061298a602583613216565b91507f455243313135353a207472616e7366657220746f20746865207a65726f20616460008301527f64726573730000000000000000000000000000000000000000000000000000006020830152604082019050919050565b60006129f0603283613216565b91507f455243313135353a207472616e736665722063616c6c6572206973206e6f742060008301527f6f776e6572206e6f7220617070726f76656400000000000000000000000000006020830152604082019050919050565b6000612a56602a83613216565b91507f455243313135353a20696e73756666696369656e742062616c616e636520666f60008301527f72207472616e73666572000000000000000000000000000000000000000000006020830152604082019050919050565b6000612abc602083613216565b91507f4f776e61626c653a2063616c6c6572206973206e6f7420746865206f776e65726000830152602082019050919050565b6000612afc602983613216565b91507f455243313135353a2073657474696e6720617070726f76616c2073746174757360008301527f20666f722073656c6600000000000000000000000000000000000000000000006020830152604082019050919050565b6000612b62602983613216565b91507f455243313135353a206163636f756e747320616e6420696473206c656e67746860008301527f206d69736d6174636800000000000000000000000000000000000000000000006020830152604082019050919050565b6000612bc8602883613216565b91507f455243313135353a2069647320616e6420616d6f756e7473206c656e6774682060008301527f6d69736d617463680000000000000000000000000000000000000000000000006020830152604082019050919050565b60006080830160008301518482036000860152612c3e828261255b565b91505060208301518482036020860152612c58828261270d565b9150506040830151612c6d6040860182612c92565b5060608301518482036060860152612c85828261269b565b9150508091505092915050565b612c9b816132f9565b82525050565b612caa816132f9565b82525050565b6000602082019050612cc5600083018461254c565b92915050565b6000602082019050612ce0600083018461252e565b92915050565b600060a082019050612cfb600083018861254c565b612d08602083018761254c565b8181036040830152612d1a818661262e565b90508181036060830152612d2e818561262e565b90508181036080830152612d4281846126d4565b90509695505050505050565b600060a082019050612d63600083018861254c565b612d70602083018761254c565b612d7d6040830186612ca1565b612d8a6060830185612ca1565b8181036080830152612d9c81846126d4565b90509695505050505050565b60006020820190508181036000830152612dc281846125b9565b905092915050565b60006020820190508181036000830152612de4818461262e565b905092915050565b60006040820190508181036000830152612e06818561262e565b90508181036020830152612e1a818461262e565b90509392505050565b6000602082019050612e38600083018461268c565b92915050565b60006020820190508181036000830152612e588184612746565b905092915050565b60006060820190508181036000830152612e7a8186612746565b9050612e896020830185612ca1565b8181036040830152612e9b81846126d4565b9050949350505050565b60006020820190508181036000830152612ebe8161277f565b9050919050565b60006020820190508181036000830152612ede816127e5565b9050919050565b60006020820190508181036000830152612efe8161284b565b9050919050565b60006020820190508181036000830152612f1e816128b1565b9050919050565b60006020820190508181036000830152612f3e81612917565b9050919050565b60006020820190508181036000830152612f5e8161297d565b9050919050565b60006020820190508181036000830152612f7e816129e3565b9050919050565b60006020820190508181036000830152612f9e81612a49565b9050919050565b60006020820190508181036000830152612fbe81612aaf565b9050919050565b60006020820190508181036000830152612fde81612aef565b9050919050565b60006020820190508181036000830152612ffe81612b55565b9050919050565b6000602082019050818103600083015261301e81612bbb565b9050919050565b600060208201905061303a6000830184612ca1565b92915050565b60006040820190506130556000830185612ca1565b6130626020830184612ca1565b9392505050565b6000604051905081810181811067ffffffffffffffff821117156130905761308f61341e565b5b8060405250919050565b600067ffffffffffffffff8211156130b5576130b461341e565b5b602082029050602081019050919050565b600067ffffffffffffffff8211156130e1576130e061341e565b5b602082029050602081019050919050565b600067ffffffffffffffff82111561310d5761310c61341e565b5b601f19601f8301169050602081019050919050565b6000819050602082019050919050565b6000819050602082019050919050565b6000819050602082019050919050565b600081519050919050565b600081519050919050565b600081519050919050565b600081519050919050565b600081519050919050565b6000602082019050919050565b6000602082019050919050565b6000602082019050919050565b600082825260208201905092915050565b600082825260208201905092915050565b600082825260208201905092915050565b600082825260208201905092915050565b600082825260208201905092915050565b600082825260208201905092915050565b600082825260208201905092915050565b6000613232826132f9565b915061323d836132f9565b9250827fffffffffffffffffffffffffffffffffffffffffffffffffffffffffffffffff03821115613272576132716133c0565b5b828201905092915050565b6000613288826132d9565b9050919050565b600061329a826132d9565b9050919050565b60008115159050919050565b60007fffffffff0000000000000000000000000000000000000000000000000000000082169050919050565b600073ffffffffffffffffffffffffffffffffffffffff82169050919050565b6000819050919050565b82818337600083830152505050565b60005b83811015613330578082015181840152602081019050613315565b8381111561333f576000848401525b50505050565b6000600282049050600182168061335d57607f821691505b60208210811415613371576133706133ef565b5b50919050565b6000613382826132f9565b91507fffffffffffffffffffffffffffffffffffffffffffffffffffffffffffffffff8214156133b5576133b46133c0565b5b600182019050919050565b7f4e487b7100000000000000000000000000000000000000000000000000000000600052601160045260246000fd5b7f4e487b7100000000000000000000000000000000000000000000000000000000600052602260045260246000fd5b7f4e487b7100000000000000000000000000000000000000000000000000000000600052604160045260246000fd5b6000601f19601f8301169050919050565b60008160e01c9050919050565b600060443d101561347b5761351e565b60046000803e61348c60005161345e565b6308c379a0811461349d575061351e565b60405160043d036004823e80513d602482011167ffffffffffffffff821117156134c95750505061351e565b808201805167ffffffffffffffff8111156134e857505050505061351e565b8060208301013d85018111156135035750505050505061351e565b61350c8261344d565b60208401016040528296505050505050505b90565b61352a8161327d565b811461353557600080fd5b50565b613541816132a1565b811461354c57600080fd5b50565b613558816132ad565b811461356357600080fd5b50565b61356f816132f9565b811461357a57600080fd5b5056fea264697066735822122008095f8ef70411834f066b888906e5fce3928d19783b664d21c1f686e9473de164736f6c63430008000033687474703a2f2f6c6f63616c686f73743a383838382f7075626c69632f23212f4368616c6c656e6765546f6b656e43686573742f7b69647d2e6a736f6e",
  "immutableReferences": {},
  "source": "// SPDX-License-Identifier: MIT\npragma solidity >= 0.8.0;\nimport \"./ChallengeToken.sol\";\n\ncontract CT_X is ChallengeToken {\n\n  mapping(uint256 => mapping(address => uint256)) public map_player_to_payout;\n\n  constructor()\n   ChallengeToken()\n    {}\n\n\n}\n",
  "sourcePath": "/Volumes/TerryBytes2/2021_Kode_Tut/BabelBet/contracts/CT_X.sol",
  "compiler": {
    "name": "solc",
    "version": "0.8.0+commit.c7dfd78e.Emscripten.clang"
  },
  "schemaVersion": "3.4.3",
  "updatedAt": "2021-11-22T02:51:32.881Z",
  "networkType": "ethereum",
  "devdoc": {
    "kind": "dev",
    "methods": {
      "balanceOf(address,uint256)": {
        "details": "See {IERC1155-balanceOf}. Requirements: - `account` cannot be the zero address."
      },
      "balanceOfBatch(address[],uint256[])": {
        "details": "See {IERC1155-balanceOfBatch}. Requirements: - `accounts` and `ids` must have the same length."
      },
      "isApprovedForAll(address,address)": {
        "details": "See {IERC1155-isApprovedForAll}."
      },
      "owner()": {
        "details": "Returns the address of the current owner."
      },
      "renounceOwnership()": {
        "details": "Leaves the contract without owner. It will not be possible to call `onlyOwner` functions anymore. Can only be called by the current owner. NOTE: Renouncing ownership will leave the contract without an owner, thereby removing any functionality that is only available to the owner."
      },
      "safeBatchTransferFrom(address,address,uint256[],uint256[],bytes)": {
        "details": "See {IERC1155-safeBatchTransferFrom}."
      },
      "safeTransferFrom(address,address,uint256,uint256,bytes)": {
        "details": "See {IERC1155-safeTransferFrom}."
      },
      "setApprovalForAll(address,bool)": {
        "details": "See {IERC1155-setApprovalForAll}."
      },
      "supportsInterface(bytes4)": {
        "details": "See {IERC165-supportsInterface}."
      },
      "transferOwnership(address)": {
        "details": "Transfers ownership of the contract to a new account (`newOwner`). Can only be called by the current owner."
      },
      "uri(uint256)": {
        "details": "See {IERC1155MetadataURI-uri}. This implementation returns the same URI for *all* token types. It relies on the token type ID substitution mechanism https://eips.ethereum.org/EIPS/eip-1155#metadata[defined in the EIP]. Clients calling this function must replace the `\\{id\\}` substring with the actual token type ID."
      }
    },
    "version": 1
  },
  "userdoc": {
    "kind": "user",
    "methods": {},
    "version": 1
  }
}