{
  "contractName": "CT_X",
  "abi": [
    {
      "inputs": [],
      "stateMutability": "nonpayable",
      "type": "constructor"
    },
    {
      "anonymous": false,
      "inputs": [
        {
          "indexed": true,
          "internalType": "address",
          "name": "account",
          "type": "address"
        },
        {
          "indexed": true,
          "internalType": "address",
          "name": "operator",
          "type": "address"
        },
        {
          "indexed": false,
          "internalType": "bool",
          "name": "approved",
          "type": "bool"
        }
      ],
      "name": "ApprovalForAll",
      "type": "event"
    },
    {
      "anonymous": false,
      "inputs": [
        {
          "indexed": false,
          "internalType": "address[]",
          "name": "players",
          "type": "address[]"
        },
        {
          "indexed": false,
          "internalType": "string",
          "name": "_name",
          "type": "string"
        },
        {
          "indexed": false,
          "internalType": "uint256",
          "name": "_id",
          "type": "uint256"
        },
        {
          "indexed": false,
          "internalType": "bytes",
          "name": "mint_data",
          "type": "bytes"
        }
      ],
      "name": "ManifestedChallengeToken",
      "type": "event"
    },
    {
      "anonymous": false,
      "inputs": [
        {
          "indexed": true,
          "internalType": "address",
          "name": "previousOwner",
          "type": "address"
        },
        {
          "indexed": true,
          "internalType": "address",
          "name": "newOwner",
          "type": "address"
        }
      ],
      "name": "OwnershipTransferred",
      "type": "event"
    },
    {
      "anonymous": false,
      "inputs": [
        {
          "indexed": true,
          "internalType": "address",
          "name": "operator",
          "type": "address"
        },
        {
          "indexed": true,
          "internalType": "address",
          "name": "from",
          "type": "address"
        },
        {
          "indexed": true,
          "internalType": "address",
          "name": "to",
          "type": "address"
        },
        {
          "indexed": false,
          "internalType": "uint256[]",
          "name": "ids",
          "type": "uint256[]"
        },
        {
          "indexed": false,
          "internalType": "uint256[]",
          "name": "values",
          "type": "uint256[]"
        }
      ],
      "name": "TransferBatch",
      "type": "event"
    },
    {
      "anonymous": false,
      "inputs": [
        {
          "indexed": true,
          "internalType": "address",
          "name": "operator",
          "type": "address"
        },
        {
          "indexed": true,
          "internalType": "address",
          "name": "from",
          "type": "address"
        },
        {
          "indexed": true,
          "internalType": "address",
          "name": "to",
          "type": "address"
        },
        {
          "indexed": false,
          "internalType": "uint256",
          "name": "id",
          "type": "uint256"
        },
        {
          "indexed": false,
          "internalType": "uint256",
          "name": "value",
          "type": "uint256"
        }
      ],
      "name": "TransferSingle",
      "type": "event"
    },
    {
      "anonymous": false,
      "inputs": [
        {
          "indexed": false,
          "internalType": "string",
          "name": "value",
          "type": "string"
        },
        {
          "indexed": true,
          "internalType": "uint256",
          "name": "id",
          "type": "uint256"
        }
      ],
      "name": "URI",
      "type": "event"
    },
    {
      "inputs": [],
      "name": "CT_X_Address",
      "outputs": [
        {
          "internalType": "address payable",
          "name": "",
          "type": "address"
        }
      ],
      "stateMutability": "view",
      "type": "function",
      "constant": true
    },
    {
      "inputs": [],
      "name": "OA",
      "outputs": [
        {
          "internalType": "address payable",
          "name": "",
          "type": "address"
        }
      ],
      "stateMutability": "view",
      "type": "function",
      "constant": true
    },
    {
      "inputs": [
        {
          "internalType": "uint256",
          "name": "",
          "type": "uint256"
        },
        {
          "internalType": "address",
          "name": "",
          "type": "address"
        }
      ],
      "name": "Player_Map",
      "outputs": [
        {
          "internalType": "uint256",
          "name": "",
          "type": "uint256"
        }
      ],
      "stateMutability": "view",
      "type": "function",
      "constant": true
    },
    {
      "inputs": [
        {
          "internalType": "address",
          "name": "account",
          "type": "address"
        },
        {
          "internalType": "uint256",
          "name": "id",
          "type": "uint256"
        }
      ],
      "name": "balanceOf",
      "outputs": [
        {
          "internalType": "uint256",
          "name": "",
          "type": "uint256"
        }
      ],
      "stateMutability": "view",
      "type": "function",
      "constant": true
    },
    {
      "inputs": [
        {
          "internalType": "address[]",
          "name": "accounts",
          "type": "address[]"
        },
        {
          "internalType": "uint256[]",
          "name": "ids",
          "type": "uint256[]"
        }
      ],
      "name": "balanceOfBatch",
      "outputs": [
        {
          "internalType": "uint256[]",
          "name": "",
          "type": "uint256[]"
        }
      ],
      "stateMutability": "view",
      "type": "function",
      "constant": true
    },
    {
      "inputs": [
        {
          "internalType": "uint256",
          "name": "",
          "type": "uint256"
        }
      ],
      "name": "challenges",
      "outputs": [
        {
          "internalType": "string",
          "name": "name",
          "type": "string"
        },
        {
          "internalType": "uint256",
          "name": "id",
          "type": "uint256"
        },
        {
          "internalType": "bytes",
          "name": "mint_data",
          "type": "bytes"
        }
      ],
      "stateMutability": "view",
      "type": "function",
      "constant": true
    },
    {
      "inputs": [],
      "name": "getChallengeTokensLength",
      "outputs": [
        {
          "internalType": "uint256",
          "name": "",
          "type": "uint256"
        }
      ],
      "stateMutability": "view",
      "type": "function",
      "constant": true
    },
    {
      "inputs": [],
      "name": "getChallenges",
      "outputs": [
        {
          "components": [
            {
              "internalType": "address[]",
              "name": "players",
              "type": "address[]"
            },
            {
              "internalType": "string",
              "name": "name",
              "type": "string"
            },
            {
              "internalType": "uint256",
              "name": "id",
              "type": "uint256"
            },
            {
              "internalType": "bytes",
              "name": "mint_data",
              "type": "bytes"
            }
          ],
          "internalType": "struct Challenges.Challenge[]",
          "name": "",
          "type": "tuple[]"
        }
      ],
      "stateMutability": "view",
      "type": "function",
      "constant": true
    },
    {
      "inputs": [
        {
          "internalType": "address",
          "name": "account",
          "type": "address"
        },
        {
          "internalType": "address",
          "name": "operator",
          "type": "address"
        }
      ],
      "name": "isApprovedForAll",
      "outputs": [
        {
          "internalType": "bool",
          "name": "",
          "type": "bool"
        }
      ],
      "stateMutability": "view",
      "type": "function",
      "constant": true
    },
    {
      "inputs": [
        {
          "internalType": "uint256",
          "name": "",
          "type": "uint256"
        }
      ],
      "name": "is_on_manifest",
      "outputs": [
        {
          "internalType": "bool",
          "name": "",
          "type": "bool"
        }
      ],
      "stateMutability": "view",
      "type": "function",
      "constant": true
    },
    {
      "inputs": [
        {
          "internalType": "uint256",
          "name": "",
          "type": "uint256"
        }
      ],
      "name": "map_id_to_Challenge",
      "outputs": [
        {
          "internalType": "string",
          "name": "name",
          "type": "string"
        },
        {
          "internalType": "uint256",
          "name": "id",
          "type": "uint256"
        },
        {
          "internalType": "bytes",
          "name": "mint_data",
          "type": "bytes"
        }
      ],
      "stateMutability": "view",
      "type": "function",
      "constant": true
    },
    {
      "inputs": [
        {
          "internalType": "address",
          "name": "",
          "type": "address"
        }
      ],
      "name": "map_initiator_to_id",
      "outputs": [
        {
          "internalType": "uint256",
          "name": "",
          "type": "uint256"
        }
      ],
      "stateMutability": "view",
      "type": "function",
      "constant": true
    },
    {
      "inputs": [
        {
          "internalType": "uint256",
          "name": "",
          "type": "uint256"
        },
        {
          "internalType": "address",
          "name": "",
          "type": "address"
        }
      ],
      "name": "map_player_to_payout",
      "outputs": [
        {
          "internalType": "uint256",
          "name": "",
          "type": "uint256"
        }
      ],
      "stateMutability": "view",
      "type": "function",
      "constant": true
    },
    {
      "inputs": [],
      "name": "owner",
      "outputs": [
        {
          "internalType": "address",
          "name": "",
          "type": "address"
        }
      ],
      "stateMutability": "view",
      "type": "function",
      "constant": true
    },
    {
      "inputs": [],
      "name": "renounceOwnership",
      "outputs": [],
      "stateMutability": "nonpayable",
      "type": "function"
    },
    {
      "inputs": [
        {
          "internalType": "address",
          "name": "from",
          "type": "address"
        },
        {
          "internalType": "address",
          "name": "to",
          "type": "address"
        },
        {
          "internalType": "uint256[]",
          "name": "ids",
          "type": "uint256[]"
        },
        {
          "internalType": "uint256[]",
          "name": "amounts",
          "type": "uint256[]"
        },
        {
          "internalType": "bytes",
          "name": "data",
          "type": "bytes"
        }
      ],
      "name": "safeBatchTransferFrom",
      "outputs": [],
      "stateMutability": "nonpayable",
      "type": "function"
    },
    {
      "inputs": [
        {
          "internalType": "address",
          "name": "from",
          "type": "address"
        },
        {
          "internalType": "address",
          "name": "to",
          "type": "address"
        },
        {
          "internalType": "uint256",
          "name": "id",
          "type": "uint256"
        },
        {
          "internalType": "uint256",
          "name": "amount",
          "type": "uint256"
        },
        {
          "internalType": "bytes",
          "name": "data",
          "type": "bytes"
        }
      ],
      "name": "safeTransferFrom",
      "outputs": [],
      "stateMutability": "nonpayable",
      "type": "function"
    },
    {
      "inputs": [
        {
          "internalType": "address",
          "name": "operator",
          "type": "address"
        },
        {
          "internalType": "bool",
          "name": "approved",
          "type": "bool"
        }
      ],
      "name": "setApprovalForAll",
      "outputs": [],
      "stateMutability": "nonpayable",
      "type": "function"
    },
    {
      "inputs": [
        {
          "internalType": "bytes4",
          "name": "interfaceId",
          "type": "bytes4"
        }
      ],
      "name": "supportsInterface",
      "outputs": [
        {
          "internalType": "bool",
          "name": "",
          "type": "bool"
        }
      ],
      "stateMutability": "view",
      "type": "function",
      "constant": true
    },
    {
      "inputs": [
        {
          "internalType": "address[]",
          "name": "_player_list",
          "type": "address[]"
        },
        {
          "internalType": "string",
          "name": "_name",
          "type": "string"
        },
        {
          "internalType": "uint256",
          "name": "_num_to_issue",
          "type": "uint256"
        },
        {
          "internalType": "string",
          "name": "_mint_date",
          "type": "string"
        },
        {
          "internalType": "string",
          "name": "_type",
          "type": "string"
        },
        {
          "internalType": "uint256",
          "name": "_streak_days",
          "type": "uint256"
        },
        {
          "internalType": "uint256",
          "name": "_stake_amount",
          "type": "uint256"
        }
      ],
      "name": "tokenGenesis",
      "outputs": [
        {
          "internalType": "uint256",
          "name": "",
          "type": "uint256"
        }
      ],
      "stateMutability": "nonpayable",
      "type": "function"
    },
    {
      "inputs": [
        {
          "internalType": "address",
          "name": "newOwner",
          "type": "address"
        }
      ],
      "name": "transferOwnership",
      "outputs": [],
      "stateMutability": "nonpayable",
      "type": "function"
    },
    {
      "inputs": [
        {
          "internalType": "uint256",
          "name": "",
          "type": "uint256"
        }
      ],
      "name": "uri",
      "outputs": [
        {
          "internalType": "string",
          "name": "",
          "type": "string"
        }
      ],
      "stateMutability": "view",
      "type": "function",
      "constant": true
    }
  ],
  "bytecode": "0x608060405233600760006101000a81548173ffffffffffffffffffffffffffffffffffffffff021916908373ffffffffffffffffffffffffffffffffffffffff1602179055503480156200005257600080fd5b506040518060600160405280603d815260200162004459603d91396200007e81620000a560201b60201c565b506200009f62000093620000c160201b60201c565b620000c960201b60201c565b620002a4565b8060029080519060200190620000bd9291906200018f565b5050565b600033905090565b6000600360009054906101000a900473ffffffffffffffffffffffffffffffffffffffff16905081600360006101000a81548173ffffffffffffffffffffffffffffffffffffffff021916908373ffffffffffffffffffffffffffffffffffffffff1602179055508173ffffffffffffffffffffffffffffffffffffffff168173ffffffffffffffffffffffffffffffffffffffff167f8be0079c531659141344cd1fd0a4f28419497f9722a3daafe3b4186f6b6457e060405160405180910390a35050565b8280546200019d906200023f565b90600052602060002090601f016020900481019282620001c157600085556200020d565b82601f10620001dc57805160ff19168380011785556200020d565b828001600101855582156200020d579182015b828111156200020c578251825591602001919060010190620001ef565b5b5090506200021c919062000220565b5090565b5b808211156200023b57600081600090555060010162000221565b5090565b600060028204905060018216806200025857607f821691505b602082108114156200026f576200026e62000275565b5b50919050565b7f4e487b7100000000000000000000000000000000000000000000000000000000600052602260045260246000fd5b6141a580620002b46000396000f3fe608060405234801561001057600080fd5b50600436106101415760003560e01c8063715018a6116100b8578063caae5f941161007c578063caae5f94146103c6578063e737fc31146103e4578063e985e9c514610402578063f242432a14610432578063f2fde38b1461044e578063f98503251461046a57610141565b8063715018a6146103205780638da5cb5b1461032a5780638f1d377614610348578063a22cb4651461037a578063ab2f97bc1461039657610141565b80632eb2c2d61161010a5780632eb2c2d61461023857806337015ff81461025457806346c7c126146102725780634b8ae8cd146102905780634e1273f4146102c0578063667e5971146102f057610141565b8062fdd58e1461014657806301ffc9a7146101765780630a97b44a146101a65780630e89341c146101d657806314c3710914610206575b600080fd5b610160600480360381019061015b9190612b67565b61049a565b60405161016d9190613b6b565b60405180910390f35b610190600480360381019061018b9190612d0d565b610563565b60405161019d91906138d6565b60405180910390f35b6101c060048036038101906101bb9190612c0f565b610645565b6040516101cd9190613b6b565b60405180910390f35b6101f060048036038101906101eb9190612d5f565b610a59565b6040516101fd91906138f1565b60405180910390f35b610220600480360381019061021b9190612d5f565b610aed565b60405161022f93929190613966565b60405180910390f35b610252600480360381019061024d91906129dd565b610c27565b005b61025c610cc8565b6040516102699190613724565b60405180910390f35b61027a610cee565b604051610287919061385b565b60405180910390f35b6102aa60048036038101906102a59190612d5f565b610ff7565b6040516102b791906138d6565b60405180910390f35b6102da60048036038101906102d59190612ba3565b611017565b6040516102e7919061387d565b60405180910390f35b61030a60048036038101906103059190612978565b6111c8565b6040516103179190613b6b565b60405180910390f35b6103286111e0565b005b610332611268565b60405161033f9190613709565b60405180910390f35b610362600480360381019061035d9190612d5f565b611292565b60405161037193929190613966565b60405180910390f35b610394600480360381019061038f9190612b2b565b6113dc565b005b6103b060048036038101906103ab9190612d88565b61155d565b6040516103bd9190613b6b565b60405180910390f35b6103ce611582565b6040516103db9190613724565b60405180910390f35b6103ec6115a8565b6040516103f99190613b6b565b60405180910390f35b61041c600480360381019061041791906129a1565b6115b5565b60405161042991906138d6565b60405180910390f35b61044c60048036038101906104479190612a9c565b611649565b005b61046860048036038101906104639190612978565b6116ea565b005b610484600480360381019061047f9190612d88565b6117e2565b6040516104919190613b6b565b60405180910390f35b60008073ffffffffffffffffffffffffffffffffffffffff168373ffffffffffffffffffffffffffffffffffffffff16141561050b576040517f08c379a000000000000000000000000000000000000000000000000000000000815260040161050290613a0b565b60405180910390fd5b60008083815260200190815260200160002060008473ffffffffffffffffffffffffffffffffffffffff1673ffffffffffffffffffffffffffffffffffffffff16815260200190815260200160002054905092915050565b60007fd9b67a26000000000000000000000000000000000000000000000000000000007bffffffffffffffffffffffffffffffffffffffffffffffffffffffff1916827bffffffffffffffffffffffffffffffffffffffffffffffffffffffff1916148061062e57507f0e89341c000000000000000000000000000000000000000000000000000000007bffffffffffffffffffffffffffffffffffffffffffffffffffffffff1916827bffffffffffffffffffffffffffffffffffffffffffffffffffffffff1916145b8061063e575061063d82611807565b5b9050919050565b600080662386f26fc1000090506000604051602001610663906136f4565b6040516020818303038152906040528051906020012060001c90506000828261068c9190613f52565b90506004600082815260200190815260200160002060009054906101000a900460ff16156106ef576040517f08c379a00000000000000000000000000000000000000000000000000000000081526004016106e6906139eb565b60405180910390fd5b6106f7612538565b8b81600001819052508a81602001819052508181604001818152505060008989898960405160200161072c9493929190613913565b6040516020818303038152906040529050808260600181905250600a829080600181540180825580915050600190039060005260206000209060040201600090919091909150600082015181600001908051906020019061078e929190612560565b5060208201518160010190805190602001906107ab9291906125ea565b506040820151816002015560608201518160030190805190602001906107d2929190612670565b50505082600560003373ffffffffffffffffffffffffffffffffffffffff1673ffffffffffffffffffffffffffffffffffffffff1681526020019081526020016000208190555081600660008581526020019081526020016000206000820151816000019080519060200190610849929190612560565b5060208201518160010190805190602001906108669291906125ea565b5060408201518160020155606082015181600301908051906020019061088d929190612670565b5090505060016004600085815260200190815260200160002060006101000a81548160ff0219169083151502179055506108c933848d84611871565b60005b8d5181116109f8578d818151811061090d577f4e487b7100000000000000000000000000000000000000000000000000000000600052603260045260246000fd5b602002602001015173ffffffffffffffffffffffffffffffffffffffff163373ffffffffffffffffffffffffffffffffffffffff16146109e5576109928e8281518110610983577f4e487b7100000000000000000000000000000000000000000000000000000000600052603260045260246000fd5b602002602001015160016113dc565b6109e0338f83815181106109cf577f4e487b7100000000000000000000000000000000000000000000000000000000600052603260045260246000fd5b602002602001015186600186611649565b6109f8565b80806109f090613f09565b9150506108cc565b507f2cc407988ff3505eb79db78b4ee20d201c599d8656e05dc817626df5f8f2b2da8260000151836020015184604001518560600151604051610a3e9493929190613801565b60405180910390a18295505050505050979650505050505050565b606060028054610a6890613ed7565b80601f0160208091040260200160405190810160405280929190818152602001828054610a9490613ed7565b8015610ae15780601f10610ab657610100808354040283529160200191610ae1565b820191906000526020600020905b815481529060010190602001808311610ac457829003601f168201915b50505050509050919050565b6006602052806000526040600020600091509050806001018054610b1090613ed7565b80601f0160208091040260200160405190810160405280929190818152602001828054610b3c90613ed7565b8015610b895780601f10610b5e57610100808354040283529160200191610b89565b820191906000526020600020905b815481529060010190602001808311610b6c57829003601f168201915b505050505090806002015490806003018054610ba490613ed7565b80601f0160208091040260200160405190810160405280929190818152602001828054610bd090613ed7565b8015610c1d5780601f10610bf257610100808354040283529160200191610c1d565b820191906000526020600020905b815481529060010190602001808311610c0057829003601f168201915b5050505050905083565b610c2f611a07565b73ffffffffffffffffffffffffffffffffffffffff168573ffffffffffffffffffffffffffffffffffffffff161480610c755750610c7485610c6f611a07565b6115b5565b5b610cb4576040517f08c379a0000000000000000000000000000000000000000000000000000000008152600401610cab90613a8b565b60405180910390fd5b610cc18585858585611a0f565b5050505050565b600860009054906101000a900473ffffffffffffffffffffffffffffffffffffffff1681565b60606000600a8054905067ffffffffffffffff811115610d37577f4e487b7100000000000000000000000000000000000000000000000000000000600052604160045260246000fd5b604051908082528060200260200182016040528015610d7057816020015b610d5d612538565b815260200190600190039081610d555790505b50905060005b600a80549050811015610fef576000600a8281548110610dbf577f4e487b7100000000000000000000000000000000000000000000000000000000600052603260045260246000fd5b906000526020600020906004020190508060405180608001604052908160008201805480602002602001604051908101604052809291908181526020018280548015610e6057602002820191906000526020600020905b8160009054906101000a900473ffffffffffffffffffffffffffffffffffffffff1673ffffffffffffffffffffffffffffffffffffffff1681526020019060010190808311610e16575b50505050508152602001600182018054610e7990613ed7565b80601f0160208091040260200160405190810160405280929190818152602001828054610ea590613ed7565b8015610ef25780601f10610ec757610100808354040283529160200191610ef2565b820191906000526020600020905b815481529060010190602001808311610ed557829003601f168201915b5050505050815260200160028201548152602001600382018054610f1590613ed7565b80601f0160208091040260200160405190810160405280929190818152602001828054610f4190613ed7565b8015610f8e5780601f10610f6357610100808354040283529160200191610f8e565b820191906000526020600020905b815481529060010190602001808311610f7157829003601f168201915b505050505081525050838381518110610fd0577f4e487b7100000000000000000000000000000000000000000000000000000000600052603260045260246000fd5b6020026020010181905250508080610fe790613f09565b915050610d76565b508091505090565b60046020528060005260406000206000915054906101000a900460ff1681565b6060815183511461105d576040517f08c379a000000000000000000000000000000000000000000000000000000000815260040161105490613b0b565b60405180910390fd5b6000835167ffffffffffffffff8111156110a0577f4e487b7100000000000000000000000000000000000000000000000000000000600052604160045260246000fd5b6040519080825280602002602001820160405280156110ce5781602001602082028036833780820191505090505b50905060005b84518110156111bd57611167858281518110611119577f4e487b7100000000000000000000000000000000000000000000000000000000600052603260045260246000fd5b602002602001015185838151811061115a577f4e487b7100000000000000000000000000000000000000000000000000000000600052603260045260246000fd5b602002602001015161049a565b8282815181106111a0577f4e487b7100000000000000000000000000000000000000000000000000000000600052603260045260246000fd5b602002602001018181525050806111b690613f09565b90506110d4565b508091505092915050565b60056020528060005260406000206000915090505481565b6111e8611a07565b73ffffffffffffffffffffffffffffffffffffffff16611206611268565b73ffffffffffffffffffffffffffffffffffffffff161461125c576040517f08c379a000000000000000000000000000000000000000000000000000000000815260040161125390613acb565b60405180910390fd5b6112666000611d6f565b565b6000600360009054906101000a900473ffffffffffffffffffffffffffffffffffffffff16905090565b600a81815481106112a257600080fd5b90600052602060002090600402016000915090508060010180546112c590613ed7565b80601f01602080910402602001604051908101604052809291908181526020018280546112f190613ed7565b801561133e5780601f106113135761010080835404028352916020019161133e565b820191906000526020600020905b81548152906001019060200180831161132157829003601f168201915b50505050509080600201549080600301805461135990613ed7565b80601f016020809104026020016040519081016040528092919081815260200182805461138590613ed7565b80156113d25780601f106113a7576101008083540402835291602001916113d2565b820191906000526020600020905b8154815290600101906020018083116113b557829003601f168201915b5050505050905083565b8173ffffffffffffffffffffffffffffffffffffffff166113fb611a07565b73ffffffffffffffffffffffffffffffffffffffff161415611452576040517f08c379a000000000000000000000000000000000000000000000000000000000815260040161144990613aeb565b60405180910390fd5b806001600061145f611a07565b73ffffffffffffffffffffffffffffffffffffffff1673ffffffffffffffffffffffffffffffffffffffff16815260200190815260200160002060008473ffffffffffffffffffffffffffffffffffffffff1673ffffffffffffffffffffffffffffffffffffffff16815260200190815260200160002060006101000a81548160ff0219169083151502179055508173ffffffffffffffffffffffffffffffffffffffff1661150c611a07565b73ffffffffffffffffffffffffffffffffffffffff167f17307eab39ab6107e8899845ad3d59bd9653f200f220920489ca2b5937696c318360405161155191906138d6565b60405180910390a35050565b600b602052816000526040600020602052806000526040600020600091509150505481565b600760009054906101000a900473ffffffffffffffffffffffffffffffffffffffff1681565b6000600a80549050905090565b6000600160008473ffffffffffffffffffffffffffffffffffffffff1673ffffffffffffffffffffffffffffffffffffffff16815260200190815260200160002060008373ffffffffffffffffffffffffffffffffffffffff1673ffffffffffffffffffffffffffffffffffffffff16815260200190815260200160002060009054906101000a900460ff16905092915050565b611651611a07565b73ffffffffffffffffffffffffffffffffffffffff168573ffffffffffffffffffffffffffffffffffffffff161480611697575061169685611691611a07565b6115b5565b5b6116d6576040517f08c379a00000000000000000000000000000000000000000000000000000000081526004016116cd90613a4b565b60405180910390fd5b6116e38585858585611e35565b5050505050565b6116f2611a07565b73ffffffffffffffffffffffffffffffffffffffff16611710611268565b73ffffffffffffffffffffffffffffffffffffffff1614611766576040517f08c379a000000000000000000000000000000000000000000000000000000000815260040161175d90613acb565b60405180910390fd5b600073ffffffffffffffffffffffffffffffffffffffff168173ffffffffffffffffffffffffffffffffffffffff1614156117d6576040517f08c379a00000000000000000000000000000000000000000000000000000000081526004016117cd90613a2b565b60405180910390fd5b6117df81611d6f565b50565b6009602052816000526040600020602052806000526040600020600091509150505481565b60007f01ffc9a7000000000000000000000000000000000000000000000000000000007bffffffffffffffffffffffffffffffffffffffffffffffffffffffff1916827bffffffffffffffffffffffffffffffffffffffffffffffffffffffff1916149050919050565b600073ffffffffffffffffffffffffffffffffffffffff168473ffffffffffffffffffffffffffffffffffffffff1614156118e1576040517f08c379a00000000000000000000000000000000000000000000000000000000081526004016118d890613b4b565b60405180910390fd5b60006118eb611a07565b905061190c816000876118fd886120b7565b611906886120b7565b8761217d565b8260008086815260200190815260200160002060008773ffffffffffffffffffffffffffffffffffffffff1673ffffffffffffffffffffffffffffffffffffffff168152602001908152602001600020600082825461196b9190613db9565b925050819055508473ffffffffffffffffffffffffffffffffffffffff16600073ffffffffffffffffffffffffffffffffffffffff168273ffffffffffffffffffffffffffffffffffffffff167fc3d58168c5ae7397731d063d5bbf3d657854427343f4c083240f7aacaa2d0f6287876040516119e9929190613b86565b60405180910390a4611a0081600087878787612185565b5050505050565b600033905090565b8151835114611a53576040517f08c379a0000000000000000000000000000000000000000000000000000000008152600401611a4a90613b2b565b60405180910390fd5b600073ffffffffffffffffffffffffffffffffffffffff168473ffffffffffffffffffffffffffffffffffffffff161415611ac3576040517f08c379a0000000000000000000000000000000000000000000000000000000008152600401611aba90613a6b565b60405180910390fd5b6000611acd611a07565b9050611add81878787878761217d565b60005b8451811015611cda576000858281518110611b24577f4e487b7100000000000000000000000000000000000000000000000000000000600052603260045260246000fd5b602002602001015190506000858381518110611b69577f4e487b7100000000000000000000000000000000000000000000000000000000600052603260045260246000fd5b60200260200101519050600080600084815260200190815260200160002060008b73ffffffffffffffffffffffffffffffffffffffff1673ffffffffffffffffffffffffffffffffffffffff16815260200190815260200160002054905081811015611c0a576040517f08c379a0000000000000000000000000000000000000000000000000000000008152600401611c0190613aab565b60405180910390fd5b81810360008085815260200190815260200160002060008c73ffffffffffffffffffffffffffffffffffffffff1673ffffffffffffffffffffffffffffffffffffffff168152602001908152602001600020819055508160008085815260200190815260200160002060008b73ffffffffffffffffffffffffffffffffffffffff1673ffffffffffffffffffffffffffffffffffffffff1681526020019081526020016000206000828254611cbf9190613db9565b9250508190555050505080611cd390613f09565b9050611ae0565b508473ffffffffffffffffffffffffffffffffffffffff168673ffffffffffffffffffffffffffffffffffffffff168273ffffffffffffffffffffffffffffffffffffffff167f4a39dc06d4c0dbc64b70af90fd698a233a518aa5d07e595d983b8c0526c8f7fb8787604051611d5192919061389f565b60405180910390a4611d67818787878787612355565b505050505050565b6000600360009054906101000a900473ffffffffffffffffffffffffffffffffffffffff16905081600360006101000a81548173ffffffffffffffffffffffffffffffffffffffff021916908373ffffffffffffffffffffffffffffffffffffffff1602179055508173ffffffffffffffffffffffffffffffffffffffff168173ffffffffffffffffffffffffffffffffffffffff167f8be0079c531659141344cd1fd0a4f28419497f9722a3daafe3b4186f6b6457e060405160405180910390a35050565b600073ffffffffffffffffffffffffffffffffffffffff168473ffffffffffffffffffffffffffffffffffffffff161415611ea5576040517f08c379a0000000000000000000000000000000000000000000000000000000008152600401611e9c90613a6b565b60405180910390fd5b6000611eaf611a07565b9050611ecf818787611ec0886120b7565b611ec9886120b7565b8761217d565b600080600086815260200190815260200160002060008873ffffffffffffffffffffffffffffffffffffffff1673ffffffffffffffffffffffffffffffffffffffff16815260200190815260200160002054905083811015611f66576040517f08c379a0000000000000000000000000000000000000000000000000000000008152600401611f5d90613aab565b60405180910390fd5b83810360008087815260200190815260200160002060008973ffffffffffffffffffffffffffffffffffffffff1673ffffffffffffffffffffffffffffffffffffffff168152602001908152602001600020819055508360008087815260200190815260200160002060008873ffffffffffffffffffffffffffffffffffffffff1673ffffffffffffffffffffffffffffffffffffffff168152602001908152602001600020600082825461201b9190613db9565b925050819055508573ffffffffffffffffffffffffffffffffffffffff168773ffffffffffffffffffffffffffffffffffffffff168373ffffffffffffffffffffffffffffffffffffffff167fc3d58168c5ae7397731d063d5bbf3d657854427343f4c083240f7aacaa2d0f628888604051612098929190613b86565b60405180910390a46120ae828888888888612185565b50505050505050565b60606000600167ffffffffffffffff8111156120fc577f4e487b7100000000000000000000000000000000000000000000000000000000600052604160045260246000fd5b60405190808252806020026020018201604052801561212a5781602001602082028036833780820191505090505b5090508281600081518110612168577f4e487b7100000000000000000000000000000000000000000000000000000000600052603260045260246000fd5b60200260200101818152505080915050919050565b505050505050565b6121a48473ffffffffffffffffffffffffffffffffffffffff16612525565b1561234d578373ffffffffffffffffffffffffffffffffffffffff1663f23a6e6187878686866040518663ffffffff1660e01b81526004016121ea9594939291906137a7565b602060405180830381600087803b15801561220457600080fd5b505af192505050801561223557506040513d601f19601f820116820180604052508101906122329190612d36565b60015b6122c45761224161405d565b8061224c5750612289565b806040517f08c379a000000000000000000000000000000000000000000000000000000000815260040161228091906138f1565b60405180910390fd5b6040517f08c379a00000000000000000000000000000000000000000000000000000000081526004016122bb906139ab565b60405180910390fd5b63f23a6e6160e01b7bffffffffffffffffffffffffffffffffffffffffffffffffffffffff1916817bffffffffffffffffffffffffffffffffffffffffffffffffffffffff19161461234b576040517f08c379a0000000000000000000000000000000000000000000000000000000008152600401612342906139cb565b60405180910390fd5b505b505050505050565b6123748473ffffffffffffffffffffffffffffffffffffffff16612525565b1561251d578373ffffffffffffffffffffffffffffffffffffffff1663bc197c8187878686866040518663ffffffff1660e01b81526004016123ba95949392919061373f565b602060405180830381600087803b1580156123d457600080fd5b505af192505050801561240557506040513d601f19601f820116820180604052508101906124029190612d36565b60015b6124945761241161405d565b8061241c5750612459565b806040517f08c379a000000000000000000000000000000000000000000000000000000000815260040161245091906138f1565b60405180910390fd5b6040517f08c379a000000000000000000000000000000000000000000000000000000000815260040161248b906139ab565b60405180910390fd5b63bc197c8160e01b7bffffffffffffffffffffffffffffffffffffffffffffffffffffffff1916817bffffffffffffffffffffffffffffffffffffffffffffffffffffffff19161461251b576040517f08c379a0000000000000000000000000000000000000000000000000000000008152600401612512906139cb565b60405180910390fd5b505b505050505050565b600080823b905060008111915050919050565b6040518060800160405280606081526020016060815260200160008152602001606081525090565b8280548282559060005260206000209081019282156125d9579160200282015b828111156125d85782518260006101000a81548173ffffffffffffffffffffffffffffffffffffffff021916908373ffffffffffffffffffffffffffffffffffffffff16021790555091602001919060010190612580565b5b5090506125e691906126f6565b5090565b8280546125f690613ed7565b90600052602060002090601f016020900481019282612618576000855561265f565b82601f1061263157805160ff191683800117855561265f565b8280016001018555821561265f579182015b8281111561265e578251825591602001919060010190612643565b5b50905061266c91906126f6565b5090565b82805461267c90613ed7565b90600052602060002090601f01602090048101928261269e57600085556126e5565b82601f106126b757805160ff19168380011785556126e5565b828001600101855582156126e5579182015b828111156126e45782518255916020019190600101906126c9565b5b5090506126f291906126f6565b5090565b5b8082111561270f5760008160009055506001016126f7565b5090565b600061272661272184613be0565b613baf565b9050808382526020820190508285602086028201111561274557600080fd5b60005b85811015612775578161275b8882612867565b845260208401935060208301925050600181019050612748565b5050509392505050565b600061279261278d84613c0c565b613baf565b905080838252602082019050828560208602820111156127b157600080fd5b60005b858110156127e157816127c78882612963565b8452602084019350602083019250506001810190506127b4565b5050509392505050565b60006127fe6127f984613c38565b613baf565b90508281526020810184848401111561281657600080fd5b612821848285613e95565b509392505050565b600061283c61283784613c68565b613baf565b90508281526020810184848401111561285457600080fd5b61285f848285613e95565b509392505050565b60008135905061287681614113565b92915050565b600082601f83011261288d57600080fd5b813561289d848260208601612713565b91505092915050565b600082601f8301126128b757600080fd5b81356128c784826020860161277f565b91505092915050565b6000813590506128df8161412a565b92915050565b6000813590506128f481614141565b92915050565b60008151905061290981614141565b92915050565b600082601f83011261292057600080fd5b81356129308482602086016127eb565b91505092915050565b600082601f83011261294a57600080fd5b813561295a848260208601612829565b91505092915050565b60008135905061297281614158565b92915050565b60006020828403121561298a57600080fd5b600061299884828501612867565b91505092915050565b600080604083850312156129b457600080fd5b60006129c285828601612867565b92505060206129d385828601612867565b9150509250929050565b600080600080600060a086880312156129f557600080fd5b6000612a0388828901612867565b9550506020612a1488828901612867565b945050604086013567ffffffffffffffff811115612a3157600080fd5b612a3d888289016128a6565b935050606086013567ffffffffffffffff811115612a5a57600080fd5b612a66888289016128a6565b925050608086013567ffffffffffffffff811115612a8357600080fd5b612a8f8882890161290f565b9150509295509295909350565b600080600080600060a08688031215612ab457600080fd5b6000612ac288828901612867565b9550506020612ad388828901612867565b9450506040612ae488828901612963565b9350506060612af588828901612963565b925050608086013567ffffffffffffffff811115612b1257600080fd5b612b1e8882890161290f565b9150509295509295909350565b60008060408385031215612b3e57600080fd5b6000612b4c85828601612867565b9250506020612b5d858286016128d0565b9150509250929050565b60008060408385031215612b7a57600080fd5b6000612b8885828601612867565b9250506020612b9985828601612963565b9150509250929050565b60008060408385031215612bb657600080fd5b600083013567ffffffffffffffff811115612bd057600080fd5b612bdc8582860161287c565b925050602083013567ffffffffffffffff811115612bf957600080fd5b612c05858286016128a6565b9150509250929050565b600080600080600080600060e0888a031215612c2a57600080fd5b600088013567ffffffffffffffff811115612c4457600080fd5b612c508a828b0161287c565b975050602088013567ffffffffffffffff811115612c6d57600080fd5b612c798a828b01612939565b9650506040612c8a8a828b01612963565b955050606088013567ffffffffffffffff811115612ca757600080fd5b612cb38a828b01612939565b945050608088013567ffffffffffffffff811115612cd057600080fd5b612cdc8a828b01612939565b93505060a0612ced8a828b01612963565b92505060c0612cfe8a828b01612963565b91505092959891949750929550565b600060208284031215612d1f57600080fd5b6000612d2d848285016128e5565b91505092915050565b600060208284031215612d4857600080fd5b6000612d56848285016128fa565b91505092915050565b600060208284031215612d7157600080fd5b6000612d7f84828501612963565b91505092915050565b60008060408385031215612d9b57600080fd5b6000612da985828601612963565b9250506020612dba85828601612867565b9150509250929050565b6000612dd08383612e17565b60208301905092915050565b6000612de88383613665565b905092915050565b6000612dfc83836136d6565b60208301905092915050565b612e1181613e21565b82525050565b612e2081613e0f565b82525050565b612e2f81613e0f565b82525050565b6000612e4082613cc8565b612e4a8185613d26565b9350612e5583613c98565b8060005b83811015612e86578151612e6d8882612dc4565b9750612e7883613cff565b925050600181019050612e59565b5085935050505092915050565b6000612e9e82613cc8565b612ea88185613d37565b9350612eb383613c98565b8060005b83811015612ee4578151612ecb8882612dc4565b9750612ed683613cff565b925050600181019050612eb7565b5085935050505092915050565b6000612efc82613cd3565b612f068185613d48565b935083602082028501612f1885613ca8565b8060005b85811015612f545784840389528151612f358582612ddc565b9450612f4083613d0c565b925060208a01995050600181019050612f1c565b50829750879550505050505092915050565b6000612f7182613cde565b612f7b8185613d59565b9350612f8683613cb8565b8060005b83811015612fb7578151612f9e8882612df0565b9750612fa983613d19565b925050600181019050612f8a565b5085935050505092915050565b612fcd81613e33565b82525050565b6000612fde82613ce9565b612fe88185613d6a565b9350612ff8818560208601613ea4565b6130018161403f565b840191505092915050565b600061301782613ce9565b6130218185613d7b565b9350613031818560208601613ea4565b61303a8161403f565b840191505092915050565b600061305082613cf4565b61305a8185613d8c565b935061306a818560208601613ea4565b6130738161403f565b840191505092915050565b600061308982613cf4565b6130938185613d9d565b93506130a3818560208601613ea4565b6130ac8161403f565b840191505092915050565b60006130c4603483613d9d565b91507f455243313135353a207472616e7366657220746f206e6f6e204552433131353560008301527f526563656976657220696d706c656d656e7465720000000000000000000000006020830152604082019050919050565b600061312a602883613d9d565b91507f455243313135353a204552433131353552656365697665722072656a6563746560008301527f6420746f6b656e730000000000000000000000000000000000000000000000006020830152604082019050919050565b6000613190602183613d9d565b91507f4572723a205069636b206120556e69717565204368616c6c656e6765204e616d60008301527f65000000000000000000000000000000000000000000000000000000000000006020830152604082019050919050565b60006131f6602b83613d9d565b91507f455243313135353a2062616c616e636520717565727920666f7220746865207a60008301527f65726f20616464726573730000000000000000000000000000000000000000006020830152604082019050919050565b600061325c602683613d9d565b91507f4f776e61626c653a206e6577206f776e657220697320746865207a65726f206160008301527f64647265737300000000000000000000000000000000000000000000000000006020830152604082019050919050565b60006132c2602983613d9d565b91507f455243313135353a2063616c6c6572206973206e6f74206f776e6572206e6f7260008301527f20617070726f76656400000000000000000000000000000000000000000000006020830152604082019050919050565b6000613328602583613d9d565b91507f455243313135353a207472616e7366657220746f20746865207a65726f20616460008301527f64726573730000000000000000000000000000000000000000000000000000006020830152604082019050919050565b600061338e603283613d9d565b91507f455243313135353a207472616e736665722063616c6c6572206973206e6f742060008301527f6f776e6572206e6f7220617070726f76656400000000000000000000000000006020830152604082019050919050565b60006133f4602a83613d9d565b91507f455243313135353a20696e73756666696369656e742062616c616e636520666f60008301527f72207472616e73666572000000000000000000000000000000000000000000006020830152604082019050919050565b600061345a602083613d9d565b91507f4f776e61626c653a2063616c6c6572206973206e6f7420746865206f776e65726000830152602082019050919050565b600061349a600583613dae565b91507f5f6e616d650000000000000000000000000000000000000000000000000000006000830152600582019050919050565b60006134da602983613d9d565b91507f455243313135353a2073657474696e6720617070726f76616c2073746174757360008301527f20666f722073656c6600000000000000000000000000000000000000000000006020830152604082019050919050565b6000613540602983613d9d565b91507f455243313135353a206163636f756e747320616e6420696473206c656e67746860008301527f206d69736d6174636800000000000000000000000000000000000000000000006020830152604082019050919050565b60006135a6602883613d9d565b91507f455243313135353a2069647320616e6420616d6f756e7473206c656e6774682060008301527f6d69736d617463680000000000000000000000000000000000000000000000006020830152604082019050919050565b600061360c602183613d9d565b91507f455243313135353a206d696e7420746f20746865207a65726f2061646472657360008301527f73000000000000000000000000000000000000000000000000000000000000006020830152604082019050919050565b600060808301600083015184820360008601526136828282612e35565b9150506020830151848203602086015261369c8282613045565b91505060408301516136b160408601826136d6565b50606083015184820360608601526136c98282612fd3565b9150508091505092915050565b6136df81613e8b565b82525050565b6136ee81613e8b565b82525050565b60006136ff8261348d565b9150819050919050565b600060208201905061371e6000830184612e26565b92915050565b60006020820190506137396000830184612e08565b92915050565b600060a0820190506137546000830188612e26565b6137616020830187612e26565b81810360408301526137738186612f66565b905081810360608301526137878185612f66565b9050818103608083015261379b818461300c565b90509695505050505050565b600060a0820190506137bc6000830188612e26565b6137c96020830187612e26565b6137d660408301866136e5565b6137e360608301856136e5565b81810360808301526137f5818461300c565b90509695505050505050565b6000608082019050818103600083015261381b8187612e93565b9050818103602083015261382f818661307e565b905061383e60408301856136e5565b8181036060830152613850818461300c565b905095945050505050565b600060208201905081810360008301526138758184612ef1565b905092915050565b600060208201905081810360008301526138978184612f66565b905092915050565b600060408201905081810360008301526138b98185612f66565b905081810360208301526138cd8184612f66565b90509392505050565b60006020820190506138eb6000830184612fc4565b92915050565b6000602082019050818103600083015261390b818461307e565b905092915050565b6000608082019050818103600083015261392d818761307e565b90508181036020830152613941818661307e565b905061395060408301856136e5565b61395d60608301846136e5565b95945050505050565b60006060820190508181036000830152613980818661307e565b905061398f60208301856136e5565b81810360408301526139a1818461300c565b9050949350505050565b600060208201905081810360008301526139c4816130b7565b9050919050565b600060208201905081810360008301526139e48161311d565b9050919050565b60006020820190508181036000830152613a0481613183565b9050919050565b60006020820190508181036000830152613a24816131e9565b9050919050565b60006020820190508181036000830152613a448161324f565b9050919050565b60006020820190508181036000830152613a64816132b5565b9050919050565b60006020820190508181036000830152613a848161331b565b9050919050565b60006020820190508181036000830152613aa481613381565b9050919050565b60006020820190508181036000830152613ac4816133e7565b9050919050565b60006020820190508181036000830152613ae48161344d565b9050919050565b60006020820190508181036000830152613b04816134cd565b9050919050565b60006020820190508181036000830152613b2481613533565b9050919050565b60006020820190508181036000830152613b4481613599565b9050919050565b60006020820190508181036000830152613b64816135ff565b9050919050565b6000602082019050613b8060008301846136e5565b92915050565b6000604082019050613b9b60008301856136e5565b613ba860208301846136e5565b9392505050565b6000604051905081810181811067ffffffffffffffff82111715613bd657613bd5614010565b5b8060405250919050565b600067ffffffffffffffff821115613bfb57613bfa614010565b5b602082029050602081019050919050565b600067ffffffffffffffff821115613c2757613c26614010565b5b602082029050602081019050919050565b600067ffffffffffffffff821115613c5357613c52614010565b5b601f19601f8301169050602081019050919050565b600067ffffffffffffffff821115613c8357613c82614010565b5b601f19601f8301169050602081019050919050565b6000819050602082019050919050565b6000819050602082019050919050565b6000819050602082019050919050565b600081519050919050565b600081519050919050565b600081519050919050565b600081519050919050565b600081519050919050565b6000602082019050919050565b6000602082019050919050565b6000602082019050919050565b600082825260208201905092915050565b600082825260208201905092915050565b600082825260208201905092915050565b600082825260208201905092915050565b600082825260208201905092915050565b600082825260208201905092915050565b600082825260208201905092915050565b600082825260208201905092915050565b600081905092915050565b6000613dc482613e8b565b9150613dcf83613e8b565b9250827fffffffffffffffffffffffffffffffffffffffffffffffffffffffffffffffff03821115613e0457613e03613f83565b5b828201905092915050565b6000613e1a82613e6b565b9050919050565b6000613e2c82613e6b565b9050919050565b60008115159050919050565b60007fffffffff0000000000000000000000000000000000000000000000000000000082169050919050565b600073ffffffffffffffffffffffffffffffffffffffff82169050919050565b6000819050919050565b82818337600083830152505050565b60005b83811015613ec2578082015181840152602081019050613ea7565b83811115613ed1576000848401525b50505050565b60006002820490506001821680613eef57607f821691505b60208210811415613f0357613f02613fe1565b5b50919050565b6000613f1482613e8b565b91507fffffffffffffffffffffffffffffffffffffffffffffffffffffffffffffffff821415613f4757613f46613f83565b5b600182019050919050565b6000613f5d82613e8b565b9150613f6883613e8b565b925082613f7857613f77613fb2565b5b828206905092915050565b7f4e487b7100000000000000000000000000000000000000000000000000000000600052601160045260246000fd5b7f4e487b7100000000000000000000000000000000000000000000000000000000600052601260045260246000fd5b7f4e487b7100000000000000000000000000000000000000000000000000000000600052602260045260246000fd5b7f4e487b7100000000000000000000000000000000000000000000000000000000600052604160045260246000fd5b6000601f19601f8301169050919050565b60008160e01c9050919050565b600060443d101561406d57614110565b60046000803e61407e600051614050565b6308c379a0811461408f5750614110565b60405160043d036004823e80513d602482011167ffffffffffffffff821117156140bb57505050614110565b808201805167ffffffffffffffff8111156140da575050505050614110565b8060208301013d85018111156140f557505050505050614110565b6140fe8261403f565b60208401016040528296505050505050505b90565b61411c81613e0f565b811461412757600080fd5b50565b61413381613e33565b811461413e57600080fd5b50565b61414a81613e3f565b811461415557600080fd5b50565b61416181613e8b565b811461416c57600080fd5b5056fea26469706673582212207b7c1225fcae647e011afd9a926967cdcfc88c16add33af4d45ff88e5d566e0a64736f6c63430008000033687474703a2f2f6c6f63616c686f73743a383838382f7075626c69632f23212f4368616c6c656e6765546f6b656e43686573742f7b69647d2e6a736f6e",
  "immutableReferences": {},
  "source": "// SPDX-License-Identifier: MIT\npragma solidity >= 0.8.0;\nimport \"./ChallengeToken.sol\";\n\ncontract CT_X is ChallengeToken {\n\n  mapping(uint256 => mapping(address => uint256)) public map_player_to_payout;\n\n  constructor()\n   ChallengeToken()\n    {}\n\n\n}\n",
  "sourcePath": "/Volumes/TerryBytes2/2021_Kode_Tut/BabelBet/contracts/CT_X.sol",
  "compiler": {
    "name": "solc",
    "version": "0.8.0+commit.c7dfd78e.Emscripten.clang"
  },
  "schemaVersion": "3.4.3",
  "updatedAt": "2021-11-27T01:22:06.995Z",
  "networkType": "ethereum",
  "devdoc": {
    "kind": "dev",
    "methods": {
      "balanceOf(address,uint256)": {
        "details": "See {IERC1155-balanceOf}. Requirements: - `account` cannot be the zero address."
      },
      "balanceOfBatch(address[],uint256[])": {
        "details": "See {IERC1155-balanceOfBatch}. Requirements: - `accounts` and `ids` must have the same length."
      },
      "isApprovedForAll(address,address)": {
        "details": "See {IERC1155-isApprovedForAll}."
      },
      "owner()": {
        "details": "Returns the address of the current owner."
      },
      "renounceOwnership()": {
        "details": "Leaves the contract without owner. It will not be possible to call `onlyOwner` functions anymore. Can only be called by the current owner. NOTE: Renouncing ownership will leave the contract without an owner, thereby removing any functionality that is only available to the owner."
      },
      "safeBatchTransferFrom(address,address,uint256[],uint256[],bytes)": {
        "details": "See {IERC1155-safeBatchTransferFrom}."
      },
      "safeTransferFrom(address,address,uint256,uint256,bytes)": {
        "details": "See {IERC1155-safeTransferFrom}."
      },
      "setApprovalForAll(address,bool)": {
        "details": "See {IERC1155-setApprovalForAll}."
      },
      "supportsInterface(bytes4)": {
        "details": "See {IERC165-supportsInterface}."
      },
      "transferOwnership(address)": {
        "details": "Transfers ownership of the contract to a new account (`newOwner`). Can only be called by the current owner."
      },
      "uri(uint256)": {
        "details": "See {IERC1155MetadataURI-uri}. This implementation returns the same URI for *all* token types. It relies on the token type ID substitution mechanism https://eips.ethereum.org/EIPS/eip-1155#metadata[defined in the EIP]. Clients calling this function must replace the `\\{id\\}` substring with the actual token type ID."
      }
    },
    "version": 1
  },
  "userdoc": {
    "kind": "user",
    "methods": {},
    "version": 1
  }
}