{
  "contractName": "CT_X",
  "abi": [
    {
      "inputs": [],
      "stateMutability": "nonpayable",
      "type": "constructor"
    },
    {
      "anonymous": false,
      "inputs": [
        {
          "indexed": true,
          "internalType": "address",
          "name": "account",
          "type": "address"
        },
        {
          "indexed": true,
          "internalType": "address",
          "name": "operator",
          "type": "address"
        },
        {
          "indexed": false,
          "internalType": "bool",
          "name": "approved",
          "type": "bool"
        }
      ],
      "name": "ApprovalForAll",
      "type": "event"
    },
    {
      "anonymous": false,
      "inputs": [
        {
          "indexed": false,
          "internalType": "address",
          "name": "initiator",
          "type": "address"
        },
        {
          "indexed": false,
          "internalType": "bytes",
          "name": "_uri",
          "type": "bytes"
        },
        {
          "indexed": false,
          "internalType": "string",
          "name": "_ename",
          "type": "string"
        },
        {
          "indexed": false,
          "internalType": "string",
          "name": "_esym",
          "type": "string"
        },
        {
          "indexed": false,
          "internalType": "uint256",
          "name": "_id",
          "type": "uint256"
        },
        {
          "indexed": false,
          "internalType": "bytes",
          "name": "mint_data",
          "type": "bytes"
        }
      ],
      "name": "ManifestedChallengeToken",
      "type": "event"
    },
    {
      "anonymous": false,
      "inputs": [
        {
          "indexed": true,
          "internalType": "address",
          "name": "previousOwner",
          "type": "address"
        },
        {
          "indexed": true,
          "internalType": "address",
          "name": "newOwner",
          "type": "address"
        }
      ],
      "name": "OwnershipTransferred",
      "type": "event"
    },
    {
      "anonymous": false,
      "inputs": [
        {
          "indexed": true,
          "internalType": "address",
          "name": "operator",
          "type": "address"
        },
        {
          "indexed": true,
          "internalType": "address",
          "name": "from",
          "type": "address"
        },
        {
          "indexed": true,
          "internalType": "address",
          "name": "to",
          "type": "address"
        },
        {
          "indexed": false,
          "internalType": "uint256[]",
          "name": "ids",
          "type": "uint256[]"
        },
        {
          "indexed": false,
          "internalType": "uint256[]",
          "name": "values",
          "type": "uint256[]"
        }
      ],
      "name": "TransferBatch",
      "type": "event"
    },
    {
      "anonymous": false,
      "inputs": [
        {
          "indexed": true,
          "internalType": "address",
          "name": "operator",
          "type": "address"
        },
        {
          "indexed": true,
          "internalType": "address",
          "name": "from",
          "type": "address"
        },
        {
          "indexed": true,
          "internalType": "address",
          "name": "to",
          "type": "address"
        },
        {
          "indexed": false,
          "internalType": "uint256",
          "name": "id",
          "type": "uint256"
        },
        {
          "indexed": false,
          "internalType": "uint256",
          "name": "value",
          "type": "uint256"
        }
      ],
      "name": "TransferSingle",
      "type": "event"
    },
    {
      "anonymous": false,
      "inputs": [
        {
          "indexed": false,
          "internalType": "string",
          "name": "value",
          "type": "string"
        },
        {
          "indexed": true,
          "internalType": "uint256",
          "name": "id",
          "type": "uint256"
        }
      ],
      "name": "URI",
      "type": "event"
    },
    {
      "inputs": [],
      "name": "CT_X_Address",
      "outputs": [
        {
          "internalType": "address payable",
          "name": "",
          "type": "address"
        }
      ],
      "stateMutability": "view",
      "type": "function",
      "constant": true
    },
    {
      "inputs": [],
      "name": "OA",
      "outputs": [
        {
          "internalType": "address payable",
          "name": "",
          "type": "address"
        }
      ],
      "stateMutability": "view",
      "type": "function",
      "constant": true
    },
    {
      "inputs": [
        {
          "internalType": "uint256",
          "name": "",
          "type": "uint256"
        }
      ],
      "name": "Player_List",
      "outputs": [
        {
          "internalType": "address payable",
          "name": "",
          "type": "address"
        }
      ],
      "stateMutability": "view",
      "type": "function",
      "constant": true
    },
    {
      "inputs": [
        {
          "internalType": "uint256",
          "name": "",
          "type": "uint256"
        },
        {
          "internalType": "address",
          "name": "",
          "type": "address"
        }
      ],
      "name": "Player_Map",
      "outputs": [
        {
          "internalType": "uint256",
          "name": "",
          "type": "uint256"
        }
      ],
      "stateMutability": "view",
      "type": "function",
      "constant": true
    },
    {
      "inputs": [
        {
          "internalType": "address",
          "name": "account",
          "type": "address"
        },
        {
          "internalType": "uint256",
          "name": "id",
          "type": "uint256"
        }
      ],
      "name": "balanceOf",
      "outputs": [
        {
          "internalType": "uint256",
          "name": "",
          "type": "uint256"
        }
      ],
      "stateMutability": "view",
      "type": "function",
      "constant": true
    },
    {
      "inputs": [
        {
          "internalType": "address[]",
          "name": "accounts",
          "type": "address[]"
        },
        {
          "internalType": "uint256[]",
          "name": "ids",
          "type": "uint256[]"
        }
      ],
      "name": "balanceOfBatch",
      "outputs": [
        {
          "internalType": "uint256[]",
          "name": "",
          "type": "uint256[]"
        }
      ],
      "stateMutability": "view",
      "type": "function",
      "constant": true
    },
    {
      "inputs": [
        {
          "internalType": "uint256",
          "name": "",
          "type": "uint256"
        }
      ],
      "name": "challenges",
      "outputs": [
        {
          "internalType": "address payable",
          "name": "initiator",
          "type": "address"
        },
        {
          "internalType": "bytes",
          "name": "uri",
          "type": "bytes"
        },
        {
          "internalType": "string",
          "name": "name",
          "type": "string"
        },
        {
          "internalType": "string",
          "name": "sym",
          "type": "string"
        },
        {
          "internalType": "uint256",
          "name": "id",
          "type": "uint256"
        },
        {
          "internalType": "bytes",
          "name": "mint_data",
          "type": "bytes"
        }
      ],
      "stateMutability": "view",
      "type": "function",
      "constant": true
    },
    {
      "inputs": [],
      "name": "getChallengeTokensLength",
      "outputs": [
        {
          "internalType": "uint256",
          "name": "",
          "type": "uint256"
        }
      ],
      "stateMutability": "view",
      "type": "function",
      "constant": true
    },
    {
      "inputs": [
        {
          "internalType": "address",
          "name": "account",
          "type": "address"
        },
        {
          "internalType": "address",
          "name": "operator",
          "type": "address"
        }
      ],
      "name": "isApprovedForAll",
      "outputs": [
        {
          "internalType": "bool",
          "name": "",
          "type": "bool"
        }
      ],
      "stateMutability": "view",
      "type": "function",
      "constant": true
    },
    {
      "inputs": [
        {
          "internalType": "uint256",
          "name": "",
          "type": "uint256"
        }
      ],
      "name": "is_on_manifest",
      "outputs": [
        {
          "internalType": "bool",
          "name": "",
          "type": "bool"
        }
      ],
      "stateMutability": "view",
      "type": "function",
      "constant": true
    },
    {
      "inputs": [
        {
          "internalType": "uint256",
          "name": "",
          "type": "uint256"
        }
      ],
      "name": "map_id_to_Challenge",
      "outputs": [
        {
          "internalType": "address payable",
          "name": "initiator",
          "type": "address"
        },
        {
          "internalType": "bytes",
          "name": "uri",
          "type": "bytes"
        },
        {
          "internalType": "string",
          "name": "name",
          "type": "string"
        },
        {
          "internalType": "string",
          "name": "sym",
          "type": "string"
        },
        {
          "internalType": "uint256",
          "name": "id",
          "type": "uint256"
        },
        {
          "internalType": "bytes",
          "name": "mint_data",
          "type": "bytes"
        }
      ],
      "stateMutability": "view",
      "type": "function",
      "constant": true
    },
    {
      "inputs": [
        {
          "internalType": "address",
          "name": "",
          "type": "address"
        }
      ],
      "name": "map_initiator_to_id",
      "outputs": [
        {
          "internalType": "uint256",
          "name": "",
          "type": "uint256"
        }
      ],
      "stateMutability": "view",
      "type": "function",
      "constant": true
    },
    {
      "inputs": [
        {
          "internalType": "uint256",
          "name": "",
          "type": "uint256"
        },
        {
          "internalType": "address",
          "name": "",
          "type": "address"
        }
      ],
      "name": "map_player_to_payout",
      "outputs": [
        {
          "internalType": "uint256",
          "name": "",
          "type": "uint256"
        }
      ],
      "stateMutability": "view",
      "type": "function",
      "constant": true
    },
    {
      "inputs": [],
      "name": "owner",
      "outputs": [
        {
          "internalType": "address",
          "name": "",
          "type": "address"
        }
      ],
      "stateMutability": "view",
      "type": "function",
      "constant": true
    },
    {
      "inputs": [],
      "name": "renounceOwnership",
      "outputs": [],
      "stateMutability": "nonpayable",
      "type": "function"
    },
    {
      "inputs": [
        {
          "internalType": "address",
          "name": "from",
          "type": "address"
        },
        {
          "internalType": "address",
          "name": "to",
          "type": "address"
        },
        {
          "internalType": "uint256[]",
          "name": "ids",
          "type": "uint256[]"
        },
        {
          "internalType": "uint256[]",
          "name": "amounts",
          "type": "uint256[]"
        },
        {
          "internalType": "bytes",
          "name": "data",
          "type": "bytes"
        }
      ],
      "name": "safeBatchTransferFrom",
      "outputs": [],
      "stateMutability": "nonpayable",
      "type": "function"
    },
    {
      "inputs": [
        {
          "internalType": "address",
          "name": "from",
          "type": "address"
        },
        {
          "internalType": "address",
          "name": "to",
          "type": "address"
        },
        {
          "internalType": "uint256",
          "name": "id",
          "type": "uint256"
        },
        {
          "internalType": "uint256",
          "name": "amount",
          "type": "uint256"
        },
        {
          "internalType": "bytes",
          "name": "data",
          "type": "bytes"
        }
      ],
      "name": "safeTransferFrom",
      "outputs": [],
      "stateMutability": "nonpayable",
      "type": "function"
    },
    {
      "inputs": [
        {
          "internalType": "address",
          "name": "operator",
          "type": "address"
        },
        {
          "internalType": "bool",
          "name": "approved",
          "type": "bool"
        }
      ],
      "name": "setApprovalForAll",
      "outputs": [],
      "stateMutability": "nonpayable",
      "type": "function"
    },
    {
      "inputs": [
        {
          "internalType": "bytes4",
          "name": "interfaceId",
          "type": "bytes4"
        }
      ],
      "name": "supportsInterface",
      "outputs": [
        {
          "internalType": "bool",
          "name": "",
          "type": "bool"
        }
      ],
      "stateMutability": "view",
      "type": "function",
      "constant": true
    },
    {
      "inputs": [
        {
          "internalType": "string",
          "name": "_ename",
          "type": "string"
        },
        {
          "internalType": "string",
          "name": "_esym",
          "type": "string"
        },
        {
          "internalType": "uint256",
          "name": "_num_to_issue",
          "type": "uint256"
        },
        {
          "internalType": "string",
          "name": "_mint_date",
          "type": "string"
        },
        {
          "internalType": "uint256",
          "name": "_stake_amount",
          "type": "uint256"
        },
        {
          "internalType": "uint256",
          "name": "_payout_coefficient",
          "type": "uint256"
        },
        {
          "internalType": "string",
          "name": "_streak_days",
          "type": "string"
        }
      ],
      "name": "tokenGenesis",
      "outputs": [],
      "stateMutability": "payable",
      "type": "function",
      "payable": true
    },
    {
      "inputs": [
        {
          "internalType": "address",
          "name": "newOwner",
          "type": "address"
        }
      ],
      "name": "transferOwnership",
      "outputs": [],
      "stateMutability": "nonpayable",
      "type": "function"
    },
    {
      "inputs": [
        {
          "internalType": "uint256",
          "name": "",
          "type": "uint256"
        }
      ],
      "name": "uri",
      "outputs": [
        {
          "internalType": "string",
          "name": "",
          "type": "string"
        }
      ],
      "stateMutability": "view",
      "type": "function",
      "constant": true
    }
  ],
  "bytecode": "0x608060405233600760006101000a81548173ffffffffffffffffffffffffffffffffffffffff021916908373ffffffffffffffffffffffffffffffffffffffff1602179055503480156200005257600080fd5b506040518060600160405280603d8152602001620043c8603d91396200007e81620000a560201b60201c565b506200009f62000093620000c160201b60201c565b620000c960201b60201c565b620002a4565b8060029080519060200190620000bd9291906200018f565b5050565b600033905090565b6000600360009054906101000a900473ffffffffffffffffffffffffffffffffffffffff16905081600360006101000a81548173ffffffffffffffffffffffffffffffffffffffff021916908373ffffffffffffffffffffffffffffffffffffffff1602179055508173ffffffffffffffffffffffffffffffffffffffff168173ffffffffffffffffffffffffffffffffffffffff167f8be0079c531659141344cd1fd0a4f28419497f9722a3daafe3b4186f6b6457e060405160405180910390a35050565b8280546200019d906200023f565b90600052602060002090601f016020900481019282620001c157600085556200020d565b82601f10620001dc57805160ff19168380011785556200020d565b828001600101855582156200020d579182015b828111156200020c578251825591602001919060010190620001ef565b5b5090506200021c919062000220565b5090565b5b808211156200023b57600081600090555060010162000221565b5090565b600060028204905060018216806200025857607f821691505b602082108114156200026f576200026e62000275565b5b50919050565b7f4e487b7100000000000000000000000000000000000000000000000000000000600052602260045260246000fd5b61411480620002b46000396000f3fe6080604052600436106101345760003560e01c806376cdf224116100ab578063caae5f941161006f578063caae5f9414610480578063e737fc31146104ab578063e985e9c5146104d6578063f242432a14610513578063f2fde38b1461053c578063f98503251461056557610134565b806376cdf224146103915780638da5cb5b146103ad5780638f1d3776146103d8578063a22cb4651461041a578063ab2f97bc1461044357610134565b80632eb2c2d6116100fd5780632eb2c2d61461026f57806337015ff8146102985780634b8ae8cd146102c35780634e1273f414610300578063667e59711461033d578063715018a61461037a57610134565b8062fdd58e1461013957806301ffc9a7146101765780630e89341c146101b357806314c37109146101f05780631f7f232014610232575b600080fd5b34801561014557600080fd5b50610160600480360381019061015b9190612c39565b6105a2565b60405161016d9190613abb565b60405180910390f35b34801561018257600080fd5b5061019d60048036038101906101989190612ce1565b61066b565b6040516101aa9190613868565b60405180910390f35b3480156101bf57600080fd5b506101da60048036038101906101d59190612e31565b61074d565b6040516101e79190613883565b60405180910390f35b3480156101fc57600080fd5b5061021760048036038101906102129190612e31565b6107e1565b60405161022996959493929190613653565b60405180910390f35b34801561023e57600080fd5b5061025960048036038101906102549190612e31565b610a5d565b6040516102669190613638565b60405180910390f35b34801561027b57600080fd5b5061029660048036038101906102919190612aaf565b610a9c565b005b3480156102a457600080fd5b506102ad610b3d565b6040516102ba9190613638565b60405180910390f35b3480156102cf57600080fd5b506102ea60048036038101906102e59190612e31565b610b63565b6040516102f79190613868565b60405180910390f35b34801561030c57600080fd5b5061032760048036038101906103229190612c75565b610b83565b604051610334919061380f565b60405180910390f35b34801561034957600080fd5b50610364600480360381019061035f9190612a4a565b610d34565b6040516103719190613abb565b60405180910390f35b34801561038657600080fd5b5061038f610d4c565b005b6103ab60048036038101906103a69190612d33565b610dd4565b005b3480156103b957600080fd5b506103c261125e565b6040516103cf919061361d565b60405180910390f35b3480156103e457600080fd5b506103ff60048036038101906103fa9190612e31565b611288565b60405161041196959493929190613653565b60405180910390f35b34801561042657600080fd5b50610441600480360381019061043c9190612bfd565b611514565b005b34801561044f57600080fd5b5061046a60048036038101906104659190612e5a565b611695565b6040516104779190613abb565b60405180910390f35b34801561048c57600080fd5b506104956116ba565b6040516104a29190613638565b60405180910390f35b3480156104b757600080fd5b506104c06116e0565b6040516104cd9190613abb565b60405180910390f35b3480156104e257600080fd5b506104fd60048036038101906104f89190612a73565b6116ed565b60405161050a9190613868565b60405180910390f35b34801561051f57600080fd5b5061053a60048036038101906105359190612b6e565b611781565b005b34801561054857600080fd5b50610563600480360381019061055e9190612a4a565b611822565b005b34801561057157600080fd5b5061058c60048036038101906105879190612e5a565b61191a565b6040516105999190613abb565b60405180910390f35b60008073ffffffffffffffffffffffffffffffffffffffff168373ffffffffffffffffffffffffffffffffffffffff161415610613576040517f08c379a000000000000000000000000000000000000000000000000000000000815260040161060a9061395b565b60405180910390fd5b60008083815260200190815260200160002060008473ffffffffffffffffffffffffffffffffffffffff1673ffffffffffffffffffffffffffffffffffffffff16815260200190815260200160002054905092915050565b60007fd9b67a26000000000000000000000000000000000000000000000000000000007bffffffffffffffffffffffffffffffffffffffffffffffffffffffff1916827bffffffffffffffffffffffffffffffffffffffffffffffffffffffff1916148061073657507f0e89341c000000000000000000000000000000000000000000000000000000007bffffffffffffffffffffffffffffffffffffffffffffffffffffffff1916827bffffffffffffffffffffffffffffffffffffffffffffffffffffffff1916145b8061074657506107458261193f565b5b9050919050565b60606002805461075c90613e46565b80601f016020809104026020016040519081016040528092919081815260200182805461078890613e46565b80156107d55780601f106107aa576101008083540402835291602001916107d5565b820191906000526020600020905b8154815290600101906020018083116107b857829003601f168201915b50505050509050919050565b60066020528060005260406000206000915090508060000160009054906101000a900473ffffffffffffffffffffffffffffffffffffffff169080600101805461082a90613e46565b80601f016020809104026020016040519081016040528092919081815260200182805461085690613e46565b80156108a35780601f10610878576101008083540402835291602001916108a3565b820191906000526020600020905b81548152906001019060200180831161088657829003601f168201915b5050505050908060020180546108b890613e46565b80601f01602080910402602001604051908101604052809291908181526020018280546108e490613e46565b80156109315780601f1061090657610100808354040283529160200191610931565b820191906000526020600020905b81548152906001019060200180831161091457829003601f168201915b50505050509080600301805461094690613e46565b80601f016020809104026020016040519081016040528092919081815260200182805461097290613e46565b80156109bf5780601f10610994576101008083540402835291602001916109bf565b820191906000526020600020905b8154815290600101906020018083116109a257829003601f168201915b5050505050908060040154908060050180546109da90613e46565b80601f0160208091040260200160405190810160405280929190818152602001828054610a0690613e46565b8015610a535780601f10610a2857610100808354040283529160200191610a53565b820191906000526020600020905b815481529060010190602001808311610a3657829003601f168201915b5050505050905086565b600a8181548110610a6d57600080fd5b906000526020600020016000915054906101000a900473ffffffffffffffffffffffffffffffffffffffff1681565b610aa46119a9565b73ffffffffffffffffffffffffffffffffffffffff168573ffffffffffffffffffffffffffffffffffffffff161480610aea5750610ae985610ae46119a9565b6116ed565b5b610b29576040517f08c379a0000000000000000000000000000000000000000000000000000000008152600401610b20906139db565b60405180910390fd5b610b3685858585856119b1565b5050505050565b600860009054906101000a900473ffffffffffffffffffffffffffffffffffffffff1681565b60046020528060005260406000206000915054906101000a900460ff1681565b60608151835114610bc9576040517f08c379a0000000000000000000000000000000000000000000000000000000008152600401610bc090613a5b565b60405180910390fd5b6000835167ffffffffffffffff811115610c0c577f4e487b7100000000000000000000000000000000000000000000000000000000600052604160045260246000fd5b604051908082528060200260200182016040528015610c3a5781602001602082028036833780820191505090505b50905060005b8451811015610d2957610cd3858281518110610c85577f4e487b7100000000000000000000000000000000000000000000000000000000600052603260045260246000fd5b6020026020010151858381518110610cc6577f4e487b7100000000000000000000000000000000000000000000000000000000600052603260045260246000fd5b60200260200101516105a2565b828281518110610d0c577f4e487b7100000000000000000000000000000000000000000000000000000000600052603260045260246000fd5b60200260200101818152505080610d2290613e78565b9050610c40565b508091505092915050565b60056020528060005260406000206000915090505481565b610d546119a9565b73ffffffffffffffffffffffffffffffffffffffff16610d7261125e565b73ffffffffffffffffffffffffffffffffffffffff1614610dc8576040517f08c379a0000000000000000000000000000000000000000000000000000000008152600401610dbf90613a1b565b60405180910390fd5b610dd26000611d11565b565b600760009054906101000a900473ffffffffffffffffffffffffffffffffffffffff1673ffffffffffffffffffffffffffffffffffffffff166108fc349081150290604051600060405180830381858888f19350505050158015610e3c573d6000803e3d6000fd5b506000662386f26fc100009050600088604051602001610e5c9190613606565b6040516020818303038152906040528051906020012060001c905060008282610e859190613ec1565b90506004600082815260200190815260200160002060009054906101000a900460ff1615610ee8576040517f08c379a0000000000000000000000000000000000000000000000000000000008152600401610edf9061393b565b60405180910390fd5b60016004600083815260200190815260200160002060006101000a81548160ff021916908315150217905550610f1c612670565b33816000019073ffffffffffffffffffffffffffffffffffffffff16908173ffffffffffffffffffffffffffffffffffffffff16815250508a81604001819052508981606001819052508181608001818152505060008a83604051602001610f859291906138a5565b604051602081830303815290604052905080826020018190525060008a8a8a8a60018b604051602001610fbd96959493929190613ad6565b6040516020818303038152906040529050808360a00181905250600b83908060018154018082558091505060019003906000526020600020906006020160009091909190915060008201518160000160006101000a81548173ffffffffffffffffffffffffffffffffffffffff021916908373ffffffffffffffffffffffffffffffffffffffff16021790555060208201518160010190805190602001906110669291906126bc565b506040820151816002019080519060200190611083929190612742565b5060608201518160030190805190602001906110a0929190612742565b506080820151816004015560a08201518160050190805190602001906110c79291906126bc565b50505083600560003373ffffffffffffffffffffffffffffffffffffffff1673ffffffffffffffffffffffffffffffffffffffff16815260200190815260200160002081905550826006600086815260200190815260200160002060008201518160000160006101000a81548173ffffffffffffffffffffffffffffffffffffffff021916908373ffffffffffffffffffffffffffffffffffffffff16021790555060208201518160010190805190602001906111859291906126bc565b5060408201518160020190805190602001906111a2929190612742565b5060608201518160030190805190602001906111bf929190612742565b506080820151816004015560a08201518160050190805190602001906111e69291906126bc565b509050506111f633858d84611dd7565b7f58b5539c944f05832e98e49183c3c72d858389f7cdc4d612d4bbab60f972e3f2836000015184602001518560400151866060015187608001518860a00151604051611247969594939291906136d0565b60405180910390a150505050505050505050505050565b6000600360009054906101000a900473ffffffffffffffffffffffffffffffffffffffff16905090565b600b818154811061129857600080fd5b90600052602060002090600602016000915090508060000160009054906101000a900473ffffffffffffffffffffffffffffffffffffffff16908060010180546112e190613e46565b80601f016020809104026020016040519081016040528092919081815260200182805461130d90613e46565b801561135a5780601f1061132f5761010080835404028352916020019161135a565b820191906000526020600020905b81548152906001019060200180831161133d57829003601f168201915b50505050509080600201805461136f90613e46565b80601f016020809104026020016040519081016040528092919081815260200182805461139b90613e46565b80156113e85780601f106113bd576101008083540402835291602001916113e8565b820191906000526020600020905b8154815290600101906020018083116113cb57829003601f168201915b5050505050908060030180546113fd90613e46565b80601f016020809104026020016040519081016040528092919081815260200182805461142990613e46565b80156114765780601f1061144b57610100808354040283529160200191611476565b820191906000526020600020905b81548152906001019060200180831161145957829003601f168201915b50505050509080600401549080600501805461149190613e46565b80601f01602080910402602001604051908101604052809291908181526020018280546114bd90613e46565b801561150a5780601f106114df5761010080835404028352916020019161150a565b820191906000526020600020905b8154815290600101906020018083116114ed57829003601f168201915b5050505050905086565b8173ffffffffffffffffffffffffffffffffffffffff166115336119a9565b73ffffffffffffffffffffffffffffffffffffffff16141561158a576040517f08c379a000000000000000000000000000000000000000000000000000000000815260040161158190613a3b565b60405180910390fd5b80600160006115976119a9565b73ffffffffffffffffffffffffffffffffffffffff1673ffffffffffffffffffffffffffffffffffffffff16815260200190815260200160002060008473ffffffffffffffffffffffffffffffffffffffff1673ffffffffffffffffffffffffffffffffffffffff16815260200190815260200160002060006101000a81548160ff0219169083151502179055508173ffffffffffffffffffffffffffffffffffffffff166116446119a9565b73ffffffffffffffffffffffffffffffffffffffff167f17307eab39ab6107e8899845ad3d59bd9653f200f220920489ca2b5937696c31836040516116899190613868565b60405180910390a35050565b600c602052816000526040600020602052806000526040600020600091509150505481565b600760009054906101000a900473ffffffffffffffffffffffffffffffffffffffff1681565b6000600b80549050905090565b6000600160008473ffffffffffffffffffffffffffffffffffffffff1673ffffffffffffffffffffffffffffffffffffffff16815260200190815260200160002060008373ffffffffffffffffffffffffffffffffffffffff1673ffffffffffffffffffffffffffffffffffffffff16815260200190815260200160002060009054906101000a900460ff16905092915050565b6117896119a9565b73ffffffffffffffffffffffffffffffffffffffff168573ffffffffffffffffffffffffffffffffffffffff1614806117cf57506117ce856117c96119a9565b6116ed565b5b61180e576040517f08c379a00000000000000000000000000000000000000000000000000000000081526004016118059061399b565b60405180910390fd5b61181b8585858585611f6d565b5050505050565b61182a6119a9565b73ffffffffffffffffffffffffffffffffffffffff1661184861125e565b73ffffffffffffffffffffffffffffffffffffffff161461189e576040517f08c379a000000000000000000000000000000000000000000000000000000000815260040161189590613a1b565b60405180910390fd5b600073ffffffffffffffffffffffffffffffffffffffff168173ffffffffffffffffffffffffffffffffffffffff16141561190e576040517f08c379a00000000000000000000000000000000000000000000000000000000081526004016119059061397b565b60405180910390fd5b61191781611d11565b50565b6009602052816000526040600020602052806000526040600020600091509150505481565b60007f01ffc9a7000000000000000000000000000000000000000000000000000000007bffffffffffffffffffffffffffffffffffffffffffffffffffffffff1916827bffffffffffffffffffffffffffffffffffffffffffffffffffffffff1916149050919050565b600033905090565b81518351146119f5576040517f08c379a00000000000000000000000000000000000000000000000000000000081526004016119ec90613a7b565b60405180910390fd5b600073ffffffffffffffffffffffffffffffffffffffff168473ffffffffffffffffffffffffffffffffffffffff161415611a65576040517f08c379a0000000000000000000000000000000000000000000000000000000008152600401611a5c906139bb565b60405180910390fd5b6000611a6f6119a9565b9050611a7f8187878787876121ef565b60005b8451811015611c7c576000858281518110611ac6577f4e487b7100000000000000000000000000000000000000000000000000000000600052603260045260246000fd5b602002602001015190506000858381518110611b0b577f4e487b7100000000000000000000000000000000000000000000000000000000600052603260045260246000fd5b60200260200101519050600080600084815260200190815260200160002060008b73ffffffffffffffffffffffffffffffffffffffff1673ffffffffffffffffffffffffffffffffffffffff16815260200190815260200160002054905081811015611bac576040517f08c379a0000000000000000000000000000000000000000000000000000000008152600401611ba3906139fb565b60405180910390fd5b81810360008085815260200190815260200160002060008c73ffffffffffffffffffffffffffffffffffffffff1673ffffffffffffffffffffffffffffffffffffffff168152602001908152602001600020819055508160008085815260200190815260200160002060008b73ffffffffffffffffffffffffffffffffffffffff1673ffffffffffffffffffffffffffffffffffffffff1681526020019081526020016000206000828254611c619190613cd3565b9250508190555050505080611c7590613e78565b9050611a82565b508473ffffffffffffffffffffffffffffffffffffffff168673ffffffffffffffffffffffffffffffffffffffff168273ffffffffffffffffffffffffffffffffffffffff167f4a39dc06d4c0dbc64b70af90fd698a233a518aa5d07e595d983b8c0526c8f7fb8787604051611cf3929190613831565b60405180910390a4611d098187878787876121f7565b505050505050565b6000600360009054906101000a900473ffffffffffffffffffffffffffffffffffffffff16905081600360006101000a81548173ffffffffffffffffffffffffffffffffffffffff021916908373ffffffffffffffffffffffffffffffffffffffff1602179055508173ffffffffffffffffffffffffffffffffffffffff168173ffffffffffffffffffffffffffffffffffffffff167f8be0079c531659141344cd1fd0a4f28419497f9722a3daafe3b4186f6b6457e060405160405180910390a35050565b600073ffffffffffffffffffffffffffffffffffffffff168473ffffffffffffffffffffffffffffffffffffffff161415611e47576040517f08c379a0000000000000000000000000000000000000000000000000000000008152600401611e3e90613a9b565b60405180910390fd5b6000611e516119a9565b9050611e7281600087611e63886123c7565b611e6c886123c7565b876121ef565b8260008086815260200190815260200160002060008773ffffffffffffffffffffffffffffffffffffffff1673ffffffffffffffffffffffffffffffffffffffff1681526020019081526020016000206000828254611ed19190613cd3565b925050819055508473ffffffffffffffffffffffffffffffffffffffff16600073ffffffffffffffffffffffffffffffffffffffff168273ffffffffffffffffffffffffffffffffffffffff167fc3d58168c5ae7397731d063d5bbf3d657854427343f4c083240f7aacaa2d0f628787604051611f4f929190613b45565b60405180910390a4611f668160008787878761248d565b5050505050565b600073ffffffffffffffffffffffffffffffffffffffff168473ffffffffffffffffffffffffffffffffffffffff161415611fdd576040517f08c379a0000000000000000000000000000000000000000000000000000000008152600401611fd4906139bb565b60405180910390fd5b6000611fe76119a9565b9050612007818787611ff8886123c7565b612001886123c7565b876121ef565b600080600086815260200190815260200160002060008873ffffffffffffffffffffffffffffffffffffffff1673ffffffffffffffffffffffffffffffffffffffff1681526020019081526020016000205490508381101561209e576040517f08c379a0000000000000000000000000000000000000000000000000000000008152600401612095906139fb565b60405180910390fd5b83810360008087815260200190815260200160002060008973ffffffffffffffffffffffffffffffffffffffff1673ffffffffffffffffffffffffffffffffffffffff168152602001908152602001600020819055508360008087815260200190815260200160002060008873ffffffffffffffffffffffffffffffffffffffff1673ffffffffffffffffffffffffffffffffffffffff16815260200190815260200160002060008282546121539190613cd3565b925050819055508573ffffffffffffffffffffffffffffffffffffffff168773ffffffffffffffffffffffffffffffffffffffff168373ffffffffffffffffffffffffffffffffffffffff167fc3d58168c5ae7397731d063d5bbf3d657854427343f4c083240f7aacaa2d0f6288886040516121d0929190613b45565b60405180910390a46121e682888888888861248d565b50505050505050565b505050505050565b6122168473ffffffffffffffffffffffffffffffffffffffff1661265d565b156123bf578373ffffffffffffffffffffffffffffffffffffffff1663bc197c8187878686866040518663ffffffff1660e01b815260040161225c95949392919061374d565b602060405180830381600087803b15801561227657600080fd5b505af19250505080156122a757506040513d601f19601f820116820180604052508101906122a49190612d0a565b60015b612336576122b3613fcc565b806122be57506122fb565b806040517f08c379a00000000000000000000000000000000000000000000000000000000081526004016122f29190613883565b60405180910390fd5b6040517f08c379a000000000000000000000000000000000000000000000000000000000815260040161232d906138fb565b60405180910390fd5b63bc197c8160e01b7bffffffffffffffffffffffffffffffffffffffffffffffffffffffff1916817bffffffffffffffffffffffffffffffffffffffffffffffffffffffff1916146123bd576040517f08c379a00000000000000000000000000000000000000000000000000000000081526004016123b49061391b565b60405180910390fd5b505b505050505050565b60606000600167ffffffffffffffff81111561240c577f4e487b7100000000000000000000000000000000000000000000000000000000600052604160045260246000fd5b60405190808252806020026020018201604052801561243a5781602001602082028036833780820191505090505b5090508281600081518110612478577f4e487b7100000000000000000000000000000000000000000000000000000000600052603260045260246000fd5b60200260200101818152505080915050919050565b6124ac8473ffffffffffffffffffffffffffffffffffffffff1661265d565b15612655578373ffffffffffffffffffffffffffffffffffffffff1663f23a6e6187878686866040518663ffffffff1660e01b81526004016124f29594939291906137b5565b602060405180830381600087803b15801561250c57600080fd5b505af192505050801561253d57506040513d601f19601f8201168201806040525081019061253a9190612d0a565b60015b6125cc57612549613fcc565b806125545750612591565b806040517f08c379a00000000000000000000000000000000000000000000000000000000081526004016125889190613883565b60405180910390fd5b6040517f08c379a00000000000000000000000000000000000000000000000000000000081526004016125c3906138fb565b60405180910390fd5b63f23a6e6160e01b7bffffffffffffffffffffffffffffffffffffffffffffffffffffffff1916817bffffffffffffffffffffffffffffffffffffffffffffffffffffffff191614612653576040517f08c379a000000000000000000000000000000000000000000000000000000000815260040161264a9061391b565b60405180910390fd5b505b505050505050565b600080823b905060008111915050919050565b6040518060c00160405280600073ffffffffffffffffffffffffffffffffffffffff16815260200160608152602001606081526020016060815260200160008152602001606081525090565b8280546126c890613e46565b90600052602060002090601f0160209004810192826126ea5760008555612731565b82601f1061270357805160ff1916838001178555612731565b82800160010185558215612731579182015b82811115612730578251825591602001919060010190612715565b5b50905061273e91906127c8565b5090565b82805461274e90613e46565b90600052602060002090601f01602090048101928261277057600085556127b7565b82601f1061278957805160ff19168380011785556127b7565b828001600101855582156127b7579182015b828111156127b657825182559160200191906001019061279b565b5b5090506127c491906127c8565b5090565b5b808211156127e15760008160009055506001016127c9565b5090565b60006127f86127f384613b9f565b613b6e565b9050808382526020820190508285602086028201111561281757600080fd5b60005b85811015612847578161282d8882612939565b84526020840193506020830192505060018101905061281a565b5050509392505050565b600061286461285f84613bcb565b613b6e565b9050808382526020820190508285602086028201111561288357600080fd5b60005b858110156128b357816128998882612a35565b845260208401935060208301925050600181019050612886565b5050509392505050565b60006128d06128cb84613bf7565b613b6e565b9050828152602081018484840111156128e857600080fd5b6128f3848285613e04565b509392505050565b600061290e61290984613c27565b613b6e565b90508281526020810184848401111561292657600080fd5b612931848285613e04565b509392505050565b60008135905061294881614082565b92915050565b600082601f83011261295f57600080fd5b813561296f8482602086016127e5565b91505092915050565b600082601f83011261298957600080fd5b8135612999848260208601612851565b91505092915050565b6000813590506129b181614099565b92915050565b6000813590506129c6816140b0565b92915050565b6000815190506129db816140b0565b92915050565b600082601f8301126129f257600080fd5b8135612a028482602086016128bd565b91505092915050565b600082601f830112612a1c57600080fd5b8135612a2c8482602086016128fb565b91505092915050565b600081359050612a44816140c7565b92915050565b600060208284031215612a5c57600080fd5b6000612a6a84828501612939565b91505092915050565b60008060408385031215612a8657600080fd5b6000612a9485828601612939565b9250506020612aa585828601612939565b9150509250929050565b600080600080600060a08688031215612ac757600080fd5b6000612ad588828901612939565b9550506020612ae688828901612939565b945050604086013567ffffffffffffffff811115612b0357600080fd5b612b0f88828901612978565b935050606086013567ffffffffffffffff811115612b2c57600080fd5b612b3888828901612978565b925050608086013567ffffffffffffffff811115612b5557600080fd5b612b61888289016129e1565b9150509295509295909350565b600080600080600060a08688031215612b8657600080fd5b6000612b9488828901612939565b9550506020612ba588828901612939565b9450506040612bb688828901612a35565b9350506060612bc788828901612a35565b925050608086013567ffffffffffffffff811115612be457600080fd5b612bf0888289016129e1565b9150509295509295909350565b60008060408385031215612c1057600080fd5b6000612c1e85828601612939565b9250506020612c2f858286016129a2565b9150509250929050565b60008060408385031215612c4c57600080fd5b6000612c5a85828601612939565b9250506020612c6b85828601612a35565b9150509250929050565b60008060408385031215612c8857600080fd5b600083013567ffffffffffffffff811115612ca257600080fd5b612cae8582860161294e565b925050602083013567ffffffffffffffff811115612ccb57600080fd5b612cd785828601612978565b9150509250929050565b600060208284031215612cf357600080fd5b6000612d01848285016129b7565b91505092915050565b600060208284031215612d1c57600080fd5b6000612d2a848285016129cc565b91505092915050565b600080600080600080600060e0888a031215612d4e57600080fd5b600088013567ffffffffffffffff811115612d6857600080fd5b612d748a828b01612a0b565b975050602088013567ffffffffffffffff811115612d9157600080fd5b612d9d8a828b01612a0b565b9650506040612dae8a828b01612a35565b955050606088013567ffffffffffffffff811115612dcb57600080fd5b612dd78a828b01612a0b565b9450506080612de88a828b01612a35565b93505060a0612df98a828b01612a35565b92505060c088013567ffffffffffffffff811115612e1657600080fd5b612e228a828b01612a0b565b91505092959891949750929550565b600060208284031215612e4357600080fd5b6000612e5184828501612a35565b91505092915050565b60008060408385031215612e6d57600080fd5b6000612e7b85828601612a35565b9250506020612e8c85828601612939565b9150509250929050565b6000612ea283836135e8565b60208301905092915050565b612eb781613dbc565b82525050565b612ec681613d3b565b82525050565b612ed581613d29565b82525050565b6000612ee682613c67565b612ef08185613c95565b9350612efb83613c57565b8060005b83811015612f2c578151612f138882612e96565b9750612f1e83613c88565b925050600181019050612eff565b5085935050505092915050565b612f4281613d4d565b82525050565b6000612f5382613c72565b612f5d8185613ca6565b9350612f6d818560208601613e13565b612f7681613fae565b840191505092915050565b612f8a81613dce565b82525050565b6000612f9b82613c7d565b612fa58185613cb7565b9350612fb5818560208601613e13565b612fbe81613fae565b840191505092915050565b6000612fd482613c7d565b612fde8185613cc8565b9350612fee818560208601613e13565b80840191505092915050565b6000613007603483613cb7565b91507f455243313135353a207472616e7366657220746f206e6f6e204552433131353560008301527f526563656976657220696d706c656d656e7465720000000000000000000000006020830152604082019050919050565b600061306d602883613cb7565b91507f455243313135353a204552433131353552656365697665722072656a6563746560008301527f6420746f6b656e730000000000000000000000000000000000000000000000006020830152604082019050919050565b60006130d3602183613cb7565b91507f4572723a205069636b206120556e69717565204368616c6c656e6765204e616d60008301527f65000000000000000000000000000000000000000000000000000000000000006020830152604082019050919050565b6000613139602b83613cb7565b91507f455243313135353a2062616c616e636520717565727920666f7220746865207a60008301527f65726f20616464726573730000000000000000000000000000000000000000006020830152604082019050919050565b600061319f602683613cb7565b91507f4f776e61626c653a206e6577206f776e657220697320746865207a65726f206160008301527f64647265737300000000000000000000000000000000000000000000000000006020830152604082019050919050565b6000613205602983613cb7565b91507f455243313135353a2063616c6c6572206973206e6f74206f776e6572206e6f7260008301527f20617070726f76656400000000000000000000000000000000000000000000006020830152604082019050919050565b600061326b602583613cb7565b91507f455243313135353a207472616e7366657220746f20746865207a65726f20616460008301527f64726573730000000000000000000000000000000000000000000000000000006020830152604082019050919050565b60006132d1603283613cb7565b91507f455243313135353a207472616e736665722063616c6c6572206973206e6f742060008301527f6f776e6572206e6f7220617070726f76656400000000000000000000000000006020830152604082019050919050565b6000613337602a83613cb7565b91507f455243313135353a20696e73756666696369656e742062616c616e636520666f60008301527f72207472616e73666572000000000000000000000000000000000000000000006020830152604082019050919050565b600061339d600583613cb7565b91507f2e6a736f6e0000000000000000000000000000000000000000000000000000006000830152602082019050919050565b60006133dd602083613cb7565b91507f4f776e61626c653a2063616c6c6572206973206e6f7420746865206f776e65726000830152602082019050919050565b600061341d602983613cb7565b91507f455243313135353a2073657474696e6720617070726f76616c2073746174757360008301527f20666f722073656c6600000000000000000000000000000000000000000000006020830152604082019050919050565b6000613483602983613cb7565b91507f455243313135353a206163636f756e747320616e6420696473206c656e67746860008301527f206d69736d6174636800000000000000000000000000000000000000000000006020830152604082019050919050565b60006134e9602883613cb7565b91507f455243313135353a2069647320616e6420616d6f756e7473206c656e6774682060008301527f6d69736d617463680000000000000000000000000000000000000000000000006020830152604082019050919050565b600061354f602183613cb7565b91507f455243313135353a206d696e7420746f20746865207a65726f2061646472657360008301527f73000000000000000000000000000000000000000000000000000000000000006020830152604082019050919050565b60006135b5600183613cb7565b91507f2f000000000000000000000000000000000000000000000000000000000000006000830152602082019050919050565b6135f181613da5565b82525050565b61360081613da5565b82525050565b60006136128284612fc9565b915081905092915050565b60006020820190506136326000830184612ecc565b92915050565b600060208201905061364d6000830184612ebd565b92915050565b600060c0820190506136686000830189612ebd565b818103602083015261367a8188612f48565b9050818103604083015261368e8187612f90565b905081810360608301526136a28186612f90565b90506136b160808301856135f7565b81810360a08301526136c38184612f48565b9050979650505050505050565b600060c0820190506136e56000830189612eae565b81810360208301526136f78188612f48565b9050818103604083015261370b8187612f90565b9050818103606083015261371f8186612f90565b905061372e60808301856135f7565b81810360a08301526137408184612f48565b9050979650505050505050565b600060a0820190506137626000830188612ecc565b61376f6020830187612ecc565b81810360408301526137818186612edb565b905081810360608301526137958185612edb565b905081810360808301526137a98184612f48565b90509695505050505050565b600060a0820190506137ca6000830188612ecc565b6137d76020830187612ecc565b6137e460408301866135f7565b6137f160608301856135f7565b81810360808301526138038184612f48565b90509695505050505050565b600060208201905081810360008301526138298184612edb565b905092915050565b6000604082019050818103600083015261384b8185612edb565b9050818103602083015261385f8184612edb565b90509392505050565b600060208201905061387d6000830184612f39565b92915050565b6000602082019050818103600083015261389d8184612f90565b905092915050565b600060808201905081810360008301526138bf8185612f90565b905081810360208301526138d2816135a8565b90506138e160408301846135f7565b81810360608301526138f281613390565b90509392505050565b6000602082019050818103600083015261391481612ffa565b9050919050565b6000602082019050818103600083015261393481613060565b9050919050565b60006020820190508181036000830152613954816130c6565b9050919050565b600060208201905081810360008301526139748161312c565b9050919050565b6000602082019050818103600083015261399481613192565b9050919050565b600060208201905081810360008301526139b4816131f8565b9050919050565b600060208201905081810360008301526139d48161325e565b9050919050565b600060208201905081810360008301526139f4816132c4565b9050919050565b60006020820190508181036000830152613a148161332a565b9050919050565b60006020820190508181036000830152613a34816133d0565b9050919050565b60006020820190508181036000830152613a5481613410565b9050919050565b60006020820190508181036000830152613a7481613476565b9050919050565b60006020820190508181036000830152613a94816134dc565b9050919050565b60006020820190508181036000830152613ab481613542565b9050919050565b6000602082019050613ad060008301846135f7565b92915050565b600060c082019050613aeb60008301896135f7565b8181036020830152613afd8188612f90565b9050613b0c60408301876135f7565b613b1960608301866135f7565b613b266080830185612f81565b81810360a0830152613b388184612f90565b9050979650505050505050565b6000604082019050613b5a60008301856135f7565b613b6760208301846135f7565b9392505050565b6000604051905081810181811067ffffffffffffffff82111715613b9557613b94613f7f565b5b8060405250919050565b600067ffffffffffffffff821115613bba57613bb9613f7f565b5b602082029050602081019050919050565b600067ffffffffffffffff821115613be657613be5613f7f565b5b602082029050602081019050919050565b600067ffffffffffffffff821115613c1257613c11613f7f565b5b601f19601f8301169050602081019050919050565b600067ffffffffffffffff821115613c4257613c41613f7f565b5b601f19601f8301169050602081019050919050565b6000819050602082019050919050565b600081519050919050565b600081519050919050565b600081519050919050565b6000602082019050919050565b600082825260208201905092915050565b600082825260208201905092915050565b600082825260208201905092915050565b600081905092915050565b6000613cde82613da5565b9150613ce983613da5565b9250827fffffffffffffffffffffffffffffffffffffffffffffffffffffffffffffffff03821115613d1e57613d1d613ef2565b5b828201905092915050565b6000613d3482613d85565b9050919050565b6000613d4682613d85565b9050919050565b60008115159050919050565b60007fffffffff0000000000000000000000000000000000000000000000000000000082169050919050565b600073ffffffffffffffffffffffffffffffffffffffff82169050919050565b6000819050919050565b600060ff82169050919050565b6000613dc782613de0565b9050919050565b6000613dd982613daf565b9050919050565b6000613deb82613df2565b9050919050565b6000613dfd82613d85565b9050919050565b82818337600083830152505050565b60005b83811015613e31578082015181840152602081019050613e16565b83811115613e40576000848401525b50505050565b60006002820490506001821680613e5e57607f821691505b60208210811415613e7257613e71613f50565b5b50919050565b6000613e8382613da5565b91507fffffffffffffffffffffffffffffffffffffffffffffffffffffffffffffffff821415613eb657613eb5613ef2565b5b600182019050919050565b6000613ecc82613da5565b9150613ed783613da5565b925082613ee757613ee6613f21565b5b828206905092915050565b7f4e487b7100000000000000000000000000000000000000000000000000000000600052601160045260246000fd5b7f4e487b7100000000000000000000000000000000000000000000000000000000600052601260045260246000fd5b7f4e487b7100000000000000000000000000000000000000000000000000000000600052602260045260246000fd5b7f4e487b7100000000000000000000000000000000000000000000000000000000600052604160045260246000fd5b6000601f19601f8301169050919050565b60008160e01c9050919050565b600060443d1015613fdc5761407f565b60046000803e613fed600051613fbf565b6308c379a08114613ffe575061407f565b60405160043d036004823e80513d602482011167ffffffffffffffff8211171561402a5750505061407f565b808201805167ffffffffffffffff81111561404957505050505061407f565b8060208301013d85018111156140645750505050505061407f565b61406d82613fae565b60208401016040528296505050505050505b90565b61408b81613d29565b811461409657600080fd5b50565b6140a281613d4d565b81146140ad57600080fd5b50565b6140b981613d59565b81146140c457600080fd5b50565b6140d081613da5565b81146140db57600080fd5b5056fea2646970667358221220538bae47252b331488ee86114f37d0ea670a3987240a5957a883fbb4353aa85d64736f6c63430008000033687474703a2f2f6c6f63616c686f73743a383838382f7075626c69632f23212f4368616c6c656e6765546f6b656e43686573742f7b69647d2e6a736f6e",
  "immutableReferences": {},
  "source": "// SPDX-License-Identifier: MIT\npragma solidity >= 0.8.0;\nimport \"./ChallengeToken.sol\";\n\ncontract CT_X is ChallengeToken {\n\n  mapping(uint256 => mapping(address => uint256)) public map_player_to_payout;\n\n  constructor()\n   ChallengeToken()\n    {}\n\n\n}\n",
  "sourcePath": "/Volumes/TerryBytes2/2021_Kode_Tut/BabelBet/contracts/CT_X.sol",
  "compiler": {
    "name": "solc",
    "version": "0.8.0+commit.c7dfd78e.Emscripten.clang"
  },
  "schemaVersion": "3.4.3",
  "updatedAt": "2021-11-13T00:16:18.008Z",
  "networkType": "ethereum",
  "devdoc": {
    "kind": "dev",
    "methods": {
      "balanceOf(address,uint256)": {
        "details": "See {IERC1155-balanceOf}. Requirements: - `account` cannot be the zero address."
      },
      "balanceOfBatch(address[],uint256[])": {
        "details": "See {IERC1155-balanceOfBatch}. Requirements: - `accounts` and `ids` must have the same length."
      },
      "isApprovedForAll(address,address)": {
        "details": "See {IERC1155-isApprovedForAll}."
      },
      "owner()": {
        "details": "Returns the address of the current owner."
      },
      "renounceOwnership()": {
        "details": "Leaves the contract without owner. It will not be possible to call `onlyOwner` functions anymore. Can only be called by the current owner. NOTE: Renouncing ownership will leave the contract without an owner, thereby removing any functionality that is only available to the owner."
      },
      "safeBatchTransferFrom(address,address,uint256[],uint256[],bytes)": {
        "details": "See {IERC1155-safeBatchTransferFrom}."
      },
      "safeTransferFrom(address,address,uint256,uint256,bytes)": {
        "details": "See {IERC1155-safeTransferFrom}."
      },
      "setApprovalForAll(address,bool)": {
        "details": "See {IERC1155-setApprovalForAll}."
      },
      "supportsInterface(bytes4)": {
        "details": "See {IERC165-supportsInterface}."
      },
      "transferOwnership(address)": {
        "details": "Transfers ownership of the contract to a new account (`newOwner`). Can only be called by the current owner."
      },
      "uri(uint256)": {
        "details": "See {IERC1155MetadataURI-uri}. This implementation returns the same URI for *all* token types. It relies on the token type ID substitution mechanism https://eips.ethereum.org/EIPS/eip-1155#metadata[defined in the EIP]. Clients calling this function must replace the `\\{id\\}` substring with the actual token type ID."
      }
    },
    "version": 1
  },
  "userdoc": {
    "kind": "user",
    "methods": {},
    "version": 1
  }
}